:020000040800F2
:10000000600600206D0100087501000877010008F6
:10001000790100087B0100087D0100080000000054
:100020000000000000000000000000007F01000848
:10003000810100080000000083010008850100081C
:100040008701000887010008870100088701000870
:100050008701000887010008870100088701000860
:100060008701000887010008870100088701000850
:100070008701000887010008870100088701000840
:100080008701000887010008870100088701000830
:100090008701000887010008870100088701000820
:1000A0008701000887010008870100088701000810
:1000B0008701000887010008870100088701000800
:1000C00087010008870100088701000887010008F0
:1000D00087010008870100088701000887010008E0
:1000E00087010008870100088701000800F002F876
:1000F00000F02CF80AA090E8000C82448344AAF196
:100100000107DA4501D100F021F8AFF2090EBAE893
:100110000F0013F0010F18BFFB1A43F0010318473B
:10012000F402000004030000002300240025002640
:10013000103A28BF78C1FBD8520728BF30C148BF4A
:100140000B6070471FB51FBD10B510BD00F031F832
:100150001146FFF7F7FF00F04FF900F04FF803B436
:10016000FFF7F2FF03BC00F057F800000948804792
:1001700009480047FEE7FEE7FEE7FEE7FEE7FEE789
:10018000FEE7FEE7FEE7FEE704480549054A064BA1
:100190007047000031030008ED00000860000020F7
:1001A0006006002060020020600200207047704757
:1001B0007047754600F02CF8AE4605006946534678
:1001C00020F00700854618B020B5FFF7DDFFBDE839
:1001D00020404FF000064FF000074FF000084FF0AE
:1001E000000B21F00701AC46ACE8C009ACE8C0093F
:1001F000ACE8C009ACE8C0098D46704710B50446AC
:10020000AFF300802046BDE81040FFF7A8BF000014
:10021000004870470000002001491820ABBEFEE7EF
:1002200026000200704700000648816941F0100175
:1002300081610549486820F4400040F4401048605E
:100240007047000000100240001001400CB5002271
:10025000264800920192016841F4803101604FF418
:10026000A063016801F4003101910099491C0091DB
:10027000019911B900999942F3D10168890333D5E5
:10028000012101911A490A6842F010020A600A68C5
:1002900022F003020A600A6842F002020A60416822
:1002A000416041684160416841F48061416041685A
:1002B00021F47C114160416841F4E811416001681A
:1002C00041F08071016001688901FCD5416821F02D
:1002D00003014160416841F0020141604168C1F39E
:1002E00081010229FAD10CBD01920CBD001002401F
:1002F000002002400D4B186840F4803018608107E0
:10030000FDD5596840F0807021F4701141F4E0127D
:10031000C3E900028101FDD522F0830020F40050E2
:1003200040F0020040F480605860704700100240C6
:100330000F4810B5016841F00101016041680D4AA4
:100340001140416001680C4A11400160016821F4CC
:1003500080210160416821F4FE0141604FF41F01DA
:100360008160FFF773FF05494FF00060086010BD22
:10037000001002400000FFF8FFFFF6FE08ED00E06D
:100380001A491C4B1B4A8869283240F0040040F48B
:10039000006088611649086820F0040040F00B00F6
:1003A000086041F61F4019681060121DC7201060D8
:1003B000104A6420343210600E4A1832106820F05F
:1003C000100040F0600010600A482030026842F0DF
:1003D00001020260074A41F0010010321860106803
:1003E000C107FDD020F001001060704700100240EE
:1003F00004080140002C014000B5FFF77BFFFFF728
:1004000013FFFFF7BDFF0249C8200860002000BDB0
:10041000342C014024040008000000206006000085
:0404200028010008A7
:04000005080000ED02
:00000001FF
