:020000040800F2
:1000000000000220AD330008E10E0008E30E0008F6
:10001000E50E0008E70E0008E90E000800000000E9
:10002000000000000000000000000000EB0E0008CF
:10003000ED0E000800000000EF0E0008F10E0008B1
:10004000FD330008FD330008FD330008FD330008D0
:10005000FD330008FD330008FD330008FD330008C0
:10006000FD330008FD330008FD330008FD330008B0
:10007000F90E0008FD330008090F0008FD330008E1
:10008000FD330008FD330008FD330008FD33000890
:10009000190F0008FD330008FD330008FD33000888
:1000A000FD330008FD330008FD330008FD33000870
:1000B000290F0008FD330008FD330008FD33000858
:1000C000FD330008FD330008FD330008FD33000850
:1000D000FD330008FD330008FD330008390F000828
:1000E000FD330008FD330008FD330008FD33000830
:1000F000FD330008FD330008FD330008FD33000820
:10010000FD330008FD330008FD330008FD3300080F
:10011000FD330008FD330008FD330008FD330008FF
:10012000FD330008FD330008FD330008FD330008EF
:10013000FD330008FD330008FD330008FD330008DF
:10014000490F0008FD330008FD330008FD330008A7
:10015000FD330008FD330008FD330008FD330008BF
:10016000FD330008FD330008FD330008FD330008AF
:10017000FD330008FD330008FD33000800000000D7
:08018000FD330008FD33000807
:10018800830730B547D0541E002A3ED0CAB2034672
:1001980001E0013C39D303F8012B9D07F9D1032C69
:1001A8002CD9CDB205EB05250F2C05EB054535D926
:1001B800A4F1100222F00F0C03F1100EE6444FEAEE
:1001C800121C1A46156055609560D560103272454C
:1001D800F8D10CF1010214F00C0F03EB021204F039
:1001E8000F0C13D0ACF1040323F0030304331344BE
:1001F80042F8045B9A42FBD10CF003042CB1C9B25B
:100208001C4403F8011B9C42FBD130BD64461346D5
:10021800002CF4D1F9E703461446C0E71A46A44671
:10022800E0E700BF70B50F4B0F4DAB42A3EB0506DF
:1002380007D0B610002455F8043B01349847A6426D
:10024800F9D803F029FA094D094B5E1BAB424FEA76
:10025800A60606D0002455F8043B01349847A64268
:10026800F9D870BDE0360008E0360008E03600082E
:10027800E436000870B54FF0FF0C4CF4E06C1CEA53
:1002880011541DBF1CEA135594EA0C0F95EA0C0F84
:1002980000F0DEF82C4481EA030621EA4C5123EAF7
:1002A8004C5350EA013518BF52EA033541F4801126
:1002B80043F4801338D0A0FB02CE4FF00005E1FBD9
:1002C80002E506F00042E0FB03E54FF00006E1FB23
:1002D80003569CF0000F18BF4EF0010EA4F1FF0466
:1002E800B6F5007F64F5407404D25FEA4E0E6D41A6
:1002F80046EB060642EAC62141EA55514FEAC520B7
:1003080040EA5E504FEACE2EB4F1FD0C88BFBCF532
:10031800E06F1ED8BEF1004F08BF5FEA500E50F1E3
:10032800000041EB045170BD06F0004646EA0101A9
:1003380040EA020081EA0301B4EB5C04C2BFD4EBDB
:100348000C0541EA045170BD41F480114FF0000ED4
:10035800013C00F3AB8014F1360FDEBF002001F042
:10036800004170BDC4F10004203C35DA0C341BDCBC
:1003780004F11404C4F1200500FA05F320FA04F08E
:1003880001FA05F240EA020001F0004221F00041C2
:1003980010EBD37021FA04F642EB06015EEA430E35
:1003A80008BF20EAD37070BDC4F10C04C4F1200565
:1003B80000FA04F320FA05F001FA04F240EA020018
:1003C80001F0004110EBD37041F100015EEA430EE9
:1003D80008BF20EAD37070BDC4F1200500FA05F209
:1003E8004EEA020E20FA04F301FA05F243EA020388
:1003F80021FA04F001F0004121FA04F220EA020097
:1004080000EBD3705EEA430E08BF20EAD37070BDDC
:1004180094F0000F0FD101F00046400041EB0101BC
:1004280011F4801F08BF013CF7D041EA060195F09E
:10043800000F18BF704703F00046520043EB030358
:1004480013F4801F08BF013DF7D043EA0603704745
:1004580094EA0C0F0CEA135518BF95EA0C0F0CD050
:1004680050EA410618BF52EA4306D1D181EA030196
:1004780001F000414FF0000070BD50EA410606BF90
:100488001046194652EA430619D094EA0C0F02D1D5
:1004980050EA013613D195EA0C0F05D152EA03361A
:1004A8001CBF104619460AD181EA030101F0004138
:1004B80041F0FE4141F470014FF0000070BD41F081
:1004C800FE4141F4780170BD81F0004102E000BFB7
:1004D80083F0004330B54FEA41044FEA430594EAFC
:1004E800050F08BF90EA020F1FBF54EA000C55EA37
:1004F800020C7FEA645C7FEA655C00F0E2804FEA08
:100508005454D4EB5555B8BF6D420CDD2C4480EAE9
:10051800020281EA030382EA000083EA010180EA19
:10052800020281EA0303362D88BF30BD11F0004F67
:100538004FEA01314FF4801C4CEA113102D040429D
:1005480061EB410113F0004F4FEA03334CEA1333D8
:1005580002D0524263EB430394EA050F00F0A780F0
:10056800A4F10104D5F1200E0DDB02FA0EFC22FAEB
:1005780005F2801841F1000103FA0EF2801843FADF
:1005880005F359410EE0A5F120050EF1200E012AD0
:1005980003FA0EFC28BF4CF0020C43FA05F3C0180E
:1005A80051EBE37101F0004507D54FF0000EDCF187
:1005B800000C7EEB00006EEB0101B1F5801F1BD330
:1005C800B1F5001F0CD349085FEA30004FEA3C0C34
:1005D80004F101044FEA445212F5800F80F09A802A
:1005E800BCF1004F08BF5FEA500C50F1000041EB2E
:1005F800045141EA050130BD5FEA4C0C404141EB32
:100608000101013C28BFB1F5801FE9D291F0000F2C
:1006180004BF01460020B1FA81F308BF2033A3F1DB
:100628000B03B3F120020CDA0C3208DD02F1140CD2
:10063800C2F10C0201FA0CF021FA02F10CE002F10D
:100648001402D8BFC2F1200C01FA02F120FA0CFC06
:10065800DCBF41EA0C019040E41AA2BF01EB04514F
:10066800294330BD6FEA04041F3C1CDA0C340EDC4D
:1006780004F11404C4F1200220FA04F001FA02F390
:1006880040EA030021FA04F345EA030130BDC4F14E
:100698000C04C4F1200220FA02F001FA04F340EA43
:1006A8000300294630BD21FA04F0294630BD94F0F4
:1006B800000F83F4801306BF81F480110134013DDB
:1006C8004EE77FEA645C18BF7FEA655C29D094EA4C
:1006D800050F08BF90EA020F05D054EA000C04BFCA
:1006E8001946104630BD91EA030F1EBF00210020B5
:1006F80030BD5FEA545C05D14000494128BF41F054
:10070800004130BD14F580043CBF01F5801130BDB7
:1007180001F0004545F0FE4141F470014FF0000042
:1007280030BD7FEA645C1ABF194610467FEA655CF3
:100738001CBF0B46024650EA013406BF52EA033595
:1007480091EA030F41F4002130BD00BF90F0000F83
:1007580004BF0021704730B54FF4806404F13204BF
:100768004FF000054FF0000150E700BF90F0000F78
:1007780004BF0021704730B54FF4806404F132049F
:1007880010F0004548BF40424FF000013EE700BF6F
:1007980042004FEAE2014FEA31014FEA02701FBFFF
:1007A80012F07F4393F07F4F81F06051704732F031
:1007B8007F4208BF704793F07F4F04BF41F4002188
:1007C800704730B54FF4607401F0004521F00041E6
:1007D8001CE700BF50EA010208BF704730B54FF070
:1007E80000050AE050EA010208BF704730B511F071
:1007F800004502D5404261EB41014FF4806404F1A9
:1008080032045FEA915C3FF4D8AE4FF003025FEA2E
:10081800DC0C18BF03325FEADC0C18BF033202EBB2
:10082800DC02C2F1200300FA03FC20FA02F001FA0C
:1008380003FE40EA0E0021FA02F11444BDE600BFAF
:100848004FEA4102B2F1E04324BFB3F5001CDCF1EA
:10085800FE5C0DD901F0004C4FEAC0024CEA507022
:10086800B2F1004F40EB830008BF20F00100704751
:1008780011F0804F21D113F13872BCBF01F0004054
:10088800704741F480114FEA5252C2F11802C2F186
:10089800200C10FA0CF320FA02F018BF40F0010007
:1008A8004FEAC1234FEAD32303FA0CFC40EA0C00B9
:1008B80023FA02F34FEA4303CCE77FEA625307D1F6
:1008C80050EA01331EBF4FF0FE4040F4400070472D
:1008D80001F0004040F0FE4040F40000704700BFC7
:1008E80053B94AB9002908BF00281CBF4FF0FF318F
:1008F8004FF0FF3000F00CB8ADF1080C6DE904CEF4
:1009080002F079FDDDF804E0DDE9022304B0704768
:10091800704700BF10B5054C237833B9044B13B1A9
:100928000448AFF300800123237010BD0C000020A1
:1009380000000000A036000808B5034B1BB10349AE
:100948000348AFF3008008BD00000000100000203D
:10095800A036000872B6FEE700B595B03022002137
:1009680008A8FFF70DFC002303930493059306934F
:1009780007930193204A116C41F080511164126C65
:1009880002F080520192019A02931C4B1A6842F4B9
:1009980080421A601B6803F480430293029B012380
:1009A80008934FF48033099302230E934FF4800287
:1009B8000F9206221092A8221192129304231393E5
:1009C80008A800F049FE98B90F2303930223049363
:1009D800002305934FF4A05306934FF480530793D5
:1009E800052103A801F088F820B915B05DF804FBCB
:1009F800FFF7B0FFFFF7AEFF00380240007000407D
:100A080010B501F003FDFFF7A7FF00F045F800F06F
:100A18004DF900F07BF800F06BF900F0BDF900F03B
:100A280095F8134802F0B8FB124802F0B5FB2422EF
:100A38001149124802F0BDFA012410E09FED102A76
:100A4800DFED101A9FED101AF0EE000A9FED0F0A65
:100A580034200F4B00FB043002F092FB0134042CCD
:100A6800ECDD642001F0FEFC0A4801F03FFDFEE7E2
:100A7800540000202C0000203402002084010020B3
:100A88000020CB450000FA44CDCCCC3D00000C4200
:100A9800580200207C00002086B0002201921A4BE8
:100AA800196B41F002011963196B01F00201019100
:100AB80001990292196B41F001011963196B01F058
:100AC8000101029102990392196B41F0080119631F
:100AD800196B01F00801039103990492196B41F015
:100AE80004011963196B01F004010491049905923A
:100AF8001A6B42F080021A631B6B03F080030593A4
:100B0800059B06B0704700BF0038024008B50D4885
:100B18000D4B03600623436000238360C3604FF4DA
:100B2800003202614FF40012426103764376837605
:100B3800C3760377437700F027FA00B908BDFFF7BB
:100B480009FFFBE7540000200064004008B50D4889
:100B58000D4B03600623436000238360C3604FF49A
:100B6800003202614FF400124261037643768376C5
:100B7800C3760377437700F007FA00B908BDFFF79B
:100B8800E9FEFBE72C0000200068004010B58AB0A1
:100B980000230593069307930893099303683D4A36
:100BA800934204D03C4A934234D00AB010BD3B4A29
:100BB800136801331360012B1FD000240194384BB4
:100BC8001A6B42F008021A631B6B03F008030193C7
:100BD800019B032305930222069208930923099394
:100BE80005A9304801F05EF822462146142001F09C
:100BF800BFFB142001F0CCFBD7E700230093284B60
:100C08001A6C42F000721A641B6C03F000730093B4
:100C1800009BD2E700230293214B1A6C42F08062BA
:100C28001A641B6C03F080630293029B1B4A1368CF
:100C380001331360012B20D000240494184B1A6B45
:100C480042F002021A631B6B03F002030493049B35
:100C5800602305930223069303230893092309932A
:100C680005A9114801F01EF822462146402001F04E
:100C78007FFB402001F08CFB97E700230393084B90
:100C88001A6C42F000721A641B6C03F00073039331
:100C9800039BD1E700640040006800402800002062
:100CA80000380240000C02400004024010B582B037
:100CB800002401940D4B1A6B42F400121A631B6B4B
:100CC80003F400130193019B224621460C2001F0F6
:100CD8004FFB0C2001F05CFB224621460E2001F060
:100CE80047FB0E2001F054FB02B010BD0038024053
:100CF80000B587B0002302930393049305930093F0
:100D0800019315484FF080420260A7224260836039
:100D180042F20F72C2600361836101F04BFD90B92A
:100D28004FF48053029302A90B4801F07CFD68B987
:100D38000023009301936946074801F0F3FD40B989
:100D480007B05DF804FBFFF705FEE9E7FFF702FED1
:100D5800EEE7FFF7FFFDF3E77C0000200368B3F13F
:100D6800804F00D0704700B583B00021019103F592
:100D78000E331A6C42F001021A641B6C03F0010373
:100D88000193019B0A461C2001F0F2FA1C2001F095
:100D9800FFFA03B05DF804FB08B50C480C4B036080
:100DA8000C4B43604FF4805383600023C3604FF4BF
:100DB800806202610C2242618361C36101F0E0FE3E
:100DC80000B908BDFFF7C6FDFBE700BF840100209E
:100DD80000480040A086010030B589B00023039385
:100DE80004930593069307930268354B9A4201D002
:100DF80009B030BD04460025019503F5F8331A6C97
:100E080042F480221A641A6C02F480220192019A38
:100E180002951A6B42F004021A631B6B03F0040379
:100E28000293029B4FF4406303930223049303232A
:100E380006930723079303A9224800F033FF2248AB
:100E4800224B03604FF0006343608560C5604FF438
:100E58008063036145618561C5614FF44033036276
:100E6800456201F07FF828BB174BE3639C63184881
:100E7800184B03604FF000634360402383600023F6
:100E8800C3604FF48062026143618361C3614FF4C0
:100E980040320262436201F065F870B90C4BA363FB
:100EA8009C6300221146272001F062FA272001F0F6
:100EB8006FFA9DE7FFF74EFDD6E7FFF74BFDEDE72D
:100EC8000048004000080240240100202860024039
:100ED800C400002058600240FEE7FEE7FEE7FEE798
:100EE800FEE770477047704708B501F0A9FA08BDDA
:100EF80008B5024801F0FAF808BD00BF2401002037
:100F080008B5024801F0F2F808BD00BFC40000208F
:100F180008B5024800F07BFA08BD00BF5400002065
:100F280008B5024801F02AFB08BD00BF7C0000207C
:100F380008B5024801F0E0FE08BD00BF84010020AA
:100F480008B5024800F063FA08BD00BF2C00002075
:100F580082B0002100910B4B5A6C42F480425A64D3
:100F68005A6C02F480420092009A01911A6C42F085
:100F780080521A641B6C03F080530193019B02B0EA
:100F8800704700BF00380240002800F0A18038B543
:100F9800044690F82030D3B12268136843F0010367
:100FA800136001F059FA054623685A6812F0010FD8
:100FB80010D101F051FA401B0A28F5D9636A43F4AD
:100FC80000336362052384F82030012038BDFFF721
:100FD800DDFDE1E71A6822F002021A6001F03CFA2E
:100FE800054623685A6812F0020F0DD001F034FA52
:100FF800401B0A28F5D9636A43F40033636205236A
:1010080084F820300120E1E7227E012A3DD01A68C9
:1010180022F080021A60637E012B3BD0226813689D
:1010280023F040031360A37E012B39D02268136894
:1010380023F020031360E37E012B37D02268136866
:1010480043F010031360237F012B35D02268136807
:1010580023F008031360637F012B33D022681368E1
:1010680023F004031360A368E2681343226913435F
:10107800626913436268013A21681343CB61002017
:101088006062012384F82030A0E71A6842F08002E9
:101098001A60C0E72268136843F040031360C2E790
:1010A8002268136843F020031360C4E722681368BA
:1010B80023F010031360C6E72268136843F008039F
:1010C8001360C8E72268136843F004031360CAE793
:1010D8000120704790F82030013BDBB2012B05D985
:1010E800436A43F4802343620120704730B5464B7E
:1010F800D3F8002242F00102C3F80022D3F80022FC
:1011080022F47C52C3F80022D3F80022486A42EA4B
:101118000022C3F800224A6902F01F02012000FAE7
:1011280002F2D3F81C026FEA020C20EA0200C3F8AC
:101138001C02CB69C3B9344BD3F80C020CEA00008B
:10114800C3F80C028C884869CD6844EA05444830E5
:1011580043F830408C68088840EA04404C6904F140
:10116800480E03EBCE035860CB69012B1ED08B6968
:10117800002B33D12448D0F804320CEA0303C0F81A
:1011880004320B698BBB2048D0F814320CEA0303F5
:10119800C0F814320B6A012B2ED01B4AD2F8003249
:1011A80023F00103C2F80032002030BD164BD3F8FB
:1011B8000C021043C3F80C028C8848690D6844EA95
:1011C8000544483043F8304088894C698D6840EAC6
:1011D8000540483403EBC4035860C8E70A48D0F810
:1011E80004321343C0F80432CBE70748D0F814326E
:1011F8001343C0F81432CDE70349D1F81C32134326
:10120800C1F81C32C9E700BF0064004070B504464D
:1012180090F82050EDB2012D06D0436A43F4002324
:1012280043620125284670BD022380F820300268F9
:10123800136823F00103136001F00EF906462368D2
:101248005B6813F0010F0CD001F006F9831B0A2B21
:10125800F5D9636A43F400336362052384F82030C8
:10126800E0E700256562DDE790F820C00CF1FF3C5F
:101278005FFA8CFCBCF1010F00F2A58030B451B9C3
:101288000468E46814F0030F10D1436A43F40013B0
:10129800436201207EE00468246914F0030F05D13D
:1012A800436A43F400134362012073E0056801F1C7
:1012B8001B0424012C5904F004049460002C6BD105
:1012C800056801F11B0424012C59640D146004689D
:1012D80001F11B0C4FEA0C1C54F80C4004F00204FA
:1012E800D4600468A444DCF8045015F0080F5BD0FF
:1012F80008241461046801F11B0C04EB0C146468E5
:10130800C4F307249461046804EB0C146468240C87
:101318005461026802EB0112D2F8B8211A7002680F
:1013280002EB0112D2F8B821C2F307225A70026800
:1013380002EB0112D2F8B821C2F307429A70026890
:1013480002EB0112D2F8B821120EDA70026802EB31
:101358000112D2F8BC211A71026802EB0112D2F80C
:10136800BC21C2F307225A71026802EB0112D2F8BB
:10137800BC21C2F307429A71026802EB0112D2F84B
:10138800BC21120EDA71C1B90268D36843F0200398
:10139800D360002030BC7047056801F11B042401AC
:1013A8002C59E408546092E701F11B0504EB05147D
:1013B800646804F00F0414619CE70268136943F041
:1013C80020031361E5E7436A43F480234362012065
:1013D800704790F82030013BDBB2012B05D9436AF6
:1013E80043F48023436201207047026853690B432A
:1013F80053610020704770477047704770477047C7
:1014080070477047704770477047704770472DE9BD
:10141800F84F054603685C69D3F804809F68D3F8E1
:101428000CB0D3F810A0D3F8189014F001063BD0F4
:1014380017F0010616D001229A6017F0020F08D1A2
:1014480017F0040F0CD117F0080606D04FF4805699
:1014580008E0FFF7D0FF002604E0FFF7CFFF01E028
:101468004FF4006617F4807F0DD02B684FF480721C
:101478009A6017F4007F40F0868017F4806F00F0C0
:10148800868046F4005617F4803F0DD02B684FF441
:1014980080329A6017F4003F40F0838017F4802F61
:1014A80000F0838046F4004614F0080F07D01BF0C4
:1014B800100F04D046F400762B681022DA6014F07E
:1014C800040F02D01BF0080F79D114F0020F04D0DA
:1014D8002B68DB6813F0030F78D114F0400F07D0A6
:1014E8001AF0100F04D046F480662B6810221A6197
:1014F80014F0200F02D01AF0080F6BD114F0100F5F
:1015080004D02B681B6913F0030F6AD114F4003F51
:1015180002D018F0100F68D114F4803F02D018F0F0
:10152800080F69D114F4004F7AD018F0040F74D062
:1015380014F4807F04D019F0010F01D046F00106A1
:1015480014F4007F04D019F0020F01D046F002060F
:1015580014F4806F04D019F0040F01D046F004068B
:1015680014F4006F59D019F0700956D0B9F1400F32
:1015780065D058D8B9F1200F5ED0B9F1300F42D1FB
:1015880046F0200644E02846FFF736FF7BE717F4CD
:10159800006F02D046F4804675E72846FFF72FFF14
:1015A80071E72846FFF729FF7EE717F4002F02D0DE
:1015B80046F4803678E72846FFF722FF74E72B6861
:1015C8000822DA602846FFF71CFF7EE7284601F06C
:1015D80011FE82E72B6808221A612846FFF713FFDD
:1015E8008CE72846FFF70EFF90E72B6810225A6019
:1015F8002846FFF709FF8FE72B6808225A6028461C
:10160800FFF703FF8EE7B9F1100F01D146F0080686
:101618002A68936923F0700393612B6804225A6047
:101628009EB9BDE8F88FB9F1500F0BD0B9F1600F32
:10163800EED146F48076EBE746F01006E8E746F090
:101648004006E5E746F08006E2E76B6A33436B62E3
:101658002846FFF7DBFEE4E7002800F0E08170B5DC
:1016680082B00446036813F0010F3BD09F4B9B6880
:1016780003F00C03042B2CD09C4B9B6803F00C0349
:10168800082B21D06368B3F5803F4FD0B3F5A02F66
:1016980052D0964B1A6822F480321A601A6822F4E3
:1016A80080221A606368002B50D000F0D5FE0546F2
:1016B8008E4B1B6813F4003F14D100F0CDFE401B85
:1016C8006428F5D90320B1E1884B5B6813F4800FD7
:1016D800D8D0864B1B6813F4003F03D06368002BF7
:1016E80000F09F81236813F0020F54D07F4B9B6852
:1016F80013F00C0F3ED07D4B9B6803F00C03082BB6
:1017080033D0E368002B68D0794B01221A6000F0CF
:10171800A3FE0546754B1B6813F0020F54D100F069
:101728009BFE401B0228F5D903207FE16F4A13680E
:1017380043F480331360B5E76C4B1A6842F4802297
:101748001A601A6842F480321A60ABE700F084FE2F
:101758000546664B1B6813F4003FC3D000F07CFEBF
:10176800401B6428F5D9032060E1604B5B6813F4E3
:10177800800FC6D15D4B1B6813F0020F03D0E368DE
:10178800012B40F05081594A136823F0F80321696E
:1017980043EAC1031360236813F0080F42D063695A
:1017A8006BB3534B0122C3F8802E00F055FE05465B
:1017B8004E4B5B6F13F0020F34D100F04DFE401B0F
:1017C8000228F5D9032031E1484A136823F0F803C9
:1017D800216943EAC1031360DDE7454B00221A6023
:1017E80000F03AFE0546414B1B6813F0020FD2D0B9
:1017F80000F032FE401B0228F5D9032016E13C4BCD
:101808000022C3F8802E00F027FE0546374B5B6F99
:1018180013F0020F06D000F01FFE401B0228F5D976
:10182800032003E1236813F0040F77D02F4B1B6CC0
:1018380013F0805F33D1002301932C4B1A6C42F0D4
:1018480080521A641B6C03F080530193019B01259D
:10185800284B1B6813F4807F23D0A368012B34D056
:10186800052B38D0214B1A6F22F001021A671A6F24
:1018780022F004021A67A368002B3DD000F0ECFDAB
:1018880006461A4B1B6F13F0020F46D100F0E4FD19
:10189800801B41F288339842F3D90320C6E0002523
:1018A800D6E7144A136843F48073136000F0D4FD3C
:1018B8000646104B1B6813F4807FCED100F0CCFD98
:1018C800801B0228F5D90320B0E0084A136F43F0C3
:1018D80001031367CFE7054B1A6F42F004021A673A
:1018E8001A6F42F001021A67C5E700BF00380240CC
:1018F800000047420070004000F0AEFD0646524B23
:101908001B6F13F0020F08D000F0A6FD801B41F2F8
:1019180088339842F3D9032088E0EDB9A369002BF6
:1019280000F08380484A926802F00C02082A51D0DD
:10193800022B17D0454B00221A6600F08DFD044695
:10194800414B1B6813F0007F42D000F085FD001B5F
:101958000228F5D9032069E03B4A136C23F0805331
:101968001364DBE7394B00221A6600F075FD054663
:10197800354B1B6813F0007F06D000F06DFD401B4F
:101988000228F5D9032051E0E369226A1343626A09
:1019980043EA8213A26A5208013A43EA0243E26A1E
:1019A80043EA0263284A5360284B01221A6600F072
:1019B80053FD0446244B1B6813F0007F06D100F04A
:1019C8004BFD001B0228F5D903202FE000202DE055
:1019D80000202BE0012B2BD01B4B5B6803F480010C
:1019E800E269914226D103F03F02216A8A4223D15B
:1019F800616A47F6C0721A40B2EB811F1ED103F428
:101A08004031A26A5208013AB1EB024F18D103F0F3
:101A18007063E26AB3EB026F14D1002006E0012084
:101A28007047012002E0012000E0002002B070BDF4
:101A38000120FBE70120F9E70120F7E70120F5E79E
:101A48000120F3E70120F1E7003802400000474297
:101A580008B5264B9B6803F00C03042B41D0082BD8
:101A680041D1224B5A6802F03F025B6813F4800FA1
:101A780012D01E4B5968C1F388111D480023A1FBE1
:101A88000001FEF72DFF194B5B68C3F301430133D7
:101A98005B00B0FBF3F027E0144B5868C0F38810E4
:101AA8004FEA401CBCEB000C6EEB0E0E4FEA8E1397
:101AB80043EA9C634FEA8C11B1EB0C0163EB0E0314
:101AC800DB0043EA5173C90011EB000C43F100033A
:101AD800990200234FEA8C2041EA9C51FEF700FF4F
:101AE800D1E7034800E0034808BD00BF00380240C2
:101AF800001BB7000024F400002800F09B8070B59C
:101B08000D4604464F4B1B6803F007038B4208D26F
:101B1800CBB24C4A1370136803F007038B4240F0B2
:101B28008B80236813F0020F17D013F0040F04D032
:101B3800454A936843F4E0539360236813F0080F11
:101B480004D0414A936843F4604393603E4A9368E3
:101B580023F0F003A1680B439360236813F0010F8F
:101B680032D06368012B21D09A1E012A25D9364A22
:101B7800126812F0020F61D033498A6822F003021A
:101B880013438B6000F068FC06462F4B9B6803F0FC
:101B98000C036268B3EB820F16D000F05DFC801B6B
:101BA80041F288339842F0D9032042E0264A12686D
:101BB80012F4003FE0D101203BE0234A126812F002
:101BC800007FD9D1012034E01E4B1B6803F00703C6
:101BD800AB4207D9EAB21B4B1A701B6803F0070324
:101BE800AB422DD1236813F0040F06D0164A936830
:101BF80023F4E053E1680B439360236813F0080F64
:101C080007D0114A936823F46043216943EAC1036A
:101C18009360FFF71DFF0C4B9B68C3F303130B4A3C
:101C2800D35CD8400A4B18600A4B186800F0C8FB10
:101C3800002070BD012070470120FAE70120F8E775
:101C48000120F6E7003C024000380240C836000890
:101C58000800002004000020014B1868704700BFEE
:101C68000800002008B5FFF7F7FF044B9B68C3F393
:101C78008223034AD35CD84008BD00BF0038024025
:101C8800C036000808B5FFF7E7FF044B9B68C3F3AD
:101C98004233034AD35CD84008BD00BF0038024035
:101CA800C036000800230F2B00F2E98070B582B01F
:101CB80065E085684FEA430E032404FA0EF425EA2A
:101CC8000405CC6804FA0EF42C438460446824EAC2
:101CD80002044A68C2F300129A40224342605CE060
:101CE800DC08083450F8242003F00705AD004FF055
:101CF8000F0E0EFA05FE22EA0E0E0A69AA4042EA03
:101D08000E0240F824205CE0072200E0002202FADC
:101D18000EF22A4302345A4D45F82420594A946851
:101D28006FEA0C0224EA0C054E6816F4801F01D0F5
:101D38004CEA0405534CA560E46802EA04054E68C1
:101D480016F4001F01D04CEA04054E4CE5606468A7
:101D580002EA04054E6816F4003F01D04CEA040577
:101D6800484C6560246822404D6815F4803F01D0D6
:101D78004CEA0402434C226001330F2B7DD8012228
:101D88009A400C6804EA020C32EA0404F4D14C6864
:101D980004F00304013C012C8BD94A6802F00302C9
:101DA800032A09D0C4685D000322AA4024EA020479
:101DB8008A68AA402243C2604A6802F00302022AE3
:101DC8008ED004684FEA430E032202FA0EF224EA88
:101DD80002044A6802F0030202FA0EF22243026089
:101DE8004A6812F4403FC7D000220192264A546C38
:101DF80044F480445464526C02F480420192019A83
:101E08009C08A51C1E4A52F8255003F0030E4FEA01
:101E18008E0E0F2202FA0EF225EA02051B4A9042A4
:101E28003FF474AF02F5806290421AD002F58062E6
:101E3800904218D002F58062904216D002F5806276
:101E4800904214D002F58062904212D002F580626E
:101E5800904210D002F5806290423FF455AF0822BC
:101E680055E7012253E7022251E703224FE70422F4
:101E78004DE705224BE7062249E702B070BD7047DF
:101E880000380140003C0140003802400000024098
:101E980010B40368D9B210390C4AA2FB01421209E6
:101EA8000B4CA25CC2655F2909D923F47F7323F028
:101EB800030304338365806D5DF8044B704723F496
:101EC8007F7323F003038365F5E700BFABAAAAAAD3
:101ED800B8360008836A826992B9012B0AD0022BAE
:101EE80002D00BB100207047C36A13F0807F28D15D
:101EF80000207047C36AB3F1C07F24D00020704728
:101F0800B2F5005F09D0022B25D9032B25D1C36A6E
:101F180013F0807F23D100207047032B03D8DFE81C
:101F280003F01404140A00207047C36A13F0807F7A
:101F38000DD100207047C36AB3F1C07F09D00020DB
:101F48007047012070470120704701207047012029
:101F5800704701207047012070470020704701201A
:101F68007047000070B5044600F076FA002C5BD08C
:101F78000546022384F83530002384F8343022687B
:101F8800136823F00103136023681A6812F0010F25
:101F98000AD000F061FA431B052BF5D920236365AD
:101FA800032084F8350070BD1A6820491140626822
:101FB800A0680243E0680243206902436069024363
:101FC800A0690243E0690243206A02430A43616A46
:101FD80004291ED01A602668756925F00705636A0A
:101FE8001D43042B07D1A36A1D43E36A1BB1204696
:101FF800FFF770FF90B975612046FFF749FFE26D62
:102008003F239340836000206065012384F83530C6
:10201800C9E7E16A206B01430A43DBE740236365B4
:10202800012084F83500BEE70120BCE73F8010F0AE
:1020380070B50446866D00F00FFA94F83530DBB2BF
:10204800022B06D080236365002384F834300120F6
:1020580070BD05462268136823F0160313602268D2
:10206800536923F080035361236CE3B1226813683A
:1020780023F0080313602268136823F00103136038
:1020880023681B6813F0010F11D000F0E5F9431B1A
:10209800052BF5D920236365032084F83500002338
:1020A80084F83430D4E7A36C002BDFD1E3E7E26D8A
:1020B8003F239340B360012384F83530002084F82F
:1020C8003400C5E790F83530DBB2022B03D080230B
:1020D800436501207047052380F83530026813688E
:1020E80023F001031360002070470000F0B583B0AF
:1020F800044600230193724B1D68724BA3FB053500
:10210800AD0A876D3E68C26D08239340334210D0F4
:1021180003681A6812F0040F0BD01A6822F0040240
:102128001A60C26D08239340BB60436D43F00103FE
:102138004365E26D01239340334209D02268526916
:1021480012F0800F04D0BB60636D43F00203636537
:10215800E26D04239340334209D02268126812F0DA
:10216800020F04D0BB60636D43F004036365E26D46
:1021780010239340334224D02268126812F0080FCB
:102188001FD0BB6023681A6812F4802F0DD01B681B
:1021980013F4002F04D1236C9BB12046984710E01C
:1021A800A36C73B1204698470BE01A6812F4807F3D
:1021B80003D11A6822F008021A60236C0BB120467A
:1021C8009847E26D20239340334255D02268126825
:1021D80012F0100F50D0BB6094F83530DBB2052BED
:1021E8000ED023681A6812F4802F33D01B6813F4BA
:1021F800002F2AD1636C002B3ED0204698473BE045
:102208002268136823F0160313602268536923F0C9
:1022180080035361236CA3B12268136823F0080379
:102228001360E26D3F239340BB60012384F835308F
:10223800002384F83430236D002B3FD02046984784
:102248003CE0A36C002BE7D1EBE7E36BA3B120469E
:10225800984711E01A6812F4807F09D11A6822F0B1
:1022680010021A60012384F83530002384F83430D2
:10227800E36B0BB120469847636DFBB1636D13F0B8
:10228800010F17D0052384F835302268136823F02E
:1022980001031360019B01330193AB4204D8236807
:1022A8001B6813F0010FF5D1012384F835300023A2
:1022B80084F83430E36C0BB12046984703B0F0BD86
:1022C80008000020B5814E1B002807DB00F01F0224
:1022D800400901239340024A42F82030704700BF6A
:1022E80000E100E0002808DB0901C9B200F1604004
:1022F80000F5614080F80013704700F00F000901F5
:10230800C9B2014B1954704714ED00E000B500F054
:102318000700C0F1070CBCF1040F28BF4FF0040CF4
:10232800031D062B0FD9C31E4FF0FF3E0EFA0CF00B
:1023380021EA000199400EFA03FE22EA0E0241EA60
:1023480002005DF804FB0023EEE70000074AD368AB
:1023580023F4E0631B041B0C000200F4E060034359
:1023680043F0BF6343F40033D360704700ED00E0EF
:1023780010B50446054BD868C0F30220FFF7C6FF26
:1023880001462046FFF7AEFF10BD00BF00ED00E09C
:1023980008B5FFF799FF08BD0138B0F1807F0BD26F
:1023A8004FF0E0235861054AF02182F823100020FD
:1023B800986107221A6170470120704700ED00E01C
:1023C80010B504460E4B1A784FF47A73B3FBF2F348
:1023D8000C4A1068B0FBF3F0FFF7DEFF68B90F2C6A
:1023E80001D901200AE0002221464FF0FF30FFF713
:1023F800BFFF054B1C60002000E0012010BD00BF9E
:1024080000000020080000200400002008B50B4B45
:102418001A6842F400721A601A6842F480621A60FC
:102428001A6842F480721A600320FFF78FFF0F20AA
:10243800FFF7C6FFFEF78CFD002008BD003C0240F8
:10244800034A1168034B1B780B441360704700BFA5
:10245800CC01002000000020014B1868704700BF25
:10246800CC01002038B50446FFF7F6FF0546B4F165
:10247800FF3F02D0044B1B781C44FFF7EDFF401BC5
:10248800A042FAD338BD00BF0000002010B4036A90
:10249800046A24F001040462846924F0F00C4CEA14
:1024A800021223F00A030B43826103625DF8044BB6
:1024B800704710B4036A046A24F010040462846943
:1024C80024F4704C4CEA023223F0A00343EA0113CF
:1024D800826103625DF8044B7047836823F07003E0
:1024E8000B4343F0070383607047000090F83D30CA
:1024F800DBB2012B37D1022380F83D300268D36864
:1025080043F00103D3600368194A934220D0B3F122
:10251800804F1DD0A2F57C42934219D002F580620B
:10252800934215D002F58062934211D002F57842A9
:1025380093420DD002F57052934209D0A2F594321D
:10254800934205D01A6842F001021A6000207047D1
:102558009A6802F00702062A07D01A6842F00102B8
:102568001A6000207047012070470020704700BFA4
:1025780000000140704770477047704770B50446C7
:102588000368DE681D6915F0020F10D016F0020FFF
:102598000DD06FF002021A610123037703689B696B
:1025A80013F0030F5ED0FFF7E6FF0023237715F043
:1025B800040F12D016F0040F0FD023686FF0040236
:1025C8001A610223237723689B6913F4407F4FD055
:1025D8002046FFF7D0FF0023237715F0080F12D00D
:1025E80016F0080F0FD023686FF008021A61042351
:1025F80023772368DB6913F0030F40D02046FFF7E9
:10260800BAFF0023237715F0100F12D016F0100F21
:102618000FD023686FF010021A610823237723680C
:10262800DB6913F4407F31D02046FFF7A4FF002375
:10263800237715F0010F02D016F0010F2DD115F0F8
:10264800800F02D016F0800F2FD115F0400F02D066
:1026580016F0400F31D115F0200F02D016F0200FE0
:1026680033D170BDFFF786FF2046FFF785FF9CE753
:102678002046FFF77FFF2046FFF77EFFABE72046A7
:10268800FFF778FF2046FFF777FFBAE72046FFF706
:1026980071FF2046FFF770FFC9E723686FF001025A
:1026A8001A61204600F014FEC9E723686FF0800223
:1026B8001A61204600F07DF9C7E723686FF04002F1
:1026C8001A612046FFF759FFC5E723686FF020021B
:1026D8001A61204600F06CF9C3E700000368344A29
:1026E800904212D0B0F1804F0FD0A2F57C429042B8
:1026F8000BD002F58062904207D002F580629042CA
:1027080003D002F57842904203D123F070034A685F
:102718001343274A90422AD0B0F1804F27D0A2F520
:102728007C42904223D002F5806290421FD002F58D
:10273800806290421BD002F57842904217D002F591
:102748007052904213D002F5806290420FD002F589
:10275800806290420BD0A2F59832904207D002F5E1
:102768008062904203D002F58062904203D123F444
:102778004073CA68134323F080034A691343036014
:102788008B68C3620B688362094B984203D003F5D8
:102798008063984201D10B69036301234361036994
:1027A80013F0010F03D0036923F00103036170479D
:1027B8000000014040B310B5044690F83D30F3B135
:1027C800022384F83D30214651F8040BFFF786FFB9
:1027D800012384F8463084F83E3084F83F3084F88A
:1027E800403084F8413084F8423084F8433084F82B
:1027F800443084F8453084F83D30002010BD80F81E
:102808003C30FEF7ABFADBE70120704710B4846870
:1028180024F47F4C42EA03220A4342EA0C02826013
:102828005DF8044B704790F83C30012B78D010B518
:102838000446012380F83C30022380F83D300268CA
:10284800936823F47F4323F0770393600B68602B2E
:102858004CD029D8402B54D00CD9502B22D1CA683F
:1028680049680068FFF712FE50212068FFF735FE1F
:10287800002005E0202B0DD009D9302B0AD00120EB
:10288800012384F83D30002384F83C3010BD0BB19F
:10289800102B05D119462068FFF71FFE0020EFE72F
:1028A8000120EDE70120EBE7B3F5805F34D0B3F505
:1028B800005F0CD1CB684A6889680068FFF7A6FFFB
:1028C8002268936843F4804393600020D8E7702B14
:1028D80024D1CB684A6889680068FFF797FF2268A7
:1028E800936843F0770393600020C9E7CA68496892
:1028F8000068FFF7DEFD60212068FFF7EEFD00208D
:10290800BEE7CA6849680068FFF7C0FD4021206833
:10291800FFF7E3FD0020B3E70020B1E70120AFE7B0
:102928000220704790F83C20012A3DD010B403469D
:10293800012280F83C20022280F83D20026850687D
:10294800946820F0700C086840EA0C0050601A681F
:10295800164882421AD0B2F1804F17D0A0F57C40B9
:10296800824213D000F5806082420FD000F580606B
:1029780082420BD000F57840824207D000F57050B3
:10298800824203D0A0F59430824204D124F080041E
:10299800496821439160012283F83D20002083F893
:1029A8003C005DF8044B704702207047000001406E
:1029B80070477047026802F10C0353E8003F23F4A4
:1029C80090730C3242E800310029F3D1026802F119
:1029D800140353E8003F23F00103143242E80031A6
:1029E8000029F3D1036B012B05D0202380F8423056
:1029F800002303637047026802F10C0353E8003FA9
:102A080023F010030C3242E800310029F3D1ECE73F
:102A180090F84130DBB2212B01D002207047836847
:102A2800B3F5805F17D0036A5A1C02621A780368EC
:102A38005A60C38C9BB2013B9BB2C3844BB90268FA
:102A4800D36823F08003D3600268D36843F040035F
:102A5800D360002070470369002BE4D1036A1B8808
:102A68000268C3F308035360036A02330362E0E7B2
:102A780010B504460268136923F44053C1680B4338
:102A88001361836802691A4343691A43C3691A4385
:102A98000168CB6823F4164323F00C031343CB607F
:102AA8000268536923F4407381690B4353610368D7
:102AB800314A934206D002F58062934202D0FFF772
:102AC800D1F801E0FFF7DEF8E369B3F5004F29D04C
:102AD8000021031849411B1841F10001C90041EACE
:102AE8005371DB00181863684FEA83024FEA937347
:102AF80041F10001FDF7F4FE204AA2FB003149092B
:102B0800642303FB11031B013233A2FB03235B097C
:102B180003F0F00202EB011203F00F0321681344E3
:102B28008B6010BD0023021843EB0301121841F11A
:102B38000001C90041EA5271D200101841F10001A8
:102B4800626892185B41FDF7CBFE0C4AA2FB00318C
:102B58004909642303FB1103DB003233A2FB03237F
:102B68005B095A0002F4F87202EB011203F0070342
:102B7800216813448B60D4E7001001401F85EB5196
:102B880060B310B5044690F8413013B3242384F899
:102B980041302268D36823F40053D3602046FFF7FE
:102BA80067FF2268136923F490431361226853690D
:102BB80023F02A0353612268D36843F40053D36097
:102BC80000206064202384F8413084F84230606338
:102BD80010BD80F84030FEF7FFF8D7E701207047B6
:102BE800704708B50168CA6822F04002CA6020220E
:102BF80080F84120FFF7F4FF002008BD70477047B8
:102C080008B5806B0023C385C384FFF7F8FF08BDB0
:102C180090F84230DBB2222B69D18368B3F5805F2C
:102C28004FD0826AB3F5805F04D0002B56D1036978
:102C3800002B53D103685B681370836A0133836286
:102C4800C38D9BB2013B9BB2C385002B51D100B50C
:102C580083B00268D36823F02003D3600268D36886
:102C680023F48073D3600268536923F0010353612E
:102C7800202380F8423000234363036B012B33D1B8
:102C880000230363026802F10C0353E8003F23F0BA
:102C980010030C3242E800310029F3D103681A68A6
:102CA80012F0100F06D0002201921A6801925B6898
:102CB8000193019B818D00F013FA002003B05DF8A9
:102CC80004FB0269002AACD1826A03685B68C3F31B
:102CD80008031380836A02338362B1E703685B6881
:102CE80003F07F031370A8E7FFF788FFE5E70220EA
:102CF800704700207047000010B582B00446026893
:102D08001368D068516913F00F0F09D113F0200F21
:102D18000CD010F0200F09D02046FFF779FF16E0FD
:102D280011F0010115D110F4907F12D1216B012906
:102D380079D013F0800F03D010F0800F40F0148189
:102D480013F0400F03D010F0400F40F0118102B093
:102D580010BD13F0010F06D010F4807F03D0626C11
:102D680042F00102626413F0040F04D019B1626CDE
:102D780042F00202626413F0020F04D019B1626CCF
:102D880042F00402626413F0080F07D010F0200F1D
:102D980000D119B1626C42F008026264626C002AC8
:102DA800D5D013F0200F02D010F0200F29D12368BE
:102DB8005B6903F04003626C12F0080F00D163B343
:102DC8002046FFF7F7FD23685B6913F0400F20D01A
:102DD800226802F1140353E8003F23F04003143241
:102DE80042E800310029F3D1E36B73B1624A1A65F6
:102DF800E06BFFF767F90028A9D0E06B036D9847EF
:102E0800A5E72046FFF704FFD1E72046FFF7F7FEC6
:102E18009DE72046FFF7F3FE99E72046FFF7EFFE10
:102E28000023636493E713F0100F82D010F0100FA3
:102E38003FF47FAF00230193136801935368019314
:102E4800019B536913F0400F52D0E26B13685B6823
:102E58009BB2002B3FF47BAFA18D99427FF677AFF1
:102E6800E385D369B3F5807F37D0226802F10C037C
:102E780053E8003F23F480730C3242E80031002904
:102E8800F3D1226802F1140353E8003F23F0010351
:102E9800143242E800310029F3D1226802F1140308
:102EA80053E8003F23F04003143242E80031002980
:102EB800F3D1202384F8423000232363226802F1EF
:102EC8000C0353E8003F23F010030C3242E80031B2
:102ED8000029F3D1E06BFFF7ABF802236363A18D00
:102EE800E38D9BB2C91A89B2204600F0F9F82EE7A3
:102EF800A18DE38D9BB2C91A89B2E38D9BB2002BD9
:102F08003FF425AF00293FF422AF226802F10C03F9
:102F180053E8003F23F490730C3242E80030002855
:102F2800F3D1226802F1140353E8003F23F00103B0
:102F3800143242E800300028F3D1202384F84230CC
:102F480000232363226802F10C0353E8003F23F0B7
:102F580010030C3242E800300028F3D102236363E7
:102F6800204600F0BDF8F2E62046FFF751FDEEE6F8
:102F78002046FFF736FEEAE6092C000881628285C2
:102F8800C28500234364222380F84230036923B1B9
:102F98000268D36843F48073D3600268536943F0CE
:102FA800010353610268D36843F02003D360002013
:102FB800704790F84230DBB2202B29D110B582B08F
:102FC800044639B312B9012002B010BD01230363CE
:102FD80000234363FFF7D2FF0028F5D1236B012BB1
:102FE80001D00120F0E70023019323681A680192B9
:102FF8005B680193019B226802F10C0353E8003FD0
:1030080043F010030C3242E800310029F3D1DBE72A
:10301800022070470120D7E7034AD2F8883043F4EA
:103028007003C2F88830704700ED00E022494B6A0F
:103038005B4207EE903AF8EEE77A9FED206A67EE7A
:10304800867A1F4AC2ED007A8B6A5B4206EE903A96
:10305800F8EEE66A66EE866AC2ED016ACB6A5B4202
:1030680007EE103AB8EEC77A27EE067A82ED027AB2
:10307800B1EE676A36EE666ADFED125A27EE257AF8
:1030880036EE476A104B83ED006A36EEE76A36EE95
:10309800476A0E4B83ED006A37EEE66A36EE476AFA
:1030A8000B4B83ED006A77EEA67A77EEC77A094B69
:1030B800C3ED007A704700BFF80100207B142E3F53
:1030C800E0010020C2B8B240DC010020D801002095
:1030D800D4010020D001002008B5FFF7A7FF08BDE4
:1030E800244B834200D0704770B523490E784A7844
:1030F80046EA0226C6F30A06204B5E628878450136
:1031080045EAD205C5F30A059D62CA78920042EAEB
:1031180090120C7942EA8422C2F30A02DA6291F828
:1031280005C04FEACC1040EA5400C0F30A00186307
:103138000C7C91F811E044EA0E245C634FEA9C1E73
:1031480083F838E0CCF3011C83F839C0A6F5806613
:103158005E62A5F580659D62A2F58062DA62A0F5DF
:1031680080601863A4F580645C6324220148FFF73B
:1031780020FF70BD8401002034020020F8010020E7
:1031880080ED000AC0ED010A80ED021AC0ED031AB5
:1031980080ED042A7047000030B58BB000230593FA
:1031A80006930122079200930193029303930493D9
:1031B80008920E2409940D4D69462846FDF78AFFAA
:1031C8002846FEF723F80594094C69462046FDF782
:1031D80081FF2046FEF71AF802212846FEF7F9F883
:1031E80002212046FEF7F5F80BB030BD5400002050
:1031F8002C00002010B58AB0002401AB03AA214698
:10320800FEF732F8039BA3F50072052A28D8DCB232
:103218009DF804109DF805C04CEA012C294904EBDF
:10322800440E4FEA8E0001EB000E21F800C09DF815
:1032380006C09DF8070040EA0C20AEF804009DF88F
:1032480008C09DF8090040EA0C20AEF806009DF879
:103258000AE004EB440C4FEA8C00014481F808E0D2
:10326800082A22D89DF804209DF80500DBB240EA20
:103278000220154903EB430C4FEA8C020A44908064
:103288009DF806C09DF8070040EA0C20D0809DF804
:1032980008C09DF8090040EA0C2010819DF80A003A
:1032A80003EB43039A0011448872084B1C60631EA9
:1032B800DBB2032B01D90AB010BD204600F034F868
:1032C800F9E700BFCC030020600300205C03002066
:1032D80008B50368B3F1804F00D008BDFFF7FCFEC6
:1032E800FBE7000000EB40020B4B33F9223007EEFE
:1032F800903AF8EEE77A094B03EB800393ED007AF6
:1033080077EEC77A064B03EB800393ED007A77EEEE
:10331800277AC3ED007A7047CC03002028040020E8
:103328003C0400200000000070B50446FFF7DAFFF7
:10333800A600174B03EB840393ED007A154D05EBBC
:103348008405D5ED007A77EE677A17EE900AFDF7D7
:103358001FFA0022104BFCF78DFF0BA3D3E90023C3
:10336800FCF788FFFDF76CFA0C4B3344186004EB4C
:1033780044040B4B33F9243007EE903AF8EEE77A21
:10338800C5ED007A70BD00BF771F575555D564400D
:103398003C040020280400200080A63F14040020DC
:1033A800CC030020DFF834D0FFF736FE0C480D4977
:1033B8000D4A002302E0D458C4500433C4188C4288
:1033C800F9D30A4A0A4C002301E013600432A242EE
:1033D800FBD3FCF727FFFDF713FB70470000022023
:1033E800000000200C000020E83600080C00002037
:1033F80050040020FEE72DE9F04786468C46084633
:10340800089E154674461946002B40F0C280854236
:10341800B2FA82F245D94AB1C2F1200300FA02FC9D
:103428002EFA03F3954043EA0C0C94404FEA154EEC
:10343800A8B2BCFBFEF8230C0EFB18CC08FB00F965
:1034480043EA0C43994528D9EB1808F1FF3704D211
:10345800994502D9A8F102072B44A3EB0903A4B2AA
:10346800B3FBFEFC0EFB1C330CFB00F044EA0344E8
:10347800A04214D92C190CF1FF3304D2A04202D96E
:10348800ACF102032C44241A43EA07401EB1D4408D
:10349800002334607360BDE8F0874746DDE7634684
:1034A800F1E792BB431B01214FEA154EAFB2B3FBC4
:1034B800FEFC200C0EFB1C330CFB07F840EA034310
:1034C800984562D9EB180CF1FF3004D2984502D91F
:1034D800ACF102002B44A3EB0803A4B2B3FBFEFC3F
:1034E8000EFB1C330CFB07F744EA0344A7424ED9F2
:1034F8002C190CF1FF3304D2A74202D9ACF1020314
:103508002C44E41B43EA0040C0E7C2F1200320FA40
:1035180003F1954090402EFA03F303434FEA154E0A
:10352800AFB2B1FBFEFC0EFB1C10190C0CFB07F82C
:1035380041EA0041884504FA02F422D969180CF1DD
:10354800FF3004D2884502D9ACF102002944A1EB2E
:1035580008019BB2B1FBFEFC0EFB1C110CFB07F72C
:1035680043EA01439F420ED9EB180CF1FF3104D214
:103578009F4202D9ACF102012B44DB1B41EA004116
:1035880092E76046E3E76146F7E76046A3E76346EC
:10359800B7E7834206D916B9002108467BE7C6E992
:1035A80000E0F9E7B3FA83F78FB9834201D3724594
:1035B80008D8BEEB020460EB030301209C461EB949
:1035C800002168E73846FAE7C6E9004CF8E7C7F192
:1035D800200CBB4022FA0CF41C432EFA0CF120FA02
:1035E8000CF3B84001434FEA14490EFA07F5B3FB50
:1035F800F9F81FFA84FE09FB18300B0C08FB0EFAC9
:1036080043EA00439A4502FA07F240D9E31808F161
:10361800FF3004D29A4502D9A8F102002344A3EB53
:103628000A0389B2B3FBF9F809FB183308FB0EFE4D
:1036380041EA03418E452CD9611808F1FF3304D2C1
:103648008E4502D9A8F10203214443EA0040A0FBB9
:103658000298A1EB0E014145CE46434602D306D15E
:103668004D4504D2B9EB020E68EB04030138002E75
:10367800A6D0B5EB0E0261EB030101FA0CFC22FAAD
:1036880007F34CEA0303F940C6E9003198E74046DE
:10369800C5E74346D9E70000F8B500BFF8BC08BC49
:1036A8009E467047F8B500BFF8BC08BC9E467047F8
:1036B80000061016000610160000000001020304A0
:1036C80000000000000000000102030406070809CA
:0836D80026FDFF7F0100000048
:0436E0004109000894
:0436E4001D090008B4
:0C36E80001000000100000000024F400AD
:04000005080033AD0F
:00000001FF
