:020000040800F2
:1000000000500020492D00080116000803160008C2
:100010000516000807160008091600080000000071
:100020000000000000000000000000000B160008A7
:100030000D160008000000000F1600081116000839
:10004000912D0008912D0008912D0008912D000898
:10005000912D0008912D0008912D0008912D000888
:10006000912D0008912D0008912D0008912D000878
:10007000912D0008912D0008912D0008912D000868
:10008000912D0008912D0008912D0008912D000858
:10009000912D0008912D0008912D0008912D000848
:1000A000912D0008912D0008912D0008912D000838
:1000B0001916000829160008912D0008912D000836
:1000C000912D0008912D0008912D0008912D000818
:1000D000912D0008912D0008912D0008912D000808
:1000E000912D0008912D0008912D000800000000BE
:1000F0000000000000000000000000000000000000
:0C01000000000000000000005FF808F1A3
:10010C000348044B834202D0034B03B1184770479A
:10011C0018000020180000200000000005480649C7
:10012C000B1AD90F01EBA301491002D0034B03B1F9
:10013C00184770471800002018000020000000002D
:10014C0010B5064C237843B9FFF7DAFF044B13B113
:10015C000448AFF300800123237010BD1800002069
:10016C0000000000942D000808B5044B1BB1044995
:10017C000448AFF30080BDE80840CFE70000000062
:10018C001C000020942D000870B50D4E0D4D761BF3
:10019C00B61006D0002455F8043B01349847A6420B
:1001AC00F9D1094E094D02F0EFFD761BB61006D0C1
:1001BC00002455F8043B01349847A642F9D170BD90
:1001CC00D02D0008D02D0008D42D0008D02D00080B
:1001DC00830730B548D0541E002A3FD00346CAB21C
:1001EC0001E0013C3AD303F8012B9D07F9D1032C14
:1001FC002DD9CDB245EA05250F2C45EA054536D952
:10020C00A4F1100222F00F0C03F1200EE6444FEA89
:10021C00121C03F1100242E9045542E90255103256
:10022C007245F8D10CF1010214F00C0F03EB021221
:10023C0004F00F0C13D0ACF1040323F003030433CC
:10024C00134442F8045B9342FBD10CF003042CB131
:10025C00CAB21C4403F8012B9C42FBD130BD64464E
:10026C001346002CF4D1F9E703461446BFE71A46AF
:10027C00A446E0E770B54FF0FF0C4CF4E06C1CEAC0
:10028C0011541DBF1CEA135594EA0C0F95EA0C0F80
:10029C0000F0DEF82C4481EA030621EA4C5123EAF3
:1002AC004C5350EA013518BF52EA033541F4801122
:1002BC0043F4801338D0A0FB02CE4FF00005E1FBD5
:1002CC0002E506F00042E0FB03E54FF00006E1FB1F
:1002DC0003569CF0000F18BF4EF0010EA4F1FF0462
:1002EC00B6F5007F64F5407404D25FEA4E0E6D41A2
:1002FC0046EB060642EAC62141EA55514FEAC520B3
:10030C0040EA5E504FEACE2EB4F1FD0C88BFBCF52E
:10031C00E06F1ED8BEF1004F08BF5FEA500E50F1DF
:10032C00000041EB045170BD06F0004646EA0101A5
:10033C0040EA020081EA0301B4EB5C04C2BFD4EBD7
:10034C000C0541EA045170BD41F480114FF0000ED0
:10035C00013C00F3AB8014F1360FDEBF002001F03E
:10036C00004170BDC4F10004203C35DA0C341BDCB8
:10037C0004F11404C4F1200500FA05F320FA04F08A
:10038C0001FA05F240EA020001F0004221F00041BE
:10039C0010EBD37021FA04F642EB06015EEA430E31
:1003AC0008BF20EAD37070BDC4F10C04C4F1200561
:1003BC0000FA04F320FA05F001FA04F240EA020014
:1003CC0001F0004110EBD37041F100015EEA430EE5
:1003DC0008BF20EAD37070BDC4F1200500FA05F205
:1003EC004EEA020E20FA04F301FA05F243EA020384
:1003FC0021FA04F001F0004121FA04F220EA020093
:10040C0000EBD3705EEA430E08BF20EAD37070BDD8
:10041C0094F0000F0FD101F00046400041EB0101B8
:10042C0011F4801F08BF013CF7D041EA060195F09A
:10043C00000F18BF704703F00046520043EB030354
:10044C0013F4801F08BF013DF7D043EA0603704741
:10045C0094EA0C0F0CEA135518BF95EA0C0F0CD04C
:10046C0050EA410618BF52EA4306D1D181EA030192
:10047C0001F000414FF0000070BD50EA410606BF8C
:10048C001046194652EA430619D094EA0C0F02D1D1
:10049C0050EA013613D195EA0C0F05D152EA033616
:1004AC001CBF104619460AD181EA030101F0004134
:1004BC0041F0FE4141F470014FF0000070BD41F07D
:1004CC00FE4141F4780170BD81F0004102E000BFB3
:1004DC0083F0004330B54FEA41044FEA430594EAF8
:1004EC00050F08BF90EA020F1FBF54EA000C55EA33
:1004FC00020C7FEA645C7FEA655C00F0E2804FEA04
:10050C005454D4EB5555B8BF6D420CDD2C4480EAE5
:10051C00020281EA030382EA000083EA010180EA15
:10052C00020281EA0303362D88BF30BD11F0004F63
:10053C004FEA01314FF4801C4CEA113102D0404299
:10054C0061EB410113F0004F4FEA03334CEA1333D4
:10055C0002D0524263EB430394EA050F00F0A780EC
:10056C00A4F10104D5F1200E0DDB02FA0EFC22FAE7
:10057C0005F2801841F1000103FA0EF2801843FADB
:10058C0005F359410EE0A5F120050EF1200E012ACC
:10059C0003FA0EFC28BF4CF0020C43FA05F3C0180A
:1005AC0051EBE37101F0004507D54FF0000EDCF183
:1005BC00000C7EEB00006EEB0101B1F5801F1BD32C
:1005CC00B1F5001F0CD349085FEA30004FEA3C0C30
:1005DC0004F101044FEA445212F5800F80F09A8026
:1005EC00BCF1004F08BF5FEA500C50F1000041EB2A
:1005FC00045141EA050130BD5FEA4C0C404141EB2E
:10060C000101013C28BFB1F5801FE9D291F0000F28
:10061C0004BF01460020B1FA81F308BF2033A3F1D7
:10062C000B03B3F120020CDA0C3208DD02F1140CCE
:10063C00C2F10C0201FA0CF021FA02F10CE002F109
:10064C001402D8BFC2F1200C01FA02F120FA0CFC02
:10065C00DCBF41EA0C019040E41AA2BF01EB04514B
:10066C00294330BD6FEA04041F3C1CDA0C340EDC49
:10067C0004F11404C4F1200220FA04F001FA02F38C
:10068C0040EA030021FA04F345EA030130BDC4F14A
:10069C000C04C4F1200220FA02F001FA04F340EA3F
:1006AC000300294630BD21FA04F0294630BD94F0F0
:1006BC00000F83F4801306BF81F480110134013DD7
:1006CC004EE77FEA645C18BF7FEA655C29D094EA48
:1006DC00050F08BF90EA020F05D054EA000C04BFC6
:1006EC001946104630BD91EA030F1EBF00210020B1
:1006FC0030BD5FEA545C05D14000494128BF41F050
:10070C00004130BD14F580043CBF01F5801130BDB3
:10071C0001F0004545F0FE4141F470014FF000003E
:10072C0030BD7FEA645C1ABF194610467FEA655CEF
:10073C001CBF0B46024650EA013406BF52EA033591
:10074C0091EA030F41F4002130BD00BF90F0000F7F
:10075C0004BF0021704730B54FF4806404F13204BB
:10076C004FF000054FF0000150E700BF90F0000F74
:10077C0004BF0021704730B54FF4806404F132049B
:10078C0010F0004548BF40424FF000013EE700BF6B
:10079C0042004FEAE2014FEA31014FEA02701FBFFB
:1007AC0012F07F4393F07F4F81F06051704732F02D
:1007BC007F4208BF704793F07F4F04BF41F4002184
:1007CC00704730B54FF4607401F0004521F00041E2
:1007DC001CE700BF50EA010208BF704730B54FF06C
:1007EC0000050AE050EA010208BF704730B511F06D
:1007FC00004502D5404261EB41014FF4806404F1A5
:10080C0032045FEA915C3FF4D8AE4FF003025FEA2A
:10081C00DC0C18BF03325FEADC0C18BF033202EBAE
:10082C00DC02C2F1200300FA03FC20FA02F001FA08
:10083C0003FE40EA0E0021FA02F11444BDE600BFAB
:10084C004FF0FF3C06E000BF4FF0010C02E000BF90
:10085C004FF0010C4DF804CD4FEA410C7FEA6C5C73
:10086C004FEA430C18BF7FEA6C5C1BD001B050EA16
:10087C00410C0CBF52EA430C91EA030F02BF90EA01
:10088C00020F0020704710F1000F91EA030F58BFC0
:10089C00994208BF90422CBFD8176FEAE37040F022
:1008AC00010070474FEA410C7FEA6C5C02D150EAC0
:1008BC00013C07D14FEA430C7FEA6C5CD6D152EA7B
:1008CC00033CD3D05DF8040B704700BF8446104640
:1008DC0062468C461946634600E000BF01B5FFF73F
:1008EC00B7FF002848BF10F1000F01BD4DF808ED0F
:1008FC00FFF7F4FF0CBF012000205DF808FB00BFE0
:10090C004DF808EDFFF7EAFF34BF012000205DF839
:10091C0008FB00BF4DF808EDFFF7E0FF94BF012086
:10092C0000205DF808FB00BF4DF808EDFFF7CEFF87
:10093C0094BF012000205DF808FB00BF4DF808EDC6
:10094C00FFF7C4FF34BF012000205DF808FB00BF97
:10095C004FEA4102B2F1E04324BFB3F5001CDCF1D5
:10096C00FE5C0DD901F0004C4FEAC0024CEA50700D
:10097C00B2F1004F40EB830008BF20F0010070473C
:10098C0011F0804F21D113F13872BCBF01F000403F
:10099C00704741F480114FEA5252C2F11802C2F171
:1009AC00200C10FA0CF320FA02F018BF40F00100F2
:1009BC004FEAC1234FEAD32303FA0CFC40EA0C00A4
:1009CC0023FA02F34FEA4303CCE77FEA625307D1E1
:1009DC0050EA01331EBF4FF0FE4040F44000704718
:1009EC0001F0004040F0FE4040F40000704700BFB2
:1009FC0080F0004002E000BF81F0004142001FBFC8
:100A0C005FEA410392EA030F7FEA226C7FEA236CD0
:100A1C006AD04FEA1262D2EB1363C1BFD2184140C5
:100A2C0048404140B8BF5B42192B88BF704710F05B
:100A3C00004F40F4000020F07F4018BF404211F0FE
:100A4C00004F41F4000121F07F4118BF494292EA66
:100A5C00030F3FD0A2F1010241FA03FC10EB0C0092
:100A6C00C3F1200301FA03F100F0004302D549421F
:100A7C0060EB4000B0F5000F13D3B0F1807F06D3CC
:100A8C0040084FEA310102F10102FE2A51D2B1F1C4
:100A9C00004F40EBC25008BF20F0010040EA0300B9
:100AAC007047490040EB0000013A28BFB0F5000F39
:100ABC00EDD2B0FA80FCACF1080CB2EB0C0200FAEF
:100ACC000CF0AABF00EBC25052421843BCBFD0403E
:100ADC001843704792F0000F81F4000106BF80F4B8
:100AEC0000000132013BB5E74FEA41037FEA226C7B
:100AFC0018BF7FEA236C21D092EA030F04D092F046
:100B0C00000F08BF0846704790EA010F1CBF002079
:100B1C00704712F07F4F04D1400028BF40F00040D6
:100B2C00704712F100723CBF00F50000704700F0F6
:100B3C00004343F0FE4040F4000070477FEA22621D
:100B4C0016BF08467FEA23630146420206BF5FEAEE
:100B5C00412390EA010F40F4800070474FF00003EE
:100B6C0004E000BF10F0004348BF40425FEA000CB5
:100B7C0008BF704743F0964301464FF000001CE05D
:100B8C0050EA010208BF70474FF000030AE000BFB3
:100B9C0050EA010208BF704711F0004302D54042F1
:100BAC0061EB41015FEA010C02BF84460146002063
:100BBC0043F0B64308BFA3F18053A3F50003BCFA7E
:100BCC008CF2083AA3EBC25310DB01FA02FC63442B
:100BDC0000FA02FCC2F12002BCF1004F20FA02F232
:100BEC0043EB020008BF20F00100704702F1200225
:100BFC0001FA02FCC2F1200250EA4C0021FA02F286
:100C0C0043EB020008BF20EADC7070474FF0FF0C8A
:100C1C001CEAD0521EBF1CEAD15392EA0C0F93EA85
:100C2C000C0F6FD01A4480EA010C400218BF5FEA27
:100C3C0041211ED04FF0006343EA501043EA51119A
:100C4C00A0FB01310CF00040B1F5000F3EBF490094
:100C5C0041EAD3715B0040EA010062F17F02FD2A98
:100C6C001DD8B3F1004F40EBC25008BF20F001007B
:100C7C00704790F0000F0CF0004C08BF49024CEA92
:100C8C00502040EA51207F3AC2BFD2F1FF0340EA24
:100C9C00C250704740F400004FF00003013A5DDC95
:100CAC0012F1190FDCBF00F000407047C2F10002D6
:100CBC00410021FA02F1C2F1200200FA02FC5FEAC3
:100CCC00310040F1000053EA4C0308BF20EADC700D
:100CDC00704792F0000F00F0004C02BF400010F47F
:100CEC00000F013AF9D040EA0C0093F0000F01F02C
:100CFC00004C02BF490011F4000F013BF9D041EA4E
:100D0C000C018FE70CEAD15392EA0C0F18BF93EA4F
:100D1C000C0F0AD030F0004C18BF31F0004CD8D179
:100D2C0080EA010000F00040704790F0000F17BF00
:100D3C0090F0004F084691F0000F91F0004F14D046
:100D4C0092EA0C0F01D142020FD193EA0C0F03D19E
:100D5C004B0218BF084608D180EA010000F00040A1
:100D6C0040F0FE4040F40000704740F0FE4040F47C
:100D7C00400070474FF0FF0C1CEAD0521EBF1CEA1B
:100D8C00D15392EA0C0F93EA0C0F69D0A2EB030239
:100D9C0080EA010C49024FEA402037D04FF08053D3
:100DAC0043EA111143EA10130CF000408B4238BF98
:100DBC005B0042F17D024FF4000C8B4224BF5B1AA6
:100DCC0040EA0C00B3EB510F24BFA3EB510340EAF4
:100DDC005C00B3EB910F24BFA3EB910340EA9C00A2
:100DEC00B3EBD10F24BFA3EBD10340EADC001B0112
:100DFC0018BF5FEA1C1CE0D1FD2A3FF650AF8B42B6
:100E0C0040EBC25008BF20F0010070470CF0004CC2
:100E1C004CEA50207F32C2BFD2F1FF0340EAC250ED
:100E2C00704740F400004FF00003013A37E792F0AE
:100E3C00000F00F0004C02BF400010F4000F013A0C
:100E4C00F9D040EA0C0093F0000F01F0004C02BF07
:100E5C00490011F4000F013BF9D041EA0C0195E770
:100E6C000CEAD15392EA0C0F08D142027FF47DAF09
:100E7C0093EA0C0F7FF470AF084676E793EA0C0FF9
:100E8C0004D14B023FF44CAF08466EE730F0004CF7
:100E9C0018BF31F0004CCAD130F000427FF45CAF87
:100EAC0031F000437FF43CAF5FE700BF4FF0FF3CF5
:100EBC0006E000BF4FF0010C02E000BF4FF0010C48
:100ECC004DF804CD4FEA40024FEA41037FEA226C11
:100EDC0018BF7FEA236C11D001B052EA530C18BF33
:100EEC0090EA010F58BFB2EB030088BFC81738BF98
:100EFC006FEAE17018BF40F0010070477FEA226C86
:100F0C0002D15FEA402C05D17FEA236CE4D15FEA81
:100F1C00412CE1D05DF8040B704700BF84460846B5
:100F2C006146FFE70FB5FFF7C9FF002848BF10F176
:100F3C00000F0FBD4DF808EDFFF7F4FF0CBF0120BB
:100F4C0000205DF808FB00BF4DF808EDFFF7EAFF45
:100F5C0034BF012000205DF808FB00BF4DF808ED00
:100F6C00FFF7E0FF94BF012000205DF808FB00BFF5
:100F7C004DF808EDFFF7D2FF94BF012000205DF87B
:100F8C0008FB00BF4DF808EDFFF7C8FF34BF012088
:100F9C0000205DF808FB00BF4FEA4002B2F1FE4FA3
:100FAC000FD34FF09E03B3EB12620DD94FEA00231F
:100FBC0043F0004310F0004F23FA02F018BF4042F8
:100FCC0070474FF00000704712F1610F01D14202DF
:100FDC0005D110F0004008BF6FF0004070474FF093
:100FEC0000007047034B044A1A6000225A609A6052
:100FFC00704700BF6C00002000009643034B044A6E
:10100C001A6000225A609A60704700BF4C000020A2
:10101C00CDCCCC3D70B5081AFFF7A4FD04461D4B92
:10102C0018601D4D2968FFF7E9FC28601B49FFF784
:10103C00A9FF08B1194A2A601949174B1868FFF71C
:10104C0083FF10B1144B164A1A60164B1C60164ED7
:10105C0031682046FFF7DAFD05460F4B19687068BA
:10106C00FFF7D4FD01462846FFF7C8FC0546B668D5
:10107C0021462046FFF7C0FC01463046FFF7C6FD6F
:10108C0001462846FFF7BAFC084B1860FFF784FFAF
:10109C0070BD00BF48000020380000200000C8438D
:1010AC000000C8C33C0000204C0000205800002069
:1010BC0038B50446FFF756FD0546094B1968FFF78E
:1010CC0043FF08B1064B1D606042FFF74BFD044621
:1010DC00034B1968FFF756FF08B1014B1C6038BD74
:1010EC00640000202DE9F0410B4601461846FFF73D
:1010FC0083FC01461B4D2860DFF86C80D8F800009B
:10110C00FFF77CFCC8F80000184C2268184B1A60DA
:10111C004FF4FA50FFF7CCFF164F2D68294638686C
:10112C00FFF774FD0646D8F800107868FFF76EFDDF
:10113C0001463046FFF762FC0646BF682168284628
:10114C00FFF75AFC01463846FFF760FD0146304672
:10115C00FFF754FCFFF720FF074B18602560BDE834
:10116C00F08100BF68000020340000204000002007
:10117C00440000206C00002078000020F8B50446E4
:10118C000D4617461E4601462846FFF735FCFFF76D
:10119C0003FF50B9154B00221A60144B19683846DE
:1011AC00FFF7A0FF124B1860F8BD2846FFF7F4FEBE
:1011BC0005462046FFF7F0FE2946FFF72BFFFFF709
:1011CC00D1FC0546094B18603146FFF7DBFE10B128
:1011DC00064B1E60E1E706F1004631462846FFF754
:1011EC00B3FE0028D9D0014B1E60D6E7600000206A
:1011FC005C00002010B50E4C3C21204600F076FE21
:10120C002268D36843F00103D3600A4800F0E2FA85
:10121C000021094800F0FCFD236800225A62074BAC
:10122C001A605A601A815A810021D9601A7410BD53
:10123C00F800002040010020B00000208C000020AD
:10124C0038B5044618B1012C0DD0204638BD0C4DD4
:10125C0001220221284601F072FB002204212846BB
:10126C0001F06DFBEFE7064D00220221284601F04C
:10127C0066FB01220421284601F061FBE5E700BF73
:10128C000008014010B5041E06DD0020FFF7D8FF52
:10129C00054B1B685C6310BD0120FFF7D1FF024BAF
:1012AC001B6864425C63F6E7B000002008B5094B8C
:1012BC00186800280BDB8010FFF758FA0022064B49
:1012CC00FEF7D8FFFFF744FB044B186008BD033052
:1012DC00F1E700BF800000200000F83F88000020EC
:1012EC00054B1A68536AD26A0449096801FB023338
:1012FC00034A1360704700BFF80000200000002074
:10130C00800000202DE97043044602684E4B1B6898
:10131C009A4206D022684D4B1B689A4225D0BDE8F4
:10132C00708302214A4801F003FB80B10221484836
:10133C0001F0FEFA0128EDD10421454801F0F8FA3C
:10134C000028E7D1434A136801331360E2E7042114
:10135C0000F1804000F5843001F0EAFA0128E5D173
:10136C003C4A1368013B1360E0E7FFF7B9FFFFF756
:10137C009DFF354B1A68516A374B19601568C5F3D8
:10138C000015364B1D74546AB3F90810D26A02FB6F
:10139C0001445C601E68A61B3046FFF7E7F900228B
:1013AC002F4B21F000494946FFF7C8FA00282FD0EF
:1013BC0006F59C402030FFF7D5FB2A49FFF7DAFCF5
:1013CC002949FFF723FC064620F000402749FFF788
:1013DC00D9FD28B100213046FFF7D4FDB0B1234E22
:1013EC001E4BDE601D4B1C60DA6822F00042204B65
:1013FC001A60204B1D60204B1B682049096820484F
:10140C000068FFF7BBFE1F4B186088E71E4EE7E72E
:10141C003046FFF7A7FB1349FFF7ACFC1249FFF767
:10142C00F5FB064620F000401049FFF7ABFD28B154
:10143C0000213046FFF7A6FD18B10C4E074BDE60BD
:10144C00D0E7114EFAE700BFF80000204001002061
:10145C000008014000000020840000208C000020C7
:10146C0000409F40000070440000204100004040BC
:10147C00A4000020A0000020080000200400002090
:10148C00880000207C000020000040C072B6FEE7FF
:10149C0000B591B02822002106A8FEF799FE002382
:1014AC0001930293039304930593012206924FF444
:1014BC00803307930A9202220D920E934FF4E0139D
:1014CC000F9306A800F03AFE80B90F230193022176
:1014DC000291002303934FF480620492059301A8B8
:1014EC0001F05EF820B911B05DF804FBFFF7CEFFF8
:1014FC00FFF7CCFF08B500F0E7FDFFF7C9FF00F0E0
:10150C001BF801F0A7FB01F08FFA01F0BFFAFFF70F
:10151C0071FEFFF767FDFFF771FD044B044A1A607B
:10152C00044B1868FFF7AEFEFAE700BFA8000020D6
:10153C0000803B457C0000202DE9F04188B0002460
:10154C000494059406940794274B9A6942F0100270
:10155C009A619A6902F010020092009A9A6942F01C
:10156C0020029A619A6902F020020192019A9A690A
:10157C0042F004029A619A6902F004020292029A01
:10158C009A6942F008029A619B6903F0080303937D
:10159C00039BDFF8588022464FF40051404601F07F
:1015AC00CEF9134D22460221284601F0C8F901223A
:1015BC000421284601F0C3F94FF40053049301278A
:1015CC00059706940226079604A9404601F09EF85A
:1015DC000623049305970694079604A9284601F060
:1015EC0095F808B0BDE8F0810010024000100140F1
:1015FC0000080140FEE7FEE7FEE7FEE7FEE7704766
:10160C007047704708B500F071FD08BD08B5024879
:10161C0000F019F908BD00BFF800002008B5024819
:10162C0000F011F908BD00BF4001002082B00E4B44
:10163C009A6942F001029A619A6902F001020092E1
:10164C00009ADA6942F08052DA61DB6903F0805368
:10165C000193019B054A536823F0E06343F0007348
:10166C00536002B0704700BF001002400000014000
:10167C0070B4036A026A22F001020262466882694F
:10168C0022F073020C6844EA020523F002028B6814
:10169C0013430D4CA04209D00B4CA0420DD0466018
:1016AC0085614A684263036270BC704723F008038B
:1016BC00CA68134323F00403EEE726F440764A6924
:1016CC0032438E691643EAE7002C014030B4036ABA
:1016DC00026A22F4807202624568C26922F07302C7
:1016EC000C68224323F400738C6843EA04230F4CE8
:1016FC00A04209D00D4CA0420ED04560C2614A6890
:10170C00C263036230BC704723F40063CC6843EAC5
:10171C00042323F48063EDE725F440554C6945EA36
:10172C0004158C6945EA0415E7E700BF002C01405D
:10173C0030B4036A026A22F4805202624468C269BD
:10174C0022F4E6420D6842EA052223F400538D6828
:10175C0043EA0533074DA84206D04460C2614A688B
:10176C000264036230BC704724F480444D6944EA3F
:10177C008514F2E7002C014010B4036A046A24F0CB
:10178C0001040462846924F0F00C4CEA021223F088
:10179C000A030B438261036210BC704710B4036AE6
:1017AC00046A24F010040462846924F4704C4CEA3A
:1017BC00023223F0A00343EA01138261036210BCDE
:1017CC007047836823F070030B4343F00703836077
:1017DC007047000090F83D30DBB2012B27D102237B
:1017EC0080F83D300268D36843F00103D36003688E
:1017FC00114A934210D0B3F1804F0DD0A2F5943220
:10180C00934209D002F58062934205D01A6842F0E7
:10181C0001021A60002070479A6802F00702062A3B
:10182C0007D01A6842F001021A60002070470120AC
:10183C0070470020704700BF002C01407047704774
:10184C0070477047704710B5044603681A6912F068
:10185C00020F11D0DA6812F0020F0DD06FF00202F5
:10186C001A610123037703689B6913F0030F70D08F
:10187C00FFF7E6FF0023237723681A6912F0040FA1
:10188C0012D0DA6812F0040F0ED06FF004021A6155
:10189C000223237723689B6913F4407F5FD0204693
:1018AC00FFF7CEFF0023237723681A6912F0080F85
:1018BC0012D0DA6812F0080F0ED06FF008021A611D
:1018CC00042323772368DB6913F0030F4ED02046E3
:1018DC00FFF7B6FF0023237723681A6912F0100F65
:1018EC0012D0DA6812F0100F0ED06FF010021A61DD
:1018FC00082323772368DB6913F4407F3DD020460F
:10190C00FFF79EFF0023237723681A6912F0010F5B
:10191C0003D0DA6812F0010F36D123681A6912F07D
:10192C00800F03D0DA6812F0800F34D123681A6963
:10193C0012F0400F03D0DA6812F0400F32D1236856
:10194C001A6912F0200F03D0DA6812F0200F30D190
:10195C0010BDFFF774FF2046FFF773FF8AE72046A0
:10196C00FFF76DFF2046FFF76CFF9BE72046FFF764
:10197C0066FF2046FFF765FFACE72046FFF75FFFE9
:10198C002046FFF75EFFBDE76FF001021A612046AB
:10199C00FFF7B8FCC1E76FF080021A61204600F037
:1019AC006BFBC3E76FF040021A612046FFF74AFF5A
:1019BC00C5E76FF020021A61204600F05CFBC7E718
:1019CC0003681B4A90420AD0B0F1804F07D0A2F5B1
:1019DC009432904203D002F58062904203D123F0FE
:1019EC0070034A681343124A90420AD0B0F1804FF8
:1019FC0007D0A2F59432904203D002F58062904257
:101A0C0003D123F44073CA68134323F080034A695B
:101A1C00134303608B68C3620B688362044B984268
:101A2C0002D00123436170470B690363F9E700BFE0
:101A3C00002C014040B310B5044690F83D30F3B192
:101A4C00022384F83D30214651F8040BFFF7B8FF10
:101A5C00012384F8463084F83E3084F83F3084F813
:101A6C00403084F8413084F8423084F8433084F8B4
:101A7C00443084F8453084F83D30002010BD80F8A7
:101A8C003C3001F03BF8DBE70120704740B310B568
:101A9C00044690F83D30F3B1022384F83D302146E2
:101AAC0051F8040BFFF78CFF012384F8463084F8BF
:101ABC003E3084F83F3084F8403084F8413084F86C
:101ACC00423084F8433084F8443084F8453084F84C
:101ADC003D30002010BD80F83C30FFF7AFFEDBE757
:101AEC0001207047002857D070B50D46044690F879
:101AFC003D30002B4BD0022384F83D302268936894
:101B0C0023F4804323F007039360214651F8040B20
:101B1C00FFF756FF21688A688B690E6A28681043A4
:101B2C0023F4407C2CF0030CAA68AB6942EA032333
:101B3C0043EA0C0323F47C4323F0FC03EA69D5F855
:101B4C000CC04CEA022C4CEA030C2A6A13032A69D7
:101B5C0043EA021343EA0C0326F022066A686D6915
:101B6C0042EA05123243886021688B6123681A624D
:101B7C00012384F8463084F83E3084F83F3084F8F2
:101B8C00423084F8433084F83D30002070BD80F83A
:101B9C003C3000F0E3FFAEE70120704730B4036A3D
:101BAC00026A22F0100202624468826922F4E64260
:101BBC000D6842EA052223F020038D6843EA0513E1
:101BCC000E4DA84209D00D4DA8420ED04460826142
:101BDC004A688263036230BC704723F08003CD688F
:101BEC0043EA051323F04003EDE724F440644D6908
:101BFC0044EA85048D6944EA8504E7E7002C01403A
:101C0C0038B590F83C30012B66D004460D460123C4
:101C1C0080F83C300C2A5AD8DFE802F007595959A1
:101C2C001B5959593059595944000068FFF720FD88
:101C3C002268936943F0080393612268936923F047
:101C4C00040393612268936929690B439361002013
:101C5C003EE00068FFF7A2FF2268936943F400633B
:101C6C0093612268936923F480639361226893697A
:101C7C00296943EA01239361002029E00068FFF7FA
:101C8C0025FD2268D36943F00803D3612268D36928
:101C9C0023F00403D3612268D36929690B43D36110
:101CAC00002015E00068FFF743FD2268D36943F478
:101CBC000063D3612268D36923F48063D361226803
:101CCC00D369296943EA0123D361002000E0012094
:101CDC00002384F83C3038BD0220FCE710B4846843
:101CEC0024F47F4C42EA03220A4342EA0C0282604B
:101CFC0010BC704790F83C30012B78D010B50446DE
:101D0C00012380F83C30022380F83D300268936850
:101D1C0023F47F4323F0770393600B68602B4CD044
:101D2C0029D8402B54D00CD9502B22D1CA684968E1
:101D3C000068FFF721FD50212068FFF742FD0020CD
:101D4C0005E0202B0DD009D9302B0AD0012001231E
:101D5C0084F83D30002384F83C3010BD0BB1102BBF
:101D6C0005D119462068FFF72CFD0020EFE7012074
:101D7C00EDE70120EBE7B3F5805F34D0B3F5005FFE
:101D8C000CD1CB684A6889680068FFF7A7FF226806
:101D9C00936843F4804393600020D8E7702B24D1E0
:101DAC00CB684A6889680068FFF798FF22689368D7
:101DBC0043F0770393600020C9E7CA68496800685C
:101DCC00FFF7ECFC60212068FFF7FBFC0020BEE76E
:101DDC00CA6849680068FFF7CFFC40212068FFF70C
:101DEC00F0FC0020B3E70020B1E70120AFE70220B0
:101DFC00704701F01F01012303FA01FC036A23EA77
:101E0C000C030362036A02FA01F10B43036270478D
:101E1C0010B50446084651BB94F83E30DBB2013B8A
:101E2C0018BF0123002B5BD1002839D1022384F881
:101E3C003E30012201462068FFF7DBFF23682A4A67
:101E4C0093423DD02368284A93423ED0B3F1804F51
:101E5C003BD0A2F59432934237D002F58062934284
:101E6C0033D01A6842F001021A60002039E00429CC
:101E7C0008D008290DD094F84130DBB2013B18BFD3
:101E8C000123CFE794F83F30DBB2013B18BF0123AD
:101E9C00C8E794F84030DBB2013B18BF0123C1E71F
:101EAC00042805D0082807D0022384F84130C0E765
:101EBC00022384F83F30BCE7022384F84030B8E7B3
:101ECC005A6C42F400425A64BCE79A6802F007026A
:101EDC00062A07D01A6842F001021A60002000E0BE
:101EEC00012010BD0020FCE7002C014038B5044651
:101EFC0090F83E00C0B294F83F3094F84220D2B231
:101F0C0094F843C00D46B1B9012849D1012A48D1F2
:101F1C00022384F83E3084F842307DB3042D39D04E
:101F2C00012200212068FFF764FF012204212068B0
:101F3C00FFF75FFF27E0DBB25FFA8CFC042912D0BD
:101F4C00012833D1012B2CD1012A31D1BCF1010F45
:101F5C0030D1022384F83E3084F83F3084F842308C
:101F6C0084F84330D9E7012B1CD1BCF1010F1BD1F4
:101F7C00022384F83F3084F84330CEE7012200215D
:101F8C002068FFF736FF2268136843F001031360E3
:101F9C00002006E0012204212068FFF72AFFF2E767
:101FAC00012038BD0120FCE71846FAE70120F8E7CC
:101FBC001846F6E71046F4E790F83C30012B2CD08D
:101FCC0010B4012380F83C30022380F83D300368C4
:101FDC005A689C6822F0700C0A6842EA0C025A603B
:101FEC0003680F4A93420AD0B3F1804F07D0A2F591
:101FFC009432934203D002F58062934204D124F0D0
:10200C0080044A6814439C60012380F83D3000230F
:10201C0080F83C30184610BC70470220704700BF57
:10202C00002C014090F83C30012B22D0012380F889
:10203C003C30CB6823F440738A68134323F48063E9
:10204C004A68134323F400630A68134323F4805350
:10205C000A69134323F400534A69134323F480435E
:10206C00CA69134302685364002380F83C30184655
:10207C0070470220704770477047000010B5044647
:10208C000E4B18784FF47A73B3FBF0F30C4A1068CC
:10209C00B0FBF3F000F0B2FC68B90F2C01D90120B1
:1020AC000AE0002221464FF0FF3000F061FC054BA6
:1020BC001C60002000E0012010BD00BF0C000020BF
:1020CC00140000201000002008B5074A136843F0E4
:1020DC0010031360032000F039FC0F20FFF7CEFF34
:1020EC00FFF7A4FA002008BD00200240034A116843
:1020FC00034B1B780B441360704700BFAC000020EF
:10210C000C000020014B1868704700BFAC00002089
:10211C0082B0084B1B68084AA2FB03235B0A00FB36
:10212C0003F3019300BF019B5A1E0192002BF9D1BE
:10213C0002B0704714000020D34D6210002800F04C
:10214C00F18170B582B00446036813F0010F2CD0F6
:10215C00994B5B6803F00C03042B1DD0964B5B680A
:10216C0003F00C03082B12D06368B3F5803F41D009
:10217C00002B55D103F1804303F504331A6822F484
:10218C0080321A601A6822F480221A6037E08A4B77
:10219C005B6813F4803FE7D0874B1B6813F4003F58
:1021AC0003D06368002B00F0BF81236813F0020F8B
:1021BC0075D0814B5B6813F00C0F5FD07E4B5B6866
:1021CC0003F00C03082B54D02369002B00F08A80F9
:1021DC007A4B01221A60FFF795FF0546764B1B6878
:1021EC0013F0020F75D1FFF78DFF401B0228F5D9B4
:1021FC0003209EE1704A136843F4803313606368D4
:10220C0043B3FFF77FFF05466B4B1B6813F4003F8E
:10221C00CBD1FFF777FF401B6428F5D9032088E169
:10222C00B3F5A02F09D0644B1A6822F480321A60DF
:10223C001A6822F480221A60E1E703F18043A3F5C7
:10224C003C331A6842F480221A601A6842F48032D5
:10225C001A60D4E7FFF756FF0546574B1B6813F47B
:10226C00003FA2D0FFF74EFF401B6428F5D9032096
:10227C005FE1514B5B6813F4803FA5D14E4B1B685B
:10228C0013F0020F03D02369012B40F04F814A4A0F
:10229C00136823F0F803616943EAC10313602368F0
:1022AC0013F0080F33D0A369002B5CD0434B0122F1
:1022BC00C3F88024FFF726FF05463F4B5B6A13F0FB
:1022CC00020F21D1FFF71EFF401B0228F5D9032076
:1022DC002FE1394A136823F0F803616943EAC1031B
:1022EC001360DCE7354B00221A60FFF70BFF054645
:1022FC00314B1B6813F0020FD1D0FFF703FF401BCB
:10230C000228F5D9032014E10120FFF701FF23680F
:10231C0013F0040F00F09680274BDB6913F0805FFD
:10232C0034D1254BDA6942F08052DA61DB6903F073
:10233C0080530193019B0125214B1B6813F4807F73
:10234C0026D0E368012B3DD0002B53D103F1804301
:10235C0003F504331A6A22F001021A621A6A22F097
:10236C0004021A6233E0154B0022C3F88024FFF7F5
:10237C00C9FE0546104B5B6A13F0020FC7D0FFF77E
:10238C00C1FE401B0228F5D90320D2E00025D3E77B
:10239C000B4A136843F480731360FFF7B3FE0646D1
:1023AC00074B1B6813F4807FCBD1FFF7ABFE801B70
:1023BC006428F5D90320BCE0001002400000424222
:1023CC00007000405F4A136A43F001031362E36834
:1023DC0033B3FFF797FE06465A4B1B6A13F0020FF6
:1023EC002FD1FFF78FFE801B41F288339842F3D92F
:1023FC0003209EE0052B09D0524B1A6A22F00102F1
:10240C001A621A6A22F004021A62E0E74D4B1A6A49
:10241C0042F004021A621A6A42F001021A62D6E70A
:10242C00FFF770FE0646474B1B6A13F0020F08D0ED
:10243C00FFF768FE801B41F288339842F3D90320E2
:10244C0077E0E5B9E369002B72D03E4A526802F09E
:10245C000C02082A56D0022B17D03B4B00221A66CE
:10246C00FFF750FE0446374B1B6813F0007F47D034
:10247C00FFF748FE001B0228F5D9032059E0314A2A
:10248C00D36923F08053D361DCE72F4B00221A660B
:10249C00FFF738FE05462B4B1B6813F0007F06D068
:1024AC00FFF730FE401B0228F5D9032041E0236AD8
:1024BC00B3F5803F1AD023494B6823F47413226A76
:1024CC00606A024313434B601F4B01221A66FFF7ED
:1024DC0019FE04461B4B1B6813F0007F0ED1FFF74F
:1024EC0011FE001B0228F5D9032022E0154A53687F
:1024FC0023F40033A1680B435360DCE7002018E0A1
:10250C00002016E0012B16D00E4B5B6803F48031D3
:10251C00226A914211D103F47013626A93420ED174
:10252C00002006E001207047012002E0012000E0BD
:10253C00002002B070BD0120FBE70120F9E701206B
:10254C00F7E700BF00100240000042420F4B5B68EF
:10255C0003F00C02082A01D00D487047C3F38342E4
:10256C000C49885C13F4803F0BD0084B5B68C3F3B9
:10257C004043094AD35C064A02FB00F0B0FBF3F07F
:10258C007047064B03FB00F0704700BF0010024081
:10259C0000127A00AC2D0008BC2D000800093D008B
:1025AC00002800F0A08070B50D460446524B1B6805
:1025BC0003F007038B420BD24F4A136823F0070337
:1025CC000B431360136803F007038B4240F08D80BC
:1025DC00236813F0020F17D013F0040F04D0474AEE
:1025EC00536843F4E0635360236813F0080F04D07E
:1025FC00424A536843F460535360404A536823F093
:10260C00F003A1680B435360236813F0010F31D022
:10261C006368012B20D0022B25D0384A126812F0A7
:10262C00020F64D035494A6822F0030213434B6011
:10263C00FFF768FD0646314B5B6803F00C036268DC
:10264C00B3EB820F16D0FFF75DFD801B41F2883390
:10265C009842F0D9032045E0284A126812F4003F52
:10266C00E0D101203EE0254A126812F0007FD9D15A
:10267C00012037E0204B1B6803F00703AB420AD95B
:10268C001D4A136823F007032B431360136803F0F0
:10269C000703AB422DD1236813F0040F06D0174A61
:1026AC00536823F4E063E1680B435360236813F031
:1026BC00080F07D0114A536823F46053216943EA89
:1026CC00C1035360FFF742FF0C4B5B68C3F303136A
:1026DC000B4AD35CD8400B4B18600B4B1868FFF7B8
:1026EC00CDFC002070BD012070470120FAE70120CD
:1026FC00F8E70120F6E700BF00200240001002407E
:10270C00C02D0008140000201000002070B582B00D
:10271C000024A446A6E0804DAA4210D007D97F4DD4
:10272C00AA420CD005F58035AA4208D013E0A5F5D5
:10273C008015AA4203D005F57025AA4207D18A68F4
:10274C00002A58D0012A51D04361082403E0A5F592
:10275C008015AA42F3D0BEF1FF0F4ED80646BEF14B
:10276C00FF0F4CD84FEA8C0233680F25954023EAB3
:10277C00050304FA02F2134333604B6813F0805FD5
:10278C006ED0674B9A6942F001029A619B6903F023
:10279C0001030193019B4FEA9C02951C614B53F87A
:1027AC0025600CF003039D000F23AB4026EA0306C3
:1027BC005D4B984229D003F58063984200F08E80DF
:1027CC0003F58063984200F08B8003F58063984298
:1027DC0019D004231AE0CC68BDE7CC680434BAE7FE
:1027EC00CC680834B7E7CC680C34B4E70361082430
:1027FC00B1E70024AFE70424ADE7061DAFE7ACF169
:10280C0008029200B0E7032300E00023AB403343FF
:10281C000232444D45F822304B6813F4801F61D0CE
:10282C00424A936843EA0E0393604B6813F4001F0B
:10283C005ED03E4AD36843EA0E03D3604B6813F470
:10284C00003F5BD0394A536843EA0E0353604B6830
:10285C0013F4803F58D0354A136843EA0E031360D3
:10286C000CF1010C0A6832FA0CF353D0012303FA71
:10287C000CF302EA030E33EA0202F1D14A68122A7F
:10288C003FF649AF122A3FF666AF01A555F822F084
:10289C004B270008E3270008ED270008FF27000856
:1028AC0063270008632700086327000863270008D4
:1028BC0063270008632700086327000863270008C4
:1028CC0063270008632700086327000863270008B4
:1028DC0063270008E7270008F3270008012395E782
:1028EC00022393E7114A936823EA0E0393609CE753
:1028FC000E4AD36823EA0E03D3609FE70B4A536852
:10290C0023EA0E035360A2E7084A136823EA0E0376
:10291C001360A5E702B070BD00002210000031105A
:10292C00001002400000014000080140000401407A
:10293C008368194201D001207047002070470AB10A
:10294C00016170470904016170470000074AD368B0
:10295C0023F4E0631B041B0C000200F4E06003434F
:10296C0043F0BF6343F40033D360704700ED00E0E5
:10297C0000B5194BDB68C3F30223C3F1070CBCF1A0
:10298C00040F28BF4FF0040C03F1040EBEF1060F28
:10299C0018D9033B4FF0FF3E0EFA0CFC21EA0C0158
:1029AC0099400EFA03F322EA0303194300280BDBC8
:1029BC000901C9B200F1604000F5614080F80013D4
:1029CC005DF804FB0023E5E700F00F000901C9B234
:1029DC00024B1954F4E700BF00ED00E014ED00E0E9
:1029EC00002807DB00F01F02400901239340024A34
:1029FC0042F82030704700BF00E100E00138B0F130
:102A0C00807F0BD24FF0E0235861054AF02182F809
:102A1C0023100020986107221A617047012070472B
:102A2C0000ED00E07047000000B58DB024220021BD
:102A3C0003A8FDF7CDFB00230193029312484FF03E
:102A4C00804202604360836044F62062C26003618E
:102A5C0083610323039301230593099303A9FFF7D0
:102A6C0041F850B900230193029301A90648FFF7DE
:102A7C00A3FA28B90DB05DF804FBFEF707FDF1E7EA
:102A8C00FEF704FDF6E700BFF800002000B587B0A4
:102A9C000023029303930493059300930193154829
:102AAC00154A026040F2CF224260836042F20F72FC
:102ABC00C26003618361FEF7BDFF90B94FF4805390
:102ACC00029302A90B48FFF715F968B9002300938C
:102ADC00019369460748FFF76FFA40B907B05DF8F4
:102AEC0004FBFEF7D3FCE9E7FEF7D0FCEEE7FEF7BC
:102AFC00CDFCF3E7400100200004004000B583B09A
:102B0C000368134A934205D0124A93420DD003B086
:102B1C005DF804FB104B9A6942F400629A619B6960
:102B2C0003F400630093009BF1E70B4BDA6942F06E
:102B3C000202DA61DB6903F002030193019B0022BC
:102B4C0001211D20FFF714FF1D20FFF749FFDEE7D1
:102B5C00002C0140000400400010024030B589B048
:102B6C00002304930593069307930368B3F1804FF6
:102B7C0001D009B030BD03F50433DA6942F001022B
:102B8C00DA61DA6902F001020192019A9A6942F063
:102B9C0004029A619A6902F004020292029A9A69FA
:102BAC0042F008029A619B6903F008030393039BAC
:102BBC004FF4004304930125069504A90E48FFF732
:102BCC00A5FD0823049300240594069504A90B483D
:102BDC00FFF79CFD0A4A536823F4407343F0E0630B
:102BEC0043F480735360224621461C20FFF7C0FE3D
:102BFC001C20FFF7F5FEBCE700080140000C01406B
:102C0C000000014000B587B00023029303930493A6
:102C1C00059302680D4B9A4202D007B05DF804FB95
:102C2C0003F564439A6942F004029A619B6903F0CC
:102C3C0004030193019B4FF48073029302230393CB
:102C4C00059302A90248FFF761FDE6E7002C01405D
:102C5C000008014010B596B00024129413941494FB
:102C6C0015941094119409940A940B940C940D944B
:102C7C000E940F942022214601A8FDF7A9FA2D48A5
:102C8C002D4B036047234360846040F6AC53C36014
:102C9C00046144618461FEF7CDFE002837D14FF406
:102CAC008053129312A92348FFF724F8002831D13E
:102CBC002048FEF7EBFE00282FD100231093119330
:102CCC0010A91C48FFF778F950BB60230993002228
:102CDC000A920B920C920D920E920F9209A9154822
:102CEC00FEF78EFFF8B9002301930293039304932C
:102CFC0005934FF400520692089301A90D48FFF773
:102D0C0091F998B90B48FFF77DFF16B010BDFEF78F
:102D1C00BDFBC4E7FEF7BAFBCAE7FEF7B7FBCCE78F
:102D2C00FEF7B4FBD1E7FEF7B1FBDCE7FEF7AEFB39
:102D3C00E8E700BFB0000020002C0140FFF772FE56
:102D4C000B480C490C4A002302E0D458C4500433FD
:102D5C00C4188C42F9D3094A094C002301E01360D2
:102D6C000432A242FBD3FDF70FFAFEF7C3FB704708
:102D7C000000002018000020D82D000818000020AA
:102D8C0088010020FEE70000F8B500BFF8BC08BCC5
:102D9C009E467047F8B500BFF8BC08BC9E4670470D
:102DAC0002030405060708090A0B0C0D0E0F101080
:102DBC0001020000000000000000000001020304FA
:042DCC0006070809E5
:042DD0007501000881
:042DD4004D010008A5
:102DD8000100000000003444000000400100000031
:082DE800100000000024F400BB
:0400000508002D4979
:00000001FF
