:200000009C170020B1410008FFFFFFFFFFFFFFFFFFFFFFFFFFFFFFFFFFFFFFFFFFFFFFFF2B
:20400000E0130020B14100083179000835790008397900083D7900084179000800000000F1
:20402000000000000000000000000000497900084579000800000000CD7500089D7600088B
:204040004D7900085179000855790008597900085D79000861790008657900086979000880
:204060006D7900087179000875790008797900087D79000881790008857900088979000860
:204080008D79000891790008957900082580000825800008997900089D790008A179000836
:2040A000A5790008A9790008AD790008B1790008B5790008B9790008BD790008C179000860
:2040C000C5790008C9790008CD790008D1790008D5790008A9680008D9790008DD79000889
:2040E000E1790008E5790008E9790008FFFFFFFFFFFFFFFFFFFFFFFFFFFFFFFFFFFFFFFFA2
:20410000000000000000000000000000000000004A2D4C696E6B2041524D2D4F4220535415
:204120004D333220636F6D70696C65642041756720323220323031322031393A35323A3025
:204140003400436F7079726967687420323030332D32303038205345474745523A20777771
:20416000772E7365676765722E636F6D0000000000000000000000000000000000000000B0
:2041800010B5094C02E005F03BFA0C340748844208D26068A16822688142F4D1002105F0D1
:2041A0003BFAF2E710BD00BF2498000848980008024CA04730B1024CA04703E0FD7700080F
:2041C00081410008034C4FF00000A047024C034DAE4620477D950008D99500082D9600084C
:2041E0000068000EFF2805D0032801D00E2801D10148704701487047FF0F0000FF03000039
:2042000031B50B4C03F090FE2568AD1C6946072003F03EFE002802D55FF0FF3032BD009881
:20422000410C0120084002D12168691AEED532BD7401002070B5007914000D0001060220BA
:2042400003F0DAFD06002900052003F0D5FD074930430A68A24207D00C60050054F00C5179
:20426000042003F0C9FD284370BD00006C00002070B512220C0009495FF0FF35FFF7DAFF34
:2042800048B903F051FE06002100032003F000FE304358BF0025280070BD0000F0ED00E0DF
:2042A00000B5020008D0906840189060D168884222BF10461168884700BD000000B503F048
:2042C00067FD002103205DF804EB03F0E1BD0000F1B50C00150011221F00FFF7ABFF10B1E7
:2042E0005FF0FF30F2BD03F01FFE10B15FF0FF30F2BD022D19D36E1E6946072003F0C8FD5E
:2043000020B103F05BFD5FF0FF30F2BD009802222240D100C84000900098A41C3870009835
:20432000000A7870BF1C761EE6D16946032003F0AFFD10B15FF0FF30F2BD009802212140EA
:20434000C900C8400090009807F8010B0098000A38702800F2BD00002DE9F14390461C00FC
:204360000026A20708BF01261222FFF763FF10B15FF0FF3028E003F0D7FD0028F8D140466F
:20438000022817D345466D1E56BB6946072003F07FFD002834D100982070010A6170010C5F
:2043A000A170000EE0700898241D0421FFF778FF6D1EEAD16946032003F06AFD00BB009955
:2043C000200005F08DF84046BDE8F283241D761CBE420FD308983900FFF762FFED1BE9D0FD
:2043E000089828B10899C0688968471ABD4200D22F0000262100072003F04AFD0028E5D0A4
:2044000003F0DCFCB4E700002DE9F34F804600200C00019091469A4607E00B98B9EB0B0962
:204420001BFA00F0241810EB0A0A4846002861D04046FFF7D5FE0B99A043C840401C814545
:204440002CBF8346CB46002939D12600102231004046FFF7EFFE554610B15FF0FF3042E076
:2044600003F062FD10B15FF0FF303CE05846022816D35F467F1E6946072003F009FD20B1FC
:2044800003F09CFC5FF0FF302DE00098B107C90EC84000900098761C7F1E05F8010BEAD1BC
:2044A0006946032003F0F4FC10B15FF0FF301AE00098B107C90EC8402870584611E001298E
:2044C00006D153465A4621004046FFF701FF08E00C9853465A4601B421004046FFF73CFFDD
:2044E00001B0002801D5019004E0019909180191584592D00198BDE8F68F000030B50400A0
:204500000D0055F8041B072003F076FC002804D503F054FC5FF0FF3030BD641EF1D1002083
:2045200030BD00002DE9F141079F0C0015001E00102151EA67022100FFF77CFE10B15FF0EB
:20454000FF3063E0B00708D1042F06D131002800FFF7D4FF00282ED058E0012F02D15FF07D
:20456000013005E0022F02D15FF0011000E0012080463078022F00900DDB717850EA012065
:204580000090032F07DBB17850EA01400090F17850EA01600090009800FB08F0009001464D
:2045A000072003F029FC002802D503F007FCC6E7F6196D1EDDD103F0EBFB1548844220D1E5
:2045C000307840071DD5022002F0C8FE0021032003F05EFCC8B1104C206810F596656420AE
:2045E00002F0BCFE6946002003F052FC28B9009808490005000D884207D02068281AEED5F5
:2046000003E00021032003F043FC0020BDE8F2810CED00E077040000740100202DE9F043D7
:20462000804600240D001600994607E00798E419F61B17FA00F02D1810EB0909C6B14046AA
:20464000FFF7CEFD07000798AF43C7407F1CBE4238BF3746079901204B46884001B43A00E2
:2046600029004046FFF75EFF01B00028DED504002000BDE8F08300002DE9F0410C00634971
:20468000150080461E001222FFF7D4FD070098F80400102151EA0061022003F0ADFB14F8F5
:2046A000011B052003F0A8FB0021062003F0F0FB2900032003F0ECFB2D1D761EEFD1380002
:2046C000BDE8F081F0B50D005049040016001F001222FFF7AFFD01B42079102151EA00614F
:2046E000022003F089FB010001BC01430C0056F8041B062003F080FB15F8010B50F4803104
:20470000052003F079FB7F1EF1D1FFF7D7FD2000F0BD000011B569460400FFF7A9FD38B119
:2047200069462000FFF7A4FD10B15FF0FF3012BD0098000310D5354912222000FFF77AFD46
:2047400030B93349072003F057FB08B903F020FB69462000FFF78CFD0098410C012008401D
:2047600012BD0000294900B50222FFF763FD2849072003F041FB5DF804EB41E510B50029AA
:204780000CBF234C104C11490222FFF753FD1F21072003F031FB1D49052003F02DFB210072
:2047A000072003F029FB022084432100072003F023FB03F0EDFA0648006808B102F09CF8AA
:2047C000BDE810407AE500BF0B005FA030ED00E04C0500200D4910B50222FFF72BFD09499F
:2047E000072003F009FB0849072003F005FBFFF707FD07490400072003F0FEFAFFF75EFD7F
:20480000200010BD0F005FA00D005FA0F0ED00E003005FA003B5012301AA0F218DF8001086
:204820006946FFF74FFF06BD31B5114C114D89B103F0BEFA1748002101602868A04216D201
:204840006946012003F024FB00990120814303F0D3FA31BD2868A04209D26946012003F03A
:2048600017FB009850F00101012003F0C5FA31BDA6AE000048050020064B10B500241C6014
:2048800003680B600BB9424B0B60007B083A0871100010BD6C00002000B5082904BF0248F4
:2048A00000BD002000BD00BF3700008030B5ABB004000221684602F049F9BDF800100BA827
:2048C00002F044F9BDF80000042804D30BA804F011FE050000E02E4D2822002101A804F0D3
:2048E00015FE012001958DF8080000208DF80900264840221BA9069001A8FFF7BDFF01210C
:204900000BA8FFF791FF642C12D0652C14D06E2C16D06F2C18D0792C1AD07A2C1CD07B2CAC
:204920001ED07C2C20D0822C22D0832C24D026E001A800F0E1FD22E001A800F07FFD1EE01C
:2049400001A800F095FE1AE001A800F0BDFE16E001A800F0DFFE12E001A800F0E9FE0EE011
:2049600001A800F0EFFE0AE001A800F0F5FE06E001A800F0FBFE02E001A800F02FFF0021F9
:204980000BA8FFF751FF2BB030BD00BFB4980008FF00000310B501F093FB0400702002F077
:2049A000BFF870212000BDE8104002F08FB80000704700002DE9F34F804600208DF80000E7
:2049C00000265FF0FF3001F02DF94046CD280AD1022101A802F0BAF89DF805109DF8040013
:2049E00010EB012409E0032101A802F0AFF89DF806109DF8050010EB0124A4B2E01DC010C0
:204A000081464700781C01F0D3FF8246404819EB0A058346504668B9380002F09FF84846FF
:204A200002F060F806208DF800000121684602F04DF850E04946280002F088F849465046FC
:204A400002F09CF802F0B8F8B9EB00018F1B18B1FF2FF7DD3F208743FB00494504D1E01D90
:204A60004007400FC01F1B189DF80000B0B92948007840B9AA19A9195046801901F060FDAC
:204A80008DF8000010E001280ED1AA19A9195046801901F055FE8DF8000005E0DB1DDA1055
:204AA0000021A81904F032FD4046D52810D03900CF280AD19BF8000038B1F019484504D19C
:204AC0009DF80020A819491CC255A81902F020F8F6194E45B6D10D48017811B99DF80010B3
:204AE00001704046D5280BD002F02CF84046CF2806D19BF8000018B99DF8000002F00CF88E
:204B0000504601F077FFBDE8F38F00BFE00F0020E10F0020EF0F00202DE9F04F85B00221C8
:204B2000684602F013F8022101A802F00FF8022102A802F00BF8022103A802F007F8022161
:204B400004A802F003F8BDF8000003214843093001F02EFF0400BDF800002118884610EB46
:204B600008050146200001F0F1FFBDF80010404601F0ECFF0498019FBDF800B081460398B6
:204B80008246029880B22E1802F071FD01F0B2F901F0B4F93800471E000410D05846C300BF
:204BA0002A002100404601F0CBFC7178307850EA012051460140484680B28142EAD102F078
:204BC000D3F9BDF80010280001F080FF200001F011FF05B0BDE8F08F2DE9F047144EBDF84E
:204BE000207014008046BDF8240089469A462518012002F0B3FB01F07DF901F07FF930685D
:204C0000C7195046C30022004946404601F098FC6978287850EA0120BDF828100140BDF8E0
:204C20002C00814202D03068381AEAD5BDE8F0877401002070B585B00221684601F086FFB8
:204C4000022101A801F082FF022102A801F07EFF022103A801F07AFF022104A801F076FF6E
:204C6000BDF8000003214843093001F0A1FE0400BDF8000025182E180146200001F066FF0E
:204C8000BDF80010280001F061FF049B039A0299019892B289B280B29BB20FB4BDF81030B0
:204CA000280032002100FFF797FFBDF81010300001F00CFF200001F09DFE09B070BD00005A
:204CC00003B501F039FBADF8000001F03FFB8DF8020001F043FB8DF8030001F043FB8DF835
:204CE000040001F02DFB8DF8050001F041FB8DF8060001F045FB08218DF807007EE0000011
:204D000000B5042001F00CFF044801F009FF5FF400605DF804EB01F003BF00BFE32E0000FF
:204D200000B5C0B05FF480720021684601F0FEF95FF48071F0E0000010B5ADF5017D5FF406
:204D4000807101A801F002FF00282AD45FF48072002141A801F0EAF95FF4807001A941AAA6
:204D60000B7814781C409C421BD1491C521C401EF6D10998A8B1019898B104220021684635
:204D800001F0D4F900985FF0FF31884203D001980099884205D15FF48072002101A801F0CF
:204DA000D1F9002001F0B8FE0DF5017D10BD00000148042101F08ABE0499000800B588B0DC
:204DC00020220021684604F0A1FB0849684604F087FB0C208DF8040028208DF805002021F5
:204DE000684601F073FE08B000BD00BF3358EA8803B5684601F0C2FB062100BF684601F0D9
:204E000065FE03BD00B501F03FFA5DF804EB01F08DBE0000F0B5A2B0042101A801F096FEC6
:204E20000024002625460EE000985FF47A71381A04F096FB070002A840F825706D1C019882
:204E4000761C400801900198D8B1C007F7D50D2E03D1022001F09CFBECE7300001F098FBF2
:204E60000700B01E0228E6D804228021684601F031F9009800285DBF400040100090009455
:204E8000D2E7A90002A801F021FE22B0F0BD000030B5A1B0002400250421684601F056FEE0
:204EA00001A90FE0C00709D55FF0FF30042DBCBF094850F8250041F82400641C00986D1CCE
:204EC0004008009000980028ECD1A10001A801F0FDFD21B030BD00007000002003B504211D
:204EE000684601F033FE042101A801F02FFE0199009884E700B501F04DFD5DF804EB01F034
:204F000015BE000000B5C0B05FF480720021684601F0E0F85FF48071684601F0D7FD40B015
:204F200000BD000000B5C0B05FF48071684601F00DFE5FF480720021684601F0D7F840B0DD
:204F400000BD000003B5012101A801F0FFFD009088B99DF80400FE2803D0FF2804D10320A2
:204F600004E00548007801E000F0AEFF00900421684601F0ABFD03BDEF0F002001B5022157
:204F8000684601F0E3FD0849BDF80000884204BF0020ADF80000BDF800005FF47A714843BC
:204FA00001F050FA01BD00BFFFFF000000F0A4BF00F0A4BF11B501216846012401F0C6FD26
:204FC000214600A8401C01F0C1FD022001F0C6FD90B99DF800009DF8011051EA00201549A4
:204FE000884205D01449884202D01449884200D1024C200001F09AFD11BD00BFFF0500009A
:2050000001B50421684601F0A1FD9DF802009DF8031051EA00200749884205D006498842D6
:2050200002D00649884203D19DF80000FFF73EFC01BD000001010000010300000106000021
:20504000764B00200021142201FB0232528902B1401C491C0429F6DB704700006F4B002109
:20506000142201FB02325289824204BF08467047491C0429F4DB5FF0FF307047684930B537
:2050800000240A680021654D142301FB03556B8943B1EB68D31A834204DB080002F048FE10
:2050A0006C8130BD491C0429EDDB30BD2DE9F04FA5B00121594C00A8801C01F047FD0421C0
:2050C00003A801F043FD042104A801F03FFD012100A8C01C01F03AFD012102A801F036FD38
:2050E0000221684601F032FD9DF802000025642802D065284FD05FE0BDF80000484E002847
:205100003FD144480188491C0180ADF80010BDF80000FFF7A3FF0028F3D504989DF80880D9
:205120009DF803908246039800278346BDF80000ADF80A0008E0401C042806DB36487F1C26
:20514000FFF79CFF022F37DA0020142100FB01414A89002AEFD1C1F800B0C1F804A081F8EE
:20516000089081F80980BDF80A204A813268CA6000F058FDFFF764FF01281DD101F026F962
:205180001AE0FFF76BFF002816D4142100FB01403168C16010E0BDF80000FFF75FFF002857
:2051A0000AD4142100FB01414D8102F0C1FDFFF747FF08B901F018F905A80190BDF800101F
:2051C00001A804F079F9042101A804F075F9102101A804F071F9042101A804F06DF91420FC
:2051E000102205FB004101986D1C04F009FA019810300190042DF2DB01F09EF8010001A88A
:2052000004F062F929010C3105A801F05FFC25B0BDE8F08FD80F002010270000540500202F
:2052200074010020F0B5284D00242E68012E26DB264F08D13868401C3860642803DA00206A
:2052400001F06AFB08E0002001F05EFB3C607FF00040864208BF01261D48761C2E60864258
:205260001ADB6421300004F073F9060003D0002001F04AFB10E0002001F04EFB0CE0002E91
:205280000AD5002001F048FB28681249401E2860884208BF01F0CCF9114D01F04DF80E49D8
:2052A000884228680AD30D4988420BDA10B96868401C686028680A302860F0BD10B1686865
:2052C000401C68602C60F0BD5005002080000020B3020000F0D8FFFF4C040000005C26050A
:2052E000700000200A4810B50168491C01600A290CD100240460FFF795FF06480168491C9A
:2053000001600A2904BF046001F040F910BD00BF840000208800002000B502F0A8F9002068
:2053200001F002FBF9E70000F6E7000000B500F0DFFD022002F012F85DF804EB00F0DABD58
:2053400000B500F0D9FD022002F008F85DF804EB00F0D4BD7047000000B501F06DF800F047
:20536000FDFF5DF804EB01F0D7BB0000CD20FFF721BB0000CE20FFF71DBB0000CF20FFF70A
:2053800019BB0000074800B501210170034801F0F9FB03485DF804EB01F0C8BB4805002002
:2053A00010470400E10F002010B504000F2C04D3BA2C38BFFFF7B0FF55340448E4B250F872
:2053C000240080470248BDE8104057E608990008C0270900704700002DE9F04F804609985A
:2053E0000C0091469A46494601F0C8FB0027002501F0E2FBB9EB00014E1B18B1402EF7D37E
:205400003F20864387B9099853463200401901B4D8F8147021004046BF68B847070001B0D1
:20542000B74208BF0027A419AD194D45E0D117B15FF0FF3000E04846BDE8F08F2DE9FF4F83
:2054400003905FF0FF300821804601A8444601F07DFB01988146029800900002000A824652
:20546000554601F097FA0600B24538BF5646B6F5805F84BFFF208643300001F099FA07000F
:205480000ED115B1280001F069FB17B1380001F0B1FA200001F04AFBBDE8FF8F14EB0909B4
:2054A0009DB1B5422CBFB346AB4680B4019B0498B5EB0B055A464946FFF78EFF040001B04F
:2054C000DFD45C45EAD04446DBE75446DEE7000030B50400A5683F2085430BD020696268C8
:2054E0002900101801F014FB206940192061A068401BA06030BD00002DE9F04F8EB00821EC
:20550000804607A801F022FB0898079C00900002000A81464D4611280CD301F03BFA8246C9
:205520004846001D504538BF8246504601F040FA834618B909A88346142082465646361FAA
:20554000AE4205D2B6F5806F03D9760A760200E02E00254802A9320002905FF400700590D4
:20556000CDF80CB0002004900690584603B4D8F81470029B21007F684046B847070002B0D4
:20558000012F1EDB0698E419ED1B391A019175B949465846C01903F0A3FF019906985A46B9
:2055A000091D101801F0B4FA01F0CCFA12E05A46101801F0ADFA01F0C5FAB742BED0B9EB1A
:2055C000050706982D1A1CBF284601F08BFA380001F0ACFA09A883451CBF584601F00AFA65
:2055E0000EB0BDE8F08F00BFD154000870B5D3B004000521684601F0A9FA9DF8001043A839
:2056000001F0A4FA9DF80100F0B19DF8020060B1AE4D29680E1861692069096A884740B9DC
:205620002868301AF7D5002003E061692069096A88470290012809DA0298012812DB9DF849
:2056400000008100091D0EE001200290206964699DF8003002AAE468121D43A9A0470028C5
:20566000EAD50290042102A801F030FA53B070BD70B5D2B0040002E001A801F027FA002552
:205680000121684601F062FA9DF80000FF2806D09DF8001042A841556D1C402DF0D16669B0
:2056A00020692B00F66801AA42A9B0479DF80020A900FF2AE0D101AA091D42F8250001A83A
:2056C00001F004FA52B070BD30B5D2B0040000250CE0042101A801F039FA9DF8001042A8AF
:2056E0004155019902A840F825106D1C0121684601F02CFA9DF80000FF28EAD12069646926
:205700002B0002AA246942A9A04701F00FFA52B030BD000011B501210400684601F016FACF
:2057200062699DF8001020695269904768E10000010000B508694969896988475DF804EBB7
:2057400001F0F4B9010000B508694969C96988475DF804EB01F0EAB9010000B50869496920
:20576000096A88475DF804EB01F0E0B91FB504000020019014210291039004E09DF80010AC
:2057800001A801F0E3F90121684601F0DFF99DF8000038B920696469019B039A0299646A7C
:2057A000A04769E0012100A8401C01F0CFF99DF801000128E2D0022802D0032804D007E087
:2057C0009DF8001002A8DCE79DF8001003A8D8E79DF8000001F0C2F9D5E700001FB50400D3
:2057E0000020019001200290039004E09DF8001001A801F0ABF90121684601F0A7F99DF8F5
:205800000000E0B9626901992069926A904719480178491C0170012001F0A0FD6269039968
:20582000206952699047029801F098FD61692069C9698847040001F0A1FB20001CE001210A
:2058400000A8401C01F082F99DF801000428CDD0052802D0062804D007E09DF8001002A842
:20586000C7E79DF8001003A8C3E79DF8000001F075F9C0E77801002001F058F91FBD00002E
:205880002DE9F147804691460C004D462E009A46CEB1099950464B4603B4D8F81470D8F84D
:2058A00010002200BF6C0021B84702B0002848BF00200999361A884004492418009809681E
:2058C000401A0128E4DAA81BBDE8F2877401002031B504210400684601F038F901F05AF8EF
:2058E0000099814202D301F055F800900098052816D301F05DF80500002001B4019A00231D
:20590000291D121F92B22000FFF7BAFF2860011D280001F0DBF8280001F06CF801B031BD4F
:20592000002001F003F931BD77B5060001A8082101F00CF9BDF80400BDF80A1080008842A0
:20594000B8BF0846001D01F033F804000BD1BDF80A0001F003F97FF48370009004216846F4
:2059600001F0B4F877BDBDF80A1009B101F0EEF89DF80900002568B9022001B4BDF80A304C
:20598000BDF80820211D3000FFF77AFF0546019001B01AE0012816D10220F084BDF8060065
:2059A000BDF80420022103B4BDF81200130001218010801A14EB800230697669B66CB047FC
:2059C000029002B001E0074800900099200003F087FDA900091D200001F078F8200001F032
:2059E00009F877BDFAFEFFFF11B501210400684601F0ACF862699DF800102069D26B904740
:205A000001F094F811BD000010B50300012001B11F48002B39D0596809B150F00200996847
:205A200009B150F00400D9680C0018BF50F008001C690CB150F010005C690CB150F0200088
:205A40009C690CB150F04000DC690CB150F080001C6A0CB150F480705C6A0CB150F4007094
:205A60009C6A0CB150F48060DC6B0CB150F4805009B150F40050996C09B150F490405B6C3F
:205A800019001EBF01461046984701F04FF810BD0100004003B50121684601F057F8012164
:205AA00000A8401C01F052F8022001F057F860B99DF800009DF8012001A952EA002002F0E9
:205AC000EDF801990022FFF79FFF03BD07B50121684601F03BF8012100A8401C01F036F8DC
:205AE000042101A801F032F89DF800009DF8012002A952EA002002F0D1F8019A0299FFF784
:205B000083FF07BD10B58BB02822002101A803F0FDFC012100A8401C01F018F804E09DF89F
:205B2000001001A801F030F80121684601F00EF89DF8000030B99DF8010001A902F004F91F
:205B40000BB010BD012100A8801C00F0FFFF9DF802000728E3D0082804D0092807D00A28B2
:205B60000CD01CE09DF8001001A8001DD4E79DF8001001A8401D00F0E9FFD5E79DF8000053
:205B800008282CBF08240446210001A8083000F0DDFF9DF80000001B00F0E0FFC4E79DF8E7
:205BA0000000F9E731B50221684600F0CFFF9DF801509DF80010174B28220800042900FB29
:205BC000023424D2616911B30E2D20D2124A142100FB012012490968C160206910B92000D2
:205BE00002F084F80D48626950F82550D06C58B12069D26C012190472000A84762692069F2
:205C00000021D26C904731BD2000A84731BD00F059FF31BDA4050020540500205C9A0008ED
:205C200074010020704700002DE9F047089D0C008046E00791469A464E4614D59EB1099948
:205C400000202B0003B4D8F81470D8F8100001223F6B2100B84702B000286CD4361A01288E
:205C600067D16D1C641C5046400051D4A00716D5022E14D3099901202B0003B4D8F8147046
:205C8000D8F8100001223F6B2100B84702B0002851D4B6EB400601284BD1AD1CA41C5046ED
:205CA00000001AD4042E18D30999B0088246022003B4D8F81470D8F810002B003F6B52463D
:205CC0002100B84702B0002835D4B6EB800650452FD1504680002D182418022E18D30999B1
:205CE00070088246012003B4D8F81470D8F810002B003F6B52462100B84702B000281AD403
:205D0000B6EB4006504514D1504640002D1824187EB1099900202B0003B4D8F810003200E6
:205D20002100D8F81440246BA04702B0002802D4361AB9EB0600BDE8F08700002DE9F14794
:205D4000099D804691460E004C469A46F00712D58CB1002001B4D8F81470D8F810002B0031
:205D60007F6B0122B84701B000287BD4241A012876D16D1C761C5046400061D4B00715D57A
:205D8000022C13D3012001B4D8F81470D8F810002B007F6B01223100B84701B0002861D46F
:205DA000B4EB400401285BD1AD1CB61C504600002CD4042C2AD3D8F81470B86B68B1D8F8ED
:205DC0001000BF6B2B00A2083100B847002849D48100641A761815EB8005A008824615D0D8
:205DE000022001B4D8F81470D8F810002B007F6B52463100B84701B0002833D4B4EB8004B8
:205E000050452DD1504680002D183618022C17D360088246012001B4D8F81470D8F81000F4
:205E20002B007F6B52463100B84701B0002819D4B4EB4004504513D1504640002D183618FA
:205E400074B1002001B4D8F810002B00D8F81450220031006D6BA84701B0002802D4241A02
:205E6000B9EB0400BDE8F287F0B590B0040010000F221500042601272F406D0807B15D4092
:205E8000761EF8D16E4646F82250521EF1D514F8012B6B4642401007000F53F8200090EA95
:205EA00012100207120F53F8222092EA1010491EEDD110B0F0BD0000024B00B5FFF7D4FF10
:205EC00080B200BD0884000070B5084D040028780600012803D1012C18BF01F0DDFE200036
:205EE00000F05AFC2C70300070BD00BFEF0F002000F04CBA00F04CBA00F04CBA00F054BAA6
:205F000030B5064D040000222900FFF7D5FF615B884204BF002030BD012030BDFE5B000073
:205F200001000A780020202A06D1491C04E00A2300FB0320303880B211F8012B302A01D30C
:205F40003A2AF4D370470000214A2DE9F04389B069462424241F13590B51FBD100F22D186D
:205F60004046001DFFF7DCFF81464046C01DFFF7D7FF040040460C30FFF7D2FF050040469F
:205F80000F30FFF7CDFF0600002704E000201BE07F1C0C2FFAD003206B4607FB0030032209
:205FA000414603F01BFB0028F2D10A480C21BFB2201800FB01701F2100FB0190182100FBD2
:205FC00001503C2100FB016009B0BDE8F08300BF949A000830F8FFFFF0B5ADF2044D002016
:205FE0005FF4806400F098FD31480221ADF80000684600F0ABFD5FF4806101A800F0A6FDEE
:20600000BDF800005FF4B841884234D101A8FFF79BFF05002948FFF797FF15B108B1A8420C
:2060200029D2254E224601A9300000F0E5F8370017F58067710C01A800F088FD720C01A9F6
:20604000380000F0D9F814F58064A4B25FF4B8418C42EDD33000FFF753FF04001CBF30465D
:2060600000F0CCF8200000F057FD642001F076F900F0DEFA19E001A800F2101114488022A9
:2060800003F0BEFA07E05FF4806101A800F05EFD14F58064A4B2BDF800108C42F3D305485D
:2060A00001F05CF9002000F037FD0DF2044DF0BD55AA0000DC050000009C0008004000088D
:2060C000034902480A7802B10800704710410008C804002000B540B13AB18B18B3F5807F16
:2060E0009EBF114BC91803F08BFA00BDF0B5C0B004000D001600ACB1A6B1A819B0F5807F7C
:2061000010D8094F6846FA0C390003F079FA320021006846401903F073FAFA0C6946380045
:2061200000F06AF840B0F0BD00F8000800B540B13AB18B18B3F5807F9EBF124BC91803F007
:206140005FFA00BDF0B5C0B004000D001600B4B1AEB1A819B0F5807F11D80A4F6846FA0CCE
:20616000390003F04DFA320021006846401903F047FA0023FA0C6946380000F017F840B01F
:20618000F0BD000000FC00082248016851B906495FF480720988914222BFD10001607047AF
:2061A00091000160704700BFE0F7FF1F2DE9F041984604000D00160009E0002000F0A4FB9E
:2061C0007F1CB7EB460FF8DB002000F0A5FB404618B13100200000F01FF832002900200088
:2061E00000F01EF832002900200003F0F7F908B9BDE8F0810027E4E70123D7E710B50400C7
:20620000FFF7C2FF034801682000BDE8104000F003B800008C000020004B18473510002098
:20622000004B18479910002067480B49394A416037490A60094A4A60384A2021127812B1CD
:20624000012A04D07047064A026001617047054A02604161704700BF34C84C444444454358
:20626000834434388444343857485FF0443101600349416026482749016002494160704724
:2062800034C44C444444454423480068704700001A4800B57FF0E06201680A4052F080613D
:2062A0000160174800F0CEF81848164A016851F00C01016044485FF0443101604160C2601C
:2062C0001348144A0260104A41602021C16012490A604A4901220A70104900220A70806874
:2062E000800654BF002001203E490870087810B1FFF79AFF00BDFFF7B7FF00BD040001408A
:20630000204E0000E30400007011010018100240000C014044448444A8000020E40F0020C4
:2063200010B94048810C01607047000010B97A48810C01607047000000487047E40C000048
:206340000E4800680106090F04E000000B4800680106C90E0120084070470000B34801685F
:20636000F8E70000054800680106890FF2E70000024800680106890EECE70000080801409D
:20638000AA4800680106490EE4E7000038E00000604836E00C480221F0224161016891433C
:2063A00051F030010160704710B5074C022020615FF47A7000F0A0FA2068F021884350F02D
:2063C0008000206010BD0000000801400B4800B5017831B9012101700248007808B1FFF738
:2063E00023FF00BDE50F0020044800B5017819B100210170FFF738FF00BD0000E30F0020D8
:206400000C480121016070470A4801E0414800BF802101607047000002485FF480410160FB
:2064200070470000140C01403B485FF4804101607047000014080140364820214160016077
:206440007047000011490860C0B10D4A01460020914208D20B4A8A18B2FBF1F2D21E012A45
:2064600002DA012200E00022B44B1A60064AB2FBF1F1274A0A39116048BF1060704700BFB1
:20648000C05C15003F54890040548900900000202DE9F14F009205001D480E0098468146DD
:2064A0001C484446002782461B485FF48041F20754BF4160016080208346E80754BFCAF84D
:2064C00004B0CAF800B02020CAF80400D9F800006D0876087F0808B100F012FAFFF742FF59
:2064E00008B157F080072020CAF80000D9F8000008B100F005FA641ED6D100980821424628
:20650000891ACF400770CAF804B0BDE8F18F00009400002010080140100C0140F0B51F0089
:2065200014000D00060016F8011B15F8010B08232200FFF7ADFF641C7F1EF4D10020F0BD53
:206540002DE9F0438046894616001F00FC0805D02300FFF7E3FF05000CD100E000257F07E7
:206560007F0F07D04046015D4846005D3B003219FFF78EFF2800BDE8F083000002490160F2
:2065800004218180704700BF006CDC0270470000154970B101280FD0022810D0032812D0C0
:2065A000042814D00A2816D00B2816D00C2816D017E00E48007870470D48006870470D483B
:2065C000B0F9000070470C48B0F9000070470B48B0F9000070470888704748887047888816
:2065E00070475FF0FF3070479C000020E20F0020A4000020DA0F0020DC0F0020DE0F0020FD
:206600000A4910B56B4C20780968890608D56B49097811B108B9FFF707FE0120207010BD05
:2066200018B100202070FFF71FFE10BD080C014000B501F01CF80348034A016889B20A4369
:206640000260FEE70CED00E00700FA052DE9F74F9846394D0822D21A8DF8042042462023CA
:206660009846802399467FF070439A46334B00279B46DBF80030002B32D00C00060000925E
:20668000F007286804D51AEA000050F0405003E01AEA000050F000402860E00754BFC5F820
:2066A0001490C5F81090C5F81080DBF800007608640800F025F9C5F81480DBF80000FF0599
:2066C0003F0E00F01DF9A868C00648BF57F080070098401E0090D3D102989DF8041026E049
:2066E000C3072B6804D51AEA030353F0405303E01AEA030353F000432B60CB0754BFC5F8E4
:206700001490C5F81090C5F81080C5F81080C5F81480AB6840084908FF053F0EDB0648BFA8
:2067200057F08007521EDBD102989DF80410CF4007700020BDE8FE8F000801409800002053
:206740002DE9F14F0092804689469A465046C40811D0250093464E46474617F8011B16F841
:20676000010B08235A46FFF771FF0BF2010B6D1EF3D178B900E00020514649070AD05046FC
:20678000430700985B0F02194046015D4846005DFFF75CFFBDE8F28F064A074912783AB137
:2067A000064A127822B10A78824201D008703BE508707047E50F0020E40F0020E30F002015
:2067C00072B6464A1268026043480068086062B67047000072B641490968421A012A08DA6F
:2067E000404A1368264AC01A12689A18521A3C4908603948026062B6704700001B4830B5CB
:206800001B4D016037490A601D4A13601D4B1C6825431D60174B7FF470651C68254055F43E
:206820000064154D1C60154B5C0D9C6024245C600024DC6000680001B5FBF0F0401C400850
:2068400000011860254809680160234811680160234810210460586850F4005058603520DA
:2068600000F09CFF352000F063FF30BDAC000020044000000408014000449508083801403A
:20688000B4000020181002400248042201689143016070470C38014092E700009AE7000076
:2068A00000487047B89A00080A480B490B4B10B500680A681C6852B1521E04F8010B05D10F
:2068C0000748002402680460064804680A601C6010BD00BF04380140BC000020B80000201A
:2068E000C0000020B0000020704700007047000000487047FF3F0020004B1847D111002071
:20690000004B1847D91100200E4A0A2100FB012101224A70FFF704BD0A4A0A2100FB0121F3
:2069200000224A70FFF702BD064A0A2100FB01214A7892F001024A7001D0FFF7F1BCFFF7C3
:20694000F5BC0000C40000207047000000224260016027490A680AB9086070470A0000E018
:206960001A1D13680BB19842FAD24360106008680028F2D000E0080041680029EDD00268B5
:2069800083188B42F7D14B684360096851180160F2E7000016490020096804E00A68904245
:2069A00038BF104649680029F8D100B10838704710B501000020C91D072291430C4A0831E7
:2069C00000E01A1D136893B11C68A14208D218005B1813600268521A1A6042685A6003E00B
:2069E000EFD118005B68136008B140F8081B10BDD000002000B518B150F8081DFFF7A6FF32
:206A000000BD0000CA1D07218A4350F8081D08320260891A801899E710B504002068FFF7D2
:206A2000E9FF0020206010BD072291438EE7000011B5204CFFF75CFF011B491C20001E4C01
:206A4000FFF7F2FFFFF724FCFFF77EFF0120FDF7AFFFFFF7C9FC1948FFF7F4FCFFF76CFCA3
:206A60000020FFF751FF00F0AFF8FEF7B3FC04E0FFF75AFF322000F071FC00F0BDF80028C6
:206A8000F6D00020FFF740FF0DE001202060684600F0B4F8002806D45FF0FF3020609DF86E
:206AA0000000FEF781FC064800780028EDD000F099F8E2E7E013002050050020204E000079
:206AC000F00F00204B4801210170704700B521B118B15D4A12685269904700BD5A4A1268DC
:206AE000D269104730B588B0040020220021684602F00CFD212C34BF25462025524A290022
:206B00006846126852699047641BF3D108B030BD4D4A12689269104701B5012102E00000B6
:206B200001B502216846FFF7D1FF01BD01B50421F8E700006846FFF7D1FF01BD01B5042183
:206B4000F8E7000040480068006A004709B9002070473D4A126892681047000030B588B0AD
:206B60000400212C34BF2546202529006846FFF7EDFF08B9641BF4D108B030BD324A1268C8
:206B8000D26810470421E1E711B50022040068460260FFF7DBFF9DF801209DF8001051EA15
:206BA00002219DF8022051EA02419DF8032051EA0261216012BD0000234800680068004755
:206BC00021480068406800471E4800B500F046FC00F09AF81C481D49016000BD194800F0ED
:206BE0006DBC000003480021017017480068006900470000F00F002000F09CB931B5114D70
:206C0000040003E00221280000F090FC00F092F958B100F08DF9012807DB0B480B490160B9
:206C200001212000FFF792FF32BD00F083F90028E8D00021684600F06DF9280000F060FCB7
:206C4000E4E70000D4000020DC000020DC9A000811B50B246A460A2102F060FC2849009AD2
:206C600030320A55641EF5D511BD000003B5012200A80121401CFFF72DFA9DF8010001285C
:206C800002D0022806D00EE00422002101A8FFF74DFA04E00422082101A8FFF71BFA019887
:206CA000FFF7D6FF03BD012200216846FFF712FA9DF80000042805D2A5489DF8001001F238
:206CC0000111018003BD0000FFF788BF00B58807800F022818BFFFF781FF00BD9B480088B2
:206CE000704700009A480088704700009948006870470000984800687047000000487047BE
:206D0000040000200120704701B5FFF7AFFF01F09FFD002001B4002340220221012001F001
:206D200019FD0F4B8DF80400402001B402460221002001F00FFD8DF8090002A801F038F963
:206D4000084801F053F908490848002201F082FF0749002001F0C4FE01F096FD07BD00BF47
:206D6000EC000020C96C0008CD6C0008E0000020056D000800B5FFF7B9FD142000F0EEFAA2
:206D80005DF804EBFFF7B0BD2DE9F04F8B466549884698F80010002948D14E4D04003548AC
:206DA0002F685E46814607B34020C01B86422CBF8246B246524621004846C01902F020FC3B
:206DC0001AEB07071AEB0404B6EB0A06402F0CD14F48002240210368484601F0D5F840285D
:206DE0001CBF012088F800000027B009800182460FD04748002251460368200001F0C4F88F
:206E000050451CBF012088F800001AEB0404B6EB0A062EB132002100484602F0F1FB3700CE
:206E20002D482F605A46016889180160BDE8F08FF0B5294C2068E0B13A4D2978C9B9254ECF
:206E40000027316861B1324801220368094801F09BF8316888421CBF01202870376005E010
:206E6000810603D1400518BF01F086F8276001F0C5F8F0BD2C01002070B52A4E04000D004F
:206E8000307860B9FFF7D4FF2148012229000368200001F079F8A8421CBF0120307070BD13
:206EA00030B505001F480C00007890B90948006808B1FFF7BDFF00222100280001F03EF8FE
:206EC0000548A1061EBF0021016030BD01680919016030BD6C0100207001002070B5114EF7
:206EE00004000D00307838B12A000021200002F00DFB5FF0FF3070BD05480268200001F018
:206F00004FF8A84202D001203070EDE7002070BD00000020034A127812B15FF0FF3070479D
:206F200001F006B8E60F002001F01CB801F012B801F00CB800B501F0C1FE8007800F0228B3
:206F400004BF012000BD002000BD000064000020660000201400002018000020004870473E
:206F6000E011002068467047034800B5007808B900F077FB00BD00007901002010B52A4C6E
:206F80002078401E207000060ED100F070FB7C48007828B10120207000F052FB0020207078
:206FA000607808B900F05DFB10BD00002DE9B04181680022904631B10A68496802B15160D2
:206FC0000A60C0F80880417C174C8907890F417411D16C490A68A2B90860207830B901209C
:206FE000207000F02DFB0020207004E06448017851F002010170607808B900F032FBBDE820
:20700000B081037C157C9D42E6D38242E5D0AB42F1D105002D68002DEDD02F7CBB42EAD188
:207020009542F7D1D8E70000780100203A4930B50400207C00E011000A6812B1157CA842B0
:20704000F9D3226061610C6042B15461127C21002431824214BF002048780870607C20B964
:2070600000F005FB2000FFF7A1FF30BDF0B5994C974D274E274F00F0FAFA4148017811F03D
:20708000FE010170286810F57A6020600DE0386001683160002101743868816000F0E1FA30
:2070A00038684068804700F0E2FA306830B181682A68891A0129EADB8068206000F0D1FA4C
:2070C0001548066807E0F0682168411A48BF206000F0C7FA3668CEB100F0C9FA29480168E0
:2070E00021B1317C0068007C81420FD3707C4007EED5F0682968401A0128E4DA3000FFF742
:2071000055FF00F0B4FA707C0028DCD1F0BD00BF880100208C0100207C01002030B500F088
:20712000A6FA914804681648017811F0FB01017000F097FA0CB32568FDB1207C297C8142A6
:207140001BD100E00D00296811B10A7C8242F9D000F08DFA0B480168A14204BF216801602D
:20716000606921680160486165612868206000B1446145F8244B6878287000F072FA30BD1A
:20718000E70F0020840100202DE9F04F0020002180464D4801707048012101707248814606
:2071A000D9F8000030B1816A21B109680A001CBF40688847424D5B48424C8246287850B16A
:2071C000D9F80000217800F8241F9AF80000400748BFFFF7A3FF3D488346DBF8000050B36E
:2071E00004E03068CBF8000000F03BFA00F03FFADBF80060FEB1777C38001CD0780710D5A5
:207200003349F0680968411A012905DA3000FFF7CDFE707C28B90EE02E490A68821A48BF8D
:20722000086017F0FB001028DBD1B06880684068407C0028D5D100F01AFA9AF80000C00771
:2072400012D49AF8000010F0FD008AF80000DBF8000048B3DBF80000407C50B1DBF8000006
:2072600080688068406806E000F0FBF9FFF7FEFEE1E7DBF80000C9F80000006A0078CD28A7
:207280001CBF782000F07AF9D9F80000816A21B149680A001CBF40688847D9F80000243058
:2072A00000782070287008E0287020702A48C9F800800021017000F0D4F9BDE8F08F00BF39
:2072C000EA0F0020E90F00207901002084010020740100201C00002030B51F4C2578681CFC
:2072E000207000F0ADF96078257008B900F0B9F930BD000010B500F0AFF91748012101705C
:20730000407808B900F0ADF9FFF728FE0400FFF729FE021B203A012AA2BFCD21204602F0D8
:207320007BF910BDE70F002010B504000A48007830B100F096F90B480068001B0AD5FAE76D
:2073400000F095F908480168CC60006804214174FFF7C2FF10BD00007801002001490968B0
:207360004018E1E774010020800100202DE9F047089E099F0400884691469A462C22002124
:2073800002F04AF9251D85F80C900A9884F82500404608B1C5F81480EE61AF613A00CD2103
:2073A000300002F039F9F019483807218843002101605FF0807101640749C163C0F844A0C6
:2073C000286006480178491C01702000FFF72EFEFFF7D4FDBDE8F0872D760008780100201F
:2073E0007FB50C4E0400029430680D000194039000F03DF92068009068462060009808B1DB
:207400006946416030686946816030684574FFF763FF7FBD80010020FFB50F4F04000294C2
:2074200038680D0016000194039000F020F92068009068462060009808B1694641603868D1
:207440006946C66038688160386855F004014174FFF742FFFFBD00BF800100200822002199
:2074600002F0DAB830B50D4C05002078401C207000F0FDF86078401C6070280000F01EF8AA
:20748000280000F00DF86078401E6070000608BF00F0E7F8BDE83040FFF770BD780100205C
:2074A00010B5040000F0E3F8002020710248007808B900F0D6F810BD7901002030B50F4C9F
:2074C000050000F0D4F86078401C6070286850B12078401C207000202871280000F062F8A7
:2074E000FFF74CFD01E0012028716078401E6070000608BF00F0B5F830BD00BF78010020FD
:2075000010B5040000F0B3F8207928B948212000BDE81040FFF764BF002020710248007883
:2075200008B900F09EF810BD79010020F0B5114D114F04000E0000F09AF8286886192079DE
:2075400080B9320048212000FFF766FF00F08FF82868301A012805DA787808B900F081F869
:207560000120F0BD00202071787808B900F079F80020F0BD740100207801002010B50400B6
:2075800006480178491C01700021417000F069F80348047001780029FCD110BD7801002097
:2075A000E80F002010B5040002E0C068FFF7FEFC00F05DF820680028F7D10348007808B9B0
:2075C00000F04FF810BD00BF790100202B48016851B1EFF30980A0F1240029490B6880E803
:2075E000F80F26490A68506000B5FFF7CDFD5DF804EB2248016871B1486890E8F80F2049AD
:207600000B6000F1240080F309884EF0040E13F47F4F26D070471B484FF08071C1611A49FC
:20762000816180F309884EF0040E704700F019F8204600BD00F015F800F00AF8FEE707E07E
:2076400000B500F005F800F00CF85DF804EB0EE00E480F49016070470E480F4901607047D6
:2076600000BF4FF0000080F31188704700BF4FF0800080F31188704700BF000080010020A8
:2076800078010020C01300202977000804ED00E00000001020ED00E00000FFFF30B5134CA6
:2076A000134D2078401C2070FFF7DBFFFEF7A8FFFDF718FE1D480168491C01600D4800681F
:2076C000081A03D4287850F001002870FFF7CFFF2078012803D1287808B1FFF7B0FF207849
:2076E000401E2070BDE83040FFF7BBBF78010020E70F00201C00002000B5FFF7B8FF08487A
:2077000008490160244805210160FF210F2000F045F80F2000F00CF85DF804EBFFF724BC0B
:2077200014E000E03F190100FEE700007401002010B50400FFF79BFF3B2C25DA102C09DBC3
:207740001349103C60110122E306DB0E9A4041F8202019E00F48042C03D1016851F4803115
:2077600011E0052C03D1016851F400310BE0062C03D1016851F4802105E00F2C04D10648B1
:20778000016851F002010160BDE81040FFF7ECBB00E100E024ED00E010E000E070B504009E
:2077A0000D0000263B2C22DA102C04DBFFF75FFF1048201817E00120042C04DA01220023C8
:2077C0000D2C06D106E00022072CF8DB0B2CF6DA0123002013431843000608D1FFF747FF74
:2077E0000548241F001906780570FFF7BDFB300070BD00BFF0E300E018ED00E0394930B524
:20780000394C002041F8040B142241F8040B7FF4FE0541F8042B41F8040B41F81C090A6807
:2078200052F001020A60314A13681C4014600B682F4C1C400C600C687FF480231C400C60CB
:20784000146825402B4C15607FF4803520600C6825400D600C6823400B600B6853F48033BE
:207860000B600B689B03FCD5234B10251C6814F038041C601C6854F002041C601C68AC431B
:207880001C601C6854F010041C601368F024A343136013687FF46054136013681C401460CC
:2078A000106010687FF4E06303401360080D106010687FF47C13034053F4E81010600F482C
:2078C0000123036008688001FCD510680321884350F002001060106810F00C000828FAD1C7
:2078E000012030BD0C1002400000FFF804100240FFFFF6FE0810024000200240600042423D
:20790000044A0100137818008B4202D093F0010111707047EB0F00200020F1E70248034971
:2079200001600120ECE700BF08ED00E000400008704700007047000070470000704700003A
:2079400070470000704700007047000070470000704700007047000070470000704700006F
:2079600070470000704700007047000070470000704700007047000070470000704700004F
:2079800070470000704700007047000070470000704700007047000070470000704700002F
:2079A00070470000704700007047000070470000704700007047000070470000704700000F
:2079C0007047000070470000704700007047000070470000704700007047000070470000EF
:2079E00070470000704700007047000010B56C4C206830B1FEF748FF2068FEF7FBFF0020A9
:207A00002060002010BD000070B5040015D00B4D2100A868FFF77CF8FFF7D2F8261AFBD02D
:207A2000A86869688019A860884224BF2868A860A868FEF733FFA41BEED170BD200000205D
:207A4000F0B5574D85B004002868002630B902960396082102A8FFF739F82CE004A901A878
:207A6000FEF71AFFA9680198471A04D1049828B9EF68012602E044BFE8683F18A742B8BF31
:207A80003C4602960394082102A8FFF71FF864B1A8680199884209D369680F1AA742A8BFA6
:207AA00027463800FFF7B0FFE41B14B12000FFF7ABFFFFF747F805B0F0BD000031B505E096
:207AC0009DF8001014342000FFF708FA0121344C6846FFF703FA9DF8000050BB6069FEF700
:207AE000DFFE05006968286801F038FDA169884238BFA061A968286801F030FDA1698142C5
:207B000038BFA0612068002530B1E1682269914235D0FEF76FFF2560206930BBFEF73AFFA9
:207B20001E4940180140B1F5007F1DDA5FF0FF352FE0012100A8401CFFF7D0F99DF801001C
:207B40000128BDD0022802D0042804D007E09DF800101834B7E79DF800101034B3E79DF8E5
:207B60000000FEF7FBFFB1E721612069FEF720FF206020692168E0600818606049B1FEF7BE
:207B800083FE23692268A1696069FEF737FE2068A0602800FEF7CAFF31BD00BF00FEFFFF3A
:207BA0002000002003B5012100A8801CFFF796F99DF80210002066291FD1019004E09DF892
:207BC000001001A8FFF78AF901216846FFF786F99DF8000018B90198FFF732FF03BD012126
:207BE00000A8401CFFF77AF99DF801000328E6D09DF80000FEF7B2FFE6E7642904D06529AA
:207C00000ED06E2917D003BDFFF758FF03BD012100A8401CFFF762F99DF80000FEF79EFF9D
:207C200001216846FFF75AF99DF800000028EED1FFF7DCFE11E0019004E09DF8001001A82B
:207C4000FFF74CF901216846FFF748F99DF8000030B9019890B15FF0FF30FEF767FF03BDF1
:207C6000012100A8401CFFF739F99DF801000128E3D09DF80000FEF771FFE3E71C20FEF74F
:207C80005DFF0198FEF75AFF0198FEF709FE1421FEF71CFF03BD0000A8E6000010B50200B2
:207CA000002000235FF48074121B11D0521E11D00A4C121B0CD0521E0CD0094C121B07D0D7
:207CC000521E07D0074C121B02D0521E02D002E0012300E0044801B10B6010BDFF010000AD
:207CE000FF020000FF070000B498000870B50400FEF750FE0500B5F5805F02DAFEF74AFE16
:207D00000500A5B12800FEF753FE636906002A00DB6A310020009847002805D4291A3000B5
:207D2000FEF770FE266170BD3000FEF763FE70BD164A282100B500FB0120016911B1103093
:207D4000FEF76AFE00BD000070B50C0004281BDA2168090EFF2908BF0021227952EA01250A
:207D60000A4A2821ADB200FB0126FFF7E1FF00212800FFF793FF606128222100300001F0F1
:207D80003FFC3000FFF7B2FF70BD0000A405002001B50823FF208DF8010000208DF80200AE
:207DA0006A4600A9491C00A8801CFEF7C9FC01BD03B50849004805E0009B000803B505496A
:207DC000034800BF30236A46FEF7BAFC03BD00BF089B00084C0000200549064800B58AB0CA
:207DE0005FF484736A46FEF7ABFC0AB000BD00BF349B0008109B00082DE9FF41494C224ED2
:207E00000091804691EA1140002790EA102090EA101090EA90000100400848400121014096
:207E20008DF804102568643502E0FFF7D5FF7F1C16480D2302AAB446414640186146FEF78D
:207E40007FFC9DF809004007400F012807D1282302AAB11C6846FEF773FC002010E0022862
:207E600009D0042802D1FFF7A3FF01E0022FDCDB5FF0FF3004E02068281AD9D57FF001007F
:207E800004B0BDE8F0810000440000205C0000202DE9F747804600208DF8080021480C00FC
:207EA000002681461D48D9F800508246643502E0FFF792FF761C1A4F0D236A46514640468D
:207EC0003818FEF73DFC9DF8010047077F0F012F10D1C006870F21236A465146891C01A86C
:207EE000FEF72EFC1CB1009857EA800020600020BDE8FE87022F09D0042F02D1FFF758FF16
:207F000001E0022ED4DB5FF0FF30F1E7D9F80000281AD0D57FF00100EAE700BF3C00002037
:207F2000540000207401002000210720B0E700000A0001003048007800F02ABD13000A006A
:207F400001003148007800F033BD00002A48007800F0E8BE2C48074A2421007800FB012031
:207F6000C06870472448034A2421007800FB0120C0687047E802002023480123007800227E
:207F8000012100F061BD000000B508B4130000BF0A0001001C48007800F074FD02BD000067
:207FA00013000A0001001448007800F0DFBC000010B5040000F0D6FE0B4A142100FB012011
:207FC000FF210C308170C1700171227863780121914001229A400A4302800B482178017020
:207FE0006178417010BD00BF7803002001000248007800F0D7BE0000ED0F0020024800BF63
:20800000007800F01DBD0000EC0F00200148410D0160704710080140014800F015BE00BF30
:20802000589B000810B50E4C2078401C2070FFF718FB17480068010018BF8047FFF717FB2B
:208040002078012804D10748007808B1FFF7F7FA2078401E2070BDE81040FFF702BB00BF36
:2080600078010020E70F0020094900B50860F0212320FFF793FBF0212420FFF78FFB2320F2
:20808000FFF756FB24205DF804EBFFF751BB0000900100206C4A01001068136859181160D2
:2080A000704700000D4B30B5664DC400002A2D6803D02C1913EB440403E02C19084D15EBBB
:2080C0004404490049082180954912EB4000228813EB420241F8202030BD00BF0060004051
:2080E0000860004030B5574CC300002A246804D0E318114C14EB430317E00025E3180F4CF4
:2081000014EB43033F2906D24C08A4B2C90709D5641CA4B206E04C09A4B20125E1061CBF33
:20812000641CA4B2A10251EAC53119607B4912EB400041F8203030BD046000400C60004055
:20814000A84A30B512EB8000026812F440528A420FD0174A074B04684C401C40144304605C
:20816000056815F440558D4203D04C4023401A43026030BD8FBFFFFF9A4A30B512EB800025
:20818000026812F030028A420FD0094A074B04684C401C4014430460056815F030058D426C
:2081A00003D04C4023401A43026030BDBF8FFFFF80800000022A06D351F8043B921E022A9C
:2081C00020F8023BF8D20AB10968017070470000B94800B55FF41C41402201601949002081
:2081E000086019490A6000214D4A42F821004B4A42F82100491C2029F6D30820FFF74AFF6A
:20820000002201000020FFF74DFF002208211046FFF768FF0820FFF73DFF0122010000203D
:20822000FFF740FF012208210020FFF75BFF6D48034940F84C1B8021016000F023FD00BDDE
:2082400030320000505C00409402002000B500F039FD9948016851F008010160016851F0A0
:208260000401016000BD00001FB55E482A4A01680A4002602948006800688405A40D080550
:208280000ED52748220001686846FFF793FF684600F0CCFF5FF440510020FFF751FF1FBD3C
:2082A00054B11F482200016802A8FFF783FF220002A9002000F01AFC1FBD0000164AF0B5D1
:2082C00004004848250010EB850001680A400260124850F8350000688605B60D412E01D380
:2082E000402600E066B10E480A4F320050F835103800FFF75FFF32003900200000F0F6FBBB
:208300005648405D20B15FF440512000FFF718FFF0BD00BFA80200208F0F00001402002036
:208320009401002010B5654C206810F41E40410505D57FF480602060FFF74AFF10BDC10464
:2083400019D57FF4805020602448006810F44040B0F5004F02D0B0F5405F02D1FFF776FFCC
:2083600010BD002838D054480C2201689143016000F0AEFC10BD010503D57FF40060206000
:20838000ECE7010407D4800523D57FF40070206010BDFFF769FF206800041DD52068216890
:2083A00001220007000F09090A400D49030008D1002AEED10B4A13681940116000F00CFC7B
:2083C000E9E712B1FFF77AFFE5E7064B13EB8002F1E77FF41E40206010BD00BF485C004065
:2083E0000F8F0000005C004030B504000D00C4B100F010FA8021014007D00DB1102100E056
:2084000020212000BDE83040B6E62DB15FF480512000BDE8304093E65FF400512000FFF7E0
:20842000ABFE30BD01490020A6E600BF10100000024950F080000860704700BF4C5C004000
:20844000064900220A54704710B55FF440510400FFF776FE01480121015510BD9802002037
:2084600000B500F0BDFC12487FF4800201680A4040F80C2B01687FF400020A4040F80C2B96
:208480000168002251F4000101600B48032101600121016009490A60010D01600548FFF7E1
:2084A000E3FDFFF795FE5DF804EB00F08FBC00BF0410024025830008405C0040445C004053
:2084C000FFF7A4BD02490878401C0870C0B27047EE0F002070B5417905884C06640E090621
:2084E00054BF002601260079002120B1012805D0032806D007E05FF4007104E05FF48061EF
:2085000001E05FF4C0610EB1202001E05FF400502B4A0843204342F824002800FFF7BAFD2D
:20852000320001002000FFF7BDFD320029002000BDE87040D6E500007047000008B14020DD
:20854000704708207047000070B50D4C150014EBC0046468022D06D331F8026BAD1E022DCB
:2085600044F8046BF8D20DB109782160054911EBC00149680A603021BDE87040FCE5000019
:20858000940100201402002000F0EEBA2021F3E50020704710B5040000F03CF9084911EB2D
:2085A00084010A68000605D5500608D552F04000086010BD500402D552F48040086010BD94
:2085C000005C0040AF4AF0B504001A480D000168242004FB00268CB100277079000604D5F0
:2085E0003774896B2000884702E0896A20008847B760F76015B1200000F0FCFBF0BD000041
:20860000A04A10B50400242004FB0020826852188260C268511AC160C16809B1807938B193
:20862000200000F0E7FB034920000968896A884710BD00009C0300202DE9F04F80461400EE
:20864000904A5FF0FF3089462421824608FB01271D005646F879012801D1304642E000F00E
:20866000BFFB954883469BF807008007800F022835D174B1220049463800143000F01EF961
:20868000060016EB0909A01B29D0B87920B136BB02E0F86918BB0026C7F80890A01BF86074
:2086A000DBF824104046C96A8847B5B10999404651B100F0ABFB48B1F86800B100240021B6
:2086C0004046FFF77FFF01E000F09AFBB8790028F86803D108B1564601E0F868261A00F0E7
:2086E00075FB3000BDE8F08F2DE9F0439146654A1C000F002421804600FB012600F070FB34
:2087000013480025007808B9307C08B9B068B0B14046494689B100F079FB80B1F0683F1A25
:2087200005D03088F168814238BFF0683F1A00214046FFF747FF012503E000F061FBF06858
:208740003F1A04B1276000F041FB2800BDE8F0837D0300202DE9F34F574D01930400686A12
:20876000884691468246002083462878042834D2444A2421009000FB0126DAF804204146CF
:2087800020009047070028D0FF2826D024220021300000F041FF57EAC410707186F8048007
:2087A0000098DAF81410C0B288471CB90B99814238BF0846414600F0BBFA040004BF022054
:2087C00000F02CFB3480019870610B98B061A6F8029028788346401C28705846BDE8F68F5B
:2087E000284B00B50100002000E0401C084A1278904207DA242200FB023252798A42F4D194
:20880000C0B200BD032000F009FBFF2000BD0000780300201B4A242100FB01204079704765
:208820005A480078410801200840704770B5224C0126656A08E01349242006FB0010A96882
:20884000761C8847E868804720788642F3DB70BD30B5194C0B4D2C220021200000F0DCFE4A
:208860000120207090220021280000F0D5FEFFF7D3FB616A0020496988472880BDE830409C
:2088800000F098BAE802002030B50B4C656A28688047FFF7CBFF2A6C100006D0611D01204F
:2088A00090472A6CA11D022090471020E0712869BDE8304000470000780300202DE9F04342
:2088C0008846040015000020814600261EE0E068626841188A4238BF11460F1AAF4228BF20
:2088E0002F4621683A00ED1B0918404600F088FEA068F61917EB0808C01BA060E068C019F6
:20890000E0606168884208BFC4F80C90A1680DB10029DCD109B9C4F80C903000BDE8F08366
:20892000F0B504000D00160017E0E2681018884228BF401A8219914238BF0A46171AB74218
:2089400028BF374623683A002900181800F058FEA068F61BED19C019A06036B1A06861689F
:208960000A1AE2D1012000F059FAF0BD30B5074D040000202D78AD07AD0F022D05D108B4DC
:2089800020000123FFF758FE01B030BD7F03002000B5002308B4FFF74FFE02BD714B9860BD
:2089A000D960AB499A7400200968096B084700002DE9F04380469E4814000F001E0081462B
:2089C000404628B199F80700800701D4002035E0644A242108FB0125E8790028F6D1287902
:2089E000022806D12888401E204001D1600500D100261FB914B9012E08BF012700F0F0F93E
:208A0000A86858B1E9684018B84204D1E8680019E860AE740AE0404600F0F2F9AF60EC604C
:208A2000AE74D9F824104046096B884700F0CEF9E868201A02D1A97C01B10120BDE8F08322
:208A40000023002211464FE6F1B5794F04001500F87900268007800F022810D12000FFF7F0
:208A6000A7FF06007879A91B38B96B4600222000FFF73AFE0098361801E00129F5DA300093
:208A8000F2BD00002DE9F143089E0400684815000027814699F807008007800F02281BD1BC
:208AA0002000FFF785FF070099F80500E91B50B96B4632002000FFF717FE18B1009808B942
:208AC000002709E006E0012906DB6B4632002000FFF70AFE00983F183800BDE8F283000053
:208AE000534B142200FB0230C16170472DE9F0430C00242115001B4A804600FB01264C480C
:208B00008146404638B9D9F82020100027D029002000904723E0326910001EBF294620467F
:208B20009047B06878B1F1688D422CBFF7682F464FB13A00210000F063FD39004046FFF7D6
:208B40005FFDED1BE41955B12A00210014363000FFF7E6FED9F824104046896A8847BDE81D
:208B6000F0830000E80200209149F0B5304F0600242006FB00149EB1607900065CBFFF20B3
:208B800000F04CF9787918B9207C18BB01202074A068F8B12588E068A84205D2E56803E023
:208BA000A0680028F6D1F0BD7B6AA1682A005B6B30009847E068401BE060A0684019A060E0
:208BC000E06838B921888D4203D1A17C09B1A074F0BDA060F0BD00007549F0B5144F040001
:208BE0002420002604FB001514B1787900B92E74A86820B12000FFF7B7FF7879B0B17879F6
:208C000010B9E86800B9AE74A86818B9796A2000896B884744B1A86840B9A87C30B920008E
:208C2000BDE8F04000F0E6B800F0E2FAF0BD0000780300205E4B242200FB0232D171044A0F
:208C40001268126A1047000001490860704700009C03002070B504000D0016000C22002104
:208C600000F0DAFC2E486560A66001680A0000E012681AB1A242FBD1012070BD2160046072
:208C8000002070BD30B50C4C0025E0796572FFF7CDFD474A012004E0242100FB0121401CE1
:208CA000CD7121788842F7DBE0791021014051F00800BDE830400FE07803002017480078B7
:208CC000704700001548007850F0010004E000001248007810F0FE0070B5294C0500E0791B
:208CE000A84219D00E48066806E0726810001EBF2946B06890473668002EF6D1E571E07990
:208D0000800709D5012503E000F03CF86D1CEDB2217828008842F7D370BD00007F03002075
:208D2000A4030020224A242100FB0120C069704702004020032904D1824211D24008FBD1A1
:208D40007047402A0CD2202A24BF20207047102A24BF10207047082A24BF082070470020D8
:208D600070470000064810B54478611C4170C9B2022924BF072000F051F8200010BD000069
:208D8000780300200A4A242100FB01210022CA718A60CA610A624B791B0648BF0A7400F04A
:208DA00029B80000024B242200FB023001617047E802002010B50024174810EBC400FEF7F3
:208DC0004DFB641C042CF7D310BD0000084800B54178491E4170090608BFFEF742FC00BD68
:208DE00000B5FEF744FC02484178491C417000BD78010020084911EBC000FEF733BB00002A
:208E0000054911EBC000FEF77BBB0000024A491C12EBC000FEF78ABBA80300200028FDD1B4
:208E200070470000002303608160426070470000026843689A4205D2836899540168491C4D
:208E4000016070470420FFF7E9BF000030B504000D00C9B2FFF7ECFF290A2000BDE830407E
:208E6000E6E70000F7B5B84C90B95FF4807268462100FFF7D7FF04216846FFF7D9FF032187
:208E80006846FFF7D5FF20496846FFF7DFFF39E0012806D0022808D0032809D0ED280BD061
:208EA0000CE0FDF723FF050007E0FDF723FFFAE7FDF724FF050000E014A50DB90020FEBD77
:208EC00028000026002700E07F1C01000978401C0029F9D15FF4807221006846FFF7A2FF26
:208EE0007900891CC9B26846FFF7A2FF03216846FFF79EFF04E0A95D6846761CFFF7A6FF6A
:208F0000BE42F8D32000FEBD0904000000000000034900B50968C96B0A0018BF884700BD8B
:208F20009C030020012200210120FFF737BD0000F0B502009078D3780C00BB49E6B250EA47
:208F400003204D6A04D1D379907950EA032002D0686A8047F0BDC8794007F9D5107912782F
:208F6000C9799207920F890714D422B1012AEFD0022A03D0F0BDFFF7D5FFF0BDFFF730FCFB
:208F80000700E5D19948002C07BF0021C1710121C171F0E7002AEED0022AD9D1FFF720FCF3
:208FA0000700FF2FD4D03100FFF744FE002EE2D13800FFF7ADFF3800FFF7E4FEDBE70000E2
:208FC0002DE9F74360485FF480720024804641466846FFF727FF09216846FFF729FF022100
:208FE0006846FFF725FF00216846FFF72FFF8E48814699F801106846FFF71AFF01216846EA
:20900000FFF716FF00216846FFF712FFC0216846FFF70EFF4D4801786846FFF709FF00E043
:20902000641C99F80100844280F28780D9F828201AB169462000526890471420002604FB42
:20904000009535F80C0F02E0C10748BF761C40080028F9D109216846FFF7EAFE042168462D
:20906000FFF7E6FEE1B26846FFF7E2FE00216846FFF7DEFEF1B26846FFF7DAFEA978684670
:20908000FFF7D6FEE9786846FFF7D2FE29796846FFF7CEFE00216846FFF7CAFEA968080079
:2090A0001CBF68468847012605E00121C9B26846FFF7BEFE761C99F800008642B0DA28882A
:2090C0000121B1400842F5D007216846FFF7B0FE05216846FFF7ACFE4449242006FB001797
:2090E00068467979FFF7A4FE39796846FFF7A0FE3888412824BF4020388039886846FFF7BB
:20910000A5FE3A49242006FB0010017901290CD00329CAD141885FF48070814201D3FF21CA
:20912000C4E70029C2D10821C0E74188112901D31021BBE70029B9D1B7E7009888F80200E3
:209140004046BDE8FE830000C80300206800002037B5354D244C5FF4807268462100FFF708
:2091600061FE12216846FFF763FE01216846FFF75FFE5FF400716846FFF768FEA978684698
:20918000FFF756FEE9786846FFF752FE29796846FFF74EFE154801886846C9B2FFF748FE53
:2091A000FDF79CFD01006846FFF750FEFDF79AFD01006846FFF74AFE5FF480716846FFF7CF
:2091C00045FE01216846FFF733FE02216846FFF72FFE03216846FFF72BFE01216846FFF7AA
:2091E00027FE20003EBD0000C8030020E802002030B50D4C607A000615D5607A4006400EC4
:209200006072657A616A2800C9698847E079002D05D050F00400BDE83040FFF75DBD10F0E5
:20922000FB00FFF759FD30BD780300202DE9F7469F4D060000246F780BE0142004FB0050A1
:209240000C300169080003D030008847002833D0641CBC42F1D36C6A02943078814619F03D
:20926000600003D0202800F011810CE1F178B0788DF801103379F179B2798DF804307378F8
:2092800082460B2BF1D8DFE813F00C004E00FE005300FE0055006E00FE008F009A00CA00E0
:2092A000DE009DF8013050EA032003D152EA0120022802D0606A8047F8E0E8794007F9D5A1
:2092C0009DF80400EA7949468907890F92070BD4012902D9891E04D0E8E000208DF8020074
:2092E00017E00028F9D0E5E721B10129F5D0022904D00EE001208DF802000AE0FFF770FA1A
:20930000FF28D7D06B4A242100FB0120C0798DF8020000208DF803000022022100A8801C78
:20932000FFF73CFBC2E000213000FFF701FEBDE00121F9E70600A87978B1E16930008847E0
:20934000E879002E02D050F0040001E010F0FB00FFF7C2FCFFF7E6FDA8E0FFF7E3FD56F05B
:2093600080006872A2E052EA01249DF8011000260020012904D0022905D0032907D009E0DA
:20938000FFF7E6FE06E0FFF71BFE867802E05046FFF768FD00283FD006B90678A64228BFEA
:2093A000264601223100BBE7FFF73AFA00228DF80100012100A8401CFFF7F0FA76E08DF898
:2093C00000006C6A01281ED1FFF7ACFDE879012650F00200FFF780FC0AE00021FFF72AFC9D
:2093E0003000FFF795FD3000FFF7CCFC761CF6B2297830008842F0D3226C100056D06946BC
:209400000020904752E038B9FFF78CFDE87910F0FD00FFF761FCEFE7686A406A4BE708B9BD
:20942000012A02D0606A804740E0E87910F00600062801D0606A3EE700208DF80000002262
:20944000012168466CE7E97911F00601062901D0606A30E769789DF804209142F8D302283C
:20946000F6D2FFF75FFD0124287884421EDA0021E0B2FFF7DFFBE0B2FFF74AFDE0B2FFF775
:2094800081FC641CF0E70298406A14E7002400E0641CBC42F7D2142004FB00500C30C16886
:2094A0000800F5D0300088470028F1D1BDE8F78678030020E802002002681170090A517070
:2094C000921C02607047000002681170090A5170090A9170090AD170121D02607047000056
:2094E0000170090A4170090A8170090A00F8031F704700004278017851EA02218278C0788C
:2095000051EA024151EA006070470000012A03DB00F8011B521EFBD17047000030B5030083
:209520000020002401E02900641C0D000BD44D00AB42F8D207E040008B4224BF5B1A50F0E1
:2095400001004908641E002CF5D502B1136030BD01B56A46FFF7E2FF009802BD0022DDE7B4
:2095600000B5002806D542421000FFF7F7FF0100484200BD5DF804EBF0E7000000B5FEF7A6
:2095800076F80D484178491C417000F01FF8FEF7C5F9FDF7AFFEFEF7AFF808480849094B4D
:2095A000022207B4084900F668106422FDF7DEFEFEF740F807BD00BF780100204406002004
:2095C00068090000316A00089C9B0008004B18470D110020FEE7000000F028B810B502E0F4
:2095E000401C491C521E4AB103780C78A342F7D002D25FF0FF3010BD012010BD002010BD9A
:2096000010B50300002A04E011F8014B521E03F8014BF9D110BD0000C9B20300002A02E047
:2096200003F8011B521EFBD170470000014CA64620470000D595000844480168090604D531
:209640000A49634A0A60644A0A60002140F80C1B0068400708D46148054940F8041B062108
:2096600040F8041B03490160704700BF0420024055550000FF0F0000F0B5164E04000D0038
:2096800000F0B0F83068401E204021D1FFF7D4FF022702E030682D1A2418012D18DB2B4867
:2096A0000D4907600C60016851F0400101604C494A4A484B13600A68D307F9D40368BB4384
:2096C000036012F0140FE5D0142008600720F0BD0020F0BD8C000020142002402DE9F041A7
:2096E00006001400641C0F0000F080F800F082F80500002080466408FFF79EFF3848134929
:20970000344B01220A6037F8022B26F8022B01E0324A13600268D207FAD40A6801239A4342
:209720000A60026812F0140F05D0026852F01402026004229046641EE2D1280000F05EF898
:2097400000F060F84046BDE8F08100001020024000B500F04BF81A481A49006880B28842A2
:2097600027D1FFF769FF184819491A4A01601A4940F8081B016851F400710160016851F024
:2097800020010160016851F04001016013490A6013490968C907F9D401687FF400720A4033
:2097A00002600168102291430160016851F0800101600648007808B900F028F800BD00BFD8
:2097C00000F8FF1FA55A0000082002407901002023016745AAAA0000AB89EFCD00300040EC
:2097E0000C200240004B184789610008004B18476F760008004B184719790008004B1847DA
:2098000001790008004B1847696F0008004B1847637600084FF0120100FB01F0401EFDD147
:209820007047FFFF850F00006C0000206C000020690000000000002048980008EA0100006B
:20984000F40F002038960008B80B000030303030303031323334353600000000CC9A000889
:20986000D49A00080040000000000000000000000000000000000000001000000000000022
:2098800080250000FF00000000000100FFE0FFFFFFFFFF00FFE0FFFFFFFF0000A58D95BDEA
:2098A00087AFB79F81A9B199A38B93BB6613010132FFFFFF00000000295C00083D5D000853
:2098C00079460008C54600087D470008D54700086547000815470008000000001548000841
:2098E00079480008094400081D4600080000000099480008000000000000000000000000F6
:20990000294800083358EA8829530008954900082D53000841530008014D00087D4F000819
:20992000D95F0008C14C000829530008AD50000829530008555300082953000885530008B1
:2099400029530008295300082953000829530008295300082953000829530008F14D000825
:20996000154E0008914E000829530008055B0008A55B0008955A0008454F0008595300085A
:20998000096400080D64000819640008296400086D530008755300087D530008194B0008E3
:2099A000354C00082953000829530008F54E000829530008295300082953000829530008BB
:2099C000295300082953000829530008AD4F0008B14F0008F15E0008F55E000829530008B9
:2099E00029530008295300082953000829530008CD5A0008214D0008394D0008B14D00081E
:209A0000B54F000801500008A57B000829530008BD4D00082953000829530008054E0008C0
:209A200029530008054F0008254F0008295300082953000829530008295300082953000836
:209A40002953000829530008295300082953000829530008DD4E000829530008F954000866
:209A60003D54000871560008C9560008155700083157000845570008595700086D5700082B
:209A8000DD570008D1580008E9590008ED550008295900084A616E4665624D6172417072D2
:209AA0004D61794A756E4A756C4175675365704F63744E6F7644656320AA4400010000006E
:209AC000FFFF0000000000000000000053454747455200004A2D4C696E6B0000296F000826
:209AE0002D6F0008DD6E0008156F0008756D0008796E0008A16E0008896D0008316E00084E
:209B000081C003000000000081E0030000200000FFFFFFFFFFFFFF9EE7FFFFFFFFFFFFFF06
:209B2000B6EDFFFFFFFFFFFFFF0000A50000000000000000FFFFFFFFFFFFFFFFFFFFFFFFF0
:209B4000FFFFFFFFFFFFFFFFFFFFFFFFFFFFFFFF00000000F000000061840008C5840008E7
:209B6000D584000839850008C18400083D8500089185000831840008E983000825840008A7
:209B8000418400084984000889850008498500088D85000895850008000000004D61696E76
:209BA0005461736B00000000D8170020B1410008B9850008BD850008C1850008C5850008D9
:209BC000C985000800000000000000000000000000000000D1850008CD8500080000000077
:209BE000A183000871840008D5850008D9850008DD850008E1850008E5850008E9850008B4
:209C0000ED850008F1850008F5850008F9850008FD85000801860008058600080986000801
:209C20000D8600081186000815860008198600081D8600085D8C00085D8C00082186000864
:209C400025860008298600082D8600083186000835860008398600083D86000841860008FC
:209C600045860008498600084D8600085186000855860008598600085D860008417300080F
:209C80006186000865860008698600086D86000871860008FFFFFFFFFFFFFFFFFFFFFFFFFD
:209CA000FFFFFFFFFFFFFFFF000000000000000000000000000000004A2D4C696E6B204C3B
:209CC0006974652D53544D3332205265762E3120636F6D70696C65642046656220203820DE
:209CE000323031322031343A33393A353200436F7079726967687420323030332D32303175
:209D000031205345474745523A207777772E7365676765722E636F6D00000000000000005E
:209D2000000000000000000010B5094C02E006F0B3F80C340748844208D26068A1682268FC
:209D40008142F4D1002106F0B3F8F2E710BD00BF2CA5000850A50008024CA04730B1024C1A
:209D6000A04703E07D85000881410008034C4FF00000A047024C034DAE46204769A20008C4
:209D8000C9A200081DA30008020000B5906840189060D1688842A2BF10461168884700BDD2
:209DA000006813005A07520F10EBD30005F0A6BFCA08825C4807400FC240012010407047C6
:209DC00000B58268D21DD3080A004168006802F03DFE08B902F0CEFD00BD000050F8441BF0
:209DE000EEE7000070B50400080011000C22002500FB0246A2893000D21C5C30FFF7D0FF1C
:209E0000216830005C30FFF7DBFF40B9A1892068FFF7CEFF00B970BD6D1C642DF0DB5FF0A5
:209E2000FF3070BD2DE9F34E0400803000902000203001900020814600980E0056F8041B30
:209E400080681500A289C01DC00882460098D21CFFF7A6FF002799F0010B02E07F1C642F80
:209E600009D02268684650F8290053464168006802F0ECFD10B15FF0FF3016E047B956F858
:209E8000041BA289684650F82B00D21CFFF788FF02F070FD0028EED1A1892068FFF788FF77
:209EA0000028DBD1D9466D1ED4D1BDE8F68E00002DE9F043884604000025914621680C208A
:209EC00008FB00408C30FFF77BFFE689276831003800FFF76DFF38B9F11C380005F0FAFE27
:209EE000C9F80000002004E06D1C642DE6DB5FF0FF30BDE8F083000030B504002C300D00DA
:209F00002168FFF75DFF10B15FF0FF3030BDE18B2068C91C05F0DEFE2860002030BD0000FB
:209F200073B5040068461500002202604260012050EA41008DF800000AE0000073B50400D5
:209F40006846150000220260426048008DF8000023226946200003F053F9060029002000A9
:209F600003F0EAF8300076BD10B50422040003F00BF901212000BDE8104003F0DDB8000004
:209F80008068000EFF2805D0032801D00E2801D10148704701487047FF0F0000FF030000BB
:209FA00010B50400FFF71AFF054A01212000FFF719FF002802D55FF0FF3010BD002010BDF3
:209FC0002000005070B5194E04000D001643FFF705FF2000FFF7E4FF002802D55FF0FF30AB
:209FE00070BD002202212000FFF7FCFE002802D55FF0FF3070BD216820005030FFF7E0FE38
:20A00000320000212000FFF7EDFE002802D55FF0FF3070BD2A0001212000FFF7E3FE0028D7
:20A0200002D55FF0FF3070BD002070BD100000232DE9F143089E80460C001D0091464F46D3
:20A04000012F0CD1099850B1D8F8001040464430FFF7B6FE002802D55FF0FF3021E06A469F
:20A0600003214046FFF724FF0028F5D400980422921B2240D100C84000900098022E287096
:20A080000ADB0098000A6870032E05DB0098000CA8700098000EE870A419AD197F1ECFD1D6
:20A0A0004846BDE8F28300002DE9F34F91460B9A1C0080460F00FFF785FF002802D55FF06B
:20A0C000FF304BE001AA03214046FFF7F1FE0028F5D40B99012088408246002083460C9819
:20A0E000F8B119FA01F514E0504603B40D982300390036FA00F24046FFF79AFF02B000285B
:20A10000DDD40C983100BF19FFF73EFEA419AD1B13D00C98C668AE4226BF2E4601210021E9
:20A12000E2E70121504603B423004A4639004046FFF77EFF02B00028C1D44046FFF74EFECB
:20A1400069464046FFF7D8FE002805D40098800603D54046FFF724FFD9464846BDE8F68F91
:20A160002DE9F047804600240D0016009946FFF707FF824606E00898F61B17FA00F02D1805
:20A1800010EB0909AEB108985746AF43C7407F1CBE4238BF374609994B463A0003B42900C1
:20A1A0004046FFF781FF02B0002803D42418B842E1D02000BDE8F0872DE9F047868AC08A28
:20A1C0001C008846914600258246102731004046FFF7EEFD50B9641E08D5F11C404605F012
:20A1E00079FDC9F8000009F204096D1C1AEB06067F1EEBD1089810B1A900FFF7C5FD280043
:20A20000BDE8F0872DE9F74F8046914602221C00FFF7D8FE002802D55FF0FF3067E0D8F889
:20A22000000008F2D40A0090DAF80810C91DCB08C0180190009ADAF80410DAF8000002F066
:20A2400005FC0028E8D101264D46B34602F092FB0028E1D1212D27D3DAF80800DAF8041008
:20A26000C01DC308684650F82620DAF8000002F0EDFB0028D0D10C9896F001065B4601B4FE
:20A28000220001A850F826104046FFF795FF0700ED1B14EB87040020834602F06BFB01B0DA
:20A2A0000028B9D1002FD5D10C985B46220001B401A996F0010051F820104046FFF77CFF5A
:20A2C000D8F800100700ED1B40464430FFF778FD01B00028A0D402AA03214046FFF7E8FDAC
:20A2E000029944F8271000B96D1EB9EB0500BDE8FE8F00002DE9F04780460C001D0091461E
:20A300004846102801D2002034E0A807FBD14046FFF736FE82464E465046A04387087F1C46
:20A32000BE4238BF3746102F10D308982B003A0001B421004046FFF765FF01B00028E2D43D
:20A3400014EB800415EB8005361A3F1A7FB1089902202B0003B43A0040462100FFF700FFA1
:20A3600002B0002806D4B80024182D18F61B002ED2D14846BDE8F0872DE9F04180460698B9
:20A380000C0015001E002F0002280CD1079801B44046FFF7AFFF01B0002813D43F1A14EBB2
:20A3A000800416EB800667B10799069833003A0003B421004046FFF7D3FE02B0002801D4FB
:20A3C0003F1AE81BBDE8F0812DE9F043079E14001D008046012E02D15FF0013005E0022E8F
:20A3E00002D15FF0011000E00120814672104046FFF7E8FD002802D55FF0FF3027E02700D4
:20A40000A80709D1042E07D13A0029004046FFF709FD07001AD51AE02978022E0BDB68783D
:20A4200051EA0021032E06DBEA780800A978120652EA01410143404601FB09F20321FFF7B2
:20A44000D1FC002802D4AD197F1EE5D1E01BBDE8F08300002DE9F043804600240D001600AF
:20A46000994606E00798F61B17FA00F02D1810EB0909D6B14046FFF783FD07000798AF43F9
:20A48000C7407F1CBE4238BF3746079901204B46884001B43A0029004046FFF795FF01B0B3
:20A4A000002803D42418B842DCD02000BDE8F0832DE9F04F040088463B491500228B994637
:20A4C0003830D21CFFF76CFC628B49462000D21C3830FFF765FC206C2268E16BC01DC30875
:20A4E000A06B02F0B3FA002802D55FF0FF3058E00126B24696F001060C202100BC3106FB16
:20A50000001B208A102102B4638ADBF80070C01C4207520F414617EBE00005F00DFC08F278
:20A52000400802F027FA01B010B15FF0FF3038E0504600B32768A18B002082463800FFF79E
:20A5400037FC01B4218B3800FFF732FC010001BC014302B4618B3800FFF72AFC02BC08430A
:20A5600009D0022249462000FFF72CFD002802D55FF0FF3015E0D4F8C4002268DBF804109D
:20A58000C01DC308DBF8000002F060FA10B15FF0FF3006E06D1EADD102F0ECF908B15FF0E7
:20A5A000FF30BDE8F08F00BF120000232DE9F147804691461C000F004846042801D2002091
:20A5C0004EE0A007FBD100254046FFF7D9FC8246B8438008401C484515D20607360F12D015
:20A5E000022001B42300320039004046FFF732FF01B0002834D4B0003F182418350002E00E
:20A600000F002418AD19B9EB0506102E27D35046B8438008401C864228BF06460F208643DA
:20A620003B00320921004046FFF742FF0028C6D469464046FFF760FC002802D55FF0FF3000
:20A640000EE0009BB0003918524697431AEA01023A439342D4D04046FFF7A2FCAFE7280029
:20A66000BDE8F287F0B588B00400231D684602F053FE0027082239006846FFF751FC060029
:20A680000C2007FB004168467F1C8C3102F01EFE042FEFDBE6810027042239006846FFF7A9
:20A6A0004DFC06000C2007FB004168467F1C5C3102F00CFE042FEFDBA681042203216846EE
:20A6C000FFF73CFCA08121002031684602F0FEFD0A216846FFF748FC21004431684602F0D5
:20A6E000F5FD0B216846FFF73FFC21005031684602F0ECFD0A216846FFF736FC04220221E8
:20A700006846FFF71BFCA0830B216846FFF72CFC042200216846FFF711FC20830422012180
:20A720006846FFF70BFC608321003831684602F0CDFD082201216846FFF7F2FB0022012176
:20A740006846FFF7EDFBE08321002C31684602F0BDFD0027042203216846FFF7EFFB0FB96B
:20A76000060002E0012F08BF851B7F1C102FF1DB2700BC373900684602F0A8FD268265828D
:20A780003A002100C831684602F080FD0027042203216846FFF7C4FB0FB9060002E0012F94
:20A7A00008BF851B7F1C102FF1DB2100D431684602F08CFDA682E582059820600799069853
:20A7C00008B0B0EB4100F0BD70B503000800091D1C0008340426761EA55D8D55FBD119689B
:20A7E000E03A81600100E031BDE870403AE7000000B5082904BF024800BD002000BD00BF8A
:20A80000370000800068000EFF2808BF0020704700B5FFF7F7FF032801D00E2801D1024857
:20A8200000BD024800BD00BFFF0F0000FF0300007C4801684068400550EAD1207047000089
:20A84000784A58490148302302F09EBA20AA00082DE9F041124C734D00268846207003E011
:20A860003000761C642817D06F492E232A00200002F08AFA687847077F0F012F08D140468F
:20A8800018B1FFF7D5FFC8F800000020BDE8F081FFF7D6FF022FE3D05FF0FF30F6E700BF66
:20A8A000940400200100BD20D2E7000001009F20CEE700005C4930B55A4D040007482E23FF
:20A8C0002A0002F061FA687845076D0F012D02D1FFF7AEFF2060280030BD00BF30AA00087F
:20A8E00013B5504CBB2290EA104152EA403291EA1121009291EA1111C00C91EA91010A00DF
:20A900004908514001220A40264950EA4230ADF8040030232200684602F036FA60784007C0
