:200000009C170020B1410008FFFFFFFFFFFFFFFFFFFFFFFFFFFFFFFFFFFFFFFFFFFFFFFF2B
:2040000030140020F1D90008E35C0008D5D10008E35C0008E35C0008E35C000800000000A0
:20402000000000000000000000000000E35C0008E35C000800000000E5A6000841D1000845
:20404000E35C0008E35C0008E35C0008E35C0008E35C0008E35C0008E35C0008E35C000828
:20406000E35C0008E35C0008E35C0008E35C0008E35C0008E35C0008E35C0008E35C000808
:20408000E35C0008E35C0008E35C0008E35C00081FC50008E35C0008E35C0008E35C000843
:2040A000E35C0008E35C0008E35C0008E35C0008E35C0008E35C0008E35C0008E35C0008C8
:2040C000E35C0008E35C0008E35C0008E35C0008E35C00087DC30008E35C0008E35C0008A7
:2040E000E35C0008E35C0008E35C0008FFFFFFFFFFFFFFFFFFFFFFFFFFFFFFFFFFFFFFFFFF
:20420000000000000000000000000000000000004A2D4C696E6B204F422D53544D3332461C
:2042200031303320563120636F6D70696C65642046656220203220323032312031363A345D
:20424000353A353400436F7079726967687420323030332D32303139205345474745523AD8
:20426000207777772E7365676765722E636F6D0000000000000000000000000000000000A1
:20430000EB190000040D000028050020040000003014002000000000BD9B00000200000079
:2043200002000000F29C000057030000100000201805000000000000000000000000000046
:20434000855D0008995F000877550008F95500084D540008E7540008BD5300082F530008BB
:2043600000000000795600081D4E000891560008FF560008B74B0008CD4C0008000000007C
:204380000000000000000000B34C00088F570008000000000000000093570008995700083E
:2043A0000001000000000000000002030000000000000000000405060700000000000809D0
:2043C000878B0008598A0008E18D0008378E0008838E0008A98E0008C58E0008E58E000867
:2043E000FF8E0008758F000800000000855D0008995F000877550008F95500084D5400085F
:20440000E7540008BD5300082F5300080000000079560008A19E000891560008FF5600084D
:2044200000000000679E00080000000000000000000000000D9E00088F57000800000000CE
:20444000000000009357000899570008434D443A205F48616E646C654A5441472829000022
:20446000434D443A2052656C656173652072657365742073746F702065780000434D443A19
:204480002052656C656173652072657365742073746F702074696D6564000000335AEA88E0
:2044A000D96F000889640008DB6F0008EF6F00084B680008E96C0008398400080B680008A7
:2044C000D96F00087B6E0008D96F000803700008D96F00082970000841700008D96F0008D6
:2044E000D96F0008D96F0008D96F0008D96F0008D96F0008D96F0008D96F0008D96F00083C
:20450000D96F0008D96F0008756B0008D96F0008696C0008D96F0008D96F0008D96F0008F6
:20452000D96F0008D96F0008D96F0008C5680008E36800089F690008D96F00083D930008CB
:2045400011940008C5920008B16C000805700008159700086B970008059700085597000857
:20456000177000081D700008237000083566000877670008D96F0008D96F0008756A00086C
:20458000D96F0008D96F0008D96F0008D96F0008D96F0008F596000845970008156D00088A
:2045A000196D0008C9970008CD970008D96F0008D96F0008D96F0008D96F0008D96F000809
:2045C00001930008836A0008956A0008676800081D6D00086B6D00088BAB0008D96F00086C
:2045E0007F680008D96F0008D96F0008DB680008D96F0008056B0008236B0008D96F000833
:20460000D96F0008D96F0008D96F0008D96F0008D96F0008D96F0008D96F0008D96F00081A
:20462000D96F0008E9690008D96F0008434D445F435055323A2057726974654D656D0000AF
:20464000434D445F435055323A20436F6E66696745780000878B0008598A0008E18D000825
:20466000378E0008838E0008A98E0008C58E0008E58E0008FF8E0008758F00082D900008D9
:20468000E5910008A38B0008CD900008000000000000000001920008278C00081D8D0008F9
:2046A0000000000000000000495250726500000044525072650000004952506F737400003A
:2046C0004452506F7374000049524C656E44657669636500506572666F726D544946496E1F
:2046E0006974000052657472794F6E496E76616C44415052657370004350555F434F524531
:2047000053494748543A2044415020616363206A6F6200004350555F434F524553494748AE
:20472000543A20436F6E6669672F53657175656E63657300FFFFFFFFFFFFFF3CE70000007E
:20474000000000000000000000000000799B00081D9A0008A846000805000000F5990008ED
:20476000B046000805000000F9990008B846000806000000FD990008C046000806000000DE
:20478000019A0008C84600080B000000059A0008D44600080E000000099A0008E4460008A1
:2047A00013000000139A00084350555F4441503A20436F6E746578740000000000000000D6
:2047C000000000007B720008E172000841730008617300087F7300081B740008877400085D
:2047E000377C0008DD740008F774000811750008DD4F0008077B0008717C00083B75000839
:2048000069DA00086BDA000877DA000885DA0008A7DA0008B3DA0008BFDA000821DE00087A
:20482000C9DA0008CBDA0008CDDA0008DD4F000885DD00082FDE0008D1DA000820AA4400FD
:2048400001000000FFFF00000000000000000000DDA500087FA5000811A6000800000000E4
:20486000FBA50008A4490008000000004DA50008E1A50008610200207102002011A600083E
:2048800000000000FBA50008A4490008000000004DA50008E1A5000817AD00081DAD000855
:2048A00027AD000800000000E5AC00080000000000000000B7AD0008C9AD0008E1AD000803
:2048C0000000000089AD000800000000000000004E45543A2053656E642062756666657235
:2048E0000000000053454747455200004A2D4C696E6B000050726F647563744E616D650094
:20490000EFA40008F5A40008C1A40008E5A40008F7A3000859A400087FA400080BA40008D4
:2049200037A4000845A50008F1A00000080C10141820303100040C1014181C24282C3034FC
:20494000FFFFFF38390000000000000053574F2062756666657200005441524745543A2035
:2049600043505520636F6E7465787400BF950008DF950008FF9500080D960008000000000B
:204980000000000000000000379600083996000849960008000000004B960008000000009B
:2049A00000000000BF950008DF950008FF9500080D960008000000000000000000000000D8
:2049C0001B9600082996000842554C4B20696E746572666163650000FBD60008000000007F
:2049E000EBD7000885D80008B7D7000887D8000837D90008BFD6000881D60008B7D60008E2
:204A0000C9D60008DBD6000821D900088BD8000825D900083BD900080000000000000000A7
:204A200000000000BFD7000800000000ADD7000853454747455220656D55534244205633C6
:204A400032343031754C00004000000200040000436F6E66696775726174696F6E00000030
:204A60004A2D4C696E6B00002DE9F843044688462668D4F81490208B40EA0907002301229F
:204A80000221304600F07CFA0546002000904B4600224146204600F007FC208EC01C00F00F
:204AA00007023946636B03EBD00000F0C7FEA08DC01C00F007022946636B03EBD00000F040
:204AC000BDFEE08DC01C00F007024146636B03EBD00000F0B3FEE06BC01DC308626AA16B5A
:204AE000606BDFF87C4424682468A047B761F56102207061BDE8F1832DE9F04782B0044612
:204B0000894690461946FFF7AFFF4FF0010A0127DFF84C648AF0010A0AEB4A0004EB8000C1
:204B200000F14005208DC01C10210091638D00F007024946D5F800C00CEBE00000F09EFE8C
:204B400009F14009306880688047626A0FB30027238EA08DE18D4FEAD30C1CF802C003F0E9
:204B600007032CFA03F34FEAD00C1CF802C000F007002CFA00F01843CB089B5C01F00701F9
:204B800023FA01F10843C00703D54FF0FF30BDE8F687A06CC01DC308696828683568D5F80D
:204BA00000C0E047B8F10108B4D13068806880470020BDE8F6872DE9FC4D84B005468A46A0
:204BC00098460E982F68B96C02910499042902D318F0030101D0002068E0002429690191D6
:204BE00021EA0A018908491C049A91421BD211F00F0618D00009000140F002000090324609
:204C00005146284600F07BFD002848BF04464CD40AEB860A08EB8608344604E0DDF800A0B5
:204C200008EB860834190498001B10283DD3019921EA0A018908491C884288BF0846000999
:204C400006015346320941462846FFF755FF00282AD40AEB8600009001982AEA00000099C3
:204C6000019A114041EA000A786C0C30DFF8F0B28168C91DCB086A6A41680068DBF800C060
:204C8000DCF800C0E04718B9DBF8000080688047786C0089C11C686A00F0BCFD5045BDD01F
:204CA00038460299896988470024204606B0BDE8F08D38B50468A56C39B12046E96A8847DC
:204CC0002046A969BDE83440084731BD012910D9091F14D0091F0AD078390ED0891E0AD0D5
:204CE000891E012984BF891F072904D909E09D4870479D4870479D4870470F207047012027
:204D00007047002070472DE9F0438FB0044604F1200302A800F0DFFF04220A2102A800F0B8
:204D200016FF012102A800F0EAFE914F0CA806CF06C0083F04208DF8300023220CA902A8C7
:204D400000F03EFF0646042102A800F0D8FE268604220B2102A800F0FAFE012102A800F0F9
:204D6000CEFE0AA806CF06C0083F00208DF8280023220AA902A800F023FF0646042102A837
:204D800000F0BDFEA68500A806CF06C0083F02208DF80000232200A902A800F011FF064628
:204DA000042102A800F0ABFEE68504F1340102A800F06BFF002600A806CF06C0083F06201C
:204DC0008DF80000232200A902A800F0F9FE8146042102A800F093FE0EB94D4603E0012E4C
:204DE00008BFA9EB0508761C102EE4DB04F1400102A800F04AFF2585A4F82A8004F140027C
:204E000004F14C0102A800F025FF0798606208980999A0EB41000FB0BDE8F0832DE9F04FF7
:204E200085B006460C469346BBF1580F38BF4FF0FF30C0F09280D6F814A0B769582120460B
:204E400000F050FF042206F1080104F1200000F05DFFD6F800804748804508BFDFF81881B3
:204E600007D040F2FF39454880451CBF4248804501D140F6FF79357B707B010613D500214A
:204E8000820748BF4FF40011420748BF41F48001020748BF41F40001800658BF41F480117F
:204EA000E16001206077B07B30B1202804D2012101FA00F0A0F10109042F11D3504600F04A
:204EC0002AFDA0600AF1040AC4F804A0A168504601F074F9A068391FB1EBC0070AEBC00AC3
:204EE0002D0600263FB1504600F015FDC10702D5000B050301266561C4F810902677207F9A
:204F0000C00705D54FF4506020834FF4516002E00020208310206083ABF1580204F158016A
:204F20002046FFF7F0FE070017D4ABEB0701204601F02FFA142100A801F070FACDF8048096
:204F400000200290042204F1200103A800F0DEFE00A800F09DF82060384605B0BDE8F08FE8
:204F6000940000203700008011000080012F008034430008FF00010EFF00000EFF000003E9
:204F800030B40024012B08BF4FF0004409D0022B1FBF4FF08074436B7F4DAB4218BF4FF0FF
:204FA00004544368DD0258BF44F080441D0248BF44F000645D0248BF44F080649D0248BF1E
:204FC00044F000741B0303D5407C08B924F0406441EA040040EA021030BC70474FF0FF3181
:204FE0008161C161002141617047F8B504460D460026214604220B6AD8B2FF2804D01B0A17
:205000001B02E768BB4240D0091D521EF3D10126207C002814BF4FF45F60F020E168084359
:205020000090009A02212046A36C1B6998470020009000AA03212046A36CDB68984700989E
:2050400000F00F01C0F3433008280DD1012909D0022908BF012008D0042908BF022004D044
:20506000052901D1002000E003200021224692F82030FF2B05D104EB8101E26802430A623E
:2050800003E0491C121D0429F1D328603046F2BD2DE9F04188B00446404D2E6800E0F66CCD
:2050A00046B1142206F13001204601F0BBF90028F5D152E001F0E4F88046B8F58C7F38BF2E
:2050C00001F081FF3649404601F025F9060048D04FF48C7101F0A2F930460421FF22026241
:2050E000001D491EFBD1A068002818BF072821D106F15407A8F58C7804F10C03424607F1C1
:20510000C40100A800F0E7FD226800A9384602F093FE0698A8EB0000079900EB410000F528
:205120008C71304601F035F90598386077641D48B06405E01C48B0645421304601F029F9F9
:205140001422214606F1300000F0F0FD3046B16CC96A88472868F0642E60306D401C306519
:2051600001E001F030FF304608B0BDE8F081016D491E01650FD1094A136801E01946DB6C7A
:20518000002B18BF8342F9D1C36C002914BFCB64136001F0F1B87047FF00010E40050020ED
:2051A000A8470008C4470008004800082DE9F04182B00F460468A56C4369418B41EA03069E
:2051C000002100914FF00052394600F06DF80023022239462046AF6BB8470746324602218B
:2051E00020462B69984780462046696A8847A66158EA07004CBF4FF0FF300020BDE8F68103
:2052000070B582B00C460568AE6C0021009143694FF00052214600F047F80023022221462B
:205220002846B46BA047002802D54FF0FF3076BD002076BDF8B50E460468A56CDFF8641539
:20524000FFF7DEFF48B93246072120466B6998470028204604D5E96988474FF0FF30F2BD1C
:20526000A96A8847700718D52046296A8847022002F0FDFFDFF83065306A00F596670022F6
:20528000032120462B68984700280BD5306A381A08D4642002F0EBFFF1E70022032120465E
:2052A0002B6898470020F2BDF0B4049C1546560327D4467F0EB1C2681FE04669B3421AD17E
:2052C00086686EB1476807EBC607083FD7F800C0614501D37A6810E0083F761EF6D10CE0A3
:2052E0004FF440120168496BDFF8C064B14204D14FF4700201E04FF44012A90048BF42F02C
:20530000005201684A6040F2FF324569AB4208BF026900258D7401688A60CB60027F0A7455
:20532000016801224A7400680460F0BC70472DE9F04182B006463468A56CDFF8748441462C
:20534000FFF734FF07460022002120466B689847074300AA002120466B689847384315D5EA
:2053600041463046FFF722FF07460022002120466B68984740EA070600AA002120466B6836
:205380009847304348BF4FF0FF3015D4009800030FD5DFF82024002120466B699847002267
:2053A000002120466B68984700AA002120466B6898470098C0F34040BDE8F6812DE9F04F95
:2053C00083B004462568AE6CDFF8E413FFF718FFA07FDFF8E01341EAC0094A4603212846CF
:2053E00073699847D4F80080D8F848700022032140467B689847DFF8B0A3DAF82000801CD8
:20540000019000AA032140467B689847002802D54FF0FF3B0AE00098C0F3404BBBF1000FF2
:2054200004D10198DAF82010401AEAD5A07F50B129F008020321284673699847002203210D
:205440002846736898470020A0779CE12DE9FC4104462668B76C01F00105DFF85C13FFF7EF
:20546000CFFE1F22032130467B699847D0492046FFF79CFE0022002130467B68984700AA8D
:20548000032130467B68984701AA032130467B689847C84840EAC5080098C0F3C0008542D0
:2054A00004D04246002130467B69984728F00202002130467B6998473046B96A8847BF4851
:2054C000006808B102F0ECFE2668B76C3046B96A88470022032130463B689847002858BF39
:2054E000A577BDE8F6812DE9F84F05462E68B76CAF49FFF785FEB24A032130467B69984749
:20550000B04A032130467B699847D5F80080D8F8484000220321404663689847DFF888A218
:20552000DAF8200000F1020B00AA0321404663689847002802D54FF0FF390AE00098C0F3D2
:205540004049B9F1000F04D1DAF82000BBEB0000EAD5984A032130467B6998472D68AE6CEF
:205560002846B16A8847002203212846336898474846BDE8F28F2DE9F84F0C4690469A468C
:205580000768BD6C8A49FFF711FE0028864E48BF4FF0FF302ED42278012138466B6998473B
:2055A0000022002138466B6898474FF00009306A00F1C80B00AA002138466B68984700983F
:2055C000C00306D4306ABBEB0000F3D54FF0FF390FE00022022138466B68984742460221A0
:2055E00038466B689847641C08F10408BAF1010AD1D14846BDE8F28F2DE9F84F0C461546E0
:2056000098460768BE6C6A49FFF7D0FD0028DFF898A148BF4FF0FF302CD42A6802213846BD
:2056200073699847207840F480320121384673699847002200213846736898474FF0000913
:20564000DAF8200000F1C80B00AA00213846736898470098C00307D4DAF82000BBEB0000C3
:20566000F2D54FF0FF3904E0641C2D1DB8F10108D3D14846BDE8F28F02B582B00F218DF896
:205680000010012302AA00A9FFF7B6FF03B000BD2DE9F04383B00C46904699460B9B0768CE
:2056A000BD6C0A9AC2F3036C02F00F064FF0FF31BCF1000F06D1009343692146FFF7F4FD63
:2056C00000200FE0BCF1080F15D300210091C2F30261531303F0180319430B062146FFF707
:2056E000E3FD0320019000964B464246214638462C6BA0470146084603B0BDE8F0832DE98E
:20570000F04F83B00446884691469A462568AE6C63690C9AC2F3036002F00F074FF0FF3B96
:20572000C0B92048804504BF022FB9F1010F0AD1504600F0F0F801462046FFF77BFD10BBE6
:205740004FF0010B1FE0002000902046FFF7ACFD00200FE0082816D300200090C2F302605B
:20576000511301F018010843030641462046FFF79BFD03200190009753464A464146284683
:20578000746BA0478346584603B0BDE8F08F012070470068FFF7EBBC09B90B48704700203C
:2057A000704700000CED00E038000020FF00010EF0ED00E003005FA030ED00E0340A0020D9
:2057C0000F005FA00D005FA0BF610008A0F13001C9B20A2901D230387047A0F16101C9B2B7
:2057E000062901D257387047A0F14101C9B2062901D2373870478BE0016800E0491C0A7850
:20580000202A18BF092AF9D00D2A18BF0A2AF5D00160704700EBD10001F0070100F00302A2
:2058200001EBC20182089200106831B1C8405268C1F1200102FA01F10843704730B400EBEF
:20584000D20002F0070200F0030302EBC3028008800082B1012393405B1E04681C4001FA65
:2058600002F52C4340F8044B046824EA0303C2F12002D1401943016030BC7047F0B5FF24AD
:205880000125059E04E09A1800EBD20002F0070251F8047B90F800C005FA02FEAEF1010E34
:2058A0000EEA0C0C07FA02FE4EEA0C0C80F800C0C2F1080C27FA0CF747703F0A87703F0A24
:2058C000C77090F804C004FA02FE0EEA0C0C4CEA17270771761ED6D1F0BD026806E00268A9
:2058E00002F8011B090A02F8011B090A02F8011B090A02F8011B026070470170090A00F882
:20590000011F090A00F8011F090A00F8011F70474FF0FF3070470178427841EA02218278BA
:2059200041EA0241C07841EA00607047002110F8012B02E010F8012B491C002AFAD108466C
:2059400070474FF0000C02E019460CF1010C002902D44B009842F7D20023BCF1000F09D451
:205960005B00884224BF401A43F001034908BCF1010CF5D502B11060184670470022E0E798
:2059800080B5002805D500224042FFF7DAFF404202BD0022BDE80840D3E7F8B504460D4609
:2059A00020680090002600A8FFF726FF0027009800782B2802D10098401C009000980078F5
:2059C0002D2803D10098401C0090012700980078302818D100994978782918BF582912D16B
:2059E0000098801C00900078FFF7F0FE00280FD40099491C009100EB06160878FFF7E6FE8C
:205A00000028F5D516E0A0F13001C9B20A2902D34FF0FF30F2BD06EB860100EB4100A0F107
:205A200030060098401C00900078A0F13001C9B20A29F0D307B17642009820602E600020CB
:205A4000F2BD8169002948BF00214910426942608A188260C90001610021C1607047F0B569
:205A6000C76807F00704456815EBD705D0F808C00CEBD706DF19C7600069B84222D3C4F1DC
:205A800008008342D8BF1846012787407F1EFFB207EA020C0F4094B195F800E0A74047EAEF
:205AA0000E072F7037780CFA04F43C4334701B1A08D00141697042FA00F07070F0BD86F803
:205AC00000C02F70F0BD2DE9F84381460D4616461F46D9F80C8008E02346F2B2E9B2484613
:205AE000FFF7BDFF3F1B360A2D0A012F04DB092FACBF08243C46EFE74046BDE8F28370B528
:205B000004460D00E66807D00123002200212046FFF7D9FF6D1EF7D1304670BD38B5044641
:205B20000D46082D08DB08230022FF212046FFF7CAFF083D082DF6DA012D07DB01230022C8
:205B400001212046FFF7BFFF6D1EF5E731BD2DE9F0410446884616462068C7780078C01BDF
:205B6000851B0423032200212046FFF7ACFF1DB129462046FFF7D2FFE568002F334605D1DC
:205B80000120711E00FA01F241460DE0002241462046FFF798FF022F03DB791E2046FFF756
:205BA000BDFF0123012211462046FFF78CFF0123012200212046FFF786FF2846BDE8F081D7
:205BC0002DE9F047044688461646206887784078C01B451E0323012200212046FFF773FF4F
:205BE0002DB12B46002200212046FFF76CFFE5684FF0010904E02046FFF765FFA6EB0A0671
:205C0000012E15DB4FF0080A082ED8BFB2462FB9092E03DA701E09FA00F200E00022D2B24A
:205C2000B8F1000F534614BF18F8011B0021E2E73FB13B46791E09FA01F200212046FFF7AF
:205C400042FF01231A4600212046FFF73CFF2846BDE8F08770B504460D4610468168C91D56
:205C6000CE080EC80EC50C380C3DA169891BA1610AD432460168606900F048F8606928605F
:205C800060693018606122E070BD70B504460D46E068C11DCE082169814209D33246A1689B
:205CA0006068301800F032F8E069B042B8BFE66160682860606830186860E068A860606980
:205CC00000EB46006061A069A0EB4600A0612046BDE87040B5E60360416182610021C16176
:205CE000AFE6FEE7002202F0E7BA50F8041B61B150F8042BD30744BFA9F101039A18002335
:205D000042F8043B091FFAD1EFE7704762B38B0708D0521E11F8013B00F8013B00F024808E
:205D20008B07F6D1830740F0208000BF103A07D330B4B1E83810103AA0E83810F9D230BC37
:205D4000530724BFB1E80810A0E8081044BF51F8043B40F8043BD20724BF31F8022B20F889
:205D6000022B44BF0B7803707047083A07D3B1E80810083A40F8043B40F804CBF7D2530796
:205D8000E4E700002DE9F04F85B00446884691461F464D46DFF820043840029004F11006B7
:205DA000B06AC168E9B9002200239446A0E80E10F068026E100011D020699047B16A08609D
:205DC00001212069F268126E9047B16A486002212069F268126E9047B16A8860B06A012108
:205DE000C1604FF0000A94F83C00F8B903A800210A4606C0206903900497B06A016808009C
:205E000002D003A8884788B94FF0010A2069F168C9698847012840F0AE80B06A4168080076
:205E200004D003A88847002800F1A580DDF838B00F980F905FEAC8701ED5EDB10F98019089
:205E4000029800905B46012241462069D6F80CC0DCF830C0E047002800F19A802D1A01281C
:205E600040F086800BF1010B404608F10108804502D2306A401C3062780069D45FEA887045
:205E800020D5022D1ED30F980190029840F0010000905B46012241462069D6F80CC0DCF818
:205EA00030C0E047002873D4A5EB400501285FD140460BF1020B08F10208804502D2306A69
:205EC000401C3062002F21D4042D1FD3AF080F980190029840F0020000905B463A4641469A
:205EE0002069D6F80CC0DCF830C0E04700284FD4A5EB8005B8423BD140460BEB870B08EB2D
:205F00008708804502D2306A401C3062022D1FD36F080F980190029840F0010000905B4605
:205F20003A4641462069D6F80CC0DCF830C0E04700282DD4A5EB4005B84219D140460BEBEE
:205F4000470B08EB4708804502D2306A401C306275B10F980190029800905B462A4641466C
:205F60002069F768D7F83080C047002810D42D1ABAF1000F0AD0B06A816808001CBF03A83B
:205F8000884700212069F26852699047A9EB0500FFE705B0BDE8F08F2DE9F44F84B004466D
:205FA00089461E461746844800EA060804F11005A86AC168E9B9002200239446A0E80E10E1
:205FC000E868026E100011D020699047A96A086001212069EA68126E9047A96A4860022103
:205FE0002069EA68126E9047A96A8860A86A0121C1604FF0000A94F83C00F8B901A8002193
:206000000A4606C0206901900296A86A0168080002D001A8884788B94FF0010A2069E96886
:20602000C9698847012840F0B780A86A4168080004D001A88847002800F1AE80DDF838B0BC
:206040005FEAC9701CD5DFB1CDF800805B46012249462069D5F80CC0DCF834C0E04700286C
:2060600000F1A7803F1A012840F0938048460BF1010B09F10109814502D2286A401C286297
:20608000700078D45FEA89701ED5022F1CD348F0010000905B46012249462069D5F80CC0B1
:2060A000DCF834C0E047002800F18380A7EB400701286ED148460BF1020B09F10209814532
:2060C00002D2286A401C2862002E35D4042F33D3E868866B300011D0B8F1000F0ED10020FB
:2060E00000905B46BA0849462069B047002860D4B7EB800709EB80090BEB800BBE081BD06A
:2061000048F0020000905B46324649462069D5F80CC0DCF834C0E04700284AD4A7EB80079D
:20612000B04236D148460BEB860B09EB8609814502D2286A401C2862022F1CD37E0848F0DE
:20614000010000905B46324649462069D5F80CC0DCF834C0E04700282BD4A7EB4007B04203
:2061600017D148460BEB460B09EB4609814502D2286A401C286267B1CDF800805B463A468F
:2061800049462069EE68D6F83490C847002810D43F1ABAF1000F0AD0A86A816808001CBF19
:2061A00001A8884700212069EA68526990470498C01BEEE6000000000000FF3F7047012078
:2061C0007047000010B40022426001608F490A6812B9086010BC70470A4600E0221D146834
:2061E0000CB1A042FAD24460106008680028F1D000E0084641680029ECD0026813188B42A9
:20620000F7D14B684360096889180160F2E78048006870477F480068704770B506460C4684
:206220007D4D284602F0AFF8002E07BF78480068306880197549096800E0496861B18142AB
:20624000FBD148B10168081871490968714A126851188842EED10020002100220B460EC418
:206260000C3C28B1206001686160406800B1A0602846A4E0684802F086B8674802F0A2B82D
:2062800038B5654C204602F07EF800205F49096804E00A68904238BF104649680029F8D141
:2062A00009282CBFA0F108050025204602F08AF8284632BD70B50646574C204602F063F801
:2062C000204602F060F80025F01DC008C00008304E4900E0111D0A68AAB11368984208D27B
:2062E000154682180A602968091A11606968516004E08342EED1154652680A601DB128605B
:20630000002068600835204602F05CF8204602F059F8284670BDF8B507460C463E4D284623
:2063200002F031F8284602F02EF80026F81DC008C0000830354900E0111D0A68A2B11368F5
:20634000984208D2164682180A603168091A11607168516004E08342EED1164652680A608A
:2063600016B1306074600836284602F02BF8284602F028F83046F2BD38B50446264D284674
:2063800002F001F824B1A4F108000168FFF71AFF27E070B504460D461F4E304601F0F3FF99
:2063A000E81D20F007000830A4F108021168814204D01060091A8018FFF704FF3046BDE89B
:2063C000704001F0FFBF38B50446134D284601F0DAFF206818B150F8081DFFF7F3FE0020CA
:2063E00020602846BDE8324001F0ECBF38B504460D46094801F0AEFF05480460E908C90018
:20640000044801602046BDE83440DBE6880500208C0500209005002078050020002201F0CC
:20642000F1BF00000300002013F0030F09D0521E22BF13F8010B11F801CBB0EB0C00F3D0F4
:206440007047121F22BF53F8040B51F804CB6045F7D0121D0AD200BA9CFA8CFCB0EB0C000B
:2064600038BF6FF0000088BF01207047521E22BF13F8010B11F801CBB0EB0C00F6D0521C8F
:2064800008BF10467047000010B501F0F2FF0446702002F094F970212046BDE8104002F04A
:2064A0004BB970472DE9F04F83B004464FF0000A4FF0FF3003F020F800ADCD2C07D10221EC
:2064C00000A802F09BF99DF80000697805E0032100A802F093F96878A97800EB012080B2AA
:2064E000C01D01904FEAE0084FEA4806DFF84C1B701CFFF710FF050008EB050712D130465A
:2065000002F083F9404602F051F94FF0060ACF2C75D1DFF8FC0B0078002870D0062002F0E5
:206520004BF96CE04146384602F068F94146284602F07BF9002602F096F9A8EB0001A1EB51
:20654000060920B1B9F1FF0FF5DD29F03F094FEAC90B414504D1019800F00700C01F8344D2
:206560005FFA8AFABAF1000F2CD1DFF8A80B0078002818BF042803D0072818BF0A280CD172
:206580005B46F219F1197019DFF88CCBDCF800C0DCF804C0E04782461AE0012818D1DFF890
:2065A0007C0B4FF0FF31016003F06CF85B46F219F1197019DFF860CBDCF800C0DCF804C0C0
:2065C000E04705E00BF10700C110F019FFF78AFBD52C11D04946CF2C0BD1DFF8340B007881
:2065E00038B109EB0600404503D1F01909F800A0491CF01902F0DCF84E4446459BD1DFF821
:20660000200B017809B980F800A0D52C0CD002F0DFF8CF2C02BFDFF8F80A0078002804BF5E
:206620005FFA8AF002F0C8F815B12846FFF7A4FE00F020BC2DE9F04F85B0022100A802F0F6
:20664000DDF8022104A802F0D9F8022103A802F0D5F8022102A802F0D1F8022101A802F000
:20666000CDF8DFF8441BBDF8000000EB40000930FFF751FE8046BDF8000000EB080900EB5F
:2066800009070146404602F0B9F8BDF80010484602F0B4F80198ADF80200029D049CBDF855
:2066A00000A003A80088C619802080F3118800BF00BF03F08BF803F08DF8A4B2C4B14FEA0C
:2066C000CA0ADFF854BA53463A4641464846DBF800C0DCF804C0E047641E3078717840EA44
:2066E00001202840BDF80210884218BF002CEAD101F011FDBDF80010384602F01DF84046F3
:20670000FFF73AFE05B0BDE8F08F2DE9F14F884691469A460A9C0B9880B200EB0907012000
:2067200001F0A5FD03F052F803F054F8DFF8CC5A286AA4B226184FEACA0A0D9CA4B20C9877
:20674000ADF83000DFF8D0B953464A4641460098DBF800C0DCF804C0E0473878797840EA9F
:206760000120BDF830100840A04202D0286A301AEAD5BDE8F18F70B58AB0022104A802F027
:206780003DF8022108A802F039F8022107A802F035F8022106A802F031F8022105A802F02F
:2067A0002DF8DFF85C1ABDF8100000EB40000930FFF7B1FD0446BDF81000051946190146C7
:2067C000204602F01BF8BDF81010284602F016F8059880B20390069880B20290079880B276
:2067E0000190089880B20090BDF81030324621462846FFF78AFFBDF81010304601F09CFF0E
:206800002046FFF7B9FD0AB070BD00B583B003F025F8ADF8000002F0B0FF8DF8020002F0C8
:20682000AEFF8DF8030002F0ACFF8DF8040002F0ADFF8DF8050002F0ABFF8DF8060002F0BC
:20684000A9FF8DF80700082142E080B5042001F0B6FF42F6E36001F0B2FF4FF40060BDE855
:20686000024001F0ACBF80B50421DFF8980901F063FF00210020BDE8044001F0F1BE00B5D6
:2068800089B0202100A8FFF7C9FDDFF87C1900A8FFF733F80C208DF804006C208DF805001A
:2068A00000208DF8060040208DF80700A1208DF8080000208DF80900202100A801F03CFF30
:2068C00009B000BD00B583B000A803F044F8062100A801F031FF03B000BD80B502F07CFF81
:2068E000CBE02DE9F043A1B0012400260025042100A801F083FFDFF814090068012812D13B
:20690000002410E0A8EB00082CB14FF47A714046FFF736F8804601A840F825806D1C761CAC
:20692000009840080090009890B3C007F7D501270D2E05D1022003F021F88046002703E042
:20694000304603F01BF8804618F1010FE3D0B01E022804D90B3802D00E380128DBD8002FEE
:206960001EBFDFF8AC7838780228CDD0DFF8A49830B904228021484601F0E1FD01203870DF
:20698000D9F8000000284EBF002040004010B9E7A90001A801F0D0FE21B0BDE8F08330B5C2
:2069A000A1B000240025042100A801F027FFDFF868084FF0FF3101AA0DE0DB0706D50B46FD
:2069C000042CB8BF036842F825306D1C641C009B5B080093001D009B002BEED1A90001A888
:2069E00001F0AAFE21B030BD2DE9F043C3B001A801F01FFF00A801F01CFF0120019911F05C
:206A0000030F18BF0020009911F0030F18BF0020DFF808180C68002C18BF14F1010F23D054
:206A200010B3019D009EB6F5807F88BF4FF480760098801B0090B04602AF2846FEF76BFFF6
:206A4000814684EA09013846FEF757FF89F0A5343F1D2D1D361FF0D1414602A801F06CFE94
:206A600000980028DED102E0009801F09FFE43B0BDE8F08380B5FFF703FCBDE8024001F092
:206A8000A4BE00B5C1B04FF48072002100A801F0B7FD3FE030B5C3B04FF4807102A801F085
:206AA000ADFE002829D4002402AD0122214601A801F0A6FD15F8010B9DF8041001408142A6
:206AC0001BD1641CFF2CF0D90AA8FEF724FFA0B102A8FEF720FF04000FD00422002100A8AB
:206AE00001F08EFD009810F1010F18BF844204D14FF4807102A801F099FD002001F05CFE2F
:206B000043B030BD00B5C1B04FF48072002100A801F015FD4FF4807100A801F00DFE41B0A5
:206B200000BD00B5D5B04FF4807115A801F066FE0422202100A801F002FD0422242102A804
:206B400001F0FDFC0422402103A801F0F8FC0422482104A801F0F3FC4FF4807115A801F037
:206B600039FDDFF8AC06017802291CBF0021017055B000BD80B54FF0FF3002F0BDFC032111
:206B800000A801F03BFE9DF801109DF8000000EBC002DFF88C0600EB820003F01AF901BDA1
:206BA0002DE9F04784B004460027FFF733FB8046FFF72DFB81464D46002600A9002034E07E
:206BC000002C4DD14AE00098401BB0EB060A0DD010375CB9701901F0CDFD504601F0CAFDD8
:206BE000002001F0C7FD002001F0C4FD10370025029818B1FEF79AFE451CEF197CB900985C
:206C000001F0B8FD019801F0B5FD012001F0B2FD284601F0AFFD2946029801F096FD009D9C
:206C2000019E002EC9D000A92846FFF7F6FA01980028C8D17019C8448045C1D01037002C39
:206C4000BED101F097FDA8EB0500801B01F092FD002001F08FFD002001F08CFD01F0B8FD90
:206C6000384604B0BDE8F08780B5012100A801F0C5FD9DF8000010B1012804D001BD0120E2
:206C800001F0A3FD01BDFFF7C2FA01F073FDFFF7C1FA01F06FFDFFF7EDFA0120FFF780FF11
:206CA00001F068FD0020FFF77BFFFFF7E6FA01BD00B583B0012101A801F0A0FD009088B948
:206CC0009DF80400FE2805D0FF280CBF832002F063FD02E0DFF84C0500780090042100A85A
:206CE00001F02AFD03B000BD80B5022100A801F085FDBDF800004FF6FF71884204BF002082
:206D0000ADF80000BDF800004FF47A71484302F0C3FC01BD02F05CBD02F05CBD10B582B0E4
:206D2000012401210DF1010001F068FD214600A801F064FD022001F068FDA8B99DF80100E7
:206D40009DF8001041EA002040F2011188421FBF40F20131884240F20161884201D140F2C7
:206D6000FF54204601F031FD13BD80B5042100A801F044FD9DF802009DF8031041EA0020AD
:206D800040F2011188421FBF40F20131884240F20161884203D19DF8000003F01CF901BD4C
:206DA0000020DFF8841404220B8803B1401C2431521EF9D170470021DFF86C2432F8243B24
:206DC000834201D108467047491C0429F6DB4FF0FF3070472DE9F14F82B00D4690469B46FD
:206DE0000C9C022642F21079DFF834A400270AF20A0030F8241BE9B907EBC700800040F8B0
:206E00000A5000EB0A05C5F8048085F808B06C72BDF808006881DFF8E403006AE86000A80C
:206E200001F07FFC0098286101986861384602F063FB1FE07F1C042FDBDBDFF8C003006A0E
:206E400000270AF10C0131F8022C6AB10A68821A4A4509DB384603F09EF907EBC7000AEB5A
:206E600080000021418103E07F1C2431042FEADB761EBBD103B0BDE8F08F30B599B001219D
:206E800002A801F0BBFC042105A801F0B7FC042104A801F0B3FC01210DF1070001F0AEFCF7
:206EA00001210DF1060001F0A9FC022101A801F0A5FC9DF80800642802D065282BD052E003
:206EC000BDF80400C0B9DFF864030188491C0180ADF80410BDF80400FFF76DFF0028F2D510
:206EE0009DF8060000909DF80730049A0599BDF80400FFF76FFF36E0FFF75DFF002832D4AC
:206F000000EBC001DFF8180300EB8100DFF8EC12096AC16027E0BDF80400FFF74CFF0400F9
:206F200021D404EBC400DFF8F81201EB800500206881A86918B1FFF71FFA0020A861E869EB
:206F400018B1FFF719FA0020E861204603F023F9FFF726FF38B902F0A3FCDFF8D402002116
:206F6000017001F0CBFC06A80390BDF8041003A8FEF7B3FC042103A8FEF7AFFC102103A843
:206F8000FEF7ABFC042103A8FEF7A7FC0024DFF89052102229460398FEF7B8FE039810304E
:206FA0000390641C2435042CF3DB02F057FC014603A8FEF794FC200100F10C0106A801F0ED
:206FC000BBFB19B030BD802080F3118800BF00BF002003F04BF9F6E7F5E780B502F0F4FBF5
:206FE000022001F044F9BDE8014002F0EFBB80B502F0EEFB022001F03AF9BDE8014002F091
:20700000E9BB704780B502F06DFB02F0BAFBBDE8024001F0D1BBCD20FFF744BACE20FFF7B6
:2070200041BACF20FFF73EBA80B5394801210170804801F0FEFB80481FE500004C44000819
:2070400010B584B06FF00104102100A801F0D6FB0098802826D2052803D1019803F074FA05
:2070600050E0082803D1019803F0D9FA18E0092804D129480068C06980470DE00A2804D1C2
:2070800025480068006A804706E001990B2805D1012938D15D480160012434E002F0A6FC5B
:2070A000044630E0B0F5C07F16D2B0F5807F02D10198624925E040F20111884202D1019870
:2070C0005F491EE0B0F5817F1DD1BDF80800FFF772FE02F02BFA15E0B0F5007F13D240F20D
:2070E0008111884207D1BDF80800FFF764FE019902F012FA00240098B0F5C17F03D10198A1
:20710000464908600024204601F05FFB04B010BD1B1200202712002094000020240A00207A
:207120001A12002038B50446414D287898B9601F0FD0C2380DD0801F022884BF08380128A3
:2071400002D9C01E05D006E03E493648007802F07DFA012028701D2C04D3BA2C38BFFFF729
:2071600032FF6334E4B2384850F8240080472348006A00252A4C04F10C01344A31F8023CA7
:207180006BB10B68C31A934209DB284603F003F805EBC50004EB80000021418131BD6D1CF0
:2071A0002431042DEADB31BD6044000838B5FFF702FE04001FD404EBC400194901EB80058A
:2071C00000206881A86918B1FFF7D6F80020A861E86918B1FFF7D0F80020E861204602F046
:2071E000DAFFFFF7DDFD30B902F05AFB10480021017001F083FB204632BD000038000020B0
:207200007C4400089C440008335AEA883C050020261200202C0A0020280500203805002006
:20722000400A0020271200204A0A0020181200202A120020300A002010470400340A00205E
:20724000380A002040420F00A0440008C02709007047000038B5DFF8744C8268D21DD30870
:207260000A464168006825682D68A84720B920688068BDE83240004732BDF8B506461446B3
:20728000756C51B9296805F19C00FFF7E3FF69892868FEF7BFFA2060BCE001F003077069E8
:2072A000012806D0296805F11800FFF7D3FF01207061642607EB470005EB8007296807F1B3
:2072C0006C00FFF7C7FFE9882868CA08125C01F00703DA40D20700D42BE0761EEED125E020
:2072E000F8B50646144601F00307756C7069022806D0296805F12400FFF7ACFF0220706147
:20730000642607EB470005EB8007296807F16C00FFF7A0FFE9882868CA08125C01F007036D
:20732000DA40D20700D404E0761EEED14FF0FF30F2BD1CB1C91CFEF76DFA20600020F2BDD5
:2073400070B504460D461646FFF797FF002806D42DB1324603212046BDE870408DE770BDAB
:2073600038B5044615460022FFF7BAFF002805D42A4603212046BDE838407EE732BDF8B591
:207380000646154611F00307746C14D1216804F13000FFF75FFFA088C01C00F00702294608
:2073A000E36B03EBD000FEF749FA216804F13C00FFF750FF2EE07069012806D0216804F126
:2073C0001800FFF747FF012070610026A088C01C07EB470104EB810700F007022946FB6BBE
:2073E00003EBD000FEF72AFA216807F13C00FFF731FF70B9A088C1082268895C00F0070053
:2074000021FA00F0C00701D40020F2BD761C642EEADB8BE700207061F2BDF8B506460F46AD
:207420001546746C7069022806D0216804F12400FFF710FF0220706107F003000026A18855
:20744000CB1C00EB400104EB810703F007022946F86B00EBD300FEF7F1F9216807F13C007A
:20746000FFF7F8FE70B9A088C1082268895C00F0070021FA00F0C00701D40020F2BD761C98
:20748000642EEADB52E780B5DFF8442A0121FFF776FF002802D54FF0FF3002BD002002BD4A
:2074A00038B50446656C296805F11800FFF7D2FE296805F10C00FFF7CDFE2889C11C2868ED
:2074C000FEF7A8F901216161800605D52046FFF7DAFF6FF0010032BD002032BD10B5044630
:2074E000606C6169012905D050F8181BFFF7B2FE0120606110BD10B50446606C6169022957
:2075000005D050F8241BFFF7A5FE0220606110BD38B500208DF802008DF80100DFF8AC49E0
:20752000012300AA0DF101010DF1020025682D68A84720688068804731BD2DE9F8430446AC
:2075400089461646FFF79FFF0027207C08B14FF45060E16840EA0108A069404508BF012704
:207560000098032804D100A92046FDF73EFD08B900252FB9424602212046FFF700FF054616
:2075800060688000009B4CBF0022012231462046FDF7F6FC0646A069404504BFE069B0421D
:2075A00005D0324600212046FFF737FF05434A4601212046FFF731FFC4F81880E661022187
:2075C000616128434CBF4FF0FF300020BDE8F2832DE9F84F0446884691469B460025606CAD
:2075E000B0F8A870B0F8AAA0102619F0030015D1F80810F8080007F00701C840C00709D4F6
:20760000BBF1010B06D5F91C4046FEF703F949F8040B6D1C5744761EEAD11DE0F80810F883
:20762000080007F00701C840C00712D4BBF1010B0FD5F91C4046FEF7EDF809F8010B000A66
:2076400009F8010B000A09F8010B000A09F8010B6D1C5744761EE1D1206840B1816801EB37
:2076600085018160C268914224BF016888472846BDE8F28F2DE9F44F84B080461D460E9B98
:20768000D8F844400222FFF758FF5FEA000948BF4FF0FF3000F17F8004F1AC0720680190AD
:2076A000B968C91DCB0818180290019A79683868DFF818482468D4F800C0E0470124049ED5
:2076C000A246DFF80808006880688047212E27D3B868C01DC30801A850F8242079683868FD
:2076E000DFF8E8C7DCF800C0DCF800C0E04784F0010453462A4601A850F824104046FFF792
:2077000067FF834605EB8B05A6EB0B064FF0000ADFF8B807006880688047BBF1000FD5D1C1
:2077200053462A4684F0010001A951F820104046FFF74EFF05EB8005371A00AA03214046C5
:20774000FFF79BFD15F00300009808BF28600FD028700098000A009005F8010F0098000A54
:20776000009005F8010F0098000A009005F8010FB9F1000F08BF7F1E0498C51B404603D13A
:2077800000F059FA002006E0FFF78AFE00284CBF6FF00200284605B0BDE8F08F2DE9F84FEA
:2077A0000446884691461F46CA460A9DC5F1040B0B9EBAF1010F06D12EB100AA03212046AB
:2077C000FFF75BFD04E000AA03212046FFF788FD002806D5204600F02EFA4FF0FF30BDE834
:2077E000F28FA07C30B108F003004019C000C0F1200002E00BEA0800C000009921FA00F0E3
:20780000009000983870022DA1BF0098000A7870032D05DB0098000CB8700098000EF87095
:207820006068800058BFA844EF19BAF1010AC0D14846BDE8F28F2DE9F04F83B0044688465A
:2078400091469B460D9B0C9D2A46FFF776FE002846D402AA03212046FFF742FD00283FD45D
:20786000206888B309FA05F6012000FA05FA2068C768B74232BF0020374601200190CDF878
:2078800000A05B4627FA05F241462046FFF786FF002825D4206838B1816879188160C26810
:2078A000914224BF016888476068800058BFB844BB44F61BDBD12046FFF7F2FD00284CBF45
:2078C0006FF0020048466FE001200190A84000905B464A4641462046FFF760FF0028EAD5E6
:2078E00060E02DE9F04F83B004468946164604F16000009004F1B80001904FF0000A009847
:207900008068C01D4FEAD00B59F8041BA088C01C00F00702009B1B6803EBD000FDF78EFFC4
:20792000DFF8A8850025761E00A850F82A705B46226879683868D8F800C0DCF800C0E04709
:20794000CEB159F8041BA088C01C00F007028AF001030DF1000C5CF823301B6803EBD000CB
:20796000FDF76CFF07E05B4679683868D8F800C0DCF800C0E047D8F8000080688047A088AD
:207980002268C108895C00F0070021FA00F0C00705D48AF0010A002EC4D1002004E06D1C38
:2079A000642DE0D14FF0FF3003B0BDE8F08F2DE9F04F83B004460D4690461F460D9B0C9E8E
:2079C000002E14BF4FF0011A4FF0013A3246FFF7B4FD002848BF4FF0FF3035D4C1460120E5
:2079E000B040029001200021324602F051FE0190A808800097F800B005F00301002E1DBF07
:207A00007A784BEA022B801CC01C421A01212046FFF703FD00900AFB0BF203212046FFF7AE
:207A2000FCFC0099084303D5204600F004F909E00198C719606880005CBF02984519B9F1D8
:207A40000109D5D1A8EB0900AEE72DE9F04383B0064690461F460A9C0B9BB07C40B1022CAB
:207A600006D2019300943B463046FFF7A0FF47E014B94FF0013905E0012C0CBF4FF00119D7
:207A80004FF0010922463046FFF757FD00280FD4454617F0030008BF022C0ED12A46394612
:207AA000706CFFF71EFF002805D5304600F0C3F84FF0FF3024E0002520E0387854B1797877
:207AC00040EA0120022C05D3B978FA78120642EA0141084309FB00F203213046FFF79DFCC2
:207AE000002803D5304600F0A6F807E001200021224602F0CDFDC7196D1EDED1A8EB050083
:207B000003B0BDE8F0832DE9F04F83B00446884692469946A068029000270C9D0D9E022DFF
:207B200019D10096204600F036F80746002F30D46068800058BF08EB870809EB8709AAEBC7
:207B4000070A08E00BFA05F06168890058BF80448144AAEB0B0ABAF1000F1AD0029820EA4E
:207B60000800E840401C61688900D34602D4824588BF8346019600954B465A464146204617
:207B8000FFF759FE002801D5074602E0C7195845D8D0384608E72DE9F04F83B00446894638
:207BA00092469B46BAF1100F38BF002042D3D4F8088055460C9E28EA09018908491C6268A1
:207BC00092002F4602D48D4288BF0F46102F11D300965B463A4649462046FFF74BFD002828
:207BE0001ED46168890058BF09EB80090BEB800B2D1A3F1A97B10196022000905B463A46DA
:207C000049462046FFF77FFF002809D46268920058BF09EB87090BEB870BED1B002DCAD1A7
:207C200010F1030F04D02046FFF73AFC002800D5B8E65046B8E638B50446656C296805F16D
:207C40003000FFF707FBA888C01C00F007020121EB6B03EBD000FDF7F1FD296805F13C001C
:207C6000FFF7F8FA002060612046BDE8324017E42DE9F04F83B004460D4691469A464FF0A8
:207C800000080C9E0D9F08E00BFA06F06168890058BF45198244A9EB0B09B9F1000F19D0CC
:207CA000A068A843F040401C61688900CB4602D4814588BF83460197009653465A46294660
:207CC0002046FFF7C2FE002801D5804602E080445845D9D0404667E62DE9F84F86B08046AC
:207CE000894692460024454604267A4F00A806CF06C0083F44F001008DF80000232200A909
:207D00004846FDF75DFF834651464846FDF7F7FE05F16C014846FDF7B8FF0C35A41C761E7D
:207D2000E4D1A8F806B000244546042600A80021002206C08DF80040232200A94846FDF779
:207D40003FFF834606994846FDF7D9FE05F13C014846FDF79AFF0C35A41C761EE6D1A8F8EA
:207D600004B004220A214846FDF7F1FE01214846FDF7C5FE08F118014846FDF786FF0422E7
:207D80000B214846FDF7E3FE01214846FDF7B7FE08F124014846FDF778FF04220821484607
:207DA000FDF7D5FE01214846FDF7A9FE08F130014846FDF76AFF04220E214846FDF7C7FE00
:207DC00001214846FDF79BFE00200290202202A94846FDF7F5FEA8F80A0008F19C01484684
:207DE000FDF753FF00A806CF06C0083F03208DF80000232200A94846FDF7E2FE5146484696
:207E0000FDF77DFE03A806CF06C003208DF80C00232203A94846FDF7D3FE044600214846BC
:207E2000FDF76DFEA8F8084008F10C014846FDF72CFF07B0BDE8F08F2DE9FC4704460D4677
:207E4000164608230822FFF747FF002E3CD100A80021002206C006208DF80000232200A9B0
:207E60002846FDF7ADFE064608212846FDF747FEA68004F1B8012846FDF707FF0026154F13
:207E800000A806CF06C0083F07208DF80000232200A92846FDF794FE824604212846FDF77B
:207EA0002EFE0EB9D04603E0012E08BFAAEB0809761C102EE4DB04F1AC012846FDF7E5FEC4
:207EC000A4F8A880A4F8AA90BDE8F3879400002020000050BC47000830B4802080F311882A
:207EE00000BF00BFDFF8B40381680022027182F3118800291CBF0A68002A21D04B695469E8
:207F00009C421DD100E02246146814B165699D42F9D0802383F3118800BF00BF0B68046986
:207F20008C4208BF0361086A036018620A621068086000B10162116092F8390082F83800B3
:207F4000002080F3118830BC704738B5DFF84C4300206071206A00F180406062E1690800BF
:207F60001CBF20468847002080F31188E56826E0802080F3118800BF00BF206920B168691D
:207F800021694969884221D3287C400713D5E868216A401A012809DA284600F0DEF88020FF
:207FA00080F3118800BF00BF287C78B1E868616A411A48BF6062002080F311882D68002D3D
:207FC000D6D1802080F3118800BF00BF31BD70B5DFF8C8420020607001202070802080F328
:207FE000118800BF00BFE06B010005D080470020E063606384F83800002080F3118802F08A
:2080000059FB0078CD281CBF7D2002F059FBA06800281CBFC16B002904D009680A001CBF57
:208020004068884794F8310040B1A06894F8301080F83810207908B1FFF74EFFA06820B119
:20804000017C11B9416B491C4163206948B304E028682061002080F31188802080F31188D3
:2080600000BF00BF256925B32E7C16B370070ED5E868216A411A012905DA284600F06DF84D
:20808000287C20B90DE0616A411A48BF606206F0FB001028DCD1A86880684068007C00286D
:2080A000D6D1802080F3118800BF00BF01E0FFF74CFF60790028FAD1206910B32069007CB0
:2080C0000028206902D0806880684068A060C06A0078CD281CBF782002F0F2FAA068C16B89
:2080E00021B149680A001CBF40688847A06890F8381084F8301084F83110016B491C01631B
:2081000007E084F8310084F83000A060207080F31188204670BD6148407808B980F31188C2
:20812000704710B55D4C2078401E2070207898B9606888B1802080F3118800BF00BF6068B8
:2081400030B101202070204602F017FB00202070607808B980F3118810BD38B581684F4C90
:2081600041B1226AC2600A68496802B151600A6000218160017C11F00301017412D1216908
:2081800089B92061207838B901202070204602F0F4FA0020207001E001206071607808B980
:2081A00080F3118831BD42694B699342E9D38142E8D09A42F6D103461B68002BEED05D693C
:2081C000AA42EBD18B42F7D1DBE738B54169334C2278521C227004F10C0200E01A46136832
:2081E00013B15D69A942F9D303600262106043B118625A698A420CBF90F83910002180F8D5
:208200003810017C51B9802181F3118800BF00BFFFF7A3FF607808B980F31188BDE8314010
:208220007FE738B51D4C25782078401C2070204602F0A3FA2570607808B980F3118831BD44
:2082400010B502F0CDFA15480121017002F032FA044602F033FA001BA0F12001012905DB52
:20826000CD222046BDE8104000F022B810BD0B490A6A10180A7802B109E0802282F311885F
:2082800000BF00BF8968C86004200874C9E7002282F311880A6A121AFCD470473800002048
:2082A0004FF0120100FB01F0401EFDD17047000062F30F2262F31F42401810F0030308D02B
:2082C000C91A1FD3DB0748BF00F8012D28BF20F8022D130030B414461546103928BF20E9A7
:2082E0003C00FAD8490728BF20E90C0048BF40F8042D890028BF20F8022D48BF00F8012DD0
:2083000030BC7047C91818BF00F8012DCB0728BF00F8012D7047000070B5044633480568EF
:20832000334E14E0287A88B16868A0420ED1012028723078401C3070287A401E2872C0B2F1
:2083400010B9284602F05AFAFFF7EBFEED68002DE8D170BD2749284A0A60002100220B4679
:208360008C46A0E80E101038802181F3118800BF00BF1E490A68C26008601D48407808B9D0
:2083800080F31188704738B50446194D2878401C2870A868217A11B9606001250DE06168D8
:2083A000814208D01021204602F03EFA207A0028F8D1A8686060207A451C2572FFF7B1FECF
:2083C000284632BD0A490A78521C0A70017A491E0172C9B2002918BFFFF7A3BE80B502F035
:2083E0000DFABDE80140FFF79CBE0000F805002038000020000600201983000862F30F227B
:2084000062F31F4200B500BF130096469446103928BFA0E80C50FAD85FEA417C28BF0CC0CA
:2084200048BF40F8042BC90728BF20F8022B48BF00F8012B00BD000080B59048002101605B
:20844000012000F0B9F96420FFF711FF802080F3118800BF00BF8A484178491C4170894833
:2084600002F02EFA834884490160BDE8014001F088BA8548704780B5002000900122002123
:2084800000A800F05CF80098042801D3FF2852D1002000900122012100A800F050F80098A1
:2084A000032801D3FF2846D1002000900122AF2100A800F044F80098FF283CD1002000908C
:2084C0000422042100A800F03AF80098022802D310F1010F2FD10020009001220D2100A836
:2084E00000F02DF80098FF2818BF012823D1002000900122882100A800F021F800980328C4
:2085000001D3FF2817D1002000900122892100A800F015F80098022801D3FF280BD100209D
:20852000009001229A2100A800F009F80098652804D3FF2802D0554802F0C2F901BD00280F
:2085400018BF002A10D05318B3F5807F98BFFF290AD8C1F580739A4288BF1A4601F1006148
:2085600001F5FC31FDF7D2BB7047F0B5C1B004000D4616462AD026B3FF2D9CBF7019B0F54F
:20858000807F23D8C5F58077B7F5807F88BF4FF48077B74288BF37463A46214600A8FDF7C4
:2085A000B5FB00233A4600A905F1006000F5FC3002F060F93C19F61B7D19FF2D04D8002ECB
:2085C000E0D1002041B0F0BD002EFAD04FF0FF3041B0F0BD10B5040005D009B9002010BDDB
:2085E000B1F5807F02D04FF0FF3010BD274802F067F94FF4807200212046BDE81040B4E7BC
:20860000002818BF002A10D05318B3F5807F98BFFF290AD8C1F580739A4288BF1A4601F1C0
:20862000006101F5FE31FDF771BB704700B5C1B0B1F5807F00D118B94FF0FF3041B000BD54
:208640004FF48072014600A8FDF760FB00234FF4807200A90E4802F00DF9002041B000BD8A
:2086600010B1012803D0704702480160704701484160704700000020214334123C0A002053
:2086800038000020004000081042000800F8010800FC01082DE9F8430F4681469C4D2868F4
:2086A00030B948469B4A1268D269BDE8F8431047994E3368EBB1DFF86482D8F80010CC1AD1
:2086C000A74238BF3C46A4B1224649461818FDF71DFB306821183160A1443F1BD8F800003F
:2086E000814206D128688B4A1268D269904700203060A7B189480068401E37EA000408D053
:2087000021464846834A1268D2699047A1443F1B05D03A4649462868FDF7F8FA3760BDE836
:20872000F18320B10021002206C040F8081D70477B48012101707047002918BF002803D0CF
:20874000744A1268526910477047F8B504460D466F4E306848B9714F6E480068406A804729
:2087600038607049FDF7D7FD306029462046BDE8F4408FE701B5042100A8FFF7E6FF01BD10
:2087800070B588B004460A46202100A8FFF736FE604D212C2CBF20262646314600A82A6887
:2087A00052699047A41BF4D108B070BD0021E7E7584A12689269104701B5012101E001B5F2
:2087C000022100A8FFF7B8FF01BD01B50421F8E710B54F48006800281EBF4F4C2168002993
:2087E00006D04C4A1268526990470020206010BD48480068006ABDE81040004709B9002014
:208800007047444A12689268104730B589B00446212C2CBF20252546294600A8FFF7EEFFFE
:2088200008B9641BF4D109B030BD3A4A1268D26810470421E2E710B582B0044600A8002205
:208840000260FFF7DBFF9DF800109DF8012041EA02219DF8022041EA02419DF8032041EA35
:208860000261216016BD2B48006800680047294800684068004780B52B4802F035F801F037
:208880001BFD24482949016001BD274802F044B82348002101701F4800680069004701F0F9
:2088A0002FBE38B50446204D03E00221284602F05BF801F025FE78B101F01FFE01280BDB14
:2088C0001B48006A1B49086012481849016001212046FFF793FF32BD01F012FE0028E4D007
:2088E000002100A801F0FEFD002802D54FF0FF3032BD00F0D0FD0028DBD0D6E710B5044C05
:20890000206818B1FDF738FD0020206010BD00009C050020A8050020A4050020A005002054
:208920002B120020D0480008940500200049000838000020280A00202DE9F04F85B0044632
:2089400089464FF0FF36100C0004049090B203908246FDF795FC0399814288BF014602917E
:20896000B1F5805F02D9080A00020290DFF8E01B0298FDF7D0FC019000285CD019F0030FC5
:208980001BD009F00300C0F10400D046824588BF804641460198FFF731FF01980090049B43
:2089A000424649462046E669B668B047C144AAEB080A404501D038E0B144BAF1000F01D13B
:2089C000039E40E00298D046824588BF8046AAEB080ACB46002741460198FFF726FF002612
:2089E000FFF741FFA8EB00018D1B18B1402DF7D3A8098501AFB9019830180090049B2A46E6
:208A000059462046E769D7F808C0E0470746AF4208BF00275846AB44834502D2206B401C07
:208A20002063AE194645DBD117B14FF0FF3602E04646002EC0D5BAF1000F1CBF5046FFF727
:208A4000E4FE019810B10198FDF796FC304605B0BDE8F04FFFF7B9BE1CB50446082100A853
:208A6000FFF7CCFE00202063019A00992046FFF763FF13BD38B50446A0688509AD010BD07B
:208A80002946206962688018FFF792FE206928182061A068401BA06031BD2DE9F14F8EB0C7
:208AA0008A46100C0004029095B22E46112D0BD3FDF7E6FB8046281D404538BF80464046B5
:208AC000FDF7F8FB070002D108AF4FF01408A8F10409B14507D2B9F5806F05D94FEA592021
:208AE0004FEA402900E0B146DFF8680A03904FF400700690049700200590079003A80190B5
:208B00000097029B4A4651460E98C469D4F804C0E0470446012C03DA0798361A24D126E032
:208B20005046A244361B824504D20E98006B401C0E9908630798A4EB000B66B92946E0198C
:208B4000FCF7DBFE0BF104010798C019FFF730FEFFF73EFE0EE05946C019FFF729FEFFF701
:208B600037FE4C45B3D0AC1B3046FFF71FFE2046FFF72BFE08A887421CBF3846FDF7FCFB1A
:208B80000FB0BDE8F08F1CB50446082100A8FFF735FE00202063019A00992046FFF77DFF2E
:208BA00013BD70B5D4B00446052100A8FFF726FE9DF8001002A8FFF721FE9DF80100F8B167
:208BC0009DF8020068B1DFF89059296A46182069E169096A884740B9286A301AF7D500205E
:208BE00003E02069E169096A88471290012809DA1298012811DB9DF800008000011D0DE0F0
:208C0000012012909DF8003013AA02A92069E469E468A0470028EBD51290042112A8FFF7FC
:208C20008BFD54B070BD2DE9F04F83B004460125042102A8FFF7E2FD9DF808001F300004EF
:208C40004FEA505A9DF808009DF809104143890001EB80005044FDF72DFB07469DF80800D3
:208C600007EB80089DF80910414308EB810981002FB90846FFF7C9FD6FF0010533E0384662
:208C8000FFF7BCFD9DF80A00C0B19DF80B0070B1DFF8C468316A00EB010B2069E169096A79
:208CA000884740B9306ABBEB0000F6D504E02069E169096A884708B9002514E051464846E9
:208CC000FDF710F89DF8090001909DF8080000904B46424639462069E469646DA0470028EE
:208CE00048BF4FF0FF352846FFF744FD012D0CDB9DF809009DF80810484381004046FFF76D
:208D000024FD51464846FFF720FDFFF761FD17B13846FDF731FB03B0BDE8F08F2DE9F04320
:208D200083B004460125022102A8FFF767FD9DF808001F300004460D9DF808009DF80910DB
:208D40004143890001EB80003018FDF7B3FA07469DF8080007EB80089DF80910414308EB28
:208D60008109800067B9FFF750FD9DF808009DF8091048438000FFF748FD6FF001051DE093
:208D800001463846FFF73AFD9DF808009DF80910484381004046FFF731FD9DF809000190B1
:208DA0009DF8080000904B46424639462069E469A46DA047002848BF4FF0FF352846FFF71A
:208DC000D9FC012D03DB31464846FFF7BEFCFFF7FFFC17B13846FDF7CFFA03B0BDE8F0833E
:208DE00070B5D2B0054602E001A8FFF7A5FC002442AE012100A8FFF701FD9DF80000FF28D1
:208E00001EBF06F8010B641C402CF2D1234601AA42A92869EE69F668B047A1009DF800202A
:208E2000FF2AE1D101AA42F82400091D01A8FFF783FC52B070BDF0B5D3B00446002542AE54
:208E400002AF0BE0042101A8FFF7D8FC9DF8000006F8010B019847F8040B6D1C012100A805
:208E6000FFF7CCFC9DF80000FF28EBD12B4602AA42A92069E4692469A047FFF7A6FC53B0CF
:208E8000F0BD10B582B00446012100A8FFF7B6FC9DF800102069E26952699047FFF795FCE0
:208EA000002084F83C0013BD38B504462069E169896988470546FFF788FC012D0CBF012060
:208EC00000200CE038B504462069E169C96988470546FFF77AFC012D0CBF0120002084F80E
:208EE0003C0031BD10B504462069E169096A884701280CBF0121002184F83C10DEE110B5A1
:208F000084B0044600200390142002900020019004E09DF8001003A8FFF770FC012100A849
:208F2000FFF76CFC9DF8000050B9039B019A02992069E469646AA047FFF747FC04B010BD1C
:208F400001210DF10100FFF759FC9DF801000128DFD00AD3032804D007D29DF8001002A833
:208F6000DAE79DF8001001A8D6E79DF80000FFF74CFCD3E710B586B004460020049001207E
:208F80000390002002900120019004E09DF8001004A8FFF733FC012100A8FFF72FFC9DF800
:208FA000000010BB0298206304992069E269926A9047DFF8A4050178491C01700120FFF79F
:208FC00056F901992069E269526990470398FFF74EF92069E169C96988470446FFF7A1F8BD
:208FE0002046FFF7F2FB06B010BD01210DF10100FFF704FC9DF801000428C7D0052804D034
:20900000062806D00B2808D00BE09DF8001003A8BFE79DF8001001A8BBE79DF8001002A821
:20902000B7E79DF80000FFF7F0FBB4E72DE9F04E86B00446042102A8FFF7E0FBFDF720F900
:209040000299814202D3FDF71BF902900298052836D3FDF72FF981460298061F09F1040AC9
:20906000B6B23546DFF8F074386A039004F1100BADB1002001900090334652460021206933
:20908000DBF80CC0DCF848C0E047002848BF00202D1A82440398396A401A0128E8DA00202F
:2090A000ABF81600012084F83400701BC9F80000011D4846FFF740FB4846FDF75DF902E043
:2090C0000020FFF782FB06B0BDE8F08E2DE9F04E88B00446082104A8FFF790FBBDF8100033
:2090E0008000BDF816108842B8BF0846001DFDF7E1F85FEA0009BDF816100AD10846FFF750
:2091000084FB6FF483700290042102A8FFF714FB65E009B1FFF772FB00269DF81500B8BB6F
:20912000BDF81200ADF80C00BDF8106009F104073546DFF824A4DAF82000BDF80C10081890
:20914000069004F1100BCDB102200190BDF80C00009033463A4600212069DBF80CC0DCF8D1
:2091600048C0E047002848BF00202D1A07EB80070698DAF82010401A0128E4DA0220ABF80B
:209180001600012084F83400701B029006461AE0012815D104F1100702203883BDF8103098
:2091A0000190BDF812000090BDF81600C3EBA00009EB800201212069FC68A46CA04701E051
:2091C000DFF89803029002994846FCF796FBB000011D4846FFF7B0FA4846FDF7CDF808B0E3
:2091E000BDE8F08E10B582B00446012100A8FFF705FB9DF800102069E269D26B90470FE0CF
:209200001CB50446082100A8FFF7F8FA00200099012903BF019941F00101E162DFF83C03AF
:20922000FFF7D3FA13BD10B50B4601210BB1DFF83013002841D043680BB141F002018368CE
:209240000BB141F00401C3681C0018BF41F0080104690CB141F0100144690CB141F020019C
:2092600084690CB141F04001C4690CB141F08001046A0CB141F48071446A0CB141F40071D4
:20928000846A0CB141F48061C46B0CB141F480510BB141F40051436D0BB141F48021836DA7
:2092A0000BB141F40021836C0BB141F49041436C180002D01046984701460846BDE8104093
:2092C000FFF783BA00B583B001210DF10100FFF795FA012100A8FFF791FA0220FFF795FADB
:2092E00060B901A99DF801009DF8002042EA002000F0C4FE00220199FFF795FF03B000BDAC
:2093000000B583B001210DF10100FFF777FA012100A8FFF773FA042102A8FFF76FFA01A9D8
:209320009DF801009DF8002042EA002000F0A6FE029A0199FFF777FF03B000BD70B592B089
:20934000402101A8FDF76AF801210DF10100FFF755FA844C04E09DF8001001A8FFF76BFAEA
:20936000012100A8FFF74AFA9DF8000098B901A99DF8010000F028FF9DF8010000F0A9FE7F
:209380000446206928B9606918B1FCF7F5FF0020606112B070BD01210DF10200FFF72EFA90
:2093A0009DF802000728D6D02FD3092809D002D30A280BD029E09DF8001002A8FFF71EFAED
:2093C000CEE79DF800100DF10900F7E79DF80000082834BF05460825294603A8FFF70EFA06
:2093E0009DF80000461BBBD021463046FCF793FF069020B13146FFF701FA0796B0E79DF8F2
:209400000000401BFFF701FAAAE79DF80000F9E770B582B0022100A8FFF7F0F99DF8014023
:209420009DF80000504901EB8015042830DA05F11006F16861B3152C2AD200EBC0014B4852
:2094400000EB81004449096AC160286940B9B06808B17068F0B1284600F044FE2869C8B101
:20946000012085F83400F068C26C414850F8244010000AD00121286990472846A047002175
:209480002869F268D26C904773BD2846A04773BDFFF74EF973BD2DE9F0470124DFF8C8A0F9
:2094A000344D0AF23506042742F21078DFF8A890DAF8100000281CBF9AF83400002812D049
:2094C000307880B928684044D9F82010401A012809DB0AF11000C068016D080003D050461D
:2094E000884700B900240AF1400A403624357F1EDED12046BDE8F087411C04BF0020042179
:20950000194A02EB8012136913B1002382F83430401C8842F4DB7047002806D4124A02EB31
:20952000801002690AB180F83510704710B50E4901EB8014E069026E100008D00321206917
:209540009047010003D02069BDE81040084710BD2C460008758A000838000020FAFEFFFFF7
:209560000100004040460008D00A0020400A0020544600084C0A002010B54B4801684B4C48
:2095800021600022026008698047206810BD38B5454C216891B946490968012202FA00F0D9
:2095A00001420BD0414D2868C068010018BF804728682060406900B93E48286031BDF8B58D
:2095C00004460D4616461F46FFF7D6FF84463B46324629462046DCF80040A047F2BDF8B573
:2095E00004460D4616461F46FFF7C6FF84463B46324629462046DCF80440A047F2BD80B5D7
:20960000FFF7BAFF8068BDE80240004780B5FFF7B3FFC068BDE80240004780B5FFF7ACFF7C
:20962000C069BDE80240004780B5FFF7A5FF006ABDE80240004700E000BF1F4801680029D4
:20964000FCD04FF0FF307047F7E7F6E738B5002400F065F910B919484FF0FF34134908609F
:209660001148002202602E2508688169080005D000208847010001D0804705460C480560F7
:20968000204632BD0848016829B1084A11600022026008690047704780B5014608480078E8
:2096A000FFF7D4FF002002BDD00B002094000020480600206C4900084406002088490008E5
:2096C0002712002080B50620FFF761FFBDE8014000F0EEB880B50020FFF759FFBDE801407B
:2096E00000F0FFB880B50320FFF751FFBDE8014000F010B980B50320FFF749FFBDE801400A
:2097000000F002B980B50120FFF741FF00F0F6F8002026E080B50220FFF739FFBDE80140A3
:2097200000F0E6B880B50620FFF731FFBDE8014000F0C8B880B50020FFF729FFBDE801406B
:2097400000F0D0B880B50320FFF721FFBDE8014000F0DCB880B50120FFF719FF00F0D0F89D
:209760000120BDE8024001F029B980B50220FFF70EFFBDE8014000F0BDB800F07CB800F055
:2097800080B880B500F081F8C0B202BD00F06FB800F07FB800F081B870B50446084D2878F7
:2097A0000646012803D1012C18BF01F087FA05492046FFF74BFF2C70304670BD00000000B7
:2097C0002712002040420F00FFF784BFFFF7B2BFFFF778BFFFF7A6BF72480068704700009E
:2097E00038B57148016821F0E06141F0806101606E48016841F00C0101606D4C4FF044306B
:2098000020606C4961606C4D6C49296068604FF4806020612020286144F62060FEF740FD3A
:20982000A868800602D472B630BFFEE740F2E340E0602020E86060686149084040F44C2049
:2098400040F035006060574842F21071016031BD18B95C484FF480710160704740F6E44025
:20986000704718B958484FF480710160704757480068C00902E055480068400900F0010083
:209880007047524800688008F8E750480068800AF4E74E4800684008F0E74C480068EDE756
:2098A000434801684B4A11404B4A1143016070473F4802214161016821F0F00141F03001B4
:2098C0000160704710B53A4C022020614FF47A70FEF7E6FC206820F0F00040F080002060C6
:2098E00010BD01E0384800E03648012101607047344800E03448802101607047314800E0B8
:2099000031480421016070472E4800E02E482021016070472C48202141600160704710B539
:2099200020B101280DD007280FD012E0084601F011FA040003D02069010018BF80472046A1
:2099400010BD084601F066FAF3E7084600F077FEEFE70024F3E71E49097821B1012904D082
:20996000072904D005E001F0F0B901F04EBA00F051BE1A4901601221818070474FF0FF304F
:209980007047802080F3118800BF00BF1448016889B2144A11430160FEE770477047124826
:2099A000704700004C05002004000140181002400008014044484444000C014044448444D6
:2099C000000FF0FF1408014010080140080801402712002000F00F0F0404404080A8120158
:2099E0000CED00E00700FA05FF3F00206FF0010070470000087070474870704788707047C6
:209A0000C870704708717047C04300F0010048717047C04300F00100887170472DE9F04FCA
:209A20008DB0044600200390042100A8FEF7E6FEFCF726FCB0F500704EBF01201C21B0FB06
:209A4000F1F0009F874288BF07467FB1DFF89013C7EBC7008000FCF75EFC804607EB8700FA
:209A600008EB800002900120039004E00DF11C0804A802900127D4F81C90B9F1000F1CBFB5
:209A8000D9F85860B8F1000F00D0EEB9009800EB80018800FEF7B9FE4FF0FF3004900020B4
:209AA0000590082104A8FEF747FE0098401E0090F7D1B8F1000F04D0039810B14046FCF753
:209AC0005BFC0DB0BDE8F08F4846F16A88470098B84298BF074607EB870081004046FEF7EB
:209AE0008DFEFEF7C4FE0028FBD14446029D002F37D0BA4694F810B0A07CF8B1B948006A55
:209B00000690607C002801AA5946484602D0F368984701E0B368984700281AD40199626872
:209B20001140A268914214D0AE48006A0699401AE1688842E5DB4FF0FF300AE02268607C29
:209B400000285946484602D07369984701E0336998470199696045F8080B1434BAF1010A16
:209B6000C8D1F9000298FEF723FE0098C01B0090ADD1FEF72DFE9FE72DE9F0418EB00446AD
:209B800000200490E06918B1FCF7F6FB0020E061042105A8FEF732FEFCF772FB064692493C
:209BA000FCF7B9FB05460598864202D2FEF72DFE4DE001462846FEF721FE072102A8FCF79F
:209BC0002DFC02A9284600F08FF8002858BFB6F590773CD405F15C084FF490712846FCF7CC
:209BE00081F800A8002101609DF80A009DF8081008189DF80C1008188DF800009DF80B0060
:209C00009DF809100818401C8DF801009DF80B008DF802009DF80A008DF8030000AB3A461B
:209C200008F1C40106A8FCF756F8012206A94046FEF702F90B98C8F800000C980D99092950
:209C400034BF0938401A0C900C9F002F03D54FF0FF3004903BE0F11B2846FCF79AFBE561C3
:209C600054212846FCF73EF8C5F85480404668645E480078010016BF07285D4A5D4AAA6575
:209C80009DF80D2002BB002818BF072818D15A4E4823D8F800205949594837687F68B84763
:209CA0001F208DF8050000208DF804000623D8F800200DF1050101A836687668B04703E016
:209CC000012808BF01F0EAFA0498002805D525B12846FCF751FB0020E061042104A8FEF777
:209CE0002BFD0EB0BDE8F0812DE9F04383B08846009000A8FBF780FDDFF8089102E000988D
:209D0000401C00900098007800285ED0009810F8011BA1F16102D2B21A2A22BFA1F14102C2
:209D2000D2B21A2A01D35F294CD1012601E0761C401C0178A1F13002D2B20A2A22BFA1F184
:209D40006102D2B21A2A22BFA1F14102D2B21A2AEDD35F29EBD0AEB34F4600240725786831
:209D6000B04207D1324600993868FCF75BFB08B9012402E00C376D1EF1D100983018009057
:209D800000A8FBF739FD009800783D281AD10098401C009001A900A8FBF7FFFD2CB1BA68D0
:209DA000100002D041460198904700A8FBF724FD0098007848B100A8FBF71EFD0098007841
:209DC0003B289CD04FF0FF3000E0002003B0BDE8F083022903D20C4A52F8211008477047A4
:209DE000F8460008380000201447000827120020C44700080048000894000020344700086F
:209E000040470008544700084C470008F8B50568AC6C4AF6A6668F4F99B12846E16A884747
:209E20002846A16988473868B0421BD200AA01212846A36898470098400840000090024640
:209E40000CE03868B0420DD200AA01212846A3689847009840F001000090009A01212846FE
:209E600023699847F1BD012910D9091F14D0091F0AD078390ED0891E0AD0891E012984BF84
:209E8000891F072904D909E07348704773487047734870470F207047012070470020704739
:209EA0002DE9F04F85B006460C469346BBF1200F38BF4FF0FF30C0F08B80D6F814A0B76904
:209EC00020212046FBF70EFFD6F80080B8F1000F08BFDFF890810DD06348804508BFDFF83C
:209EE0008C8107D040F2FF395E4880451CBF5F48804501D140F6FF79357B707B010613D558
:209F00000021820748BF4FF40011420748BF41F48001020748BF41F40001800658BF41F41E
:209F20008011E16001206077B07B30B1202804D2012101FA00F0A0F10109042F11D35046D8
:209F4000FBF7E9FCA0600AF1040AC4F804A0A1685046FCF733F9A068391FB1EBC0070AEB4B
:209F6000C00A052F24BF0AF2050A7F1F2D0600263FB15046FBF7CFFCC10702D5000B050309
:209F80000126C4F8109065612677207FC00705D54FF4506020834FF4516002E0002020836C
:209FA00010206083BBF1200708BF002010D020212046FCF7EEF9142100A8FCF72FFACDF8B5
:209FC00004800120029000A8FBF762F82060384605B0BDE8F08F30B5B1B00446022100A824
:209FE000FEF70CFCBDF8001021A8FEF707FCBDF80000042804D321A8FBF78DFC054600E0B7
:20A00000184D402101A8FCF709FA019501208DF8080000208DF809008DF8100011A8059006
:20A0200013480890402211A901A8FFF739FF01210598FFF7EBFE01A80E49611811F8641C9A
:20A040000D4A52F82110884700210598FFF7DEFE31B030BD300A002037000080110000805F
:20A06000012F0080FF000003FF00010EFF00000EE8430008A0430008C043000800224FF485
:20A080008073C01A1BD0401E1CD0801F17D040F2F913C01A13D0401E14D0801F0FD040F24B
:20A0A000F923C01A0BD0401E0CD0801F07D040F2F973C01A03D0401E04D0801F04D1DFF857
:20A0C000602101E0DFF85C2109B10020086010467047042804DADFF8501101EB8010704706
:20A0E000002070472DE9F84F0446DFF84051DFF840A140F2012B4FF4805841F2012906E006
:20A1000000EBC00105EB81004089FDF74FF8FCF7B7F84845A8BF464604DA58451ADBB0F5E7
:20A12000007617D051463046FCF7F5F8070030D0324639462046E369DB6A9847002806D4FF
:20A14000311A3846FCF725F92761BDE8F18F3846FCF712F94FF0FF30DFF8D810096A00223A
:20A1600005F10C03DFF8C0C0A4451CBF33F802ECBEF1000F05D0D3F800E08E45BCBF1046C4
:20A180007146521C0CF1400C2433042AECD30028B6D5BDE8F18F10B5DFF88C1001EB80147D
:20A1A000206980B1E169C96D0A0018BF8847606918B104F11400FCF706F904F11000BDE87E
:20A1C0001040FCF700B910BDF8B504460D46042C25DA2868000EFF2808BF0020297941EAC4
:20A1E0000026DFF8440000EB84172046FFF7D3FF0021B0B2FFF742FFE86140222946384618
:20A20000FBF794FDDFF8300000EB041410212046FBF768FDBC633846BDE8F24062E7F1BD58
:20A220003C430008E8430008D00A0020400A0020584900083800002004060020012808DACA
:20A2400000EB8001124A02EB410101224A70FFF7FFBA7047012808DA00EB80010C4A02EB0A
:20A26000410100224A70FFF7FCBA704701280DDA00EB8001064A02EB41014A7892F001021B
:20A280004A7018BFFFF7E4BAFFF7EBBA704700006C05002070470000FEF7F7BA10B50C4642
:20A2A00004F00300022818BFFEF7EFFA600702D599480121017010BD2DE9F04184B00020AE
:20A2C0008DF800000024012211460DF10100FEF736F99DF80100012807D002280BD1042276
:20A2E000082102A8FEF72BF911E00422002102A8FEF786F90BE0894802900122002100A8E2
:20A30000FEF71DF99DF80000042838BF01240298834D0C2603AA0A21FBF713FB03993031E4
:20A3200005F80119761EF5D140F201101CB19DF8000000F201107B4C608001F093F90020C0
:20A340000090002340220221012001F02EF98DF8080040200090744B02460221002001F0D4
:20A3600024F98DF8090002A801F00DFF6F49002001F01BFF00226E496E4801F085FC002582
:20A38000012206F1500101A8FEF7D9F89DF80400FF2818BF002803D06D1C761C202EEFD326
:20A3A000202D18BF002D1ED0634F3846FBF7BEFA8046624908EB0500801CFBF7ACFF0600DC
:20A3C00011D042463946FBF7A1FC5F2008F8060008EB06072A465021781CFEF7B0F8E8196E
:20A3E00000214170A660204601F0F4FD01F074F904B0BDE8F08180B5FFF7D0FA1420FDF7F8
:20A4000036FFBDE80140FFF7C8BA10B582B00C464B4909680091002322460146002001F0E7
:20A420001CFEA04206D00020FFF71BFABDE81340FFF7A7BA13BD10B582B0414C2068009064
:20A44000012300220021084601F007FE21680020BDE81C4001F0B0BE10B50C4638490B683D
:20A4600022460146002001F0EDFDA04206D00020FFF7F7F9BDE81040FFF783BA10BD38B592
:20A4800004460D462E480168002001F09CFE20B10020FFF7E6F9FFF774FA4FF0FF3000906D
:20A4A00000232A462146002001F0D7FD002806D50020FFF7D6F9BDE83140FFF762BA31BDBF
:20A4C00010B50C461E490B6822460146002001F0F0FDA04204D00020FFF7C3F9FFF751FA15
:20A4E000002010BD0A460146002001F0ECBD002001F0FDBD002001F0F4BD002001F0EABDD9
:20A5000080B501F0EEFB00F00300022801D1012002BD002002BD00002912002040E2010000
:20A520001F00002024000020B805002099A200089DA20008AC050020EC480008F4480008E0
:20A54000100000204020704701F048BE70B50524444D454E802070613068000100093060A8
:20A56000306840F0405030602868FDF799FE802030612868FDF794FE641EEBD170BD2DE910
:20A58000F84388461C46374D374E0827082C98BF2746E41B18F8019B202070615FEAC970E2
:20A5A00047BF80203061802070613068000100093060306840F0405030604FEA59092868AE
:20A5C000FDF76EFE202030612868FDF769FE7F1EE2D1002CD9D10020BDE8F283DB00CEE76F
:20A5E00080B50020ADF8000004230DF102020DF1010100A8FFF7C3FF01BD1B482021016114
:20A6000001681A4A11401A4A11430160002070470020704717490160082181807047002192
:20A6200010B1012802D003E0134804E0134802E012484FF0FF31124A10600846704711490B
:20A64000C200B1FBF2F1891E0F4A11600F4901EB5001B1FBF0F0400808BF01200149086035
:20A66000064870476805002000080140FFFF0F0F00003040002A751550480008744800085B
:20A680009400002000A24A044805002040420F00D2B2203A22BF00FA02F100207047524201
:20A6A000D041D2F1200291404140D040904041407047000000487047301200206846704774
:20A6C00006490A78521C0A7000224A7082F311880349087008780028FCD17047380000208F
:20A6E0001D12002035488168002904BF08B008E0EFF30982A2F12802036882E8F84F8368E8
:20A700005A60FDF764FC816879B14A6892E8F84F036002F1280282F30988906928498142F2
:20A7200002D013F47F4F43D07047264826490968401A80F308884FF08071C161234981615D
:20A740007FF0060E704701BC2046DFF884E000BDFEE7204800681C490968401A203820F057
:20A76000070080F308884FF000011448417081F3118862B600F018F8FEE703680CB44FF00E
:20A78000000141704FF0000181F311881249134A0A604FF0800181F311880CBC03607047E9
:20A7A0000D490E4A0A6070470B490C4A0A6070474FF0000181F311887047000038000020A3
:20A7C00096A700081014002048490008D1D1000851A700080040000804ED00E00000001084
:20A7E000EFF3108072B604490A6842F47F020A6080F31088704700BF20ED00E010B5044662
:20A8000002E0C068FDF7A9FC802080F3118800BF00BF20680028F4D10248407808B980F3C0
:20A82000118810BD3800002000B585B0029001900B4A93680393802383F3118800BF00BF37
:20A840000368009300AB0360009800B14360906800AA82600174FDF7E4FC05B000BD00BF02
:20A8600038000020DFF800F06B010020DFF800F0DB0100202DE9F8438046894616461F46C3
:20A8800074000AE0012C05DB25460020FFF7D6FC6D1EFAD10020FFF7DDFC1FB131464046E8
:20A8A000FFF7E0FF324649464046FFF7DFFF324649464046FBF7B6FD0028E3D1BDE8F1833B
:20A8C00007490A684AB9074A1288B2F5807F2CBF4FF400624FF480620A600968FFF7C2BF1B
:20A8E00044050020E0F7FF1F10B5802181F3118800BF00BF074C6178491C61700821FBF78C
:20A90000F1F96078401E6070607808B980F3118810BD00BF3800002038B50446802080F374
:20A92000118800BF00BF0F4D6878401C687001202071206868B12878401C2870204601F052
:20A9400069FC20B9607901281CBF00202071FDF7E8FB6878401E6870687808B980F3118891
:20A9600031BD00BF3800002070B50446802080F3118800BF00BF104D286A0E18207980B952
:20A9800032464821204601F06DFCA868C068301A012801DA012070BD802080F3118800BFD7
:20A9A00000BF607901281CBF00202071687808B980F31188002070BD38000020DFF804100D
:20A9C000087070471C1200202DE9F04184B005460026C04C206830B901900290082101A89C
:20A9E000FDF7AAFE53E003A900A801F0C3FC0098A168471A04D1039828B9E768012602E0D9
:20AA000044BFE068C719AF42B8BF3D4601960295082101A8FDF790FEBDB3A068009A9042BA
:20AA20001ED36268171AAF42C8BF2F463E0015D03146FDF7BDFEFDF71AFFB6EB0008FAD074
:20AA4000A0684044A0606168884224BF2068A060A06801F090FCB6EB0806ECD1ED1B14D08F
:20AA60002946A068FDF7A4FEFDF701FF2E1AFBD0A0683018A0606168884224BF2068A06074
:20AA8000A06801F078FCAD1BEED1FDF7A1FE04B0BDE8F08110B586B08E4C05E09DF8001006
