:020000040800F2
:1000000000500020513500088D1400088F1400089E
:1000100091140008931400089514000800000000D3
:10002000000000000000000000000000971400081D
:1000300099140008000000009B1400089D1400089B
:100040009935000899350008993500089935000858
:100050009935000899350008993500089935000848
:10006000993500089935000899350008A51400084D
:100070009935000899350008993500089935000828
:100080009935000899350008993500089935000818
:100090009935000899350008993500089935000808
:1000A00099350008993500089935000899350008F8
:1000B000B5140008C51400089935000899350008E2
:1000C00099350008993500089935000899350008D8
:1000D00099350008993500089935000899350008C8
:1000E000993500089935000899350008000000008E
:1000F0000000000000000000000000000000000000
:0C01000000000000000000005FF808F1A3
:10010C000348044B834202D0034B03B1184770479A
:10011C0018000020180000200000000005480649C7
:10012C000B1AD90F01EBA301491002D0034B03B1F9
:10013C00184770471800002018000020000000002D
:10014C0010B5064C237843B9FFF7DAFF044B13B113
:10015C000448AFF300800123237010BD1800002069
:10016C00000000009C35000808B5044B1BB1044985
:10017C000448AFF30080BDE80840CFE70000000062
:10018C001C0000209C35000870B50D4E0D4D761BE3
:10019C00B61006D0002455F8043B01349847A6420B
:1001AC00F9D1094E094D03F0F3F9761BB61006D0C0
:1001BC00002455F8043B01349847A642F9D170BD90
:1001CC00E43B0008E43B0008E83B0008E43B000883
:1001DC00830730B548D0541E002A3FD00346CAB21C
:1001EC0001E0013C3AD303F8012B9D07F9D1032C14
:1001FC002DD9CDB245EA05250F2C45EA054536D952
:10020C00A4F1100222F00F0C03F1200EE6444FEA89
:10021C00121C03F1100242E9045542E90255103256
:10022C007245F8D10CF1010214F00C0F03EB021221
:10023C0004F00F0C13D0ACF1040323F003030433CC
:10024C00134442F8045B9342FBD10CF003042CB131
:10025C00CAB21C4403F8012B9C42FBD130BD64464E
:10026C001346002CF4D1F9E703461446BFE71A46AF
:10027C00A446E0E781F0004102E000BF83F00043B8
:10028C0030B54FEA41044FEA430594EA050F08BF25
:10029C0090EA020F1FBF54EA000C55EA020C7FEAE9
:1002AC00645C7FEA655C00F0E2804FEA5454D4EB66
:1002BC005555B8BF6D420CDD2C4480EA020281EA30
:1002CC00030382EA000083EA010180EA020281EA68
:1002DC000303362D88BF30BD11F0004F4FEA0131BA
:1002EC004FF4801C4CEA113102D0404261EB4101C9
:1002FC0013F0004F4FEA03334CEA133302D052424F
:10030C0063EB430394EA050F00F0A780A4F101040A
:10031C00D5F1200E0DDB02FA0EFC22FA05F2801844
:10032C0041F1000103FA0EF2801843FA05F359412A
:10033C000EE0A5F120050EF1200E012A03FA0EFCA9
:10034C0028BF4CF0020C43FA05F3C01851EBE371D3
:10035C0001F0004507D54FF0000EDCF1000C7EEBF0
:10036C0000006EEB0101B1F5801F1BD3B1F5001F2E
:10037C000CD349085FEA30004FEA3C0C04F101044D
:10038C004FEA445212F5800F80F09A80BCF1004F76
:10039C0008BF5FEA500C50F1000041EB045141EAF8
:1003AC00050130BD5FEA4C0C404141EB0101013CC1
:1003BC0028BFB1F5801FE9D291F0000F04BF0146B0
:1003CC000020B1FA81F308BF2033A3F10B03B3F182
:1003DC0020020CDA0C3208DD02F1140CC2F10C0212
:1003EC0001FA0CF021FA02F10CE002F11402D8BF70
:1003FC00C2F1200C01FA02F120FA0CFCDCBF41EA3C
:10040C000C019040E41AA2BF01EB0451294330BD0A
:10041C006FEA04041F3C1CDA0C340EDC04F11404E7
:10042C00C4F1200220FA04F001FA02F340EA0300BE
:10043C0021FA04F345EA030130BDC4F10C04C4F104
:10044C00200220FA02F001FA04F340EA03002946E4
:10045C0030BD21FA04F0294630BD94F0000F83F42E
:10046C00801306BF81F480110134013D4EE77FEA11
:10047C00645C18BF7FEA655C29D094EA050F08BF5D
:10048C0090EA020F05D054EA000C04BF194610463E
:10049C0030BD91EA030F1EBF0021002030BD5FEA82
:1004AC00545C05D14000494128BF41F0004130BDAA
:1004BC0014F580043CBF01F5801130BD01F00045FE
:1004CC0045F0FE4141F470014FF0000030BD7FEA71
:1004DC00645C1ABF194610467FEA655C1CBF0B466C
:1004EC00024650EA013406BF52EA033591EA030F83
:1004FC0041F4002130BD00BF90F0000F04BF00217B
:10050C00704730B54FF4806404F132044FF00005AD
:10051C004FF0000150E700BF90F0000F04BF002126
:10052C00704730B54FF4806404F1320410F000458C
:10053C0048BF40424FF000013EE700BF42004FEA87
:10054C00E2014FEA31014FEA02701FBF12F07F4304
:10055C0093F07F4F81F06051704732F07F4208BFBB
:10056C00704793F07F4F04BF41F40021704730B5C2
:10057C004FF4607401F0004521F000411CE700BF0E
:10058C0050EA010208BF704730B54FF000050AE091
:10059C0050EA010208BF704730B511F0004502D592
:1005AC00404261EB41014FF4806404F132045FEA94
:1005BC00915C3FF4D8AE4FF003025FEADC0C18BF3D
:1005CC0003325FEADC0C18BF033202EBDC02C2F12F
:1005DC00200300FA03FC20FA02F001FA03FE40EAC1
:1005EC000E0021FA02F11444BDE600BF4FF0FF3CAF
:1005FC0006E000BF4FF0010C02E000BF4FF0010C11
:10060C004DF804CD4FEA410C7FEA6C5C4FEA430C89
:10061C0018BF7FEA6C5C1BD001B050EA410C0CBFD8
:10062C0052EA430C91EA030F02BF90EA020F00203A
:10063C00704710F1000F91EA030F58BF994208BFA1
:10064C0090422CBFD8176FEAE37040F0010070475E
:10065C004FEA410C7FEA6C5C02D150EA013C07D1B5
:10066C004FEA430C7FEA6C5CD6D152EA033CD3D000
:10067C005DF8040B704700BF8446104662468C46FA
:10068C001946634600E000BF01B5FFF7B7FF00282D
:10069C0048BF10F1000F01BD4DF808EDFFF7F4FF56
:1006AC000CBF012000205DF808FB00BF4DF808EDE1
:1006BC00FFF7EAFF34BF012000205DF808FB00BF04
:1006CC004DF808EDFFF7E0FF94BF012000205DF826
:1006DC0008FB00BF4DF808EDFFF7CEFF94BF0120DB
:1006EC0000205DF808FB00BF4DF808EDFFF7C4FFD4
:1006FC0034BF012000205DF808FB00BF80F00040F3
:10070C0002E000BF81F0004142001FBF5FEA4103DD
:10071C0092EA030F7FEA226C7FEA236C6AD04FEADD
:10072C001262D2EB1363C1BFD21841404840414022
:10073C00B8BF5B42192B88BF704710F0004F40F4D4
:10074C00000020F07F4018BF404211F0004F41F4F0
:10075C00000121F07F4118BF494292EA030F3FD0BC
:10076C00A2F1010241FA03FC10EB0C00C3F12003CF
:10077C0001FA03F100F0004302D5494260EB40005E
:10078C00B0F5000F13D3B0F1807F06D340084FEAC9
:10079C00310102F10102FE2A51D2B1F1004F40EBBE
:1007AC00C25008BF20F0010040EA03007047490026
:1007BC0040EB0000013A28BFB0F5000FEDD2B0FAC3
:1007CC0080FCACF1080CB2EB0C0200FA0CF0AABFE6
:1007DC0000EBC25052421843BCBFD0401843704784
:1007EC0092F0000F81F4000106BF80F4000001328A
:1007FC00013BB5E74FEA41037FEA226C18BF7FEA61
:10080C00236C21D092EA030F04D092F0000F08BFA2
:10081C000846704790EA010F1CBF0020704712F089
:10082C007F4F04D1400028BF40F00040704712F1C8
:10083C0000723CBF00F50000704700F0004343F02D
:10084C00FE4040F4000070477FEA226216BF084663
:10085C007FEA23630146420206BF5FEA412390EA26
:10086C00010F40F4800070474FF0000304E000BF1C
:10087C0010F0004348BF40425FEA000C08BF7047CD
:10088C0043F0964301464FF000001CE050EA010291
:10089C0008BF70474FF000030AE000BF50EA0102A6
:1008AC0008BF704711F0004302D5404261EB410193
:1008BC005FEA010C02BF84460146002043F0B643B8
:1008CC0008BFA3F18053A3F50003BCFA8CF2083ADD
:1008DC00A3EBC25310DB01FA02FC634400FA02FCE6
:1008EC00C2F12002BCF1004F20FA02F243EB0200ED
:1008FC0008BF20F00100704702F1200201FA02FC4F
:10090C00C2F1200250EA4C0021FA02F243EB020041
:10091C0008BF20EADC7070474FF0FF0C1CEAD05285
:10092C001EBF1CEAD15392EA0C0F93EA0C0F6FD046
:10093C001A4480EA010C400218BF5FEA41211ED024
:10094C004FF0006343EA501043EA5111A0FB013110
:10095C000CF00040B1F5000F3EBF490041EAD371E5
:10096C005B0040EA010062F17F02FD2A1DD8B3F161
:10097C00004F40EBC25008BF20F00100704790F0D0
:10098C00000F0CF0004C08BF49024CEA502040EA22
:10099C0051207F3AC2BFD2F1FF0340EAC2507047E8
:1009AC0040F400004FF00003013A5DDC12F1190F26
:1009BC00DCBF00F000407047C2F10002410021FA98
:1009CC0002F1C2F1200200FA02FC5FEA310040F1B0
:1009DC00000053EA4C0308BF20EADC70704792F029
:1009EC00000F00F0004C02BF400010F4000F013A61
:1009FC00F9D040EA0C0093F0000F01F0004C02BF5C
:100A0C00490011F4000F013BF9D041EA0C018FE7CA
:100A1C000CEAD15392EA0C0F18BF93EA0C0F0AD0D0
:100A2C0030F0004C18BF31F0004CD8D180EA0100F6
:100A3C0000F00040704790F0000F17BF90F0004F8F
:100A4C00084691F0000F91F0004F14D092EA0C0F71
:100A5C0001D142020FD193EA0C0F03D14B0218BF04
:100A6C00084608D180EA010000F0004040F0FE404A
:100A7C0040F40000704740F0FE4040F440007047E6
:100A8C004FF0FF0C1CEAD0521EBF1CEAD15392EA65
:100A9C000C0F93EA0C0F69D0A2EB030280EA010C55
:100AAC0049024FEA402037D04FF0805343EA1111EE
:100ABC0043EA10130CF000408B4238BF5B0042F14C
:100ACC007D024FF4000C8B4224BF5B1A40EA0C00F1
:100ADC00B3EB510F24BFA3EB510340EA5C00B3EB23
:100AEC00910F24BFA3EB910340EA9C00B3EBD10F11
:100AFC0024BFA3EBD10340EADC001B0118BF5FEA63
:100B0C001C1CE0D1FD2A3FF650AF8B4240EBC2508B
:100B1C0008BF20F0010070470CF0004C4CEA50204C
:100B2C007F32C2BFD2F1FF0340EAC250704740F49B
:100B3C0000004FF00003013A37E792F0000F00F08D
:100B4C00004C02BF400010F4000F013AF9D040EA0B
:100B5C000C0093F0000F01F0004C02BF490011F49F
:100B6C00000F013BF9D041EA0C0195E70CEAD15397
:100B7C0092EA0C0F08D142027FF47DAF93EA0C0F7E
:100B8C007FF470AF084676E793EA0C0F04D14B0262
:100B9C003FF44CAF08466EE730F0004C18BF31F014
:100BAC00004CCAD130F000427FF45CAF31F000430E
:100BBC007FF43CAF5FE700BF4FF0FF3C06E000BFA7
:100BCC004FF0010C02E000BF4FF0010C4DF804CDCA
:100BDC004FEA40024FEA41037FEA226C18BF7FEADA
:100BEC00236C11D001B052EA530C18BF90EA010FDC
:100BFC0058BFB2EB030088BFC81738BF6FEAE1706B
:100C0C0018BF40F0010070477FEA226C02D15FEA06
:100C1C00402C05D17FEA236CE4D15FEA412CE1D072
:100C2C005DF8040B704700BF844608466146FFE739
:100C3C000FB5FFF7C9FF002848BF10F1000F0FBD1B
:100C4C004DF808EDFFF7F4FF0CBF012000205DF814
:100C5C0008FB00BF4DF808EDFFF7EAFF34BF012099
:100C6C0000205DF808FB00BF4DF808EDFFF7E0FF32
:100C7C0094BF012000205DF808FB00BF4DF808ED83
:100C8C00FFF7D2FF94BF012000205DF808FB00BFE6
:100C9C004DF808EDFFF7C8FF34BF012000205DF8C8
:100CAC0008FB00BF4FEA4002B2F1FE4F0FD34FF0EA
:100CBC009E03B3EB12620DD94FEA002343F00043BD
:100CCC0010F0004F23FA02F018BF404270474FF06B
:100CDC000000704712F1610F01D1420205D110F0F2
:100CEC00004008BF6FF0004070474FF000007047A5
:100CFC00F8B5FFF707FD0446164B1860164D29682A
:100D0C00FFF702FD06462860144F39682046FFF7AE
:100D1C00F9FC0546124B18603C60124B19682046D2
:100D2C00FFF7FAFD0446104B19683046FFF7F4FD47
:100D3C0001462046FFF7E8FC04460C4B1968284690
:100D4C00FFF7EAFD01462046FFF7DEFCFFF7AAFF9E
:100D5C00F8BD00BF340000203C00002044000020FF
:100D6C0038000020080000200400002000000020B3
:100D7C0038B50446FFF77CFD0546094B1968FFF7AB
:100D8C0069FF08B1064B1D606042FFF771FD044618
:100D9C00034B1968FFF77CFF08B1014B1C6038BD91
:100DAC004C00002070B5FFF763FD1649FFF7B4FD4A
:100DBC000446154E15493068FFF7AEFD0146204636
:100DCC00FFF7A2FC0146124C2060124D2868FFF779
:100DDC009BFC286040F6B830FFF7CAFF20683060F3
:100DEC000D4B1968FFF798FD044629680B4B1868E2
:100DFC00FFF792FD01462046FFF786FCFFF752FFF6
:100E0C0070BD00BF9A99993E480000203333333FA0
:100E1C00400000204C0000207800002074000020CE
:100E2C0070B586B00023029303930493059303F1EA
:100E3C00804303F504339A6942F008029A619B6976
:100E4C0003F008030193019B1123039340260296A0
:100E5C00032305930B4C02A9204601F05BFC802573
:100E6C00029502A9204601F055FC0122314620468C
:100E7C0001F062FD01222946204601F05DFD06B01D
:100E8C0070BD00BF000C014010B50B4C012280213D
:100E9C00204601F051FD01224021204601F04CFD7D
:100EAC0000228021204601F047FD002240212046EF
:100EBC0001F042FD10BD00BF000C014010B5084C04
:100ECC0000228021204601F037FD012240212046DE
:100EDC0001F032FD01228021204601F02DFD10BDD4
:100EEC00000C014070B50646002413E0802141FA45
:100EFC0004F20F4D3240284601F01EFD0122402124
:100F0C00284601F019FD00224021284601F014FD6D
:100F1C000134E4B2072CE9D9054C012240212046CA
:100F2C0001F00AFD00224021204601F005FD70BDB4
:100F3C00000C014010B50446FFF7A6FF7820FFF720
:100F4C00D1FF0020FFF7CEFF2046FFF7CBFFFFF7C6
:100F5C00B5FF10BD10B50446FFF796FF7820FFF7DC
:100F6C00C1FF4020FFF7BEFF2046FFF7BBFFFFF796
:100F7C00A5FF10BD10B50C4640F0B000FFF7DAFF2E
:100F8C00200940F01000FFF7D5FF04F00F00FFF729
:100F9C00D1FF10BD38B5002509E00020FFF7DAFFBE
:100FAC000134E4B214F0800FF7D00135EDB2072D07
:100FBC0005D800212846FFF7DDFF0024F2E738BDF5
:100FCC00F8B51546461E7600F6B24F1EFF00FFB26E
:100FDC0039463046FFF7CEFF002409E0A5F1200387
:100FEC000F4A02EB0313185DFFF7B4FF0134E4B2B0
:100FFC00072CF3D9701C3946C0B2FFF7BBFF002495
:10100C000BE0A5F1200304F10802054901EB0313E1
:10101C00985CFFF79FFF0134E4B2072CF1D9F8BDBF
:10102C00B4350008F8B507460E461546002406E010
:10103C00A119C9B23846FFF7C3FF0134E4B22A5DE7
:10104C00002AF5D1F8BD08B5002204E00133B3F550
:10105C007A7FFBD30132B2F57A7F01D20023F6E717
:10106C00FFF7DEFEAE20FFF765FFD520FFF762FF2E
:10107C008020FFF75FFFA820FFF75CFF3F20FFF702
:10108C0059FFD320FFF756FF0020FFF753FF4020F6
:10109C00FFF750FFA120FFF74DFFC820FFF74AFFD5
:1010AC00DA20FFF747FF1220FFF744FF8120FFF7FC
:1010BC0041FFCF20FFF73EFFD920FFF73BFFF12088
:1010CC00FFF738FFDB20FFF735FF3020FFF732FF4B
:1010DC00A420FFF72FFFA620FFF72CFF8D20FFF792
:1010EC0029FF1420FFF726FFAF20FFF723FFFFF7A0
:1010FC0051FF08BD10B50F4C3C21204600F044FEBA
:10110C002268D36843F00103D3600B4800F0B0FAB7
:10111C0000210A4800F0CAFD236842F210725A629C
:10112C00074B00221A605A601A815A810021D9603B
:10113C001A7410BDC800002010010020800000208F
:10114C005400002002684F4B9A4205D002684E4B67
:10115C001B689A4228D070471B68596A42F20F727A
:10116C00914216D84949B1F9082001320A8142F25C
:10117C0010725A624549B1F90820B1F90A108A4235
:10118C00E4D0596ADB6A03FB021340494B604A8185
:10119C00DCE7596A42F20F729142E8D93B49B1F946
:1011AC000820013A0A81E2E72DE97043354B1A68B1
:1011BC001568C5F30015354B1D74546AB3F9081046
:1011CC00D26A02FB01445C601E68A61B3046FFF726
:1011DC00A3F900222E4B21F000494946FFF784FA6F
:1011EC00002834D006F59C402030FFF741FB2949FC
:1011FC00FFF746FC2849FFF78FFB064620F000401E
:10120C002649FFF745FD28B100213046FFF740FD88
:10121C00D8B1224E1D4BDE601C4E3460F36823F0B7
:10122C0000431F4A13601F4B1D601F4D2868FFF7BA
:10123C0039FDFFF7B7FD04462968F068FFF758FD44
:10124C0004441A4B1C60BDE87083194EE2E730462B
:10125C00FFF70EFB0F49FFF713FC0F49FFF75CFB81
:10126C00064620F000400D49FFF712FD28B1002181
:10127C003046FFF70DFD18B1084E044BDE60CBE78E
:10128C000B4EFAE7C800002010010020540000208B
:10129C0000409F400000C644000020410000404038
:1012AC006C0000206800002070000020500000201E
:1012BC00000040C0002803DD044B1B6858637047D6
:1012CC00024B1B6840425863704700BF80000020EF
:1012DC0072B6FEE700B595B0282200210DEB020096
:1012EC00FEF776FF00230593069307930893099363
:1012FC00019302930393049301220A924FF48033D7
:10130C000B930E920222119212934FF4E01313934B
:10131C000AA800F075FEC8B90F23059302210691A7
:10132C00002307934FF480620892099305A801F0FB
:10133C0099F868B9022301934FF40043039301A871
:10134C0001F05CF930B915B05DF804FBFFF7C0FF94
:10135C00FFF7BEFFFFF7BCFF08B500F003FEFFF779
:10136C00B9FF00F02FF801F053FE01F047FD01F03A
:10137C002FFC01F05FFC01F0B5FD01F0B5FFFFF7AC
:10138C00B9FE0B4B0B4A1A60FFF75DFE322000F0E2
:10139C000DFE094A01210846FFF744FE074A0121C8
:1013AC000220FFF73FFE064B1868FFF783FFFAE7B2
:1013BC0070000020CDCCCC3FA43B0008AC3B000817
:1013CC00500000202DE9F04188B0002404940594CD
:1013DC0006940794274B9A6942F010029A619A6915
:1013EC0002F010020092009A9A6942F020029A616F
:1013FC009A6902F020020192019A9A6942F0040261
:10140C009A619A6902F004020292029A9A6942F075
:10141C0008029A619B6903F008030393039BDFF8AE
:10142C00588022464FF40051404601F085FA134D86
:10143C0022460221284601F07FFA01220421284687
:10144C0001F07AFA4FF400530493012705970694A0
:10145C000226079604A9404601F05CF90623049382
:10146C0005970694079604A9284601F053F908B08D
:10147C00BDE8F0810010024000100140000801405E
:10148C00FEE7FEE7FEE7FEE7FEE7704770477047B2
:10149C0008B500F079FD08BD08B5024801F088FADE
:1014AC0008BD00BF8801002008B5024800F019F9FA
:1014BC0008BD00BFC800002008B5024800F011F9B3
:1014CC0008BD00BF1001002082B00E4B9A6942F09B
:1014DC0001029A619A6902F001020092009ADA699B
:1014EC0042F08052DA61DB6903F080530193019B77
:1014FC00054A536823F0E06343F00073536002B075
:10150C00704700BF001002400000014070B4036A35
:10151C00026A22F0010202624668826922F07302BA
:10152C000C6844EA020523F002028B6813430D4C4D
:10153C00A04209D00B4CA0420DD0466085614A6890
:10154C004263036270BC704723F00803CA681343FC
:10155C0023F00403EEE726F440764A6932438E69A1
:10156C001643EAE7002C014030B4036A026A22F405
:10157C00807202624568C26922F073020C682243D1
:10158C0023F400738C6843EA04230F4CA04209D067
:10159C000D4CA0420ED04560C2614A68C263036222
:1015AC0030BC704723F40063CC6843EA042323F473
:1015BC008063EDE725F440554C6945EA04158C69C8
:1015CC0045EA0415E7E700BF002C014030B4036A7C
:1015DC00026A22F4805202624468C26922F4E64232
:1015EC000D6842EA052223F400538D6843EA053363
:1015FC00074DA84206D04460C2614A680264036287
:10160C0030BC704724F480444D6944EA8514F2E7F9
:10161C00002C014010B4036A046A24F00104046233
:10162C00846924F0F00C4CEA021223F00A030B43F9
:10163C008261036210BC704710B4036A046A24F020
:10164C0010040462846924F4704C4CEA023223F0D6
:10165C00A00343EA01138261036210BC70478368E4
:10166C0023F070030B4343F00703836070470000C3
:10167C0090F83D30DBB2012B27D1022380F83D30AE
:10168C000268D36843F00103D3600368114A9342A4
:10169C0010D0B3F1804F0DD0A2F59432934209D003
:1016AC0002F58062934205D01A6842F001021A607A
:1016BC00002070479A6802F00702062A07D01A68C1
:1016CC0042F001021A600020704701207047002090
:1016DC00704700BF002C014070477047704770473F
:1016EC00704710B5044603681A6912F0020F11D046
:1016FC00DA6812F0020F0DD06FF002021A610123AA
:10170C00037703689B6913F0030F70D0FFF7E6FFB4
:10171C000023237723681A6912F0040F12D0DA68B9
:10172C0012F0040F0ED06FF004021A61022323771B
:10173C0023689B6913F4407F5FD02046FFF7CEFFF0
:10174C000023237723681A6912F0080F12D0DA6885
:10175C0012F0080F0ED06FF008021A6104232377E1
:10176C002368DB6913F0030F4ED02046FFF7B6FF5A
:10177C000023237723681A6912F0100F12D0DA684D
:10178C0012F0100F0ED06FF010021A61082323779D
:10179C002368DB6913F4407F3DD02046FFF79EFFA2
:1017AC000023237723681A6912F0010F03D0DA683B
:1017BC0012F0010F36D123681A6912F0800F03D092
:1017CC00DA6812F0800F34D123681A6912F0400FD6
:1017DC0003D0DA6812F0400F32D123681A6912F084
:1017EC00200F03D0DA6812F0200F30D110BDFFF7B4
:1017FC0074FF2046FFF773FF8AE72046FFF76DFF63
:10180C002046FFF76CFF9BE72046FFF766FF20465C
:10181C00FFF765FFACE72046FFF75FFF2046FFF7B9
:10182C005EFFBDE76FF001021A612046FFF78AFCEC
:10183C00C1E76FF080021A61204600F06BFBC3E732
:10184C006FF040021A612046FFF74AFFC5E76FF0C0
:10185C0020021A61204600F05CFBC7E703681B4AB4
:10186C0090420AD0B0F1804F07D0A2F5943290424A
:10187C0003D002F58062904203D123F070034A68D2
:10188C001343124A90420AD0B0F1804F07D0A2F510
:10189C009432904203D002F58062904203D123F43B
:1018AC004073CA68134323F080034A6913430360EF
:1018BC008B68C3620B688362044B984202D001238D
:1018CC00436170470B690363F9E700BF002C0140CB
:1018DC0040B310B5044690F83D30F3B1022384F8C0
:1018EC003D30214651F8040BFFF7B8FF012384F873
:1018FC00463084F83E3084F83F3084F8403084F829
:10190C00413084F8423084F8433084F8443084F811
:10191C00453084F83D30002010BD80F83C3001F09B
:10192C00C1F9DBE70120704740B310B5044690F8CD
:10193C003D30F3B1022384F83D30214651F8040BBD
:10194C00FFF78CFF012384F8463084F83E3084F88E
:10195C003F3084F8403084F8413084F8423084F8C9
:10196C00433084F8443084F8453084F83D3000200E
:10197C0010BD80F83C30FFF7AFFEDBE7012070476D
:10198C00002857D070B50D46044690F83D30002B1A
:10199C004BD0022384F83D302268936823F48043B3
:1019AC0023F007039360214651F8040BFFF756FF11
:1019BC0021688A688B690E6A2868104323F4407C7E
:1019CC002CF0030CAA68AB6942EA032343EA0C032C
:1019DC0023F47C4323F0FC03EA69D5F80CC04CEAF1
:1019EC00022C4CEA030C2A6A13032A6943EA0213F9
:1019FC0043EA0C0326F022066A686D6942EA051276
:101A0C003243886021688B6123681A62012384F851
:101A1C00463084F83E3084F83F3084F8423084F805
:101A2C00433084F83D30002070BD80F83C3001F02C
:101A3C0069F9AEE70120704730B4036A026A22F0FC
:101A4C00100202624468826922F4E6420D6842EA9E
:101A5C00052223F020038D6843EA05130E4DA8429E
:101A6C0009D00D4DA8420ED0446082614A68826351
:101A7C00036230BC704723F08003CD6843EA051342
:101A8C0023F04003EDE724F440644D6944EA8504F7
:101A9C008D6944EA8504E7E7002C014038B590F8DD
:101AAC003C30012B66D004460D46012380F83C30B7
:101ABC000C2A5AD8DFE802F0075959591B595959C1
:101ACC003059595944000068FFF720FD226893698A
:101ADC0043F0080393612268936923F00403936134
:101AEC002268936929690B43936100203EE00068EA
:101AFC00FFF7A2FF2268936943F4006393612268A5
:101B0C00936923F48063936122689369296943EA9A
:101B1C0001239361002029E00068FFF725FD22686E
:101B2C00D36943F00803D3612268D36923F004031B
:101B3C00D3612268D36929690B43D361002015E076
:101B4C000068FFF743FD2268D36943F40063D36157
:101B5C002268D36923F48063D3612268D36929692D
:101B6C0043EA0123D361002000E00120002384F824
:101B7C003C3038BD0220FCE710B4846824F47F4C60
:101B8C0042EA03220A4342EA0C02826010BC70470C
:101B9C0090F83C30012B78D010B50446012380F826
:101BAC003C30022380F83D300268936823F47F4375
:101BBC0023F0770393600B68602B4CD029D8402B13
:101BCC0054D00CD9502B22D1CA6849680068FFF751
:101BDC0021FD50212068FFF742FD002005E0202B5D
:101BEC000DD009D9302B0AD00120012384F83D30C7
:101BFC00002384F83C3010BD0BB1102B05D11946D5
:101C0C002068FFF72CFD0020EFE70120EDE7012015
:101C1C00EBE7B3F5805F34D0B3F5005F0CD1CB6844
:101C2C004A6889680068FFF7A7FF2268936843F445
:101C3C00804393600020D8E7702B24D1CB684A688E
:101C4C0089680068FFF798FF2268936843F0770370
:101C5C0093600020C9E7CA6849680068FFF7ECFC8C
:101C6C0060212068FFF7FBFC0020BEE7CA684968CA
:101C7C000068FFF7CFFC40212068FFF7F0FC002044
:101C8C00B3E70020B1E70120AFE70220704701F075
:101C9C001F01012303FA01FC036A23EA0C0303620C
:101CAC00036A02FA01F10B430362704710B5044654
:101CBC00084651BB94F83E30DBB2013B18BF012300
:101CCC00002B5BD1002839D1022384F83E3001224D
:101CDC0001462068FFF7DBFF23682A4A93423DD078
:101CEC002368284A93423ED0B3F1804F3BD0A2F5F3
:101CFC009432934237D002F58062934233D01A6803
:101D0C0042F001021A60002039E0042908D00829A9
:101D1C000DD094F84130DBB2013B18BF0123CFE763
:101D2C0094F83F30DBB2013B18BF0123C8E794F8AD
:101D3C004030DBB2013B18BF0123C1E7042805D0BA
:101D4C00082807D0022384F84130C0E7022384F826
:101D5C003F30BCE7022384F84030B8E75A6C42F4B9
:101D6C0000425A64BCE79A6802F00702062A07D0C0
:101D7C001A6842F001021A60002000E0012010BD38
:101D8C000020FCE7002C014038B5044690F83E00DA
:101D9C00C0B294F83F3094F84220D2B294F843C0C9
:101DAC000D46B1B9012849D1012A48D1022384F842
:101DBC003E3084F842307DB3042D39D0012200210D
:101DCC002068FFF764FF012204212068FFF75FFF02
:101DDC0027E0DBB25FFA8CFC042912D0012833D146
:101DEC00012B2CD1012A31D1BCF1010F30D10223AE
:101DFC0084F83E3084F83F3084F8423084F8433025
:101E0C00D9E7012B1CD1BCF1010F1BD1022384F8A3
:101E1C003F3084F84330CEE7012200212068FFF7E1
:101E2C0036FF2268136843F001031360002006E0BC
:101E3C00012204212068FFF72AFFF2E7012038BDB8
:101E4C000120FCE71846FAE70120F8E71846F6E708
:101E5C001046F4E790F83C30012B2CD010B4012341
:101E6C0080F83C30022380F83D3003685A689C6847
:101E7C0022F0700C0A6842EA0C025A6003680F4A9E
:101E8C0093420AD0B3F1804F07D0A2F5943293421B
:101E9C0003D002F58062934204D124F080044A6896
:101EAC0014439C60012380F83D30002380F83C30C3
:101EBC00184610BC70470220704700BF002C014030
:101ECC0090F83C30012B22D0012380F83C30CB68B9
:101EDC0023F440738A68134323F480634A681343E2
:101EEC0023F400630A68134323F480530A691343F1
:101EFC0023F400534A69134323F48043CA69134300
:101F0C0002685364002380F83C3018467047022066
:101F1C00704770477047000010B504460E4B187898
:101F2C004FF47A73B3FBF0F30C4A1068B0FBF3F088
:101F3C0000F038FE68B90F2C01D901200AE000220C
:101F4C0021464FF0FF3000F0E7FD054B1C600020F0
:101F5C0000E0012010BD00BF0C0000201400002088
:101F6C001000002008B5074A136843F010031360F3
:101F7C00032000F0BFFD0F20FFF7CEFFFFF7A4FA00
:101F8C00002008BD00200240034A1168034B1B7857
:101F9C000B441360704700BF7C0000200C00002035
:101FAC00014B1868704700BF7C00002038B5044610
:101FBC00FFF7F6FF0546B4F1FF3F02D0044B1B7848
:101FCC001C44FFF7EDFF401BA042FAD338BD00BF05
:101FDC000C00002082B0084B1B68084AA2FB0323AC
:101FEC005B0A00FB03F3019300BF019B5A1E019295
:101FFC00002BF9D102B0704714000020D34D6210B1
:10200C00002800F0F18170B582B00446036813F02B
:10201C00010F2CD0994B5B6803F00C03042B1DD0E3
:10202C00964B5B6803F00C03082B12D06368B3F576
:10203C00803F41D0002B55D103F1804303F504338D
:10204C001A6822F480321A601A6822F480221A600C
:10205C0037E08A4B5B6813F4803FE7D0874B1B68F3
:10206C0013F4003F03D06368002B00F0BF8123689A
:10207C0013F0020F75D0814B5B6813F00C0F5FD01F
:10208C007E4B5B6803F00C03082B54D02369002BA8
:10209C0000F08A807A4B01221A60FFF781FF054617
:1020AC00764B1B6813F0020F75D1FFF779FF401BBD
:1020BC000228F5D903209EE1704A136843F480335B
:1020CC001360636843B3FFF76BFF05466B4B1B68EC
:1020DC0013F4003FCBD1FFF763FF401B6428F5D905
:1020EC00032088E1B3F5A02F09D0644B1A6822F4C1
:1020FC0080321A601A6822F480221A60E1E703F138
:10210C008043A3F53C331A6842F480221A601A68A3
:10211C0042F480321A60D4E7FFF742FF0546574B72
:10212C001B6813F4003FA2D0FFF73AFF401B642852
:10213C00F5D903205FE1514B5B6813F4803FA5D1C7
:10214C004E4B1B6813F0020F03D02369012B40F098
:10215C004F814A4A136823F0F803616943EAC103CB
:10216C001360236813F0080F33D0A369002B5CD0E5
:10217C00434B0122C3F88024FFF712FF05463F4B67
:10218C005B6A13F0020F21D1FFF70AFF401B0228F4
:10219C00F5D903202FE1394A136823F0F80361695C
:1021AC0043EAC1031360DCE7354B00221A60FFF7EA
:1021BC00F7FE0546314B1B6813F0020FD1D0FFF729
:1021CC00EFFE401B0228F5D9032014E10120FFF794
:1021DC0001FF236813F0040F00F09680274BDB6996
:1021EC0013F0805F34D1254BDA6942F08052DA610A
:1021FC00DB6903F080530193019B0125214B1B6884
:10220C0013F4807F26D0E368012B3DD0002B53D1F3
:10221C0003F1804303F504331A6A22F001021A62B7
:10222C001A6A22F004021A6233E0154B0022C3F83A
:10223C008024FFF7B5FE0546104B5B6A13F0020FC6
:10224C00C7D0FFF7ADFE401B0228F5D90320D2E022
:10225C000025D3E70B4A136843F480731360FFF730
:10226C009FFE0646074B1B6813F4807FCBD1FFF70C
:10227C0097FE801B6428F5D90320BCE000100240B7
:10228C0000004242007000405F4A136A43F00103B1
:10229C001362E36833B3FFF783FE06465A4B1B6A9F
:1022AC0013F0020F2FD1FFF77BFE801B41F2883316
:1022BC009842F3D903209EE0052B09D0524B1A6AA1
:1022CC0022F001021A621A6A22F004021A62E0E792
:1022DC004D4B1A6A42F004021A621A6A42F0010269
:1022EC001A62D6E7FFF75CFE0646474B1B6A13F0F3
:1022FC00020F08D0FFF754FE801B41F2883398423E
:10230C00F3D9032077E0E5B9E369002B72D03E4A9C
:10231C00526802F00C02082A56D0022B17D03B4B05
:10232C0000221A66FFF73CFE0446374B1B6813F07D
:10233C00007F47D0FFF734FE001B0228F5D903209D
:10234C0059E0314AD36923F08053D361DCE72F4B3A
:10235C0000221A66FFF724FE05462B4B1B6813F070
:10236C00007F06D0FFF71CFE401B0228F5D9032086
:10237C0041E0236AB3F5803F1AD023494B6823F41C
:10238C007413226A606A024313434B601F4B012291
:10239C001A66FFF705FE04461B4B1B6813F0007F03
:1023AC000ED1FFF7FDFD001B0228F5D9032022E01A
:1023BC00154A536823F40033A1680B435360DCE7E0
:1023CC00002018E0002016E0012B16D00E4B5B68A5
:1023DC0003F48031226A914211D103F47013626AC2
:1023EC0093420ED1002006E001207047012002E04C
:1023FC00012000E0002002B070BD0120FBE70120AD
:10240C00F9E70120F7E700BF00100240000042424C
:10241C000F4B5B6803F00C02082A01D00D48704783
:10242C00C3F383420C49885C13F4803F0BD0084BF8
:10243C005B68C3F34043094AD35C064A02FB00F0D5
:10244C00B0FBF3F07047064B03FB00F0704700BF86
:10245C000010024000127A00B83B0008C83B00088C
:10246C0000093D00002800F0A08070B50D46044620
:10247C00524B1B6803F007038B420BD24F4A136875
:10248C0023F007030B431360136803F007038B421D
:10249C0040F08D80236813F0020F17D013F0040F57
:1024AC0004D0474A536843F4E0635360236813F045
:1024BC00080F04D0424A536843F460535360404AB7
:1024CC00536823F0F003A1680B435360236813F0A7
:1024DC00010F31D06368012B20D0022B25D0384A54
:1024EC00126812F0020F64D035494A6822F00302D8
:1024FC0013434B60FFF754FD0646314B5B6803F00A
:10250C000C036268B3EB820F16D0FFF749FD801BFA
:10251C0041F288339842F0D9032045E0284A1268EA
:10252C0012F4003FE0D101203EE0254A126812F07F
:10253C00007FD9D1012037E0204B1B6803F0070343
:10254C00AB420AD91D4A136823F007032B431360CF
:10255C00136803F00703AB422DD1236813F0040F6B
:10256C0006D0174A536823F4E063E1680B435360C9
:10257C00236813F0080F07D0114A536823F46053F3
:10258C00216943EAC1035360FFF742FF0C4B5B68C0
:10259C00C3F303130B4AD35CD8400B4B18600B4BA3
:1025AC001868FFF7B9FC002070BD012070470120AE
:1025BC00FAE70120F8E70120F6E700BF002002400F
:1025CC0000100240CC3B000814000020100000203A
:1025DC00014B1868704700BF1400002008B5FFF7C6
:1025EC00F7FF044B5B68C3F30223034AD35CD84068
:1025FC0008BD00BF00100240DC3B000870B582B083
:10260C000446036813F0010F36D03F4BDB6913F01F
:10261C00805F49D13C4BDA6942F08052DA61DB6968
:10262C0003F080530193019B0125384B1B6813F475
:10263C00807F3BD0344B1B6A13F4407313D0626819
:10264C0002F440729A420ED02F4A136A23F440705F
:10265C002F490126C1F840640026C1F8406410627D
:10266C0013F0010F36D1284A136A23F440736168C2
:10267C000B431362002D3ED1236813F0020F06D0DA
:10268C00214A536823F44043A1680B4353602368E9
:10269C0013F0100F34D01C4A536823F48003E16804
:1026AC000B43536000202CE00025BEE7174A13684B
:1026BC0043F480731360FFF773FC0646134B1B68DF
:1026CC0013F4807FB6D1FFF76BFC801B6428F5D91F
:1026DC00032016E0FFF764FC06460B4B1B6A13F055
:1026EC00020FC0D1FFF75CFC801B41F2883398428B
:1026FC00F3D9032005E0D36923F08053D361BBE702
:10270C00002002B070BD00BF0010024000700040FD
:10271C000000424270B582B00024A446A6E0804D71
:10272C00AA4210D007D97F4DAA420CD005F58035AE
:10273C00AA4208D013E0A5F58015AA4203D005F5EE
:10274C007025AA4207D18A68002A58D0012A51D094
:10275C004361082403E0A5F58015AA42F3D0BEF12D
:10276C00FF0F4ED80646BEF1FF0F4CD84FEA8C0235
:10277C0033680F25954023EA050304FA02F213434C
:10278C0033604B6813F0805F6ED0674B9A6942F0F0
:10279C0001029A619B6903F001030193019B4FEACB
:1027AC009C02951C614B53F825600CF003039D00B3
:1027BC000F23AB4026EA03065D4B984229D003F564
:1027CC008063984200F08E8003F58063984200F09D
:1027DC008B8003F58063984219D004231AE0CC68EF
:1027EC00BDE7CC680434BAE7CC680834B7E7CC68EA
:1027FC000C34B4E703610824B1E70024AFE70424E8
:10280C00ADE7061DAFE7ACF108029200B0E7032379
:10281C0000E00023AB4033430232444D45F82230F4
:10282C004B6813F4801F61D0424A936843EA0E034D
:10283C0093604B6813F4001F5ED03E4AD36843EAA2
:10284C000E03D3604B6813F4003F5BD0394A5368D6
:10285C0043EA0E0353604B6813F4803F58D0354A5B
:10286C00136843EA0E0313600CF1010C0A6832FA88
:10287C000CF353D0012303FA0CF302EA030E33EAF0
:10288C000202F1D14A68122A3FF649AF122A3FF6EA
:10289C0066AF01A555F822F053270008EB27000876
:1028AC00F5270008072800086B2700086B2700088D
:1028BC006B2700086B2700086B2700086B270008A4
:1028CC006B2700086B2700086B2700086B27000894
:1028DC006B2700086B2700086B270008EF27000800
:1028EC00FB270008012395E7022393E7114A93681D
:1028FC0023EA0E0393609CE70E4AD36823EA0E0387
:10290C00D3609FE70B4A536823EA0E035360A2E798
:10291C00084A136823EA0E031360A5E702B070BDE2
:10292C000000221000003110001002400000014095
:10293C0000080140000401400AB10161704709041C
:10294C000161704760B310B402460168154B0B442B
:10295C001548A0FB03031B099B001364134BD363A3
:10296C00022382F82130086820F47F5020F03000D8
:10297C00536894682343D4682343146923435469EC
:10298C00234394692343D469234303430B600020FE
:10299C009063012382F8213082F8200010BC70472C
:1029AC0001207047F8FFFDBFCDCCCCCC000002401D
:1029BC0038B5C36B1A6804682568016C04238B4016
:1029CC00134235D015F0040F32D0236813F0200FCA
:1029DC0003D1236823F0040323600368434A934222
:1029EC0014D01432934218D01432934217D01432AC
:1029FC00934217D01432934217D01432934202D020
:102A0C004FF0806203E04FF4800200E00422384B68
:102A1C005A60C36A03B1984738BD4022F7E74FF4B8
:102A2C008062F4E74FF48042F1E74FF48022EEE746
:102A3C0002238B4013423CD015F0020F39D023688F
:102A4C0013F0200F06D1236823F00A03236001231F
:102A5C0080F821300368254A934214D014329342F3
:102A6C001CD0143293421BD0143293421BD014321C
:102A7C0093421BD01432934202D04FF0007203E009
:102A8C004FF4001200E00222194B5A60002380F828
:102A9C002030836A002BBFD09847BDE72022F3E794
:102AAC004FF40072F0E74FF40052EDE74FF40032B0
:102ABC00EAE7082303FA01F11142ADD015F0080F33
:102ACC00AAD0236823F00E032360026CC16B012390
:102ADC0003FA02F24A60836380F82130002380F805
:102AEC002030036B002B97D0984795E708000240E5
:102AFC0000000240074AD36823F4E0631B041B0C5C
:102B0C00000200F4E060034343F0BF6343F400337E
:102B1C00D360704700ED00E000B5194BDB68C3F3E0
:102B2C000223C3F1070CBCF1040F28BF4FF0040CB7
:102B3C0003F1040EBEF1060F18D9033B4FF0FF3E14
:102B4C000EFA0CFC21EA0C0199400EFA03F322EA6E
:102B5C000303194300280BDB0901C9B200F16040E3
:102B6C0000F5614080F800135DF804FB0023E5E7F5
:102B7C0000F00F000901C9B2024B1954F4E700BF71
:102B8C0000ED00E014ED00E0002807DB00F01F0270
:102B9C00400901239340024A42F82030704700BF9D
:102BAC0000E100E00138B0F1807F0BD24FF0E02360
:102BBC005861054AF02182F8231000209861072201
:102BCC001A6170470120704700ED00E0704700006B
:102BDC0000B58DB02422002103A8FDF7F9FA0023DB
:102BEC000193029312484FF080420260436083606D
:102BFC0044F62062C26003618361032303930123C3
:102C0C000593099303A9FEF7BBFE50B9002301936A
:102C1C00029301A90648FFF71DF928B90DB05DF81C
:102C2C0004FBFEF755FBF1E7FEF752FBF6E700BF9E
:102C3C00C800002000B587B00023029303930493CF
:102C4C000593009301931548154A026040F2CF2278
:102C5C004260836042F20F72C26003618361FEF7CF
:102C6C0037FE90B94FF48053029302A90B48FEF73C
:102C7C008FFF68B900230093019369460748FFF75B
:102C8C00E9F840B907B05DF804FBFEF721FBE9E772
:102C9C00FEF71EFBEEE7FEF71BFBF3E7100100202F
:102CAC000004004000B583B00368134A934205D07A
:102CBC00124A93420DD003B05DF804FB104B9A6995
:102CCC0042F400629A619B6903F400630093009BD9
:102CDC00F1E70B4BDA6942F00202DA61DB6903F0CF
:102CEC0002030193019B002201211D20FFF714FF19
:102CFC001D20FFF749FFDEE7002C014000040040D7
:102D0C000010024030B589B000230493059306935C
:102D1C0007930368B3F1804F01D009B030BD03F5C0
:102D2C000433DA6942F00102DA61DA6902F0010275
:102D3C000192019A9A6942F004029A619A6902F02E
:102D4C0004020292029A9A6942F008029A619B6903
:102D5C0003F008030393039B4FF4004304930125F2
:102D6C00069504A90E48FFF7D5FC0823049300240C
:102D7C000594069504A90B48FFF7CCFC0A4A536846
:102D8C0023F4407343F0E06343F4807353602246B2
:102D9C0021461C20FFF7C0FE1C20FFF7F5FEBCE708
:102DAC0000080140000C01400000014000B587B054
:102DBC000023029303930493059302680D4B9A42EC
:102DCC0002D007B05DF804FB03F564439A6942F046
:102DDC0004029A619B6903F004030193019B4FF475
:102DEC008073029302230393059302A90248FFF711
:102DFC0091FCE6E7002C01400008014010B596B0AC
:102E0C00002412941394149415941094119409940E
:102E1C000A940B940C940D940E940F94202221463A
:102E2C0001A8FDF7D5F92D482D4B036047234360CE
:102E3C00846040F6AC53C360046144618461FEF766
:102E4C0047FD002837D14FF48053129312A9234821
:102E5C00FEF79EFE002831D12048FEF765FD0028C4
:102E6C002FD100231093119310A91C48FEF7F2FFE9
:102E7C0050BB6023099300220A920B920C920D9284
:102E8C000E920F9209A91548FEF708FEF8B9002317
:102E9C00019302930393049305934FF4005206920B
:102EAC00089301A90D48FFF70BF898B90B48FFF7E9
:102EBC007DFF16B010BDFEF70BFAC4E7FEF708FA5B
:102ECC00CAE7FEF705FACCE7FEF702FAD1E7FEF700
:102EDC00FFF9DCE7FEF7FCF9E8E700BF8000002013
:102EEC00002C014000B585B000230193029303939D
:102EFC001E481F4A02604FF4807282600373037590
:102F0C004FF46022C26143600323036100F068F94F
:102F1C00F8B903230193012302930023039301A91E
:102F2C00124800F08FF8B8B90423019302230293DE
:102F3C0001A90E4800F086F888B9052301930323F4
:102F4C00029301A9094800F07DF858B905B05DF865
:102F5C0004FBFEF7BDF9DCE7FEF7BAF9E4E7FEF790
:102F6C00B7F9EAE7FEF7B4F9F0E700BF5801002023
:102F7C000024014010B586B0002302930393049300
:102F8C00059302681E4B9A4201D006B010BD044650
:102F9C0003F56C439A6942F400729A619A6902F4DF
:102FAC0000720092009A9A6942F004029A619B693D
:102FBC0003F004030193019B38230293032303932F
:102FCC0002A91048FFF7A6FB0F48104B0360002323
:102FDC00436083608022C2604FF4807202614FF4C0
:102FEC008062426120228261C361FFF7ABFC18B999
:102FFC00054B23625C62C8E7FEF76AF9F8E700BF8D
:10300C000024014000080140880100200800024013
:10301C0000B583B00A4B5A6942F001025A615B69F0
:10302C0003F001030193019B002211460B20FFF7D3
:10303C0073FD0B20FFF7A8FD03B05DF804FB00BF88
:10304C000010024030B482B00022019290F824208B
:10305C00012A00F091800346012280F824204A685E
:10306C00062A2DD80468606B02EB8202053A4FF0F9
:10307C001F0C0CFA02FC20EA0C000D6805FA02F297
:10308C00024362630A68092A3AD91C68E06802EBB9
:10309C0042021E3A4FF0070C0CFA02FC20EA0C001C
:1030AC008D6805FA02F20243E2600A68103A012ABE
:1030BC0036D90020002283F8242002B030BC70479F
:1030CC000C2A0ED80568286B02EB8202233A1F24C7
:1030DC00944020EA04000C6804FA02F202432A63CA
:1030EC00D0E70568E86A02EB8202413A1F2494405B
:1030FC0020EA04000C6804FA02F20243EA62C1E717
:10310C001C68206902EB42024FF0070C0CFA02FC1F
:10311C0020EA0C008D6805FA02F202432261C4E732
:10312C001A681648824205D09A6A42F020029A62C6
:10313C000120BFE7906810F4000F1BD1906840F499
:10314C00000090600A68102A01D00020B2E70C4AF7
:10315C0012680C49A1FB0212920C02EB8202520083
:10316C00019202E0019A013A0192019A002AF9D1E6
:10317C0000209FE700209DE702209EE700240140ED
:10318C001400002083DE1B4338B503689A6812F0E4
:10319C00010F01D1002038BD04469A6822F00102CB
:1031AC009A60FEF7FDFE054623689B6813F0010F3D
:1031BC0013D0FEF7F5FE431B022BF5D923689B6851
:1031CC0013F0010FF0D0A36A43F01003A362E36A7B
:1031DC0043F00103E3620120DDE70020DBE70000A0
:1031EC0000287BD070B50446836A002B4DD0204656
:1031FC00FFF7CAFFA36A13F0100369D1002867D147
:10320C00A26A22F4885222F0020242F00202A26266
:10321C006268E1690A43217B42EA4102A568B5F57F
:10322C00807F02D0012D36D01D46267D012E35D053
:10323C002668716821F46941294371602568AE687C
:10324C00274931401143A960A168B1F5807F01D0B5
:10325C00012902D12369013B1B052568E96A21F488
:10326C0070010B43EB62236899681E4B0B409A422A
:10327C0025D0A36A23F0120343F01003A362E36A80
:10328C0043F00103E362012027E0C36280F824309D
:10329C00FFF770FEABE74FF48075C6E731B9A16953
:1032AC00013945EA413141F40065C1E7A16A41F0B9
:1032BC002001A162E16A41F00101E162B8E700235B
:1032CC00E362A36A23F0030343F00103A36204E067
:1032DC00A36A43F01003A362012070BD0120704764
:1032EC00FDF7E1FFFE0E1FFF08B50B480B4B03600B
:1032FC000B4B436000238360C3604FF48042026138
:10330C0043618361C361036200F03EF800B908BDFC
:10331C00FDF7DEFFFBE700BFCC01002000540040AE
:10332C00A086010010B586B000230293039304938A
:10333C0005930268114B9A4201D006B010BD104C97
:10334C00A36943F00803A361A36903F00803009386
:10335C00009BC0230293122303930323059302A91A
:10336C000848FFF7D7F9E36943F40013E361E36915
:10337C0003F400130193019BDFE700BF00540040EE
:10338C0000100240000C0140002800F0CC8070B509
:10339C00044690F83D30002B77D0242384F83D3040
:1033AC002268136823F0010313602268136843F446
:1033BC00004313602268136823F400431360FFF783
:1033CC000DF962685A4B9A4264D85A4B98428CBF9A
:1033DC0000230123002B40F0A8805749A1FB0031AA
:1033EC008B0C25686A6822F03F0242EA91426A60BF
:1033FC0021680A6A22F03F0266684D4DAE424FD8F2
:10340C00013313430B622168CA6922F44F4222F044
:10341C00FF026668464B9E424CD8431E7600B3FBB7
:10342C00F6F3013340F6FC70034278D0C3F30B0380
:10343C001343CB6121680B6823F0C003E269206A57
:10344C00024313430B6021688B6823F4034323F07E
:10345C00FF032269E068024313438B602168CB6849
:10346C0023F0FF036269A06902431343CB60226817
:10347C00136843F00103136000202064202384F8B8
:10348C003D30206384F83E0070BD80F83C30FFF77F
:10349C0049FF82E7294B98428CBF0023012399E70F
:1034AC004FF4967505FB03F3254DA5FB03539B09C0
:1034BC000133A6E7A368BBB9451E06EB460CB5FB6A
:1034CC00FCF50135C5F30B05B5FA85F56D0945BB62
:1034DC00C3B9013806EB4603B0FBF3F30133C3F376
:1034EC000B0343F40043A3E7451E06EB860C0CEBE1
:1034FC008C0CB5FBFCF50135C5F30B05B5FA85F560
:10350C006D09E4E7013806EB860303EB8303B0FB9C
:10351C00F3F30133C3F30B0343F4404388E7042371
:10352C0086E7012384E7012070470120ACE700BF48
:10353C00A08601007F841E0083DE1B43FF083D0034
:10354C00D34D6210FFF742FB0B480C490C4A002389
:10355C0002E0D458C4500433C4188C42F9D3094A3D
:10356C00094C002301E013600432A242FBD3FCF7A8
:10357C000BFEFDF7F1FE7047000000201800002044
:10358C00EC3B00081800002020020020FEE70000A1
:10359C00F8B500BFF8BC08BC9E467047F8B500BF34
:0835AC00F8BC08BC9E46704704
:1035B4000000000000000000000000000000000007
:1035C400000000F80000000000000033300000009C
:1035D40000100C06100C06000000000000000000A3
:1035E40040C07840C0784000043F04043F04040015
:1035F400007088FC08300000001820FF211E000025
:10360400F008F000E018000000211C031E211E0039
:1036140000F00888700000001E21232419272110BF
:1036240010160E0000000000000000000000000062
:10363400000000E018040200000000071820400009
:1036440000020418E00000000040201807000000F9
:10365400404080F0804040000202010F010202005D
:10366400000000F0000000000101011F0101010041
:10367400000000000000000080B0700000000000A6
:10368400000000000000000000010101010101012F
:1036940000000000000000000030300000000000C6
:1036A400000000008060180400601806010000009B
:1036B40000E010080810E000000F102020100F0098
:1036C400001010F8000000000020203F202000001F
:1036D4000070080808887000003028242221300077
:1036E40000300888884830000018202020110E007F
:1036F4000000C02010F8000000070424243F240028
:1037040000F80888880808000019212020110E00FC
:1037140000E0108888180000000F112020110E000E
:1037240000380808C83808000000003F0000000006
:103734000070880808887000001C222121221C00C7
:1037440000E010080810E0000000312222110F00F0
:10375400000000C0C0000000000000303000000085
:1037640000000080000000000000806000000000F5
:10377400000080402010080000010204081020000E
:103784004040404040404000040404040404040059
:1037940000081020408000000020100804020100EE
:1037A400007048080808F0000000003036010000EE
:1037B400C030C828E810E0000718272423140B00A1
:1037C4000000C038E0000000203C2302022738201B
:1037D40008F8888888700000203F202020110E00FF
:1037E400C0300808080838000718202020100800F6
:1037F40008F808080810E000203F202020100F00DF
:1038040008F88888E8081000203F202023201800AA
:1038140008F88888E8081000203F20000300000012
:10382400C03008080838000007182020221E0200B3
:1038340008F808000008F808203F210101213F2072
:10384400000808F8080800000020203F202000009D
:1038540000000808F8080800C08080807F0000008D
:1038640008F888C028180800203F200126382000C6
:1038740008F8080000000000203F2020202030002D
:1038840008F8F800F8F80800203F003F003F200047
:1038940008F830C00008F808203F200007183F004F
:1038A400E01008080810E0000F10202020100F007E
:1038B40008F808080808F000203F21010101000071
:1038C400E01008080810E0000F18242438504F00B6
:1038D40008F8888888887000203F2000030C302076
:1038E40000708808080838000038202121221C00B4
:1038F400180808F8080818000000203F20000000FD
:1039040008F808000008F808001F202020201F00E5
:103914000878880000C83808000007380E01000045
:10392400F80800F80008F800033C0700073C03000F
:10393400081868808068180820302C03032C302075
:103944000838C800C83808000000203F20000000E4
:1039540010080808C838080020382621202018003C
:10396400000000FE020202000000007F4040400010
:10397400000C30C000000000000000010638C00048
:1039840000020202FE000000004040407F000000F0
:103994000000040202020400000000000000000015
:1039A4000000000000000000808080808080808013
:1039B40000020204000000000000000000000000FB
:1039C40000008080808000000019242222223F20F1
:1039D40008F8008080000000003F112020110E0034
:1039E4000000008080800000000E112020201100C3
:1039F400000000808088F800000E112020103F2075
:103A04000000808080800000001F222222221300F8
:103A1400008080F0888888180020203F2020000043
:103A24000000808080808000006B949494936000F8
:103A340008F8008080800000203F210000203F2003
:103A440000809898000000000020203F2020000003
:103A5400000000809898000000C08080807F0000F3
:103A640008F8000080808000203F24022D302000D0
:103A7400000808F8000000000020203F202000007B
:103A84008080808080808000203F20003F20003F95
:103A94008080008080800000203F210000203F20A3
:103AA4000000808080800000001F202020201F0054
:103AB400808000808000000080FFA12020110E0083
:103AC4000000008080808000000E112020A0FF8074
:103AD400808080008080800020203F212000010021
:103AE4000000808080808000003324242424190076
:103AF400008080E0808000000000001F2020000083
:103B04008080000000808000001F202020103F20C3
:103B1400808080000080808000010E300806010053
:103B240080800080008080800F300C030C300F00F8
:103B340000808000808080000020312E0E31200023
:103B4400808080000080808080818E701806010053
:103B540000808080808080000021302C2221300071
:103B640000000000807C020200000000003F404092
:103B740000000000FF00000000000000FF00000043
:103B84000002027C800000000040403F0000000072
:103B9400000601010202040400000000000000000D
:103BA40073706565643A0000646972656374696F73
:103BB4006E3A000002030405060708090A0B0C0DFF
:103BC4000E0F1010010200000000000000000000B1
:103BD40001020304060708090000000001020304AF
:043BE400750100085F
:043BE8004D01000883
:103BEC00CDCCCC3DCDCCCC3C00803B450100000085
:083BFC00100000000024F40099
:040000050800355169
:00000001FF
