:020000040800F2
:10000000600600206D0100087501000877010008F6
:10001000790100087B0100087D0100080000000054
:100020000000000000000000000000007F01000848
:10003000810100080000000083010008850100081C
:100040008701000887010008870100088701000870
:100050008701000887010008870100088701000860
:100060008701000887010008870100088701000850
:100070008701000887010008870100088701000840
:100080008701000887010008870100088701000830
:100090008701000887010008870100088701000820
:1000A0008701000887010008870100088701000810
:1000B0008701000887010008870100088701000800
:1000C00087010008870100088701000887010008F0
:1000D00087010008870100088701000887010008E0
:1000E00087010008870100088701000800F002F876
:1000F00000F02CF80AA090E8000C82448344AAF196
:100100000107DA4501D100F021F8AFF2090EBAE893
:100110000F0013F0010F18BFFB1A43F0010318473B
:100120008804000098040000002300240025002615
:10013000103A28BF78C1FBD8520728BF30C148BF4A
:100140000B6070471FB51FBD10B510BD00F031F832
:100150001146FFF7F7FF00F009FA00F04FF803B47B
:10016000FFF7F2FF03BC00F057F800000948804792
:1001700009480047FEE7FEE7FEE7FEE7FEE7FEE789
:10018000FEE7FEE7FEE7FEE704480549054A064BA1
:100190007047000059040008ED00000860000020CE
:1001A0006006002060020020600200207047704757
:1001B0007047754600F02CF8AE4605006946534678
:1001C00020F00700854618B020B5FFF7DDFFBDE839
:1001D00020404FF000064FF000074FF000084FF0AE
:1001E000000B21F00701AC46ACE8C009ACE8C0093F
:1001F000ACE8C009ACE8C0098D46704710B50446AC
:10020000AFF300802046BDE81040FFF7A8BF000014
:10021000004870470000002001491820ABBEFEE7EF
:10022000260002007047000030B57D24002512E052
:100230001648006940F4005014490861284600F04F
:1002400027F81248006940F0005010490861601B0F
:1002500000F01EF86D1CA542EADB002512E00B48F9
:10026000006940F0005009490861284600F010F884
:100270000648006940F4005004490861601B00F022
:1002800007F86D1CA542EADB30BD000000100140FC
:1002900001B5002006E0002100E0491CB1F5487FCF
:1002A000FBD3401C00998842F5D308BD10B500F07F
:1002B00001F810BD0CB50020019000903348006893
:1002C00040F480303149086000BF3048006800F4D5
:1002D000003000900198401C0190009818B90198D6
:1002E000B0F5A06FF1D12948006800F4003010B1DA
:1002F0000120009001E0002000900098012843D1E7
:100300002348006840F01000214908600846006852
:1003100020F0030008600846006840F00200086012
:100320001A484068194948600846406848600846CD
:10033000406840F4806048600846406820F47C10C3
:1003400048600846406840F4E81048600846006885
:1003500040F08070086000BF0C48006800F000703A
:100360000028F9D00948406820F003000749486098
:100370000846406840F00200486000BF03484068FB
:1003800000F00C000828F9D10CBD0000001002405C
:10039000002002402F48006840F480302D4908605A
:1003A00000BF2C48006800F400300028F9D029482C
:1003B000406820F48030274948600846406840F48F
:1003C000803048600846406820F470104860084655
:1003D000406840F4E01048600846006840F08070D3
:1003E000086000BF1B48006808B9012000E0002039
:1003F00000F000700028F5D11648406820F0030096
:10040000144948600846406840F00200486000BF58
:100410001048406800F00C000828F9D10D484068E9
:1004200020F0F0000B4948600846406848600846E4
:10043000406820F4605048600846406840F400502E
:1004400048600846406820F4E0604860084640681C
:10045000486070470010024010B51348006840F033
:1004600001001149086008464068104908400E49DB
:100470004860084600680E4908400B490860084675
:10048000006820F4802008600846406820F4FE00E0
:1004900048604FF41F008860FFF708FF4FF00060CE
:1004A0000449086010BD0000001002400000FFF881
:1004B000FFFFF6FE08ED00E000B52048008820F0C0
:1004C00001001E49088041F61F401C492831088060
:1004D000C720091D088019481830008820F07000D6
:1004E0001649183108800846008840F060000880EE
:1004F000642012493431088010482030008840F0D0
:1005000001000E49203108800846008820F00800CC
:1005100008800020094944310880084808300088D4
:1005200020F007000549083108800448008840F0A1
:1005300001000249088000F003F800BD002C0140D2
:100540000848806940F00400064988610648006850
:1005500020F00F00044908600846006840F00B00D6
:10056000086070470010024004080140FFF712FFC6
:10057000FFF7A2FF0948806940F010000749886131
:100580000748406840F480100549486004E0C820EE
:1005900004490880FFF748FEF9E700000010024018
:1005A00000100140342C0140B80500080000002074
:0805B0006006000028010008AC
:04000005080000ED02
:00000001FF
