:020000040800F2
:100000000050002001160008651200086B1200085D
:1000100071120008771200087D120008000000002D
:100020000000000000000000000000008312000833
:100030008F120008000000009B120008A7120008A1
:100040004916000849160008491600084916000814
:100050004916000849160008491600084916000804
:1000600049160008491600084916000849160008F4
:1000700049160008491600084916000849160008E4
:1000800049160008491600084916000849160008D4
:10009000491600084916000849160008B31200085E
:1000A000D9120008ED12000801130008151300080A
:1000B00029130008491600084916000849160008C7
:1000C0004916000849160008491600084916000894
:1000D0004916000849160008491600084916000884
:1000E00049160008491600084916000800000000DB
:1000F0000000000000000000000000000000000000
:0C01000000000000000000005FF808F1A3
:1001100010B5054C237833B9044B13B10448AFF341
:1001200000800123237010BD0C000020000000009F
:10013000D83A000808B5034B1BB103490348AFF395
:10014000008008BD0000000010000020D83A000820
:1001500081F0004102E000BF83F0004330B54FEA78
:1001600041044FEA430594EA050F08BF90EA020FE5
:100170001FBF54EA000C55EA020C7FEA645C7FEA78
:10018000655C00F0E2804FEA5454D4EB5555B8BF9B
:100190006D420CDD2C4480EA020281EA030382EA0C
:1001A000000083EA010180EA020281EA0303362D9E
:1001B00088BF30BD11F0004F4FEA01314FF4801C71
:1001C0004CEA113102D0404261EB410113F0004F83
:1001D0004FEA03334CEA133302D0524263EB43033A
:1001E00094EA050F00F0A780A4F10104D5F1200ED8
:1001F0000DDB02FA0EFC22FA05F2801841F1000133
:1002000003FA0EF2801843FA05F359410EE0A5F106
:1002100020050EF1200E012A03FA0EFC28BF4CF037
:10022000020C43FA05F3C01851EBE37101F00045ED
:1002300007D54FF0000EDCF1000C7EEB00006EEBFA
:100240000101B1F5801F1BD3B1F5001F0CD3490884
:100250005FEA30004FEA3C0C04F101044FEA4452DB
:1002600012F5800F80F09A80BCF1004F08BF5FEA62
:10027000500C50F1000041EB045141EA050130BD42
:100280005FEA4C0C404141EB0101013C28BFB1F554
:10029000801FE9D291F0000F04BF01460020B1FA9F
:1002A00081F308BF2033A3F10B03B3F120020CDA72
:1002B0000C3208DD02F1140CC2F10C0201FA0CF050
:1002C00021FA02F10CE002F11402D8BFC2F1200CB5
:1002D00001FA02F120FA0CFCDCBF41EA0C0190406B
:1002E000E41AA2BF01EB0451294330BD6FEA0404B4
:1002F0001F3C1CDA0C340EDC04F11404C4F120029F
:1003000020FA04F001FA02F340EA030021FA04F3B0
:1003100045EA030130BDC4F10C04C4F1200220FA07
:1003200002F001FA04F340EA0300294630BD21FA45
:1003300004F0294630BD94F0000F83F4801306BF0B
:1003400081F480110134013D4EE77FEA645C18BFFF
:100350007FEA655C29D094EA050F08BF90EA020F96
:1003600005D054EA000C04BF1946104630BD91EA8E
:10037000030F1EBF0021002030BD5FEA545C05D191
:100380004000494128BF41F0004130BD14F58004D0
:100390003CBF01F5801130BD01F0004545F0FE4144
:1003A00041F470014FF0000030BD7FEA645C1ABF79
:1003B000194610467FEA655C1CBF0B46024650EAB0
:1003C000013406BF52EA033591EA030F41F40021DC
:1003D00030BD00BF90F0000F04BF0021704730B562
:1003E0004FF4806404F132044FF000054FF0000137
:1003F00050E700BF90F0000F04BF0021704730B5F8
:100400004FF4806404F1320410F0004548BF4042CC
:100410004FF000013EE700BF42004FEAE2014FEA21
:1004200031014FEA02701FBF12F07F4393F07F4FFC
:1004300081F06051704732F07F4208BF704793F0FF
:100440007F4F04BF41F40021704730B54FF4607412
:1004500001F0004521F000411CE700BF50EA010215
:1004600008BF704730B54FF000050AE050EA0102BE
:1004700008BF704730B511F0004502D5404261EB2E
:1004800041014FF4806404F132045FEA915C3FF46F
:10049000D8AE4FF003025FEADC0C18BF03325FEA0C
:1004A000DC0C18BF033202EBDC02C2F1200300FABD
:1004B00003FC20FA02F001FA03FE40EA0E0021FAE2
:1004C00002F11444BDE600BF70B54FF0FF0C4CF4D0
:1004D000E06C1CEA11541DBF1CEA135594EA0C0F82
:1004E00095EA0C0F00F0DEF82C4481EA030621EABD
:1004F0004C5123EA4C5350EA013518BF52EA0335F8
:1005000041F4801143F4801338D0A0FB02CE4FF0A9
:100510000005E1FB02E506F00042E0FB03E54FF0D9
:100520000006E1FB03569CF0000F18BF4EF0010ED1
:10053000A4F1FF04B6F5007F64F5407404D25FEACD
:100540004E0E6D4146EB060642EAC62141EA555180
:100550004FEAC52040EA5E504FEACE2EB4F1FD0CC2
:1005600088BFBCF5E06F1ED8BEF1004F08BF5FEA40
:10057000500E50F1000041EB045170BD06F00046F2
:1005800046EA010140EA020081EA0301B4EB5C049F
:10059000C2BFD4EB0C0541EA045170BD41F4801197
:1005A0004FF0000E013C00F3AB8014F1360FDEBFBC
:1005B000002001F0004170BDC4F10004203C35DA98
:1005C0000C341BDC04F11404C4F1200500FA05F31B
:1005D00020FA04F001FA05F240EA020001F00042BC
:1005E00021F0004110EBD37021FA04F642EB060132
:1005F0005EEA430E08BF20EAD37070BDC4F10C045C
:10060000C4F1200500FA04F320FA05F001FA04F21F
:1006100040EA020001F0004110EBD37041F100010B
:100620005EEA430E08BF20EAD37070BDC4F1200516
:1006300000FA05F24EEA020E20FA04F301FA05F27E
:1006400043EA020321FA04F001F0004121FA04F226
:1006500020EA020000EBD3705EEA430E08BF20EAF6
:10066000D37070BD94F0000F0FD101F00046400030
:1006700041EB010111F4801F08BF013CF7D041EAB2
:10068000060195F0000F18BF704703F000465200B6
:1006900043EB030313F4801F08BF013DF7D043EA87
:1006A0000603704794EA0C0F0CEA135518BF95EA3D
:1006B0000C0F0CD050EA410618BF52EA4306D1D1C4
:1006C00081EA030101F000414FF0000070BD50EAE3
:1006D000410606BF1046194652EA430619D094EA6D
:1006E0000C0F02D150EA013613D195EA0C0F05D157
:1006F00052EA03361CBF104619460AD181EA0301AB
:1007000001F0004141F0FE4141F470014FF0000062
:1007100070BD41F0FE4141F4780170BD70B54FF0FD
:10072000FF0C4CF4E06C1CEA11541DBF1CEA13557D
:1007300094EA0C0F95EA0C0F00F0A7F8A4EB05045F
:1007400081EA030E52EA03354FEA013100F0888056
:100750004FEA03334FF0805545EA131343EA12631F
:100760004FEA022245EA111545EA10654FEA0026D4
:100770000EF000419D4208BF964244F1FD0404F58D
:10078000407402D25B084FEA3202B61A65EB0305E9
:100790005B084FEA32024FF480104FF4002CB6EBA6
:1007A000020E75EB030E22BFB61A754640EA0C0026
:1007B0005B084FEA3202B6EB020E75EB030E22BF66
:1007C000B61A754640EA5C005B084FEA3202B6EBA7
:1007D000020E75EB030E22BFB61A754640EA9C0066
:1007E0005B084FEA3202B6EB020E75EB030E22BF36
:1007F000B61A754640EADC0055EA060E18D04FEAF4
:10080000051545EA16754FEA06164FEAC30343EA93
:1008100052734FEAC2025FEA1C1CC0D111F4801F60
:100820000BD141EA00014FF000004FF0004CB6E759
:1008300011F4801F04BF01430020B4F1FD0C88BFF8
:10084000BCF5E06F3FF6AFAEB5EB030C04BFB6EB03
:10085000020C5FEA500C50F1000041EB045170BDF6
:100860000EF0004E4EEA113114EB5C04C2BFD4EB23
:100870000C0541EA045170BD41F480114FF0000EA7
:10088000013C90E645EA060E8DE60CEA135594EA23
:100890000C0F08BF95EA0C0F3FF43BAF94EA0C0F26
:1008A0000AD150EA01347FF434AF95EA0C0F7FF49B
:1008B00025AF104619462CE795EA0C0F06D152EAEF
:1008C00003353FF4FDAE1046194622E750EA4106D3
:1008D00018BF52EA43067FF4C5AE50EA41047FF4E4
:1008E0000DAF52EA43057FF4EBAE12E74FEA410247
:1008F00012F5001215D211D56FF47873B3EB625272
:1009000012D94FEAC12343F0004343EA505311F098
:10091000004F23FA02F018BF404270474FF000002A
:10092000704750EA013005D111F0004008BF6FF068
:10093000004070474FF00000704700BF80B588B09E
:1009400000AF07F1100300221A605A609A60DA6063
:100950004D4B9B694C4A43F0100393614A4B9B6992
:1009600003F01003FB60FB68474B9B69464A43F06A
:1009700020039361444B9B6903F02003BB60BB6879
:10098000414B9B69404A43F0040393613E4B9B6992
:1009900003F004037B607B683B4B9B693A4A43F05E
:1009A00008039361384B9B6903F008033B603B6885
:1009B00000224FF40051354801F077F90022482118
:1009C000334801F072F901220121324801F06DF93A
:1009D0004FF400533B6101237B610023BB61022381
:1009E000FB6107F110031946284800F0C3FF4823B4
:1009F0003B6101237B610023BB610223FB6107F1A3
:100A000010031946224800F0B5FF90233B610023F4
:100A10007B610023BB6107F1100319461C4800F0FD
:100A2000A9FF01233B6101237B610023BB610223FA
:100A3000FB6107F110031946164800F09BFF4023A5
:100A40003B61154B7B610023BB6107F11003194625
:100A5000104800F08FFF4FF460733B610F4B7B61D8
:100A60000023BB6107F1100319460A4800F082FF1A
:100A700000220021172000F046FF172000F05FFF42
:100A800000BF2037BD4680BD00100240001001406D
:100A900000080140000C014000003110000011105E
:100AA00080B500AF124B134A1A60114B124A5A60BC
:100AB0000F4B00229A600E4B0022DA600C4B4FF471
:100AC00080421A610A4B00225A61094B00229A6146
:100AD000074B0022DA61064B00221A62044801F03B
:100AE00015F90346002B01D000F084FB00BF80BD48
:100AF0002800002000580040A086010080B588B082
:100B000000AF786007F1100300221A605A609A6003
:100B1000DA607B681B68164A934224D1154B9B69A7
:100B2000144A43F008039361124B9B6903F00803D6
:100B3000FB60FB684FF440633B6112237B6103233E
:100B4000FB6107F1100319460B4800F013FF094B36
:100B5000DB69084A43F48003D361064BDB6903F485
:100B60008003BB60BB6800BF2037BD4680BD00BFAF
:100B70000058004000100240000C014080B582B0D7
:100B800000AF00237B6000233B6000F05FFD00F0BE
:100B900015F9FFF7D3FE00F027FC00F0D5FBFFF7B7
:100BA0007FFF0021794801F0EBFE0421774801F036
:100BB000E7FE774801F03AFE754B1B6800225A6247
:100BC00002F0F9FE00F040F900F0A6F9714B1B6845
:100BD000282BF7DC704B1B68282BF3DC6E4B1B6853
:100BE0000A2B40F3BE806D4B1B68013B042B00F2C7
:100BF000A18001A252F823F00D0C00083B0C000864
:100C00007B0C0008C30C00080D0D0008644B1B682A
:100C1000002B40F088805A2000F0E4F94FF47A70FD
:100C200000F076FD002000F0DDF94FF4FA7000F0DE
:100C30006FFD5B4B01221A6075E05A4B1B68002B5D
:100C400073D15A2000F0F8F94FF4FA7000F060FD0B
:100C50005A2000F0C7F94FF4FA7000F059FD002057
:100C600000F0C0F94FF4FA7000F052FD002000F0DF
:100C7000E3F94C4B01221A6057E04B4B1B68002BE9
:100C800055D1B42000F0D8F94FF4FA7000F040FDCF
:100C90005A2000F0A7F94FF4FA7000F039FD002057
:100CA00000F0A0F94FF4FA7000F032FD002000F0DF
:100CB000C3F94FF4FA7000F02BFD3B4B01221A6090
:100CC00035E03A4B1B68002B33D14FF4877000F0AE
:100CD000B3F94FF47A7000F01BFD5A2000F082F94E
:100CE0004FF47A7000F014FD002000F07BF94FF40F
:100CF0007A7000F00DFD002000F09EF94FF47A703C
:100D000000F006FD294B01221A6012E0244B00225C
:100D10001A60244B00221A60234B00221A60234BD6
:100D200000221A6006E000BF04E000BF02E000BF3E
:100D300000E000BF194B05221A601D4A0121012065
:100D400002F014FE01233B607B68012B03D102F00B
:100D500090FD00237B6001220121164800F0A5FFD1
:100D600030E7154A0121022002F000FE0022012195
:100D7000104800F09AFF01237B603B68012B7FF451
:100D800021AF02F076FD00233B601BE7000100204D
:100D9000B8000020900000208C000020940000206B
:100DA000980000209C000020A0000020A40000204B
:100DB000F03A0008000C0140043B000880B590B0F8
:100DC00000AF07F1180328220021184602F057FE51
:100DD0003B1D00221A605A609A60DA601A61012392
:100DE000BB614FF48033FB6100233B620123BB6294
:100DF00002237B634FF48033BB634FF4E013FB6348
:100E000007F11803184601F0C5F80346002B01D07E
:100E100000F0F0F90F237B600223BB600023FB602E
:100E20004FF480633B6100237B613B1D0221184628
:100E300001F032FB0346002B01D000F0DBF900BFCC
:100E40004037BD4680BD000080B500AF0022402184
:100E50002B4800F02AFF01224021294800F025FFFD
:100E6000012000F055FC00224021254800F01DFF24
:100E700005E0244B1B685B6A1A46234B1A608021ED
:100E80001F4800F0FBFE0346002BF2D005E01D4B8F
:100E90001B685B6A1A461D4B1A608021184800F0D7
:100EA000EDFE0346012BF2D0184B1A68164B1B6857
:100EB000D31A1846FFF79EFA0FA3D3E90023FFF7D2
:100EC00003FB02460B46104619464FF000024FF056
:100ED0008043FFF723FC02460B4610461946FFF7F6
:100EE00005FD03460A4A13604FF4FA7000F010FC47
:100EF00000BF80BDAFF300809CC420B07268A13FEA
:100F000000080140B80000207C0000208000002084
:100F1000900000200000000080B500AF00220821F2
:100F20002B4800F0C2FE01220821294800F0BDFE36
:100F3000012000F0EDFB00220821254800F0B5FE5D
:100F400005E0244B1B685B6A1A46234B1A6010218C
:100F50001F4800F093FE0346002BF2D005E01D4B26
:100F60001B685B6A1A461D4B1A601021184800F076
:100F700085FE0346012BF2D0184B1A68164B1B68EE
:100F8000D31A1846FFF736FA0FA3D3E90023FFF769
:100F90009BFA02460B46104619464FF000024FF0EE
:100FA0008043FFF7BBFB02460B4610461946FFF78E
:100FB0009DFC03460A4A13604FF4FA7000F0A8FB48
:100FC00000BF80BDAFF300809CC420B07268A13F19
:100FD00000080140B80000208400002088000020A4
:100FE0008C00002080B483B000AF78607B68002B59
:100FF00003D1104B1B6801229A637B68B42B03D189
:101000000C4B1B68F8229A637B685A2B03D1094B5F
:101010001B6896229A637B68B3F5877F04D1054BE2
:101020001B684FF4C8729A6300BF0C37BD4680BC82
:10103000704700BF0001002080B483B000AF78602B
:101040007B68002B03D1104B1B6801225A637B681D
:10105000B42B03D10C4B1B68F8225A637B685A2BC4
:1010600003D1094B1B6896225A637B68B3F5877FCF
:1010700004D1054B1B684FF4C8725A6300BF0C378C
:10108000BD4680BC704700BF0001002080B582B023
:1010900000AF0346FB80FB88402B22D140214F4804
:1010A00000F0ECFD0346012B0AD14D4B1B68002BD1
:1010B00003D14B4B01221A6002E0494B00221A6017
:1010C0004021464800F0DAFD0346002B09D1444B8D
:1010D0001B68012B05D1424B00221A60414B0122B3
:1010E0001A60FB88802B22D180213C4800F0C6FD8D
:1010F0000346012B0AD13C4B1B68002B03D13A4B12
:1011000001221A6002E0384B00221A608021334825
:1011100000F0B4FD0346002B09D1334B1B68012BB3
:1011200005D1314B00221A602E4B02221A60FB8837
:10113000B3F5807F24D14FF48071284800F09EFDE4
:101140000346012B0AD1294B1B68002B03D1274BE7
:1011500001221A6002E0254B00221A604FF48071D0
:101160001E4800F08BFD0346002B09D11F4B1B6866
:10117000012B05D11D4B00221A601A4B03221A6065
:10118000FB88B3F5007F24D14FF40071134800F0C1
:1011900075FD0346012B0AD1154B1B68002B03D1AB
:1011A000134B01221A6002E0114B00221A604FF427
:1011B00000710A4800F062FD0346002B09D10C4B78
:1011C0001B68012B05D10A4B00221A60054B042233
:1011D0001A6000BF0837BD4680BD00BF000C01404B
:1011E000A800002094000020AC000020B0000020E7
:1011F000B400002080B400AF72B600BFFEE700006C
:1012000080B485B000AF154B9B69144A43F00103CD
:101210009361124B9B6903F00103BB60BB680F4BEA
:10122000DB690E4A43F08053D3610C4BDB6903F05A
:1012300080537B607B680A4B5B68FB60FB6823F034
:10124000E063FB60FB6843F00073FB60044AFB68EB
:10125000536000BF1437BD4680BC70470010024089
:101260000000014080B400AFFEE780B400AFFEE7AD
:1012700080B400AFFEE780B400AFFEE780B400AFFB
:10128000FEE780B400AF00BFBD4680BC704780B4AD
:1012900000AF00BFBD4680BC704780B400AF00BF48
:1012A000BD4680BC704780B500AF00F015FA00BFA6
:1012B00080BD80B500AF402000F010FD802000F020
:1012C0000DFD4FF4807000F009FD4FF4007000F048
:1012D00005FD00BF80BD000080B500AF024801F0F1
:1012E000F1FB00BF80BD00BFB800002080B500AF9B
:1012F000024801F0E7FB00BF80BD00BFB80000203E
:1013000080B500AF024801F0DDFB00BF80BD00BF2B
:10131000B800002080B500AF024801F0D3FB00BF49
:1013200080BD00BFB800002080B500AF024801F0CA
:10133000C9FB00BF80BD00BF0001002080B400AF2A
:1013400000BFBD4680BC704780B586B000AF07F1D6
:10135000080300221A605A609A60DA603B46002255
:101360001A605A601E4B1F4A1A601D4B47225A6072
:101370001B4B00229A601A4B4FF6FF72DA60184B33
:1013800000221A61164B00225A61154B00229A6105
:10139000134801F0FBF90346002B01D0FFF72AFFA9
:1013A0004FF48053BB6007F1080319460C4801F065
:1013B00053FD0346002B01D0FFF71CFF00233B60C9
:1013C00000237B603B461946054802F0DDF80346E2
:1013D000002B01D0FFF70EFF00BF1837BD4680BDC0
:1013E000B8000020002C014080B58EB000AF07F19E
:1013F000280300221A605A609A60DA6007F120031D
:1014000000221A605A603B1D00221A605A609A60DE
:10141000DA601A615A619A61344B4FF080421A6067
:10142000324B40F2CF225A60304B00229A602F4B51
:1014300040F2CF72DA602D4B00221A612B4B002252
:101440009A612A4801F0A2F90346002B01D0FFF768
:10145000D1FE4FF48053BB6207F12803194623489D
:1014600001F0FAFC0346002B01D0FFF7C3FE1F4832
:1014700001F02EFA0346002B01D0FFF7BBFE00233C
:101480003B6200237B6207F120031946174802F0F4
:101490007BF80346002B01D0FFF7ACFE60237B6096
:1014A0000023BB600023FB6000237B613B1D002207
:1014B00019460E4801F00EFC0346002B01D0FFF741
:1014C00099FE0123BB603B1D04221946074801F029
:1014D00001FC0346002B01D0FFF78CFE034800F00F
:1014E0005FF800BF3837BD4680BD00BF0001002057
:1014F00080B584B000AF78607B681B68264A934251
:101500002CD1264B9B69254A43F400639361234BFE
:101510009B6903F40063FB60FB6800220021182034
:1015200000F0F1F9182000F00AFA00220021192039
:1015300000F0E9F9192000F002FA002200211A2037
:1015400000F0E1F91A2000F0FAF9002200211B2036
:1015500000F0D9F91B2000F0F2F918E07B681B6855
:10156000B3F1804F13D10D4BDB690C4A43F00103FB
:10157000D3610A4BDB6903F00103BB60BB68002247
:1015800000211C2000F0BFF91C2000F0D8F900BF9A
:101590001037BD4680BD00BF002C01400010024046
:1015A00080B588B000AF786007F1100300221A60A0
:1015B0005A609A60DA607B681B68B3F1804F17D17C
:1015C0000D4B9B690C4A43F0040393610A4B9B69E2
:1015D00003F00403FB60FB6803233B6102237B6190
:1015E0000223FB6107F110031946044800F0C2F919
:1015F00000BF2037BD4680BD0010024000080140FA
:10160000FFF79CFE0B480C490C4A002302E0D4581B
:10161000C4500433C4188C42F9D3094A094C00233E
:1016200001E013600432A242FBD302F031FAFFF76B
:10163000A5FA7047000000200C000020D8410008E7
:101640000C0000204C010020FEE7000080B500AF38
:10165000084B1B68074A43F010031360032000F097
:1016600047F90F2000F008F8FFF7CAFD00231846DD
:1016700080BD00BF0020024080B582B000AF78601E
:10168000124B1A68124B1B7819464FF47A73B3FB4E
:10169000F1F3B2FBF3F3184600F05FF90346002BB9
:1016A00001D001230EE07B680F2B0AD80022796855
:1016B0004FF0FF3000F027F9064A7B6813600023E3
:1016C00000E0012318460837BD4680BD0000002019
:1016D000080000200400002080B400AF054B1B78F8
:1016E0001A46054B1B681344034A136000BFBD46EE
:1016F00080BC7047080000204801002080B400AF83
:10170000024B1B681846BD4680BC7047480100204C
:1017100080B584B000AF7860FFF7F0FFB8607B68F9
:10172000FB60FB68B3F1FF3F05D00A4B1B781A46FC
:10173000FB681344FB6000BFFFF7E0FF0246BB6895
:10174000D31AFA689A42F7D800BF00BF1037BD46D7
:1017500080BD00BF0800002080B485B000AF786075
:101760007B6803F00703FB600C4BDB68BB60BA6867
:101770004FF6FF031340BB60FB681A02BB681343BC
:1017800043F0BF6343F40033BB60044ABB68D360DB
:1017900000BF1437BD4680BC704700BF00ED00E0BD
:1017A00080B400AF044BDB681B0A03F00703184644
:1017B000BD4680BC704700BF00ED00E080B483B040
:1017C00000AF0346FB7197F90730002B0BDBFB7969
:1017D00003F01F02064997F907305B09012000FA60
:1017E00002F241F8232000BF0C37BD4680BC704791
:1017F00000E100E080B483B000AF03463960FB71C4
:1018000097F90730002B0ADB3B68DAB20C4997F9ED
:1018100007301201D2B20B4483F800230AE03B6880
:10182000DAB20849FB7903F00F03043B1201D2B28C
:101830000B441A7600BF0C37BD4680BC704700BF12
:1018400000E100E000ED00E080B489B000AFF86096
:10185000B9607A60FB6803F00703FB61FB69C3F1C1
:101860000703042B28BF0423BB61FB690433062B49
:1018700002D9FB69033B00E000237B614FF0FF329C
:10188000BB6902FA03F3DA43BB681A407B699A40EA
:101890004FF0FF317B6901FA03F3D9437B680B40BA
:1018A000134318462437BD4680BC704780B582B0CC
:1018B00000AF78607B68013BB3F1807F01D30123E7
:1018C0000FE00A4A7B68013B53600F214FF0FF3065
:1018D000FFF790FF054B00229A60044B07221A6025
:1018E000002318460837BD4680BD00BF10E000E069
:1018F00080B582B000AF78607868FFF72DFF00BF39
:101900000837BD4680BD80B586B000AF0346B960DC
:101910007A60FB7300237B61FFF742FF78617A688E
:10192000B9687869FFF790FF024697F90F301146C2
:101930001846FFF75FFF00BF1837BD4680BD80B572
:1019400082B000AF0346FB7197F907301846FFF7E6
:1019500035FF00BF0837BD4680BD80B582B000AFFF
:1019600078607868FFF7A2FF034618460837BD463F
:1019700080BD000080B48BB000AF78603960002378
:101980007B6200233B6269E101227B6A02FA03F376
:10199000FB613B681B68FA691340BB61BA69FB696C
:1019A0009A4240F058813B685B689A4A93425ED005
:1019B000984A934275D8984A934258D0964A93428F
:1019C0006FD8964A934252D0944A934269D8944A27
:1019D00093424CD0924A934263D8924A934246D063
:1019E000904A93425DD8122B2AD8122B59D801A2C3
:1019F00052F823F06F1A0008491A00085B1A000811
:101A00009D1A0008A31A0008A31A0008A31A0008C8
:101A1000A31A0008A31A0008A31A0008A31A0008B2
:101A2000A31A0008A31A0008A31A0008A31A0008A2
:101A3000A31A0008A31A0008511A0008651A000822
:101A4000794A934213D02CE03B68DB683B6229E083
:101A50003B68DB6804333B6224E03B68DB680833A7
:101A60003B621FE03B68DB680C333B621AE03B687B
:101A70009B68002B02D104233B6213E03B689B6808
:101A8000012B05D108233B627B68FA691A6109E0E2
:101A900008233B627B68FA695A6103E000233B62DA
:101AA00000E000BFBB69FF2B01D87B6801E07B68C9
:101AB00004337B61BB69FF2B02D87B6A9B0002E089
:101AC0007B6A083B9B003B617B691A680F213B697D
:101AD00001FA03F3DB431A40396A3B6901FA03F365
:101AE0001A437B691A603B685B6803F08053002BE4
:101AF00000F0B1804D4B9B694C4A43F00103936168
:101B00004A4B9B6903F00103BB60BB68484A7B6A90
:101B10009B08023352F82330FB607B6A03F0030317
:101B20009B000F2202FA03F3DB43FA681340FB60C9
:101B30007B68404A934213D07B683F4A93420DD062
:101B40007B683E4A934207D07B683D4A934201D16D
:101B5000032306E0042304E0022302E0012300E063
:101B600000237A6A02F0030292009340FA6813435A
:101B7000FB602F497B6A9B080233FA6841F82320F7
:101B80003B685B6803F48013002B06D02D4B9A68EA
:101B90002C49BB6913438B6006E02A4B9A68BB69EA
:101BA000DB43284913408B603B685B6803F40013F8
:101BB000002B06D0234BDA682249BB691343CB6064
:101BC00006E0204BDA68BB69DB431E491340CB605B
:101BD0003B685B6803F40033002B06D0194B5A684E
:101BE0001849BB6913434B6006E0164B5A68BB6942
:101BF000DB43144913404B603B685B6803F480335C
:101C0000002B21D00F4B1A680E49BB6913430B60A0
:101C100021E000BF0000321000003110000022104F
:101C200000002110000012100000111000100240EE
:101C30000000014000080140000C0140001001407C
:101C400000140140000401400B4B1A68BB69DB43E0
:101C5000094913400B607B6A01337B623B681A6859
:101C60007B6A22FA03F3002B7FF48EAE00BF00BF25
:101C70002C37BD4680BC70470004014080B485B05D
:101C800000AF78600B467B807B689A687B88134046
:101C9000002B02D00123FB7301E00023FB73FB7BCD
:101CA00018461437BD4680BC704780B483B000AF7F
:101CB00078600B467B8013467B707B78002B03D0CB
:101CC0007A887B681A6103E07B881A047B681A6152
:101CD00000BF0C37BD4680BC7047000080B582B0A5
:101CE00000AF0346FB80084B5A69FB881340002B6A
:101CF00006D0054AFB885361FB881846FFF7C6F9F2
:101D000000BF0837BD4680BD0004014080B584B0E7
:101D100000AF78607B68002B01D101232BE17B6849
:101D200093F83D30DBB2002B06D17B68002283F8AC
:101D30003C207868FEF7E2FE7B68242283F83D2091
:101D40007B681B681A687B681B6822F001021A60B6
:101D50007B681B681A687B681B6842F400421A6043
:101D60007B681B681A687B681B6822F400421A6053
:101D700000F0DAFCF8607B685B68814A934207D820
:101D8000FB68804A934294BF01230023DBB206E044
:101D9000FB687D4A934294BF01230023DBB2002BF2
:101DA00001D00123E7E0FB68784AA2FB03239B0CE8
:101DB000BB607B681B685B6823F03F017B681B6826
:101DC000BA680A435A607B681B681B6A23F03F01AC
:101DD0007B685B686A4A934202D8BB68013309E0BA
:101DE000BB684FF4967202FB03F3694AA2FB03231C
:101DF0009B0901337A6812680B4313627B681B6886
:101E0000DB6923F44F4222F0FF027B685B685C4988
:101E10008B4219D8FB68591E7B685B685B00B1FB7D
:101E2000F3F3591C40F6FC730B40002B0AD0FB68FF
:101E3000591E7B685B685B00B1FBF3F30133C3F3AE
:101E40000B0351E004234FE07B689B68002B11D10A
:101E5000FB68581E7B6859680B465B000B44B0FB5F
:101E6000F3F30133C3F30B03002B0CBF0123002357
:101E7000DBB212E0FB68581E7B6859680B469B007A
:101E80000B4499000B44B0FBF3F30133C3F30B0392
:101E9000002B0CBF01230023DBB2002B01D0012358
:101EA00022E07B689B68002B0ED1FB68581E7B6884
:101EB00059680B465B000B44B0FBF3F30133C3F3EB
:101EC0000B0343F400430FE0FB68581E7B6859681E
:101ED0000B469B000B4499000B44B0FBF3F301331A
:101EE000C3F30B0343F44043796809681343CB61A0
:101EF0007B681B681B6823F0C0017B68DA697B681C
:101F00001B6A1A437B681B680A431A607B681B685C
:101F10009B6823F4034323F0FF037A6811697A680E
:101F2000D26811437A6812680B4393607B681B6820
:101F3000DB6823F0FF017B685A697B689B691A4361
:101F40007B681B680A43DA607B681B681A687B68D9
:101F50001B6842F001021A607B6800221A647B68E9
:101F6000202283F83D207B6800221A637B680022D0
:101F700083F83E20002318461037BD4680BD00BFC1
:101F8000A08601007F841E00FF083D0083DE1B4306
:101F9000D34D621080B586B000AF78607B68002BAF
:101FA00001D1012372E27B681B6803F00103002B5F
:101FB00000F08780924B5B6803F00C03042B0CD07D
:101FC0008F4B5B6803F00C03082B12D18C4B5B68C2
:101FD00003F48033B3F5803F0BD1894B1B6803F4C6
:101FE0000033002B6CD07B685B68002B68D1012329
:101FF0004CE27B685B68B3F5803F06D1804B1B6881
:102000007F4A43F4803313602EE07B685B68002BCB
:102010000CD17B4B1B687A4A23F480331360784BD6
:102020001B68774A23F4802313601DE07B685B689C
:10203000B3F5A02F0CD1724B1B68714A43F4802377
:1020400013606F4B1B686E4A43F4803313600BE0E0
:102050006B4B1B686A4A23F480331360684B1B6820
:10206000674A23F4802313607B685B68002B13D0DE
:10207000FFF744FB386108E0FFF740FB02463B698D
:10208000D31A642B01D9032300E25D4B1B6803F4D0
:102090000033002BF0D014E0FFF730FB386108E08C
:1020A000FFF72CFB02463B69D31A642B01D90323AB
:1020B000ECE1534B1B6803F40033002BF0D100E03C
:1020C00000BF7B681B6803F00203002B63D04C4BFE
:1020D0005B6803F00C03002B0BD0494B5B6803F0EB
:1020E0000C03082B1CD1464B5B6803F48033002B98
:1020F00016D1434B1B6803F00203002B05D07B680D
:102100001B69012B01D00123C0E13D4B1B6823F06B
:10211000F8027B685B69DB00394913430B603AE0E6
:102120007B681B69002B20D0364B01221A60FFF719
:10213000E5FA386108E0FFF7E1FA02463B69D31A95
:10214000022B01D90323A1E12D4B1B6803F00203ED
:10215000002BF0D02A4B1B6823F0F8027B685B69E8
:10216000DB00274913430B6015E0264B00221A6061
:10217000FFF7C4FA386108E0FFF7C0FA02463B698E
:10218000D31A022B01D9032380E11D4B1B6803F0F6
:102190000203002BF0D17B681B6803F00803002BBF
:1021A0003AD07B689B69002B19D0174B01221A602B
:1021B000FFF7A4FA386108E0FFF7A0FA02463B698E
:1021C000D31A022B01D9032360E10D4B5B6A03F0A4
:1021D0000203002BF0D0012000F0BAFA1CE00A4BF9
:1021E00000221A60FFF78AFA38610FE0FFF786FADB
:1021F00002463B69D31A022B08D9032346E100BFEC
:10220000001002400000424280044242924B5B6A4E
:1022100003F00203002BE9D17B681B6803F0040381
:10222000002B00F0A6800023FB758B4BDB6903F0CD
:102230008053002B0DD1884BDB69874A43F08053D4
:10224000D361854BDB6903F08053BB60BB6801231E
:10225000FB75824B1B6803F48073002B18D17F4BF6
:102260001B687E4A43F480731360FFF747FA3861B6
:1022700008E0FFF743FA02463B69D31A642B01D901
:10228000032303E1754B1B6803F48073002BF0D02C
:102290007B68DB68012B06D16F4B1B6A6E4A43F0EB
:1022A000010313622DE07B68DB68002B0CD16A4BC5
:1022B0001B6A694A23F001031362674B1B6A664A73
:1022C00023F0040313621CE07B68DB68052B0CD150
:1022D000614B1B6A604A43F0040313625E4B1B6A46
:1022E0005D4A43F0010313620BE05B4B1B6A5A4AE1
:1022F00023F001031362584B1B6A574A23F004036F
:1023000013627B68DB68002B15D0FFF7F7F93861A3
:102310000AE0FFF7F3F902463B69D31A41F288322B
:10232000934201D90323B1E04B4B1B6A03F0020334
:10233000002BEED014E0FFF7E1F938610AE0FFF777
:10234000DDF902463B69D31A41F28832934201D942
:1023500003239BE0404B1B6A03F00203002BEED1EA
:10236000FB7D012B05D13C4BDB693B4A23F08053BD
:10237000D3617B68DB69002B00F08780364B5B689C
:1023800003F00C03082B61D07B68DB69022B46D17C
:10239000334B00221A60FFF7B1F9386108E0FFF70C
:1023A000ADF902463B69D31A022B01D903236DE034
:1023B000294B1B6803F00073002BF0D17B681B6A6C
:1023C000B3F5803F08D1244B5B6823F400327B686F
:1023D0009B68214913434B601F4B5B6823F47412C5
:1023E0007B68196A7B685B6A0B431B4913434B602C
:1023F0001B4B01221A60FFF781F9386108E0FFF7F3
:102400007DF902463B69D31A022B01D903233DE033
:10241000114B1B6803F00073002BF0D035E0104B1C
:1024200000221A60FFF76AF9386108E0FFF766F9E1
:1024300002463B69D31A022B01D9032326E0064B3F
:102440001B6803F00073002BF0D11EE07B68DB6992
:10245000012B07D1012319E0001002400070004059
:10246000600042420B4B5B68FB60FB6803F4803208
:102470007B681B6A9A4206D1FB6803F470127B6882
:102480005B6A9A4201D0012300E000231846183706
:10249000BD4680BD0010024080B584B000AF7860BA
:1024A00039607B68002B01D10123D0E06A4B1B68A7
:1024B00003F007033A689A4210D9674B1B6823F070
:1024C000070265493B6813430B60634B1B6803F0CD
:1024D00007033A689A4201D00123B8E07B681B6881
:1024E00003F00203002B20D07B681B6803F0040379
:1024F000002B05D0594B5B68584A43F4E0635360A6
:102500007B681B6803F00803002B05D0534B5B6806
:10251000524A43F460535360504B5B6823F0F0021F
:102520007B689B684D4913434B607B681B6803F0D5
:102530000103002B40D07B685B68012B07D1474B20
:102540001B6803F40033002B15D101237FE07B6867
:102550005B68022B07D1414B1B6803F00073002B13
:1025600009D1012373E03D4B1B6803F00203002BEC
:1025700001D101236BE0394B5B6823F003027B68D8
:102580005B68364913434B60FFF7B8F8F8600AE020
:10259000FFF7B4F80246FB68D31A41F2883293423F
:1025A00001D9032353E02D4B5B6803F00C027B68D9
:1025B0005B689B009A42EBD1274B1B6803F0070333
:1025C0003A689A4210D2244B1B6823F00702224932
:1025D0003B6813430B60204B1B6803F007033A680A
:1025E0009A4201D0012332E07B681B6803F00403A8
:1025F000002B08D0194B5B6823F4E0627B68DB6832
:10260000164913434B607B681B6803F00803002BDB
:1026100009D0124B5B6823F460527B681B69DB00B6
:102620000E4913434B6000F021F802460B4B5B68E8
:102630001B0903F00F030A49CB5C22FA03F3094A92
:102640001360094B1B681846FFF716F8002318465D
:102650001037BD4680BD00BF002002400010024080
:10266000143B0008000000200400002080B487B064
:1026700000AF0023FB600023BB6000237B610023CD
:102680007B6000233B611E4B5B68FB60FB6803F0D3
:102690000C03042B02D0082B03D027E0194B3B611D
:1026A00027E0FB689B0C03F00F03174AD35C7B60A9
:1026B000FB6803F48033002B10D0114B5B685B0C7C
:1026C00003F00103114AD35CBB607B680D4A03FB36
:1026D00002F2BB68B2FBF3F37B6104E07B680C4A57
:1026E00002FB03F37B617B693B6102E0054B3B61CD
:1026F00000BF3B6918461C37BD4680BC704700BF11
:102700000010024000127A002C3B00083C3B0008FD
:1027100000093D0080B400AF024B1B681846BD465F
:1027200080BC70470000002080B500AFFFF7F2FFCB
:102730000246054B5B681B0A03F007030349CB5CA9
:1027400022FA03F3184680BD00100240243B000823
:1027500080B485B000AF78600A4B1B680A4AA2FBC0
:1027600003235B0A7A6802FB03F3FB6000BFFB688C
:102770005A1EFA60002BF9D100BF00BF1437BD46C6
:1027800080BC704700000020D34D621080B582B03D
:1027900000AF78607B68002B01D1012341E07B68AA
:1027A00093F83D30DBB2002B06D17B68002283F822
:1027B0003C207868FEF79CFE7B68022283F83D206F
:1027C0007B681A687B6804331946104600F038FCB1
:1027D0007B68012283F846207B68012283F83E2033
:1027E0007B68012283F83F207B68012283F8402028
:1027F0007B68012283F841207B68012283F8422014
:102800007B68012283F843207B68012283F84420FF
:102810007B68012283F845207B68012283F83D20F4
:10282000002318460837BD4680BD000080B485B03F
:1028300000AF78607B6893F83D30DBB2012B01D0AC
:1028400001233AE07B68022283F83D207B681B6805
:10285000DA687B681B6842F00102DA607B681B68FB
:10286000184A93420ED07B681B68B3F1804F09D0A1
:102870007B681B68144A934204D07B681B68134A28
:10288000934211D17B681B689B6803F00703FB60D0
:10289000FB68062B10D07B681B681A687B681B6876
:1028A00042F001021A6007E07B681B681A687B68C7
:1028B0001B6842F001021A60002318461437BD4617
:1028C00080BC7047002C014000040040000800401C
:1028D00080B582B000AF78607B68002B01D1012306
:1028E00041E07B6893F83D30DBB2002B06D17B687A
:1028F000002283F83C20786800F039F87B680222D7
:1029000083F83D207B681A687B68043319461046BB
:1029100000F096FB7B68012283F846207B68012249
:1029200083F83E207B68012283F83F207B680122E8
:1029300083F840207B68012283F841207B680122D4
:1029400083F842207B68012283F843207B680122C0
:1029500083F844207B68012283F845207B680122AC
:1029600083F83D20002318460837BD4680BD80B45B
:1029700083B000AF786000BF0C37BD4680BC7047A5
:1029800080B584B000AF786039603B68002B09D116
:102990007B6893F83E30DBB2012B14BF0123002388
:1029A000DBB222E03B68042B09D17B6893F83F300F
:1029B000DBB2012B14BF01230023DBB215E03B681F
:1029C000082B09D17B6893F84030DBB2012B14BF90
:1029D00001230023DBB208E07B6893F84130DBB2CF
:1029E000012B14BF01230023DBB2002B01D00123F4
:1029F0005EE03B68002B04D17B68022283F83E2016
:102A000013E03B68042B04D17B68022283F83F204B
:102A10000BE03B68082B04D17B68022283F840203E
:102A200003E07B68022283F841207B681B68012257
:102A30003968184600F084FD7B681B681E4A934283
:102A400007D17B681B685A6C7B681B6842F40042A4
:102A50005A647B681B68184A93420ED07B681B68D7
:102A6000B3F1804F09D07B681B68144A934204D0AD
:102A70007B681B68124A934211D17B681B689B6874
:102A800003F00703FB60FB68062B10D07B681B6814
:102A90001A687B681B6842F001021A6007E07B68D5
:102AA0001B681A687B681B6842F001021A600023E9
:102AB00018461037BD4680BD002C01400004004080
:102AC0000008004080B582B000AF78607B681B686A
:102AD0001B6903F00203022B22D17B681B68DB68B1
:102AE00003F00203022B1BD17B681B686FF002020C
:102AF0001A617B6801221A777B681B689B6903F067
:102B00000303002B03D0786800F07FFA05E07868B3
:102B100000F072FA786800F081FA7B6800221A7778
:102B20007B681B681B6903F00403042B22D17B68BC
:102B30001B68DB6803F00403042B1BD17B681B6854
:102B40006FF004021A617B6802221A777B681B68A7
:102B50009B6903F44073002B03D0786800F055FAAA
:102B600005E0786800F048FA786800F057FA7B686A
:102B700000221A777B681B681B6903F00803082B87
:102B800022D17B681B68DB6803F00803082B1BD18C
:102B90007B681B686FF008021A617B6804221A7751
:102BA0007B681B68DB6903F00303002B03D07868A4
:102BB00000F02BFA05E0786800F01EFA786800F063
:102BC0002DFA7B6800221A777B681B681B6903F06B
:102BD0001003102B22D17B681B68DB6803F0100305
:102BE000102B1BD17B681B686FF010021A617B6889
:102BF00008221A777B681B68DB6903F44073002B9B
:102C000003D0786800F001FA05E0786800F0F4F984
:102C1000786800F003FA7B6800221A777B681B68EB
:102C20001B6903F00103012B0ED17B681B68DB6875
:102C300003F00103012B07D17B681B686FF00102D1
:102C40001A61786800F0CFF97B681B681B6903F094
:102C50008003802B0ED17B681B68DB6803F0800348
:102C6000802B07D17B681B686FF080021A6178683F
:102C700000F0F1FC7B681B681B6903F04003402BEC
:102C80000ED17B681B68DB6803F04003402B07D143
:102C90007B681B686FF040021A61786800F0C7F922
:102CA0007B681B681B6903F02003202B0ED17B6817
:102CB0001B68DB6803F02003202B07D17B681B68AF
:102CC0006FF020021A61786800F0BCFC00BF083782
:102CD000BD4680BD80B586B000AFF860B9607A604F
:102CE0000023FB75FB6893F83C30012B01D10223D4
:102CF000AEE0FB68012283F83C207B680C2B00F2DD
:102D00009F8001A252F823F03D2D0008412E0008BB
:102D1000412E0008412E00087D2D0008412E00089C
:102D2000412E0008412E0008BF2D0008412E00084A
:102D3000412E0008412E0008FF2D0008FB681B688B
:102D4000B968184600F0DEF9FB681B689A69FB68F1
:102D50001B6842F008029A61FB681B689A69FB686D
:102D60001B6822F004029A61FB681B689969BB68C2
:102D70001A69FB681B680A439A6164E0FB681B6878
:102D8000B968184600F024FAFB681B689A69FB686A
:102D90001B6842F400629A61FB681B689A69FB68D1
:102DA0001B6822F480629A61FB681B689969BB68A2
:102DB0001B691A02FB681B680A439A6143E0FB68BF
:102DC0001B68B968184600F06DFAFB681B68DA6981
:102DD000FB681B6842F00802DA61FB681B68DA696D
:102DE000FB681B6822F00402DA61FB681B68D96982
:102DF000BB681A69FB681B680A43DA6123E0FB6859
:102E00001B68B968184600F0B7FAFB681B68DA69F6
:102E1000FB681B6842F40062DA61FB681B68DA69D0
:102E2000FB681B6822F48062DA61FB681B68D96961
:102E3000BB681B691A02FB681B680A43DA6102E07F
:102E40000123FB7500BFFB68002283F83C20FB7D5B
:102E500018461837BD4680BD80B584B000AF786095
:102E600039600023FB737B6893F83C30012B01D160
:102E70000223B4E07B68012283F83C207B680222B5
:102E800083F83D207B681B689B68BB60BB6823F0B0
:102E90007703BB60BB6823F47F43BB607B681B6820
:102EA000BA689A603B681B68B3F5005F3ED0B3F523
:102EB000005F00F28780B3F5805F00F08680B3F595
:102EC000805F7FD8702B1AD0702B7BD8602B50D0AE
:102ED000602B77D8502B3CD0502B73D8402B58D038
:102EE000402B6FD8302B64D0302B6BD8202B60D088
:102EF000202B67D8002B5CD0102B5AD062E07B6867
:102F000018683B6899683B685A683B68DB6800F062
:102F1000F8FA7B681B689B68BB60BB6843F077036B
:102F2000BB607B681B68BA689A604FE07B68186872
:102F30003B6899683B685A683B68DB6800F0E1FAD7
:102F40007B681B689A687B681B6842F480429A60C1
:102F50003CE07B6818683B6859683B68DB681A4648
:102F600000F058FA7B681B685021184600F0AFFA51
:102F70002CE07B6818683B6859683B68DB681A4638
:102F800000F076FA7B681B686021184600F09FFA13
:102F90001CE07B6818683B6859683B68DB681A4628
:102FA00000F038FA7B681B684021184600F08FFA61
:102FB0000CE07B681A683B681B681946104600F0F5
:102FC00086FA03E00123FB7300E000BF7B68012267
:102FD00083F83D207B68002283F83C20FB7B184669
:102FE0001037BD4680BD80B483B000AF786000BFAD
:102FF0000C37BD4680BC704780B483B000AF7860AA
:1030000000BF0C37BD4680BC704780B483B000AFB2
:10301000786000BF0C37BD4680BC704780B483B079
:1030200000AF786000BF0C37BD4680BC704780B4ED
:1030300083B000AF786000BF0C37BD4680BC7047DE
:1030400080B485B000AF786039607B681B68FB6036
:103050007B68294A93420BD07B68B3F1804F07D03D
:103060007B68264A934203D07B68254A934208D165
:10307000FB6823F07003FB603B685B68FA681343EE
:10308000FB607B681C4A93420BD07B68B3F1804F96
:1030900007D07B68194A934203D07B68184A934251
:1030A00008D1FB6823F44073FB603B68DB68FA6877
:1030B0001343FB60FB6823F080023B685B691343AA
:1030C000FB607B68FA681A603B689A687B68DA6222
:1030D0003B681A687B689A627B68074A934203D10F
:1030E0003B681A697B681A637B6801225A6100BFDA
:1030F0001437BD4680BC7047002C014000040040DE
:103100000008004080B487B000AF786039607B6809
:103110001B6A7B617B681B6A23F001027B681A6271
:103120007B685B683B617B689B69FB60FB6823F0A5
:103130007003FB60FB6823F00303FB603B681B68C4
:10314000FA681343FB607B6923F002037B613B68F1
:103150009B687A6913437B617B681C4A93420CD15C
:103160007B6923F008037B613B68DB687A69134362
:103170007B617B6923F004037B617B68134A934284
:1031800011D13B6923F480733B613B6923F40073E5
:103190003B613B685B693A6913433B613B689B69F0
:1031A0003A6913433B617B683A695A607B68FA6805
:1031B0009A613B685A687B685A637B687A691A62CD
:1031C00000BF1C37BD4680BC704700BF002C0140CB
:1031D00080B487B000AF786039607B681B6A7B6120
:1031E0007B681B6A23F010027B681A627B685B684D
:1031F0003B617B689B69FB60FB6823F4E043FB60F9
:10320000FB6823F44073FB603B681B681B02FA6891
:103210001343FB607B6923F020037B613B689B6861
:103220001B017A6913437B617B681D4A93420DD170
:103230007B6923F080037B613B68DB681B017A6953
:1032400013437B617B6923F040037B617B68144AF5
:10325000934213D13B6923F480633B613B6923F4C0
:1032600000633B613B685B699B003A6913433B61C8
:103270003B689B699B003A6913433B617B683A69F1
:103280005A607B68FA689A613B685A687B689A63FF
:103290007B687A691A6200BF1C37BD4680BC7047E4
:1032A000002C014080B487B000AF786039607B6843
:1032B0001B6A7B617B681B6A23F480727B681A62DD
:1032C0007B685B683B617B68DB69FB60FB6823F0C4
:1032D0007003FB60FB6823F00303FB603B681B6823
:1032E000FA681343FB607B6923F400737B613B68DE
:1032F0009B681B027A6913437B617B681D4A93427A
:103300000DD17B6923F400637B613B68DB681B02A2
:103310007A6913437B617B6923F480637B617B68FB
:10332000144A934213D13B6923F480533B613B69B8
:1033300023F400533B613B685B691B013A6913430B
:103340003B613B689B691B013A6913433B617B68A6
:103350003A695A607B68FA68DA613B685A687B6848
:10336000DA637B687A691A6200BF1C37BD4680BC8D
:10337000704700BF002C014080B487B000AF786078
:1033800039607B681B6A3B617B681B6A23F480524F
:103390007B681A627B685B687B617B68DB69FB60CA
:1033A000FB6823F4E043FB60FB6823F44073FB609D
:1033B0003B681B681B02FA681343FB603B6923F4FC
:1033C00000533B613B689B681B033A6913433B61B5
:1033D0007B680F4A934209D17B6923F480437B6168
:1033E0003B685B699B017A6913437B617B687A69FF
:1033F0005A607B68FA68DA613B685A687B681A64CD
:103400007B683A691A6200BF1C37BD4680BC7047B2
:10341000002C014080B487B000AFF860B9607A60DA
:10342000FB681B6A7B61FB681B6A23F00102FB6877
:103430001A62FB689B693B613B6923F0F0033B61C7
:103440007B681B013A6913433B617B6923F00A03E4
:103450007B617A69BB6813437B61FB683A699A6157
:10346000FB687A691A6200BF1C37BD4680BC704792
:1034700080B487B000AFF860B9607A60FB681B6AFF
:103480007B61FB681B6A23F01002FB681A62FB6811
:103490009B693B613B6923F470433B617B681B0381
:1034A0003A6913433B617B6923F0A0037B61BB68EE
:1034B0001B017A6913437B61FB683A699A61FB6877
:1034C0007A691A6200BF1C37BD4680BC704780B461
:1034D00085B000AF786039607B689B68FB60FB68F3
:1034E00023F07003FB603A68FB68134343F0070363
:1034F000FB607B68FA689A6000BF1437BD4680BCE9
:10350000704780B487B000AFF860B9607A603B6004
:10351000FB689B687B617B6923F47F437B613B682D
:103520001A027B681A43BB6813437A6913437B61B1
:10353000FB687A699A6000BF1C37BD4680BC704743
:1035400080B487B000AFF860B9607A60BB6803F000
:103550001F03012202FA03F37B61FB681A6A7B698D
:10356000DB431A40FB681A62FB681A6ABB6803F007
:103570001F03796801FA03F31A43FB681A6200BF5C
:103580001C37BD4680BC704780B485B000AF786002
:1035900039607B6893F83C30012B01D1022346E06F
:1035A0007B68012283F83C207B68022283F83D205F
:1035B0007B681B685B68FB607B681B689B68BB6003
:1035C000FB6823F07003FB603B681B68FA681343D9
:1035D000FB607B681B68FA685A607B681B68164A48
:1035E00093420ED07B681B68B3F1804F09D07B6893
:1035F0001B68124A934204D07B681B68104A9342AE
:103600000CD1BB6823F08003BB603B685B68BA6881
:103610001343BB607B681B68BA689A607B680122B1
:1036200083F83D207B68002283F83C200023184665
:103630001437BD4680BC7047002C01400004004098
:103640000008004080B483B000AF786000BF0C3742
:10365000BD4680BC704780B483B000AF786000BFC7
:103660000C37BD4680BC704780B586B000AF07F10F
:10367000080300221A605A609A60DA60194B9B694D
:10368000184A43F008039361164B9B6903F0080343
:103690007B607B681123FB604FF48063BB60002379
:1036A0003B6103237B6107F1080319460E48FEF7CF
:1036B00061F94FF40063BB6007F1080319460A483B
:1036C000FEF758F901224FF480610748FEF7EDFA42
:1036D00001224FF400610448FEF7E7FA00BF1837F3
:1036E000BD4680BD00100240000C014080B500AF17
:1036F00001224FF400610B48FEF7D7FA01224FF484
:1037000080610848FEF7D1FA00224FF400610548B5
:10371000FEF7CBFA00224FF480610248FEF7C5FAAB
:1037200000BF80BD000C014080B500AF00224FF407
:1037300000610848FEF7B9FA01224FF4806105489C
:10374000FEF7B3FA01224FF400610248FEF7ADFA2A
:1037500000BF80BD000C014080B584B000AF0346BF
:10376000FB710023FB731EE0FB7B802242FA03F314
:103770005AB297F9073013405BB2DBB21A464FF4E6
:1037800000611248FEF791FA01224FF480610F4860
:10379000FEF78BFA00224FF480610C48FEF785FAA1
:1037A000FB7B0133FB73FB7B072BDDD901224FF43D
:1037B00080610648FEF779FA00224FF480610348E1
:1037C000FEF773FA00BF1037BD4680BD000C014004
:1037D00080B582B000AF0346FB71FFF787FF78200A
:1037E000FFF7BAFF0020FFF7B7FFFB791846FFF796
:1037F000B3FFFFF799FF00BF0837BD4680BD80B516
:1038000082B000AF0346FB71FFF770FF7820FFF72F
:10381000A3FF4020FFF7A0FFFB791846FFF79CFFAE
:10382000FFF782FF00BF0837BD4680BD80B582B07C
:1038300000AF03460A46FB711346BB71FB7963F088
:103840004F03DBB21846FFF7C3FFBB791B09DBB29E
:1038500043F01003DBB21846FFF7BAFFBB7903F061
:103860000F03DBB21846FFF7B3FF00BF0837BD46B2
:1038700080BD80B582B000AF0023BB7114E0BB797E
:1038800000211846FFF7D2FF0023FB7105E000205E
:10389000FFF7B5FFFB790133FB7197F90730002B78
:1038A000F5DABB790133BB71BB79072BE7D900BFD0
:1038B00000BF0837BD4680BD80B584B000AF034669
:1038C000FB710B46BB7113467B71FB79013BDBB28D
:1038D0005B00DAB2BB79013BDBB2DB00DBB219463D
:1038E0001046FFF7A3FF0023FB730EE07B79A3F1E3
:1038F0002002FB7B1C4912010A4413441B78184622
:10390000FFF77DFFFB7B0133FB73FB7B072BEDD9BF
:10391000FB79013BDBB25B00DBB20133DAB2BB798E
:10392000013BDBB2DB00DBB219461046FFF77EFF3E
:103930000023FB730FE07B79A3F12002FB7B0833AC
:10394000094912010A4413441B781846FFF757FF30
:10395000FB7B0133FB73FB7B072BECD900BF00BF64
:103960001037BD4680BD00BF403B000880B584B025
:1039700000AF03463A60FB710B46BB710023FB733B
:103980000EE0BA79FB7B1344D9B2FB7B3A6813444F
:103990001A78FB791846FFF78FFFFB7B0133FB7327
:1039A000FB7B3A6813441B78002BEAD100BF00BFB1
:1039B0001037BD4680BD80B582B000AF00237B606C
:1039C0000CE000233B6002E03B6801333B603B6856
:1039D000B3F57A7FF8D37B6801337B607B68B3F5FE
:1039E0007A7FEED3FFF740FEAE20FFF7F1FED52041
:1039F000FFF7EEFE8020FFF7EBFEA820FFF7E8FEC2
:103A00003F20FFF7E5FED320FFF7E2FE0020FFF79F
:103A1000DFFE4020FFF7DCFEA120FFF7D9FEC82023
:103A2000FFF7D6FEDA20FFF7D3FE1220FFF7D0FE15
:103A30008120FFF7CDFECF20FFF7CAFED920FFF788
:103A4000C7FEF120FFF7C4FEDB20FFF7C1FE3020E8
:103A5000FFF7BEFEA420FFF7BBFEA620FFF7B8FECF
:103A60008D20FFF7B5FE1420FFF7B2FEAF20FFF761
:103A7000AFFEFFF7FEFE00BF0837BD4680BD034620
:103A80000244934200D1704703F8011BF9E700009C
:103A900070B500260C4D0D4C641BA410A64209D134
:103AA00000F01AF800260A4D0A4C641BA410A64226
:103AB00005D170BD55F8043B98470136EEE755F83F
:103AC000043B98470136F2E7D0410008D041000896
:103AD000D0410008D4410008F8B500BFF8BC08BCCC
:103AE0009E467047F8B500BFF8BC08BC9E467047BC
:103AF00072756262697368206E6F742066756C6C93
:103B000000000000727562626973682066756C6CF3
:103B1000000000000000000000000000010203049B
:103B2000060708090000000001020304020304055F
:103B3000060708090A0B0C0D0E0F101001020000F9
:103B40000000000000000000000000000000000075
:103B5000000000F80000000000000033300000000A
:103B600000100C06100C0600000000000000000011
:103B700040C07840C0784000043F04043F04040083
:103B8000007088FC08300000001820FF211E000093
:103B9000F008F000E018000000211C031E211E00A8
:103BA00000F00888700000001E212324192721102E
:103BB00010160E00000000000000000000000000D1
:103BC000000000E018040200000000071820400078
:103BD00000020418E0000000004020180700000068
:103BE000404080F0804040000202010F01020200CC
:103BF000000000F0000000000101011F01010100B0
:103C0000000000000000000080B070000000000014
:103C1000000000000000000000010101010101019D
:103C20000000000000000000003030000000000034
:103C30000000000080601804006018060100000009
:103C400000E010080810E000000F102020100F0006
:103C5000001010F8000000000020203F202000008D
:103C600000700808088870000030282422213000E5
:103C700000300888884830000018202020110E00ED
:103C80000000C02010F8000000070424243F240096
:103C900000F80888880808000019212020110E006B
:103CA00000E0108888180000000F112020110E007D
:103CB00000380808C83808000000003F0000000075
:103CC0000070880808887000001C222121221C0036
:103CD00000E010080810E0000000312222110F005F
:103CE000000000C0C00000000000003030000000F4
:103CF0000000008000000000000080600000000064
:103D0000000080402010080000010204081020007C
:103D100040404040404040000404040404040400C7
:103D2000000810204080000000201008040201005C
:103D3000007048080808F00000000030360100005C
:103D4000C030C828E810E0000718272423140B000F
:103D50000000C038E0000000203C23020227382089
:103D600008F8888888700000203F202020110E006D
:103D7000C030080808083800071820202010080064
:103D800008F808080810E000203F202020100F004D
:103D900008F88888E8081000203F20202320180019
:103DA00008F88888E8081000203F20000300000081
:103DB000C03008080838000007182020221E020022
:103DC00008F808000008F808203F210101213F20E1
:103DD000000808F8080800000020203F202000000C
:103DE00000000808F8080800C08080807F000000FC
:103DF00008F888C028180800203F20012638200035
:103E000008F8080000000000203F2020202030009B
:103E100008F8F800F8F80800203F003F003F2000B5
:103E200008F830C00008F808203F200007183F00BD
:103E3000E01008080810E0000F10202020100F00EC
:103E400008F808080808F000203F210101010000DF
:103E5000E01008080810E0000F18242438504F0024
:103E600008F8888888887000203F2000030C3020E4
:103E700000708808080838000038202121221C0022
:103E8000180808F8080818000000203F200000006B
:103E900008F808000008F808001F202020201F0054
:103EA0000878880000C83808000007380E010000B4
:103EB000F80800F80008F800033C0700073C03007E
:103EC000081868808068180820302C03032C3020E4
:103ED0000838C800C83808000000203F2000000053
:103EE00010080808C83808002038262120201800AB
:103EF000000000FE020202000000007F404040007F
:103F0000000C30C000000000000000010638C000B6
:103F100000020202FE000000004040407F0000005E
:103F20000000040202020400000000000000000083
:103F30000000000000000000808080808080808081
:103F40000002020400000000000000000000000069
:103F500000008080808000000019242222223F205F
:103F600008F8008080000000003F112020110E00A2
:103F70000000008080800000000E11202020110031
:103F8000000000808088F800000E112020103F20E3
:103F90000000808080800000001F22222222130067
:103FA000008080F0888888180020203F20200000B2
:103FB0000000808080808000006B94949493600067
:103FC00008F8008080800000203F210000203F2072
:103FD00000809898000000000020203F2020000072
:103FE000000000809898000000C08080807F000062
:103FF00008F8000080808000203F24022D3020003F
:10400000000808F8000000000020203F20200000E9
:104010008080808080808000203F20003F20003F03
:104020008080008080800000203F210000203F2011
:104030000000808080800000001F202020201F00C2
:10404000808000808000000080FFA12020110E00F1
:104050000000008080808000000E112020A0FF80E2
:10406000808080008080800020203F21200001008F
:1040700000008080808080000033242424241900E4
:10408000008080E0808000000000001F20200000F1
:104090008080000000808000001F202020103F2032
:1040A000808080000080808000010E3008060100C2
:1040B00080800080008080800F300C030C300F0067
:1040C00000808000808080000020312E0E31200092
:1040D000808080000080808080818E7018060100C2
:1040E00000808080808080000021302C22213000E0
:1040F00000000000807C020200000000003F404001
:1041000000000000FF00000000000000FF000000B1
:104110000002027C800000000040403F00000000E0
:10412000000601010202040400000000000000007B
:10413000201020302010FF0F200820481040904110
:10414000115E16401070104ED0411040004000002B
:10415000200820182008FF0720442234028EFE8108
:104160000246022862105A284646C081008000009C
:1041700000000000E23F8240824082408240824054
:10418000824082408240FE400040007800000000F3
:104190008020802088108808880488028801FFFF1A
:1041A0008801880288048808881080208020000008
:1041B00010046004027E8C01000024FF24112F09EA
:1041C000E40724192409E4072F492491247F0000DF
:0441D00035010008AD
:0441D40011010008CD
:0C41D8000024F4001000000001000000B2
:0400000508001601D8
:00000001FF
